:020000040800F2
:10000000B03300204D020008695200082D4B000853
:1000100065520008890500080DA1000800000000D5
:100020000000000000000000000000003190000807
:100030000D09000800000000B16C0008999000084C
:1000400067020008670200086702000867020008EC
:1000500067020008670200086702000867020008DC
:1000600067020008670200086702000867020008CC
:1000700067020008210600086702000867020008FE
:100080003106000841060008670200086702000800
:100090008D05000867020008670200086702000873
:1000A000B5910008D5910008C591000867020008C5
:1000B000E59100086702000867020008670200086F
:1000C000670200086702000867020008670200086C
:1000D0006702000889A00008FDA000086702000868
:1000E000670200086702000867020008670200084C
:1000F000670200086702000867020008670200083C
:10010000670200086702000867020008670200082B
:1001100045980008670200086702000867020008A7
:10012000670200086702000851060008670200081D
:1001300067020008670200086702000867020008FB
:100140009D050008670200086702000867020008B2
:1001500067020008670200086702000867020008DB
:1001600067020008670200086702000867020008CB
:10017000670200086702000867020008000000002C
:100180006702000867020008E99800086702000893
:10019000670200086702000867020008670200089B
:1001A00000000000000000006702000800F002F8F4
:1001B00000F03CF80AA090E8000C82448344AAF1C5
:1001C0000107DA4501D100F031F8AFF2090EBAE8C3
:1001D0000F0013F0010F18BFFB1A43F0010318477B
:1001E0006CE400008CE40000103A24BF78C878C1A9
:1001F000FAD8520724BF30C830C144BF04680C602D
:10020000704700000023002400250026103A28BF74
:1002100078C1FBD8520728BF30C148BF0B60704778
:100220001FB50EF034F91FBD10B510BD00F071F907
:100230001146FFF7F5FF0AF0F1FF00F08FF903B464
:10024000FFF7F2FF03BC00F097F900000948804770
:1002500009480047FEE7FEE7FEE7FEE7FEE7FEE7A8
:10026000FEE7FEE7FEE7FEE704480549054A064BC0
:1002700070470000A1910008AD010008B02D0020DA
:10028000B0330020B02F0020B02F002053EA020C22
:1002900000F069802DE9F04B4FF00006002B1FBFE6
:1002A000B3FA83F503FA05F424FA05F65E4012BFAB
:1002B0001643B2FA82F502FA05F4C5F120051EBF15
:1002C00022FA05FC44EA0C04203556EA044C4FEAB5
:1002D000144418BF641C4FF000084FF0000990420E
:1002E00071EB030C39D3002919BFB1FA81F701FA78
:1002F00007F6B0FA80F700FA07F6C7F120071EBF2D
:1003000020FA07FC46EA0C062037B6FBF4FCA7EB04
:100310000507103F07F01F0BCBF120062CFA06F65D
:100320000CFA0BFB44BFB3460026202FA4BF5E4649
:100330004FF0000B5BEA060C08BF4FF0010B19EB06
:100340000B0948EB0608ABFB027C06FB02CC0BFB5F
:1003500003CCC01B71EB0C01C1E70B4602464146C2
:100360004846BDE8F08B13B5084318BF4FF0FF3087
:100370000146AFF30080BDE81C407047032A40F2FD
:10038000308010F0030C00F0158011F8013BBCF137
:10039000020F624498BF11F801CB00F8013B38BF4F
:1003A00011F8013BA2F1040298BF00F801CB38BF5D
:1003B00000F8013B11F0030300F07980083AC0F027
:1003C000088051F8043B083A51F804CBA0E8081023
:1003D000F5E7121D5CBF51F8043B40F8043BAFF356
:1003E0000080D20724BF11F8013B11F801CB48BFB0
:1003F00011F8012B24BF00F8013B00F801CB48BFE6
:1004000000F8012B704702F0FF0343EA032242EA9F
:10041000024200F024B84FF000020429C0F012801C
:1004200010F0030C00F01B80CCF1040CBCF1020FA7
:1004300018BF00F8012BA8BF20F8022BA1EB0C017C
:1004400000F00DB85FEAC17C24BF00F8012B00F872
:10045000012B48BF00F8012B70474FF0000200B598
:10046000134694469646203922BFA0E80C50A0E8D7
:100470000C50B1F12001BFF4F7AF090728BFA0E885
:100480000C5048BF0CC05DF804EB890028BF40F851
:10049000042B08BF704748BF20F8022B11F0804F93
:1004A00018BF00F8012B704770477047704710B5B0
:1004B000203AC0F00B80B1E81850A0E81850B1E81D
:1004C0001850A0E81850203ABFF4F5AF5FEA027C5C
:1004D00024BFB1E81850A0E8185044BF18C918C08C
:1004E000BDE810405FEA827C24BF51F8043B40F82D
:1004F000043B08BF7047D20728BF31F8023B48BF12
:1005000011F8012B28BF20F8023B48BF00F8012B4F
:100510007047754600F02CF8AE4605006946534614
:1005200020F00700854618B020B5FFF79DFEBDE816
:1005300020404FF000064FF000074FF000084FF04A
:10054000000BAC46ACE8C009ACE8C009ACE8C00997
:10055000ACE8C00921F007018D46704710B504468C
:10056000AFF300802046BDE81040FFF768BE0000F2
:10057000004870475800002001491820ABBEFEE734
:100580002600020070470000FFE7FEE780B540F656
:100590009C50C2F2000000F085FD80BD80B540F6A1
:1005A000C450C2F2000000F07DFD80BD80B586B071
:1005B00040F2B801C2F2000102910E20039048629D
:1005C000486101220A6200208861CA6108604860AF
:1005D0008860C8604861086140F69C50C2F2000023
:1005E000019000F091FB019801F0C0F901980221FF
:1005F000049100F0A7FA029903984862486140F616
:10060000C450C2F20000059000F07EFB059801F096
:10061000ADF90499059800F095FA06B080BD000088
:1006200080B540F6F450C2F2000001F0D9FA80BD66
:1006300080B540F6B460C2F2000001F0D1FA80BD8E
:1006400080B540F61470C2F2000001F0C9FA80BD16
:1006500080B540F65460C2F2000001F0C1FA80BDDE
:1006600082B001900198007810384AF6AB21CAF6A2
:10067000AA21A0FB01100009009000994EF21C6015
:10068000C0F60000405C0199C8650098042807D3B3
:10069000FFE701990868042262F30900886506E013
:1006A0000199086840F2FF3290438865FFE701989E
:1006B000806D02B07047000086B0059000208DF874
:1006C00013000598806A03900598806910BBFFE7C6
:1006D0000398029003281BD80299DFE801F0020D6D
:1006E0000218059890F82F00C00720B1FFE70120FD
:1006F0008DF81300FFE70CE00598C06AB0F1C07FE9
:1007000004D1FFE701208DF81300FFE701E000E0CE
:10071000FFE745E005988069B0F5005F25D1FFE768
:100720000398019003281ED80199DFE801F0020622
:10073000021101208DF8130016E0059890F82F00A3
:10074000C00720B1FFE701208DF81300FFE70BE0A1
:100750000598C06AB0F1C07F04D1FFE701208DF891
:100760001300FFE700E0FFE719E00398009003287B
:1007700004D3FFE70098032804D00EE001208DF891
:1007800013000BE0059890F82F00C00720B1FFE799
:1007900001208DF81300FFE700E0FFE7FFE7FFE728
:1007A0009DF8130006B0704784B003900291019247
:1007B000009303980168086820F48020086000987E
:1007C00003990968486003988068402809D1FFE7C9
:1007D0000198039909688860029803990968C860BC
:1007E00008E00298039909688860019803990968EC
:1007F000C860FFE704B0704781B041F20400CEF258
:10080000000000680090009840F2EC01C2F2000184
:100810000968884208D2FFE740F2F001C2F2000105
:10082000086801300860FFE7009840F2EC01C2F26E
:100830000001086001B0704780B584B0039041F2B8
:100840000400CEF200000068029002980399096843
:10085000401A00EE100AB8EE400A40F2E000C2F280
:10086000000090ED001AB8EE411A80EE010A8DEDFD
:10087000010A029803990860FFF7BEFF9DED010A87
:1008800004B080BD81B000904EF6FC51CEF2000164
:10089000086840F08070086041F20401CEF2000167
:1008A0000020086041F20002CEF20002116841F01F
:1008B00001011160009944F24022C0F20F024A4344
:1008C00040F2E001C2F200010A600A6844F6D35324
:1008D000C1F26203A2FB0332920940F2E403C2F2C6
:1008E00000031A6009684DF68362C4F21B32A1FB53
:1008F0000221890C40F2E802C2F20002116040F2CB
:10090000F001C2F20001086001B0704770470000BA
:1009100081B0EFF3108072B60090FFE7FEE70000B1
:1009200080B582B001908DED000A01981830FFF774
:1009300083FF019910EE100AC8619DED000A01992C
:10094000C868CB690A6A01EE103A20EE010A03EE8C
:10095000102A33EE012A80EE020A01EE100A21EE7F
:10096000031A81EE021A30EE010A10EE100AC86076
:100970000198008E032810DBFFE7019A02F1320094
:10098000D168D26900EE102A00EE901A04F0A4FC9F
:10099000019910EE100A486211E00199CB680A69CA
:1009A000C86900EE103A01EE102A30EE410A01EE5D
:1009B000100A80EE010A10EE100A4862FFE7019863
:1009C000B0F85C00032810DBFFE7019901F15E003D
:1009D000CA69496A00EE102A00EE901A04F07CFC05
:1009E000019910EE100A886211E00199C8694B6AFA
:1009F000CA6A00EE103A01EE102A30EE410A01EE0A
:100A0000100A80EE010A10EE100A8862FFE70199D1
:100A1000D1F800C04A688868CB6800EE10CA02EEC0
:100A2000103A01EE102A4A6A03EE102A21EE031A48
:100A300020EE020A30EE011A00EE100A886A02EE79
:100A4000100A20EE020A30EE010A10EE100AC1F878
:100A500088000198D0F88810D0F88C0000EE101AA9
:100A600001EE100AF1EE410A09F030FC019910EE96
:100A7000100AC1F888000199C86808610199486A9C
:100A8000C8620198D0F8880000EE100A02B080BD5C
:100A900080B586B005908DED040A0391CDED020A74
:100AA000ADF80620ADF8043004980599C1F88C0023
:100AB000039880B1FFE7059868B1FFE703980068E5
:100AC0000599086003984068059948600398806814
:100AD000059988600AE0059900200860059948603A
:100AE000059988600599C1F88C00FFE7029805997F
:100AF0000862BDF8060005990886BDF8040005994E
:100B0000A1F85C00BDF80600032807DBFFE70598A5
:100B10003230BDF8061004F041FDFFE7BDF80400D7
:100B2000032807DBFFE705985E30BDF8041004F0EA
:100B300035FDFFE70599002088610599C1F8880017
:100B400006B080BD84B002900191029890F8200018
:100B50008DF803009DF80300012805D0FFE79DF8FC
:100B6000030002280AD1FFE7019A02980168486948
:100B70001043486100208DF80F0008E00299486A90
:100B800040F48020486201208DF80F00FFE79DF8B7
:100B90000F0004B07047000088B0069005910492E1
:100BA0000393069890F820008DF8070006980068D7
:100BB000806800900598806808B9FFE700E0FFE7CB
:100BC0009DF80700012806D0FFE79DF807000228DE
:100BD00040F08D80FFE79DF80300400700280CD40B
:100BE000FFE79DF803000007002806D4FFE79DF803
:100BF0000300C006002871D5FFE70098C0F301602C
:100C000002900298032809D3FFE70699486A40F446
:100C10000000486201208DF81F0071E00299012058
:100C20008840039908600598806868B9FFE70598CF
:100C30000168C06840EA415006990968029A01EBD0
:100C40000211C1F880010EE005994A688868C968F8
:100C500040EAC200084306990968029A01EB0211B2
:100C6000C1F88001FFE70598006906990968029AB2
:100C700001EB0211C1F884010598007D01280CD117
:100C8000FFE706980068029900EB0111D1F8840192
:100C900040F48070C1F88401FFE704984068069929
:100CA0000968029A01EB0211C1F88C0104980068EE
:100CB00006990968029A01EB0211C1F888010698A9
:100CC0000068029900EB0111D1F8800140F00100A9
:100CD000C1F8800100208DF81F0011E00699486AD4
:100CE00040F40010486201208DF81F0008E00699CA
:100CF000486A40F48020486201208DF81F00FFE719
:100D00009DF81F0008B0704786B0049003910498C6
:100D100000680190049890F820008DF803009DF879
:100D20000300012806D0FFE79DF80300022840F0E9
:100D3000B080FFE746F20040C4F200000190019944
:100D4000D1F8000240F00100C1F800020199D1F889
:100D5000000220F47C50C1F800020398426A019915
:100D6000D1F8000240EA0220C1F80002039840696D
:100D700000F01F01012088400290029A0199D1F8E9
:100D80001C029043C1F81C020398C069F0B9FFE748
:100D9000029A0199D1F80C029043C1F80C02039A0F
:100DA0009088D168526940EA0140019901EBC20183
:100DB000C1F84002039A10889168526940EA0140E4
:100DC000019901EBC201C1F84402FFE70398C06931
:100DD00001281ED1FFE7029A0199D1F80C021043B5
:100DE000C1F80C02039A90881168526940EA0140E8
:100DF000019901EBC201C1F84002039A9089916800
:100E0000526940EA0140019901EBC201C1F8440274
:100E1000FFE70398806940B9FFE7029A0199D1F88A
:100E200004029043C1F8040207E0029A0199D1F844
:100E300004021043C1F80402FFE70398006940B9B7
:100E4000FFE7029A0199D1F814029043C1F8140205
:100E500007E0029A0199D1F814021043C1F8140274
:100E6000FFE70398006A012808D1FFE7029A019979
:100E7000D1F81C021043C1F81C02FFE70199D1F818
:100E8000000220F00100C1F8000200208DF81700D8
:100E900008E00499486A40F48020486201208DF8F7
:100EA0001700FFE79DF8170006B0704781B000906B
:100EB00001B0704786B004900391029201930498A8
:100EC00090F820008DF803009DF80300012806D05B
:100ED000FFE79DF80300022840F0D780FFE7039862
:100EE00080B9FFE704980068C068800748B9FFE749
:100EF0000499486A40F40010486201208DF81700F8
:100F0000CCE00FE0049800680069800748B9FFE76B
:100F10000499486A40F40010486201208DF81700D7
:100F2000BCE0FFE704980068039900EB0110D0F8DB
:100F3000B00100F00400029988600298806858B9F6
:100F4000FFE704980068039900EB0110D0F8B001A6
:100F5000400D029908600AE004980068039900EBCC
:100F60000110D0F8B001C00802994860FFE704986A
:100F70000068039900EB0110D0F8B00100F0020006
:100F80000299C86004980068039900EB0110D0F83A
:100F9000B40100F00F0002990861049800680399F9
:100FA00000EB0110D0F8B40180B2000A0299886108
:100FB00004980068039900EB0110D0F8B401000C0C
:100FC0000299486104980068039900EB0110D0F879
:100FD000B8010199087004980068039900EB0110AA
:100FE000D0F8B801000A0199487004980068039984
:100FF00000EB0110D0F8B801000C0199887004983A
:101000000068039900EB0110D0F8B801000E0199B7
:10101000C87004980068039900EB0110D0F8BC0177
:101020000199087104980068039900EB0110D0F849
:10103000BC01000A0199487104980068039900EB0B
:101040000110D0F8BC01000C019988710498006867
:10105000039900EB0110D0F8BC01000E0199C87192
:10106000039838B9FFE704980168C86840F0200089
:10107000C86006E004980168086940F02000086133
:10108000FFE700208DF8170008E00499486A40F453
:101090008020486201208DF81700FFE79DF81700B7
:1010A00006B0704780B58AB0099000200890099872
:1010B00000684069079009980068406806900998A0
:1010C00000688068059009980068C06804900998D5
:1010D00000680069039009980068806902909DF893
:1010E0001C00C007002800F09480FFE79DF8140062
:1010F000C00758B3FFE709980168012088609DF890
:1011000014008007002804D5FFE7099800F078FC58
:101110001BE09DF814004007002805D5FFE708985C
:1011200040F4006008900FE09DF8140000070028CC
:1011300005D5FFE7089840F48050089003E009982F
:1011400000F05AFCFFE7FFE7FFE7FFE79DF8150017
:10115000C00760B3FFE7099801684FF480708860AA
:101160009DF815008007002804D5FFE7099800F0D6
:101170004FFC1BE09DF815004007002805D5FFE750
:10118000089840F4005008900FE09DF81500000703
:10119000002805D5FFE7089840F48040089003E058
:1011A000099800F031FCFFE7FFE7FFE7FFE79DF854
:1011B0001600C00760B3FFE7099801684FF480305C
:1011C00088609DF816008007002804D5FFE709987D
:1011D00000F026FC1BE09DF816004007002805D50E
:1011E000FFE7089840F4004008900FE09DF81600D3
:1011F0000007002805D5FFE7089840F480300890E4
:1012000003E0099800F008FCFFE7FFE7FFE7FFE7CE
:10121000FFE79DF81C000007002810D5FFE79DF8A8
:101220001000C006002809D5FFE7089840F40070B8
:101230000890099801681020C860FFE7FFE79DF853
:101240001C00400700280FD5FFE79DF8100000079D
:10125000002808D5FFE7099801680820C8600998A8
:1012600000F0CCFAFFE7FFE79DF81C00800700289C
:101270000BD5FFE709980068C068800720B1FFE739
:10128000099800F0BFFAFFE7FFE79DF81C00400651
:10129000002810D5FFE79DF80C00C006002809D5EE
:1012A000FFE7089840F480600890099801681020D2
:1012B0000861FFE7FFE79DF81C00800600280FD5B6
:1012C000FFE79DF80C000007002808D5FFE7099804
:1012D000016808200861099800F03CFBFFE7FFE780
:1012E0009DF81C00C00600280BD5FFE70998006890
:1012F0000069800720B1FFE7099800F02FFBFFE7A6
:10130000FFE79DF81E00800700280FD5FFE79DF836
:101310001800C006002808D5FFE7099801681020CA
:101320004860099800F01EFBFFE7FFE79DF81E00EC
:10133000C00778B1FFE79DF818000007002808D51E
:10134000FFE70998016808204860099800F06CFBE5
:10135000FFE7FFE79DF81D000006002840F18D80A3
:10136000FFE79DF818004007002840F18180FFE763
:101370009DF81D00C00750B1FFE79DF80800C007A9
:1013800028B1FFE7089840F001000890FFE79DF8BA
:101390001D00800700280BD5FFE79DF80800800797
:1013A000002805D5FFE7089840F002000890FFE705
:1013B0009DF81D00400700280BD5FFE79DF80800A9
:1013C0004007002805D5FFE7089840F00400089082
:1013D000FFE79DF81D000007002848D5FFE79DF8AE
:1013E000080010F0700F42D0FFE7029800F0700084
:1013F00001460191102814D0FFE70198202815D04C
:10140000FFE70198302816D0FFE70198402817D051
:10141000FFE70198502818D0FFE70198602819D0FD
:101420001DE0089840F00800089019E0089840F086
:101430001000089014E0089840F0200008900FE099
:10144000089840F0400008900AE0089840F08000BA
:10145000089005E0089840F48070089000E0FFE7ED
:1014600009980168886920F070008861FFE7FFE74C
:101470000998016804204860FFE7089848B1FFE731
:10148000089A0999486A104348620998FFF70EFDC7
:10149000FFE70AB080BD000080B584B002900298DA
:1014A00020B9FFE701208DF80F00E0E0029890F8E6
:1014B000200020B9FFE7029800F0DEF8FFE702986D
:1014C0000168086840F00100086001F05BF80190D5
:1014D000FFE7029800684068C007A8B9FFE701F07D
:1014E00051F80199401A0B280DD3FFE70299486A79
:1014F00040F4003048620299052081F82000012064
:101500008DF80F00B3E0E4E702980168086820F066
:101510000200086001F036F80190FFE702980068C9
:1015200040688007002815D5FFE701F02BF80199E6
:10153000401A0B280DD3FFE70299486A40F40030A7
:1015400048620299052081F8200001208DF80F00E3
:101550008DE0E3E70298007E012807D1FFE70298BB
:101560000168086840F08000086006E002980168A1
:10157000086820F080000860FFE70298407E01289C
:1015800007D1FFE702980168086840F04000086052
:1015900006E002980168086820F040000860FFE754
:1015A0000298807E012807D1FFE702980168086849
:1015B00040F02000086006E002980168086820F00A
:1015C00020000860FFE70298C07E012807D1FFE7EE
:1015D00002980168086820F01000086006E0029890
:1015E0000168086840F010000860FFE70298007F7B
:1015F000012807D1FFE702980168086840F0080059
:10160000086006E002980168086820F00800086099
:10161000FFE70298407F012807D1FFE702980168A1
:10162000086840F00400086006E002980168086855
:1016300020F004000860FFE7029B19685A68986868
:10164000D3F80CC040EA0C00D3F810C040EA0C00FC
:101650005B691843013A1043C8610299002048624F
:10166000029A012182F820108DF80F00FFE79DF803
:101670000F0004B080BD000080B590B00F90002036
:101680000E900D900C900B900A900F98006846F207
:101690000041C4F20001884249D1FFE740F26840AE
:1016A000C2F200000168013101600068012812D116
:1016B000FFE7FFE70020099043F64000C4F2020074
:1016C000016841F000710160006800F0007009904D
:1016D0000998FFE7FFE7FFE70020089043F6300096
:1016E000C4F20200016841F008010160006800F0E6
:1016F000080008900898FFE703200A9002210B9148
:10170000002103910C910D9009200E9040F60040AD
:10171000C4F202000AA900F00DFD039A14200490FF
:10172000052101F00BF8049800F0FEFF64E00F982B
:10173000006846F60001C4F2000188425BD1FFE771
:10174000FFE70020079043F64000C4F20200016862
:1017500041F080610160006800F0806007900798A8
:10176000FFE740F26840C2F2000001680131016009
:101770000068012812D1FFE7FFE70020069043F63A
:101780004000C4F20200016841F00071016000688D
:1017900000F0007006900698FFE7FFE7FFE70020E3
:1017A000059043F63000C4F20200016841F00201E6
:1017B0000160006800F0020005900598FFE76020D6
:1017C0000A9002200B90002001900C9003200D90B5
:1017D00009200E9040F20040C4F202000AA900F075
:1017E000A9FC019A40200290052100F0A7FF029871
:1017F00000F09AFFFFE7FFE710B080BD81B00090D6
:1018000001B0704780B584B00390039840F67C52D5
:10181000C2F2000241F2B633C2F200030021FFF728
:1018200049FB039840F69C51C2F2000188424AD11C
:10183000FFE740F67C50C2F200000068A0F20120F1
:101840000146029107283DD80299DFE801F0303BBC
:101850003B3B040F1A2540F60840C2F2000041F25B
:10186000B631C2F2000106F03DFF2BE040F6281031
:10187000C2F2000041F2B631C2F2000106F0C6FE2B
:1018800020E040F69820C2F2000041F2B631C2F2E8
:10189000000106F0BBFE15E040F6C040C2F20000B9
:1018A00041F2B631C2F2000108F048FC0AE040F211
:1018B0009050C2F2000041F2B631C2F2000106F0CF
:1018C000A5FEFFE7FFE7039840F6C451C2F200010E
:1018D00088423DD1FFE740F67C50C2F2000000682C
:1018E000A0F2012001460191032830D80199DFE8D8
:1018F00001F0020D182340F24860C2F2000041F2EC
:10190000B631C2F2000106F0EDFE20E040F20070B8
:10191000C2F2000041F2B631C2F2000106F0E2FE6E
:1019200015E040F2B870C2F2000041F2B631C2F2E6
:10193000000106F0D7FE0AE040F67000C2F2000097
:1019400041F2B631C2F2000106F0CCFEFFE7FFE73C
:1019500004B080BD81B0009001B0704781B00090AC
:1019600001B0704781B0009001B0704780B584B07D
:101970000290029890F8200001282FD1FFE70299E9
:10198000022081F8200002980168086820F0010018
:10199000086000F0F7FD0190FFE7029800684068DA
:1019A000C007A8B1FFE700F0EDFD0199401A0B2830
:1019B0000DD3FFE70299486A40F40030486202996B
:1019C000052081F8200001208DF80F000FE0E4E7EA
:1019D0000299002048628DF80F0008E00299486AD9
:1019E00040F40020486201208DF80F00FFE79DF8C9
:1019F0000F0004B080BD000081B0009001B07047BE
:101A000081B0009001B0704781B0009001B0704784
:101A100081B0009001B0704781B0009001B0704774
:101A200081B0009001B0704781B0009001B0704764
:101A300080B582B00090009820B9FFE701208DF8B2
:101A4000070011E00098407938B9FFE700990020BD
:101A50000871009800F00CF8FFE700990120487128
:101A600000208DF80700FFE79DF8070002B080BD59
:101A700082B001900198006843F20001C4F20201B3
:101A8000884212D1FFE7FFE70020009043F63000C4
:101A9000C4F20200016841F480510160006800F462
:101AA000805000900098FFE7FFE702B07047000009
:101AB00080B584B002900298806D019000F062FDC4
:101AC0000090029890F8350002280DD0FFE70299A7
:101AD00080204865FFE70299002081F83400FFE785
:101AE00001208DF80F0055E002980168086820F089
:101AF0001600086002980168486920F0800048617B
:101B00000298006C20B9FFE70298806C38B1FFE7BB
:101B100002980168086820F008000860FFE7029852
:101B20000168086820F001000860FFE7029800687B
:101B30000068C007C8B1FFE700F024FD0099401A13
:101B4000062811D3FFE70299202048650299032057
:101B500081F83500FFE70299002081F83400FFE7A3
:101B600003208DF80F0015E0E0E70298C16D3F20DB
:101B70008840019988600299012081F83500FFE7CB
:101B80000299002081F83400FFE7FFE700208DF87C
:101B90000F00FFE79DF80F0004B080BD82B00090F9
:101BA000009890F83500022807D0FFE700998020C0
:101BB000486501208DF807000EE00099052081F8A6
:101BC000350000980168086820F001000860FFE710
:101BD00000208DF80700FFE79DF8070002B070476E
:101BE00080B586B005900020039040F22800C2F234
:101BF0000000006848F2B511C1F64E31A0FB01109B
:101C0000800A02900598806D019001980068049008
:101C100004980599C96DC840000700281AD5FFE748
:101C20000598006800684007002812D5FFE705986E
:101C30000168086820F0040008600598C16D08205C
:101C40008840019988600599486D40F00100486519
:101C5000FFE7FFE704980599C96DC840C007A0B128
:101C6000FFE7059800684069000600280CD5FFE7EB
:101C70000598C16D01208840019988600599486DDB
:101C800040F002004865FFE7FFE704980599C96D39
:101C9000C8404007002814D5FFE705980068006891
:101CA000800700280CD5FFE70598C16D0420884007
:101CB000019988600599486D40F004004865FFE788
:101CC000FFE704980599C96DC840C006002847D5AC
:101CD000FFE7059800680068000700283FD5FFE788
:101CE0000598C16D102088400199886005980068AA
:101CF0000068400300281AD5FFE7059800680068CF
:101D00000003002809D4FFE70598006C20B1FFE725
:101D10000598016C8847FFE708E00598806C20B1C2
:101D2000FFE70598816C8847FFE7FFE716E0059815
:101D300000680068C005002807D4FFE7059801681F
:101D4000086820F008000860FFE70598006C20B1E3
:101D5000FFE70598016C8847FFE7FFE7FFE7FFE72C
:101D600004980599C96DC8408006002840F18D800F
:101D7000FFE7059800680068C006002840F18480ED
:101D8000FFE70598C16D202088400199886005987B
:101D900090F83500052834D1FFE7059801680868F8
:101DA00020F01600086005980168486920F080005E
:101DB00048610598006C20B9FFE70598806C38B140
:101DC000FFE705980168086820F008000860FFE751
:101DD0000598C16D3F2088400199886005990120D0
:101DE00081F83500FFE70599002081F83400FFE70E
:101DF0000598006D20B1FFE70598016D8847FFE762
:101E00007BE0059800680068400300281AD5FFE7CA
:101E10000598006800680003002809D4FFE70598CA
:101E2000406C20B1FFE70598416C8847FFE708E068
:101E30000598C06B20B1FFE70598C16B8847FFE7A5
:101E4000FFE720E0059800680068C005002811D46D
:101E5000FFE705980168086820F010000860059900
:101E6000012081F83500FFE70599002081F8340052
:101E7000FFE7FFE70598C06B20B1FFE70598C16B4E
:101E80008847FFE7FFE7FFE7FFE70598406DA0B34E
:101E9000FFE70598406DC00730B3FFE705990520BF
:101EA00081F8350005980168086820F00100086095
:101EB000FFE70398013003900299884201D9FFE7B8
:101EC00007E0FFE7059800680068C0070028F0D128
:101ED000FFE70599012081F83500FFE7059900200B
:101EE00081F83400FFE7FFE70598C06C20B1FFE7F9
:101EF0000598C16C8847FFE7FFE706B080BD00008A
:101F000080B586B004900020039000F03BFB029067
:101F1000049820B9FFE701208DF81700A3E004988A
:101F2000406A08B1FFE7FFE70499022081F8350015
:101F3000FFE70499002081F83400FFE70498016866
:101F4000086820F001000860FFE704980068006856
:101F5000C00790B1FFE700F015FB0299401A062870
:101F60000AD3FFE70499202048650499032081F8EB
:101F700035008DF8170076E0E7E704980068006800
:101F80000390039848F23F01CFF2100108400390FC
:101F9000049900914868D1F808C0CB680A6940EA02
:101FA0000C00184310434A6910438A691043CA69F8
:101FB0001043096A01430398084303900498406A58
:101FC000042808D1FFE70499C86A096B0143039804
:101FD00008430390FFE70398049909680860049890
:101FE000006840690390039820F00700039004986C
:101FF000416A0398084303900498406A04281AD160
:10200000FFE70498816A0398084303900498C06A24
:1020100080B1FFE70498FEF74FFB50B1FFE704994A
:10202000402048650499012081F835008DF817009B
:1020300019E0FFE7FFE703980499096848610498ED
:10204000FEF70EFB01900498C16D3F208840019976
:102050008860049900204865049A012182F83510AF
:102060008DF81700FFE79DF8170006B080BD00004F
:1020700080B588B0069005910492039300208DF8F6
:102080000B000698806D0190FFE7069890F83400E9
:10209000012804D1FFE702208DF81F0045E00699D2
:1020A000012081F83400FFE7FFE7069890F835003B
:1020B00001282BD1FFE70699022081F83500069907
:1020C0000020486506980599049A039BFEF76CFB6F
:1020D0000698C16D3F208840019988600698016884
:1020E000086840F0160008600698006C38B1FFE7F9
:1020F00006980168086840F008000860FFE7069845
:102100000168086840F00100086009E0FFE70699EF
:10211000002081F83400FFE702208DF80B00FFE774
:102120009DF80B008DF81F00FFE79DF81F0008B019
:1021300080BD000090B00F900E9100200C900B908D
:102140000A900D90FFE70D980F2800F2E881FFE755
:102150000D99012088400C900E9800680C99084059
:102160000B900B980C99884240F0D481FFE70E98B1
:10217000406800F00300012807D0FFE70E98406890
:1021800000F0030002282FD1FFE70F9880680A9023
:102190000D984100032000FA01F10A9888430A9043
:1021A0000E98C0680D99490000FA01F10A98084399
:1021B0000A900A980F9988600F9840680A900D99C4
:1021C000012000FA01F10A9888430A900E984068AD
:1021D000C0F300100D9900FA01F10A9808430A9023
:1021E0000A980F994860FFE70E98406800F00300D6
:1021F000032818D0FFE70F98C0680A900D98410097
:10220000032000FA01F10A9888430A900E9880682A
:102210000D99490000FA01F10A9808430A900A98BA
:102220000F99C860FFE70E98406800F0030002288D
:1022300026D1FFE70F980D996FF0030202EA5101D2
:102240000844006A0A900D9800F0070081000F20F2
:1022500000FA01F10A9888430A900E9800690D99D6
:1022600001F00701890000FA01F10A9808430A9079
:102270000A980F990D9B02EA530211440862FFE786
:102280000F9800680A900D984100032000FA01F1B0
:102290000A9888430A900E98406800F003000D9950
:1022A000490000FA01F10A9808430A900A980F9928
:1022B00008600E9880798007002800F02A81FFE7E7
:1022C000FFE70020099043F64400C4F202000168D1
:1022D00041F480410160006800F480400990099851
:1022E000FFE70D9820F0030043F60801C4F2010156
:1022F00040580A900D9800F0030081000F2000FA6A
:1023000001F10A9888430A900F980021C4F2020153
:10231000884203D1FFE7002008907AE00F9840F24E
:102320000041C4F20201884203D1FFE70120079077
:102330006CE00F9840F60001C4F20201884203D11C
:10234000FFE7022006905EE00F9840F60041C4F2DD
:102350000201884203D1FFE70320059050E00F9867
:1023600041F20001C4F20201884203D1FFE70420D8
:10237000049042E00F9841F20041C4F20201884209
:1023800003D1FFE70520039034E00F9841F60001E8
:10239000C4F20201884203D1FFE70620029026E042
:1023A0000F9841F60041C4F20201884203D1FFE7D1
:1023B0000720019018E00F9842F20001C4F20201D8
:1023C000884203D1FFE7082000900AE00F9942F20B
:1023D0000042C4F202020A20914208BF0920009084
:1023E000FFE700980190FFE701980290FFE702984D
:1023F0000390FFE703980490FFE704980590FFE738
:1024000005980690FFE706980790FFE70798089061
:10241000FFE70898C0B20D9901F00301890000FAA6
:1024200001F10A9808430A900A980D9921F00301D6
:1024300043F60802C4F20102885043F60840C4F291
:10244000010000680A900B990A9888430A900E9838
:102450008079C006002805D5FFE70B990A98084344
:102460000A90FFE70A9843F60841C4F201010860A8
:1024700043F60C40C4F2010000680A900B990A98D8
:1024800088430A900E9880798006002805D5FFE7DA
:102490000B990A9808430A90FFE70A9843F60C4103
:1024A000C4F20101086043F60440C4F20100006870
:1024B0000A900B990A9888430A900E9880798007B1
:1024C000002805D5FFE70B990A9808430A90FFE713
:1024D0000A9843F60441C4F20101086043F6004043
:1024E000C4F2010000680A900B990A9888430A9088
:1024F0000E988079C00728B1FFE70B990A98084326
:102500000A90FFE70A9843F60041C4F2010108600F
:10251000FFE7FFE7FFE70D9801300D9013E610B0DD
:102520007047000082B00190ADF802100198006978
:10253000BDF80210084204D0FFE701208DF8010029
:1025400003E000208DF80100FFE79DF8010002B0D4
:102550007047000082B00190ADF802108DF80120A4
:102560009DF8010028B1FFE7BDF8020001998861DC
:1025700005E0BDF80200000401998861FFE702B0A0
:102580007047000042F2D050C2F20000006870476D
:1025900040F24800C2F20000027842F2D051C2F28A
:1025A00000010868104408607047000080B543F6D9
:1025B0000041C4F20201086840F400700860086835
:1025C00040F480600860086840F480700860032070
:1025D00000F0CEF80F2000F005F800F079F80020A8
:1025E00080BD000080B58CB00B900020049003905B
:1025F000FFE70020009043F64000C4F202000168AB
:1026000041F001010160006800F0010000900098B5
:10261000FFE706A802A900F045FA0998049004987B
:1026200020B9FFE700F06EFA059004E000F06AFAC6
:1026300040000590FFE705984DF68361C4F21B3119
:10264000A0FB01014FF0FF3000EB9140039041F2FD
:102650005400C2F200004FF08041016040F2E731C7
:10266000C16003994160002101618160816100F0D6
:1026700049FE8DF807009DF8070028BBFFE741F2EF
:102680005400C2F2000000F0FFFE8DF807009DF834
:102690000700C0B9FFE71C2000F046F80B980F2890
:1026A0000CD8FFE70B991C20002200F047F80B988C
:1026B00040F24C01C2F20001086003E001208DF8F5
:1026C0000700FFE7FFE7FFE79DF807000CB080BDBC
:1026D00080B582B0FFE70020019043F64400C4F2C9
:1026E0000200016841F480410160006800F480400C
:1026F00001900198FFE7FFE70020009043F64000BB
:10270000C4F20200016841F080510160006800F0ED
:10271000805000900098FFE76FF001000F21002229
:1027200000F00CF802B080BD80B582B08DF80700D3
:102730009DF9070007F06AFD02B080BD80B586B044
:102740008DF81700049103920020029007F076FDA7
:1027500002909DF91700019002980499039A02F0E3
:1027600085FD0146019807F071FD06B080BD0000AF
:1027700080B582B00190019807F08AFD02B080BD5B
:1027800080B584B000200290FFE70020019043F65E
:102790004000C4F20200016841F08051016000680D
:1027A00000F0805001900198FFE74021C4F20E2113
:1027B00001200860FFF7E6FE0290FFE747F2040001
:1027C000C4F20000006800F48030B0F5803F0DD006
:1027D000FFE7FFF7D7FE0299401AB0F57A7F04D9D8
:1027E000FFE703208DF80F0025E0E7E74421C4F25E
:1027F0000E2101200860FFF7C5FE0290FFE747F2B7
:102800000400C4F20000006800F40030B0F5003F9E
:102810000DD0FFE7FFF7B6FE0299401AB0F57A7FB8
:1028200004D9FFE703208DF80F0004E0E7E700205C
:102830008DF80F00FFE79DF80F0004B080BD000089
:1028400080B584B002900191029820B9FFE7012081
:102850008DF80F0021E1019843F60041C4F2020116
:10286000096801F00F01884212D9FFE7019943F688
:102870000040C4F202000170006800F00F000199EE
:10288000884204D0FFE701208DF80F0005E1FFE743
:1028900002980078800700282AD5FFE70298007880
:1028A0004007002809D5FFE743F60801C4F20201FA
:1028B000086840F4E0500860FFE7029800780007DD
:1028C000002809D5FFE743F60801C4F202010868B1
:1028D00040F460400860FFE743F60801C4F20201DB
:1028E000086820F0F000029A926810430860FFE741
:1028F00002980078C00700286ED0FFE70298406871
:10290000012811D1FFE743F60000C4F2020000687D
:1029100000F400310020B0EB514F04D1FFE701205B
:102920008DF80F00B9E02CE002984068022805D02D
:10293000FFE702984068032811D1FFE743F6000043
:10294000C4F20200006800F000710020B0EB516F8B
:1029500004D1FFE701208DF80F009EE010E043F660
:102960000000C4F20200006800F002010020B0EB99
:10297000510F04D1FFE701208DF80F008DE0FFE734
:10298000FFE743F60801C4F20201086820F00300E3
:10299000029A526810430860FFF7F4FD0090FFE7C9
:1029A00043F60800C4F20200006800F00C0002992F
:1029B0004968B0EB810F0ED0FFE7FFF7E3FD009908
:1029C000401A41F28931884204D3FFE703208DF891
:1029D0000F0062E0E4E7FFE7019843F60041C4F22C
:1029E0000201096801F00F01884212D2FFE7019944
:1029F00043F60040C4F202000170006800F00F00CE
:102A00000199884204D0FFE701208DF80F0044E0CF
:102A1000FFE702980078400700280CD5FFE743F64F
:102A20000801C4F20201086820F4E050029AD2685A
:102A300010430860FFE702980078000700280DD5D2
:102A4000FFE743F60801C4F20201086820F4604081
:102A5000029A126940EAC2000860FFE700F076F8C7
:102A600043F60801C4F202010968C9B20A094EF22C
:102A70000461C0F60001895CC84040F22801C2F23E
:102A80000001086040F24C00C2F200000068FFF74D
:102A9000A9FD00208DF80F00FFE79DF80F0004B09E
:102AA00080BD000082B00190009101990F20086064
:102AB00043F60800C4F20200016801F00301019A24
:102AC0005160016801F0F001019A9160016801F420
:102AD000E051019AD160006800F46040C00801999B
:102AE000086143F60040C4F20200006800F00F00E5
:102AF0000099086002B0704740F22800C2F200005E
:102B00000068704780B5FFF7F7FF43F60801C4F28D
:102B100002010968C1F382224EF21461C0F600017D
:102B2000895CC84080BD000080B5FFF7E5FF43F633
:102B30000801C4F20201096889B24A0B4EF214611D
:102B4000C0F60001895CC84080BD000080B586B039
:102B50000020059004900390029043F60800C4F210
:102B60000200006800F00C000146019140B1FFE74F
:102B7000019804280AD0FFE7019808280CD04FE0FC
:102B800042F20040C0F2F40002904FE041F6003003
:102B9000C0F2B700029049E043F60400C4F202001C
:102BA000016801F03F01059100684002002813D53B
:102BB000FFE743F60400C4F202000068C0F3881087
:102BC00041F60031C0F2B701A0FB0101059A0023D4
:102BD000FDF75CFB049012E043F60400C4F202002F
:102BE0000068C0F3881042F20041C0F2F401A0FB7B
:102BF0000101059A0023FDF749FB0490FFE743F626
:102C00000400C4F20200006800F44031022000EB2E
:102C1000D130039004980399B0FBF1F0029005E0E5
:102C200042F20040C0F2F4000290FFE7029806B0C2
:102C300080BD000080B586B00490049820B9FFE7FD
:102C400001208DF8170050E304980078C007002891
:102C500000F0A580FFE743F60800C4F20200006818
:102C600000F00C00042813D0FFE743F60800C4F27C
:102C70000200006800F00C0008281ED1FFE743F6B0
:102C80000400C4F2020000684002002815D5FFE7E6
:102C900043F60000C4F20200006800F40031002096
:102CA000B0EB514F08D0FFE70498406820B9FFE728
:102CB00001208DF8170018E370E0FFE704984068E2
:102CC000B0F5803F09D1FFE743F60001C4F20201ED
:102CD000086840F48030086020E004984068B0F54F
:102CE000A02F0DD1FFE743F60001C4F202010868EE
:102CF00040F480200860086840F4803008600CE0F0
:102D000043F60001C4F20201086820F48030086034
:102D1000086820F480200860FFE7FFE7FFE70498D9
:102D20004068E8B1FFE7FFF72DFC0390FFE743F6AB
:102D30000000C4F20200006800F400310020B0EB93
:102D4000514F0CD1FFE7FFF71DFC0399401A65288E
:102D500004D3FFE703208DF81700C6E2E7E71CE085
:102D6000FFF710FC0390FFE743F60000C4F20200F7
:102D7000006800F400310020B0EB514F0CD0FFE7A9
:102D8000FFF700FC0399401A652804D3FFE70320EE
:102D90008DF81700A9E2E7E7FFE7FFE7FFE70498F0
:102DA00000788007002840F19680FFE743F608008E
:102DB000C4F20200006810F00C0F13D0FFE743F6D6
:102DC0000800C4F20200006800F00C0008282CD1B2
:102DD000FFE743F60400C4F2020000684002002846
:102DE00023D4FFE743F60000C4F20200006800F0BD
:102DF00002010020B0EB510F09D0FFE70498C06832
:102E0000012804D0FFE701208DF817006DE243F69A
:102E10000001C4F20201086820F0F800049A126967
:102E200040EAC2000860FFE754E00498C06870B34D
:102E3000FFE70021C4F2472101200860FFF7A2FB51
:102E40000390FFE743F60000C4F20200006800F0C0
:102E500002010020B0EB510F0CD1FFE7FFF792FB0E
:102E60000399401A032804D3FFE703208DF81700C5
:102E70003BE2E7E743F60001C4F20201086820F0F4
:102E8000F800049A126940EAC200086021E00021BB
:102E9000C4F2472100200860FFF774FB0390FFE7AE
:102EA00043F60000C4F20200006800F002010020B6
:102EB000B0EB510F0CD0FFE7FFF764FB0399401A0A
:102EC000032804D3FFE703208DF817000DE2E7E79E
:102ED000FFE7FFE7FFE704980078000700284BD5DD
:102EE000FFE70498406918B3FFE740F68061C4F239
:102EF000472101200860FFF745FB0390FFE743F6F9
:102F00007400C4F20200006800F002010020B0EB7F
:102F1000510F0CD1FFE7FFF735FB0399401A032847
:102F200004D3FFE703208DF81700DEE1E7E722E096
:102F300040F68061C4F2472100200860FFF722FBC1
:102F40000390FFE743F67400C4F20200006800F04B
:102F500002010020B0EB510F0CD0FFE7FFF712FB8E
:102F60000399401A032804D3FFE703208DF81700C4
:102F7000BBE1E7E7FFE7FFE7049800784007002898
:102F800040F1CE80FFE700208DF8070043F64000B7
:102F9000C4F202000068C000002815D4FFE7FFE774
:102FA0000020009043F64000C4F20200016841F0A6
:102FB00080510160006800F0805000900098FFE7A9
:102FC00001208DF80700FFE747F20000C4F200007F
:102FD0000068C005002822D4FFE747F20001C4F2D0
:102FE0000001086840F480700860FFF7CBFA039096
:102FF000FFE747F20000C4F200000068C0050028A7
:103000000CD4FFE7FFF7BEFA0399401A032804D354
:10301000FFE703208DF8170067E1EAE7FFE7FFE726
:1030200004988068012809D1FFE743F67001C4F2D3
:103030000201086840F0010008601FE00498806801
:1030400005280DD1FFE743F67001C4F202010868BC
:1030500040F004000860086840F0010008600CE0DF
:1030600043F67001C4F20201086820F00100086014
:10307000086820F004000860FFE7FFE7FFE7049816
:103080008068F8B1FFE7FFF77DFA0390FFE743F6AA
:103090007000C4F20200006800F002010020B0EBF2
:1030A000510F0ED1FFE7FFF76DFA0399401A41F275
:1030B0008931884204D3FFE703208DF8170014E11B
:1030C000E5E71EE0FFF75EFA0390FFE743F67000C6
:1030D000C4F20200006800F002010020B0EB510FC2
:1030E0000ED0FFE7FFF74EFA0399401A41F28931FB
:1030F000884204D3FFE703208DF81700F5E0E5E7E9
:10310000FFE79DF80700012809D1FFE743F64001DA
:10311000C4F20201086820F080500860FFE7FFE772
:1031200004988069002800F0DC80FFE743F608007F
:10313000C4F20200006800F00C00082800F085804E
:10314000FFE70498806902285CD1FFE76021C4F2A0
:10315000472100200860FFF715FA0390FFE743F6C8
:103160000000C4F20200006800F000710020B0EB23
:10317000516F0CD0FFE7FFF705FA0399401A0328B7
:1031800004D3FFE703208DF81700AEE0E7E70499CA
:10319000C869D1F820C04B6A8A6A40EA0C0040EA4C
:1031A0008310D2034FF6FF739A43A2F58032104387
:1031B000C96A40EA016043F60401C4F202010860F2
:1031C0006021C4F2472101200860FFF7DBF903907A
:1031D000FFE743F60000C4F20200006800F000714F
:1031E0000020B0EB516F0CD1FFE7FFF7CBF903994B
:1031F000401A032804D3FFE703208DF8170074E07A
:10320000E7E721E06021C4F2472100200860FFF7D2
:10321000B9F90390FFE743F60000C4F2020000682A
:1032200000F000710020B0EB516F0CD0FFE7FFF70A
:10323000A9F90399401A032804D3FFE703208DF866
:10324000170052E0E7E7FFE74AE0049880690128A9
:1032500004D1FFE701208DF8170046E043F6040093
:10326000C4F202000068029004988069012831D0FD
:10327000FFE7029800F480000499C969884229D1C7
:10328000FFE7029800F03F000499096A884221D1C3
:10329000FFE7029847F6C07108400499496AB0EB0D
:1032A000811F17D1FFE7029800F440300499896A22
:1032B000C9034FF6FF729143A1F58031884209D1CD
:1032C000FFE7029800F070600499C96AB0EB016FE3
:1032D00004D0FFE701208DF8170006E0FFE7FFE7C5
:1032E000FFE700208DF81700FFE79DF8170006B0F4
:1032F00080BD000081B0009001B0704781B00090A7
:1033000001B0704780B582B00090009820B9FFE707
:1033100001208DF807003FE0009890F83D0040B98B
:10332000FFE70099002081F83C00009800F038F891
:10333000FFE70099022081F83D00009951F8040B45
:1033400005F058FF0099012081F84600FFE7009939
:10335000012081F83E00009981F83F00009981F832
:103360004000009981F84100FFE7FFE70099012044
:1033700081F84200009981F84300009981F84400E7
:10338000009981F84500FFE70099012081F83D0090
:1033900000208DF80700FFE79DF8070002B080BD10
:1033A00080B588B007900798006844F20001C4F225
:1033B000010188421BD1FFE7FFE70020069043F69A
:1033C0004400C4F20200016841F4803101600068E9
:1033D00000F4803006900698FFE71820039005213E
:1033E0000022FFF7ABF90398FFF79EF949E0079831
:1033F000006844F20041C4F2010188421BD1FFE79A
:10340000FFE70020059043F64400C4F20200016883
:1034100041F400310160006800F400300590059827
:10342000FFE71920029005210022FFF787F9029893
:10343000FFF77AF924E00798006844F60001C4F227
:10344000010188421BD1FFE7FFE70020049043F60B
:103450004400C4F20200016841F480210160006868
:1034600000F4802004900498FFE71A2001900521C1
:103470000022FFF763F90198FFF756F9FFE7FFE72E
:10348000FFE708B080BD000083B00190019890F87C
:103490003D00012804D0FFE701208DF80B006AE011
:1034A0000199022081F83D0001980168C86840F048
:1034B0000100C860019800680021C4F2010188423F
:1034C0003CD0FFE701980068B0F1804F36D0FFE7AD
:1034D0000198006840F20041C4F2000188422DD0FA
:1034E000FFE70198006840F60001C4F2000188423D
:1034F00024D0FFE70198006840F60041C4F20001C3
:1035000088421BD0FFE70198006840F20041C4F2F6
:103510000101884212D0FFE70198006844F20001DF
:10352000C4F20101884209D0FFE70198006841F622
:103530000001C4F20001884212D1FFE7019800683F
:10354000806800F0070000900098062807D0FFE789
:1035500001980168086840F001000860FFE706E094
:1035600001980168086840F001000860FFE700204A
:103570008DF80B00FFE79DF80B0003B070470000CB
:1035800080B586B00490039100208DF80B00FFE712
:10359000049890F83C00012804D1FFE702208DF840
:1035A0001700ABE00499012081F83C00FFE7FFE73A
:1035B0000499022081F83D00049800688068019019
:1035C000019820F077000190019820F47F4001904D
:1035D00001980499096888600398006800900028A1
:1035E00072D0FFE7009810286ED0FFE700982028DF
:1035F0006AD0FFE70098302866D0FFE7009840289F
:1036000055D0FFE70098502837D0FFE70098602892
:1036100040D0FFE7009870280BD0FFE70098B0F586
:10362000805F05D0FFE70098B0F5005F16D052E04C
:1036300055E004980068039B5A689968DB6805F0B8
:10364000C3FE0498006880680190019840F07700FC
:103650000190019804990968886040E00498006826
:10366000039B5A689968DB6805F0AEFE0498016810
:10367000886840F48040886031E004980068039ACC
:103680005168D26806F08CF804980068502105F063
:10369000B5FE24E004980068039A5168D26806F0E9
:1036A000A7F804980068602105F0A8FE17E00498C8
:1036B0000068039A5168D26806F072F804980068AE
:1036C000402105F09BFE0AE0049800680399096810
:1036D00005F094FE03E001208DF80B00FFE704994C
:1036E000012081F83D00FFE70499002081F83C00AB
:1036F000FFE79DF80B008DF81700FFE79DF8170016
:1037000006B080BD81B0009001B0704780B582B036
:10371000019001980068006900F002010020B0EB00
:10372000510F28D0FFE701980068C06800F002013F
:103730000020B0EB510F1DD0FFE7019801686FF03A
:1037400002000861019901200877019800688069EA
:10375000800720B1FFE70198FFF7D4FF06E001984A
:1037600000F04AF9019800F05BFAFFE701990020A8
:103770000877FFE7FFE701980068006900F004019F
:103780000020B0EB910F29D0FFE701980068C068D6
:1037900000F004010020B0EB910F1ED0FFE701986C
:1037A00001686FF004000861019902200877019810
:1037B0000068806910F4407F04D0FFE70198FFF7AC
:1037C000A1FF06E0019800F017F9019800F028FA2F
:1037D000FFE7019900200877FFE7FFE701980068FD
:1037E000006900F008010020B0EBD10F28D0FFE7FE
:1037F00001980068C06800F008010020B0EBD10F0C
:103800001DD0FFE7019801686FF008000861019979
:103810000420087701980068C069800720B1FFE79D
:103820000198FFF76FFF06E0019800F0E5F80198B6
:1038300000F0F6F9FFE7019900200877FFE7FFE7BE
:1038400001980068006900F010010020B0EB111F22
:1038500029D0FFE701980068C06800F0100100203F
:10386000B0EB111F1ED0FFE7019801686FF0100048
:10387000086101990820087701980068C06910F470
:10388000407F04D0FFE70198FFF73CFF06E0019876
:1038900000F0B2F8019800F0C3F9FFE701990020A9
:1038A0000877FFE7FFE7019800680069C00780B16B
:1038B000FFE701980068C068C00748B1FFE70198BA
:1038C00001686FF001000861019800F093FAFFE7CA
:1038D000FFE7019800680069C1B20020B0EBD11F7A
:1038E00013D0FFE701980068C068C1B20020B0EBB8
:1038F000D11F09D0FFE7019801686FF080000861CF
:103900000198FFF7F7FCFFE7FFE7019800680069FF
:1039100000F040010020B0EB911F14D0FFE70198A8
:103920000068C06800F040010020B0EB911F09D092
:10393000FFE7019801686FF040000861019800F00E
:1039400081FBFFE7FFE701980068006900F02001B4
:103950000020B0EB511F14D0FFE701980068C06849
:1039600000F020010020B0EB511F09D0FFE70198C3
:1039700001686FF0200008610198FFF7BFFCFFE7C6
:10398000FFE702B080BD000080B588B0079000203E
:10399000069005900490039002900798006841F605
:1039A0000001C4F20001884223D1FFE7FFE70020B5
:1039B000019043F63000C4F20200016841F00201B8
:1039C0000160006800F0020001900198FFE74FF4E9
:1039D00040400290022003900020049005900920AE
:1039E000069040F20040C4F2020002A9FEF7A2FBDA
:1039F000FFE708B080BD000081B0009001B07047C3
:103A000080B586B004900391029200208DF80700E3
:103A1000FFE7049890F83C00012804D1FFE702205A
:103A20008DF8170089E00499012081F83C00FFE738
:103A3000FFE7029800900C2800F270800099DFE800
:103A400001F0076D6D6D206D6D6D3A6D6D6D5300FC
:103A500004980068039905F0E7FC049801688869F8
:103A600040F00800886104980168886920F004002B
:103A70008861039802690498016888691043886125
:103A800050E004980068039905F044FD049801682B
:103A9000886940F40060886104980168886920F4AE
:103AA000806088610398026904980168886940EA27
:103AB0000220886136E004980068039905F0A4FDAF
:103AC00004980168C86940F00800C861049801685A
:103AD000C86920F00400C86103980269049801686D
:103AE000C8691043C8611DE004980068039905F097
:103AF00005FE04980168C86940F40060C861049834
:103B00000168C86920F48060C8610398026904985C
:103B10000168C86940EA0220C86103E001208DF80D
:103B20000700FFE7FFE70499002081F83C00FFE76A
:103B30009DF807008DF81700FFE79DF8170006B005
:103B400080BD000080B582B00090009820B9FFE7EA
:103B500001208DF807003FE0009890F83D0040B943
:103B6000FFE70099002081F83C00009800F038F849
:103B7000FFE70099022081F83D00009951F8040BFD
:103B800005F038FB0099012081F84600FFE7009915
:103B9000012081F83E00009981F83F00009981F8EA
:103BA0004000009981F84100FFE7FFE700990120FC
:103BB00081F84200009981F84300009981F844009F
:103BC000009981F84500FFE70099012081F83D0048
:103BD00000208DF80700FFE79DF8070002B080BDC8
:103BE00082B001900198006841F60001C4F2000122
:103BF000884212D1FFE7FFE70020009043F6400023
:103C0000C4F20200016841F040010160006800F068
:103C1000400000900098FFE7FFE702B07047000007
:103C200081B0009001B0704780B58CB00A900991C6
:103C3000099828B9FFE70A9890F83E0007901CE021
:103C40000998042805D1FFE70A9890F83F000690EC
:103C500010E00998082805D1FFE70A9890F840007D
:103C6000059004E00A9890F841000590FFE7059858
:103C70000690FFE706980790FFE70798012804D011
:103C8000FFE701208DF82F00AFE0099828B9FFE782
:103C90000A99022081F83E001EE00998042806D106
:103CA000FFE70A99022081F83F00049012E009988A
:103CB000082806D1FFE70A99022081F84000039006
:103CC00005E00A99022081F841000390FFE703987C
:103CD0000490FFE70498FFE70A9800680999012219
:103CE000019205F055FB01980A9909680022C4F277
:103CF0000102914202900CD0FFE70A9800684FF64B
:103D00000041CBF6FE710844B0FA80F04009029001
:103D1000FFE70298C00738B1FFE70A980168486CCE
:103D200040F400404864FFE70A9800680021C4F2AC
:103D3000010188423CD0FFE70A980068B0F1804F4B
:103D400036D0FFE70A98006840F20041C4F2000153
:103D500088422DD0FFE70A98006840F60001C4F2BF
:103D60000001884224D0FFE70A98006840F600412D
:103D7000C4F2000188421BD0FFE70A98006840F2B5
:103D80000041C4F20101884212D0FFE70A9800689E
:103D900044F20001C4F20101884209D0FFE70A9809
:103DA000006841F60001C4F20001884212D1FFE729
:103DB0000A980068806800F00700089008980628B4
:103DC00007D0FFE70A980168086840F00100086022
:103DD000FFE706E00A980168086840F00100086003
:103DE000FFE700208DF82F00FFE79DF82F000CB0B3
:103DF00080BD000080B588B0079007980068B0F1DA
:103E0000804F03D1FFE7FEF7C3FBFFE70798006889
:103E100044F60001C4F2010188420ED1FFE705F02B
:103E200049F841F22810C2F2000040F29D41C2F26E
:103E30000001092200F0EAFDFFE70798006844F25C
:103E40000041C4F20101884240F0C780FFE740F220
:103E50004860C2F2000090ED220A40F20813C2F25C
:103E600000030393D3F88800D3F81811D3F8A821DE
:103E7000D3F8383201EE102A30EE010ABDEEC00A46
:103E800010EE102A40F2007CC2F2000C9CED220AD7
:103E900001EE103A30EE010ABDEEC00A10EE103A03
:103EA00040F2B87CC2F2000C9CED220A01EE100A2E
:103EB00030EE010ABDEEC00A10EE100A40F6700C9A
:103EC000C2F2000C9CED220A01EE101A30EE010A3B
:103ED000BDEEC00A10EE10CA6946C1F804C0086001
:103EE00040F6C450C2F200004FF4007102F012FF1D
:103EF00040F2A840C2F20000069090F8242040F65C
:103F00000040C4F2020004900821FEF723FB03984E
:103F100040F60841C2F2000191ED220AD0F8C80231
:103F200001EE100A30EE010ABDEEC00A10EE102AB2
:103F300040F62810C2F2000090ED220ABDEEC00A41
:103F400010EE103A40F69820C2F2000090ED220ADE
:103F5000BDEEC00A10EE100A40F6C041C2F20001E8
:103F600091ED220ABDEEC00A10EE10CA6946C1F8F2
:103F700004C0086040F69C50C2F2000040F2FF11FD
:103F800002F0C8FE04984FF40061FEF7CBFA014638
:103F9000049840F26C42C2F20002059211704FF494
:103FA0008041FEF7BFFA059A0146049851704021FE
:103FB000FEF7B8FA059A0146069891700121D17072
:103FC000B0F8462041F20C01C2F200010B685A63BE
:103FD000B0F8440009688863FFE70798006844F276
:103FE0000001C4F2010188422AD1FFE740F698504F
:103FF000C2F20000017801310170007806281EDB52
:10400000FFE740F29050C2F2000090ED220ABDEEB0
:10401000C00A10EE102A6846002302934360036032
:1040200040F69C50C2F200004FF4007102F072FEA4
:10403000029840F69851C2F200010870FFE7FFE7CE
:1040400008B080BD81B0009001B0704782B001908F
:10405000ADF8021002B0704780B584B00390002024
:104060000290039800684069C0B2C00902900398AA
:1040700090F83D00212823D1FFE7029800B3FFE725
:10408000FFE7FFE70398006850E8050F20F0800085
:104090000190FFE701990398026842E805100028A3
:1040A000F0D1FFE7FFE70398406B28B1FFE70398E3
:1040B000406BFDF7FDFCFFE7039805F0A3FDFFE76C
:1040C000039800684069C0F380100290039890F84C
:1040D0003E00222823D1FFE7029800B3FFE7FFE765
:1040E000FFE70398006850E8050F20F040000090BB
:1040F000FFE700990398026842E805100028F0D114
:10410000FFE7FFE70398806B28B1FFE70398806B18
:10411000FDF7CEFCFFE7039805F016FDFFE7002052
:1041200004B080BD81B0009001B0704780B592B0FE
:104130001190119800680068109011980068C0688C
:104140000F901198006840690E9000200D900C901F
:10415000109800F00F000D900D9888B9FFE79DF8BA
:104160004000800600280AD5FFE79DF83C00800645
:10417000002804D5FFE7119805F060FDE3E1FFE7B3
:104180000D98002800F0C280FFE79DF83800C007B6
:1041900038B9FFE7BDF83C0010F4907F00F0B6801E
:1041A000FFE79DF84000C00758B1FFE79DF83D00CC
:1041B000C00730B1FFE71199086C40F001000864B6
:1041C000FFE79DF84000400700280BD5FFE79DF86A
:1041D0003800C00730B1FFE71199086C40F00200C9
:1041E0000864FFE79DF84000800700280BD5FFE733
:1041F0009DF83800C00730B1FFE71199086C40F016
:1042000004000864FFE79DF840000007002811D56E
:10421000FFE79DF83C008006002805D4FFE79DF8E5
:104220003800C00730B1FFE71199086C40F0080072
:104230000864FFE71198006C002866D0FFE79DF83E
:104240004000800600280AD5FFE79DF83C00800664
:10425000002804D5FFE7119805F0F0FCFFE711985E
:1042600000684069C0F380100C901198006C000742
:10427000002804D4FFE70C9800283ED0FFE71198EF
:1042800005F062FC119800684069400600282FD5AF
:10429000FFE7FFE7FFE71198006850E8050F20F0FF
:1042A00040000B90FFE70B991198026842E8051057
:1042B0000028F0D1FFE7FFE71198806B98B1FFE786
:1042C0001198816B49F6F900C0F600000865119855
:1042D000806BFDF763FC28B1FFE71198806B016DDF
:1042E0008847FFE703E01198FFF71CFFFFE703E0B3
:1042F0001198FFF717FFFFE706E01198FFF712FF8D
:10430000119900200864FFE7FFE71CE11198006B9A
:10431000012840F0F880FFE79DF84000C006002823
:1043200040F1F180FFE79DF83C00C006002840F115
:10433000EA80FFE7FFE700200A9011980068006814
:104340000A901198006840680A900A98FFE711984F
:1043500000684069400600287ED5FFE71198806B11
:1043600000684068ADF82600BDF82600002872D02D
:10437000FFE7BDF826001199898D88426BDAFFE7C7
:10438000BDF826001199C8851198806BC069B0F5F9
:10439000807F58D0FFE7FFE7FFE71198006850E8FB
:1043A000030F20F480700890FFE7089911980268C5
:1043B00042E803100028F0D1FFE7FFE7FFE7FFE73F
:1043C0001198006850E8050F20F001000790FFE702
:1043D00007991198026842E805100028F0D1FFE71C
:1043E000FFE7FFE7FFE71198006850E8050F20F0AE
:1043F00040000690FFE706991198026842E8051010
:104400000028F0D1FFE7FFE71199202081F83E0056
:10441000119900200863FFE7FFE71198006850E852
:10442000030F20F010000590FFE70599119802682E
:1044300042E803100028F0D1FFE7FFE71198806BF6
:10444000FDF736FBFFE71198818DC28D891A89B27D
:10445000FFF7FCFDFFE776E01199888DC98D401AC2
:10446000ADF812001198C08D00284BD0FFE7BDF8C1
:104470001200002846D0FFE7FFE7FFE71198006829
:1044800050E8030F20F490700390FFE70399119810
:10449000026842E803100028F0D1FFE7FFE7FFE7DA
:1044A000FFE71198006850E8050F20F00100029026
:1044B000FFE702991198026842E805100028F0D140
:1044C000FFE7FFE71199202081F83E0011990020B5
:1044D0000863FFE7FFE71198006850E8030F20F03A
:1044E00010000190FFE701991198026842E803105B
:1044F0000028F0D1FFE7FFE71198BDF81210FFF791
:10450000A5FDFFE71FE09DF84000000600280AD542
:10451000FFE79DF83C000006002804D5FFE711984E
:1045200005F068FD0FE09DF84000400600280AD520
:10453000FFE79DF83C004006002804D5FFE71198EE
:1045400005F04CFBFFE712B080BD000080B582B0E3
:104550000090009820B9FFE701208DF807003EE0A9
:104560000098806908B1FFE700E0FFE7009890F845
:104570003D0040B9FFE70099002081F83C00009819
:1045800000F032F8FFE70099242081F83D00009800
:104590000168C86820F40050C860009805F000FC6D
:1045A00000980168086920F490400861009801684B
:1045B000486920F02A00486100980168C86840F402
:1045C0000050C860009900200864009A202182F8F9
:1045D0003D10009A82F83E108DF80700FFE79DF825
:1045E000070002B080BD000080B59AB0199000208D
:1045F000189017901690159014901998006844F62A
:104600000041C4F20001884265D1FFE7FFE70020C6
:10461000139043F64000C4F20200016841F4002107
:104620000160006800F4002013901398FFE7FFE793
:104630000020129043F63000C4F20200016841F0FD
:1046400001010160006800F0010012901298FFE77C
:10465000032014900221159100210A9116911790C0
:10466000082018900020C4F2020014A9FDF762FD92
:104670000A9940F6F450C2F200000B9046F2400254
:10468000C4F2020202604FF0006242608160C160C9
:104690004FF48062026141618161C16101624162E6
:1046A000FDF72EFC18B1FFE7FCF732F9FFE7FFE753
:1046B000199840F6F451C2F2000181631998886399
:1046C000FFE73420099005210022FEF737F809980A
:1046D000FEF72AF854E11998006847F60001C4F281
:1046E000000188423FD1FFE7FFE70020119043F629
:1046F0004000C4F20200016841F08041016000689E
:1047000000F0804011901198FFE7FFE70020109023
:1047100043F63000C4F20200016841F0100101606C
:10472000006800F0100010901098FFE74FF4C07080
:1047300014900220159000200790169003201790E7
:104740000820189041F20000C4F2020014A9FDF7FD
:10475000F1FC079A522008900521FDF7EFFF089819
:10476000FDF7E2FF0BE11998006841F20001C4F285
:104770000101884267D1FFE7FFE700200F9043F671
:104780004400C4F20200016841F0100101600068B9
:1047900000F010000F900F98FFE7FFE700200E9049
:1047A00043F63000C4F20200016841F001010160EB
:1047B000006800F001000E900E98FFE74FF4C06013
:1047C0001490022015900020059016900320179059
:1047D000072018900020C4F2020014A9FDF7AAFCDB
:1047E000059940F65460C2F20000069046F240423D
:1047F000C4F2020202604FF0006242608160C16058
:104800004FF48062026141618161C1610162416274
:10481000FDF776FB18B1FFE7FCF77AF8FFE7FFE753
:10482000199840F65461C2F20001816319988863B7
:10483000FFE72520049005210022FDF77FFF049863
:10484000FDF772FF9AE01998006844F20041C4F243
:104850000001884240F09180FFE7FFE700200D90C3
:1048600043F64000C4F20200016841F400310160E7
:10487000006800F400300D900D98FFE7FFE700207E
:104880000C9043F63000C4F20200016841F00101CF
:104890000160006800F001000C900C98FFE70C200C
:1048A000149002201590002002901690032017907B
:1048B000072018900020C4F2020014A9FDF73AFC6A
:1048C000029940F61470C2F20000039046F2A00272
:1048D000C4F2020202604FF0006242604022826035
:1048E000C1604FF48062026141618161C161016216
:1048F0004162FDF705FB18B1FFE7FCF709F8FFE798
:10490000FFE7199840F61471C2F20001416319984B
:104910008863FFE740F6B460C2F20000019046F2FF
:104920008801C4F2020101604FF000614160002182
:104930008160C1604FF48062026141618161C16147
:1049400001624162FDF7DCFA18B1FFE7FBF7E0FF17
:10495000FFE7FFE7199840F6B461C2F200018163F6
:1049600019988863FFE72620009005210022FDF7B3
:10497000E5FE0098FDF7D8FEFFE7FFE7FFE7FFE75A
:104980001AB080BD80B584B002900191ADF80220CC
:10499000029890F83E00202828D1FFE7019820B126
:1049A000FFE7BDF8020020B9FFE701208DF80F00F6
:1049B00020E0FFE7029890F83C00012804D1FFE7CF
:1049C00002208DF80F0015E00299012081F83C00CB
:1049D000FFE7FFE702990020086302980199BDF8FC
:1049E000022005F07BFA8DF80F0003E002208DF81D
:1049F0000F00FFE79DF80F0004B080BD81B000906C
:104A000001B0704781B0009001B0704780B586B0AA
:104A100004900391ADF80A20049890F83D002028F6
:104A200074D1FFE7039820B1FFE7BDF80A0020B971
:104A3000FFE701208DF817006CE0FFE7049890F87D
:104A40003C00012804D1FFE702208DF8170061E047
:104A50000499012081F83C00FFE7FFE703980499DF
:104A60000862BDF80A0004998884BDF80A00049918
:104A7000C884049900200864049A212182F83D101A
:104A800004994A6B49F6B521C0F60001D163049937
:104A90004A6B49F63131C0F60001116404994A6B42
:104AA00049F61911C0F60001D1640499496B0865F3
:104AB00003A8019004980268406B019909680432C8
:104AC000BDF80A30FDF7D4FA049801686FF0400091
:104AD0000860FFE70499002081F83C00FFE7FFE74A
:104AE000FFE70498006850E8050F40F08000009050
:104AF000FFE700990498026842E805100028F0D109
:104B0000FFE7FFE700208DF8170003E002208DF893
:104B10001700FFE79DF8170006B080BD81B0009038
:104B200001B0704781B0009001B07047FFE7FEE729
:104B300080B584B003908DED020ACDED010A039893
:104B40003030FBF779FE039880ED0B0A9DED020AE9
:104B50009DED011A30EE410A039880ED1E0A03987C
:104B600090ED181A90ED1E0A20EE010A80ED1F0A42
:104B7000039890ED0B2A90ED1A1A90ED1D3A90EDE6
:104B80001E0A30EE430A80EE020A20EE010ABDEE54
:104B9000C00A80ED210A039890ED192A90ED1E0AB3
:104BA00090ED201A20EE020A30EE010A80ED200A74
:104BB000039890ED200A90ED211AB8EEC11A30EE5C
:104BC000010A80ED200A0398C16E00EE101AB8EEBB
:104BD000C00A494201EE101AF8EEC10A90ED201AFF
:104BE00003F0E0FC039880ED200A0399886F486782
:104BF000039890ED1F0A90ED201A30EE010A80ED27
:104C0000220A0398016F00EE101AB8EEC00A49425A
:104C100001EE101AF8EEC10A90ED221A03F0C2FC60
:104C2000039880ED220A04B080BD000080B582B0F8
:104C300040F69C50C2F20000019046F20041C4F2DE
:104C4000000101600521416000218160C1604FF4D5
:104C5000A02202614FF48012426101760122427665
:104C60008176C17601774177FCF716FC18B1FFE732
:104C7000FBF74EFEFFE702B080BD000080B582B0BA
:104C800040F6C450C2F20000019046F60001C4F2A2
:104C9000000101600521416000218160C1604FF485
:104CA000A02202614FF48012426101760122427615
:104CB0008176C17601774177FCF7EEFB18B1FFE70B
:104CC000FBF726FEFFE702B080BD000080B540F68E
:104CD000EC50C2F2000043F20001C4F20201016094
:104CE000FCF7A6FE18B1FFE7FBF712FEFFE780BD59
:104CF00080B588B0FFE70020079043F63000C4F28B
:104D00000200016841F480010160006800F4800045
:104D100007900798FFE7FFE70020069043F6300072
:104D2000C4F20200016841F400110160006800F45F
:104D3000001006900698FFE70D20009005210391D2
:104D400000220492FDF7FAFC0098FDF7EDFC0399B0
:104D5000049A10200190FDF7F1FC0198FDF7E4FCA6
:104D60000399049A11200290FDF7E8FC0298FDF7E0
:104D7000DBFC0399049A3A200590FDF7DFFC0598C7
:104D8000FDF7D2FC08B080BDB0B590B04EF2D04077
:104D9000C0F60000016842688368D0F80CC0D0F803
:104DA00010E044690E94CDF834E0CDF830C00B9398
:104DB0000A92099180690F9009A80021019106F0DB
:104DC000DFFA019941F26432C2F2000210604EF241
:104DD000B440C0F6000002684368D0F808C0D0F8BC
:104DE0000CE00469456907950694CDF814E0CDF808
:104DF00010C0039302928069089002A806F0C0FADE
:104E000040F67471C2F20001086010B0B0BD00003D
:104E100080B596B0002015901490139012901190C8
:104E2000FFE70020109043F63000C4F20200016852
:104E300041F080010160006800F08000109010983F
:104E4000FFE7FFE700200F9043F63000C4F20200B6
:104E5000016841F001010160006800F001000F905D
:104E60000F98FFE7FFE700200E9043F63000C4F2F2
:104E70000200016841F010010160006800F01000BC
:104E80000E900E98FFE7FFE700200D9043F63000EC
:104E9000C4F20200016841F002010160006800F004
:104EA00002000D900D98FFE7FFE700200C9043F6FD
:104EB0003000C4F20200016841F00801016000689E
:104EC00000F008000C900C98FFE7FFE700200B9023
:104ED00043F63000C4F20200016841F004010160B1
:104EE000006800F004000B900B98FFE740F60040CC
:104EF000C4F2020002904BF20C4101910022089290
:104F0000FDF728FB089A40F60000C4F20200049066
:104F10004FF400610391FDF71DFB089A40F2004039
:104F2000C4F2020006904FF440710591FDF712FBA8
:104F3000089A41F20000C4F2020009900121079191
:104F4000FDF708FB019B0298079A089911931292AA
:104F50001391149111A90A91FDF7ECF80298089A9F
:104F60000A9944F65003119312921392FDF7E2F856
:104F7000DDF80CC00498079B089A0A99CDF844C044
:104F8000129313921492FDF7D5F8DDF814C0069829
:104F9000079B089A0A99CDF844C012931392149271
:104FA000FDF7C8F8079B089A09980A99119312937C
:104FB00013921492FDF7BEF816B080BD80B540F68E
:104FC0007C70C2F2000044F20041C4F201010160B1
:104FD00040F2833141600021816040F24B42C26067
:104FE00001618161FEF78EF918B1FFE7FBF790FCD4
:104FF000FFE780BD80B540F6C470C2F2000044F601
:105000000001C4F20101016040F2833141600021DE
:10501000816040F2E732C26001618161FEF772F99E
:1050200018B1FFE7FBF774FCFFE780BD80B588B0DF
:10503000002100910791069105910491039102913D
:10504000019141F20C00C2F2000041F60002C4F2EC
:105050000002026059224260816040F2CF72C26059
:1050600001618161FEF76EFD18B1FFE7FBF750FCAF
:10507000FFE760200190002202920392059241F224
:105080000C00C2F2000001A9FEF7BAFC18B1FFE75C
:10509000FBF73EFCFFE741F20C00C2F2000001A961
:1050A0000422FEF7ADFC18B1FFE7FBF731FCFFE788
:1050B00041F20C00C2F20000FEF766FC08B080BDB1
:1050C00080B584B00021039102910191009141F2D9
:1050D0009C00C2F2000044F20002C4F2010202602D
:1050E00040F283324260816040F25722C260016127
:1050F0008161FEF707F918B1FFE7FBF709FCFFE74D
:105100004FF48050009041F29C00C2F200006946CA
:10511000FEF736FA18B1FFE7FBF7FAFBFFE704B03A
:1051200080BD000080B582B041F26C10C2F2000078
:10513000019044F60041C4F2000101604FF4E131F6
:10514000416000218160C16001610C224261816186
:10515000C161FFF7FBF918B1FFE7FBF7D9FBFFE7E8
:1051600041F26C10C2F200000168C86840F0100003
:10517000C86002B080BD000080B582B041F2B010BE
:10518000C2F20000019047F60001C4F20001016084
:105190004FF4E131416000218160C16001610C2266
:1051A00042618161C161FFF7D1F918B1FFE7FBF7F7
:1051B000AFFBFFE702B080BD80B582B041F2E400F2
:1051C000C2F20000019041F20001C4F2010101604D
:1051D00048F2A061C0F20101416000218160C1601C
:1051E00001610C2242618161C161FFF7AFF918B121
:1051F000FFE7FBF78DFBFFE741F2E400C2F200009E
:105200000168C86840F01000C86002B080BD0000AE
:1052100080B582B041F22810C2F20000019044F241
:105220000041C4F2000101604FF4E131416000210E
:105230008160C16001610C2242618161C161FFF73F
:1052400085F918B1FFE7FBF763FBFFE741F2281090
:10525000C2F200000168C86840F01000C86002B0E7
:1052600080BD0000FFE7FEE7FFE7FEE788B007909C
:1052700006910592079800F0070004900498C0F189
:105280000700052803D3FFE70420019004E00498F9
:10529000C0F107000190FFE70198039004980430E3
:1052A000062803D8FFE70020009003E004980338A5
:1052B0000090FFE70098029006980399012202FAF5
:1052C00001F101390840029B984005999A40013A42
:1052D0001140084308B0704786B003A90091014609
:1052E0000098059180ED010AC0ED000A0598D0F8FC
:1052F0000600406840F27041C2F2000108600020E0
:10530000ADF80A00FFE7BDF80A00059909880139E0
:10531000884224DAFFE70598D0F80600BDF80A10A5
:1053200000EB810090ED010A40F27041C2F20001F1
:1053300091ED001A30EE410A80ED000A0598D0F890
:105340000A10BDF80A2001EB8200406841F82200F3
:10535000FFE7BDF80A000130ADF80A00D3E7009975
:10536000059AD2F80600128800EB820010ED020ABE
:1053700091ED011A30EE010A00ED010A0398059A39
:10538000D2F80A10128801EB820141F8040C059949
:10539000D1F802000988884207D2FFE70599D1F8C1
:1053A00002000130C1F80200FFE705990020C1F8B2
:1053B0002600C1F82200C1F81E00C1F81A000599A4
:1053C0000888D1F80210401AADF80800FFE7BDF8D0
:1053D00008000599098888425DDAFFE70599BDF85C
:1053E0000830D1F80620D1F81A0002EB830292EDC2
:1053F000000A01EE100A20EE000A30EE010A10EE5B
:10540000100AC1F81A000599BDF80830D1F8062035
:10541000D1F81E0002EB830292ED001A00EE100A92
:1054200030EE010A10EE100AC1F81E000599BDF811
:105430000830D1F806C0D1F80A20D1F822000CEBD0
:10544000830C9CED000A02EB830292ED002A01EE30
:10545000100A20EE020A30EE010A10EE100AC1F81E
:1054600022000599BDF80830D1F80A20D1F82600AD
:1054700002EB830292ED001A00EE100A30EE010AF0
:1054800010EE100AC1F82600FFE7BDF80800013051
:10549000ADF808009BE705990A4652F81A0F5368C1
:1054A000D2F808C0D26802EE10CAB1F800C000EE0F
:1054B00010CAB8EEC03A01EE103A00EE102A21EE02
:1054C000000A22EE032A30EE420A02EE100A21EE12
:1054D000011A22EE032A31EE421A80EE010A10EE82
:1054E000100AC1F80E0005990020C1F816000599B0
:1054F0000888D1F80210401AADF80600FFE7BDF8A1
:10550000060005990988884230DAFFE70599D1F845
:1055100006C0D1F80A00D1F80E20D1F8123000EE02
:10552000102ABDF806200CEB820C9CED002A01EE3F
:10553000103A20EE020A30EE010A00EB820090EDF4
:10554000001A30EE410AB0EEC01AD1F8160000EE93
:10555000100A30EE010A10EE100AC1F81600FFE73B
:10556000BDF806000130ADF80600C8E705990888C7
:1055700000EE100AB8EEC01AD1F8160000EE100ABC
:1055800080EE010A10EE100AC1F816000598D0F856
:105590000E0000EE100A06B07047000080B584B01F
:1055A0000390ADF80A10BDF80A000399088003992A
:1055B00000200190C1F80200BDF80A00800006F04A
:1055C00073FE0399C1F80600BDF80A00800006F0DA
:1055D0006BFE01460198039AC2F80A100399C1F8BC
:1055E0000E000399C1F812000398D0F80600BDF828
:1055F0000A108900FAF70FFF0398D0F80A00BDF8E7
:105600000A108900FAF707FF01980399C1F82600EC
:10561000C1F82200C1F81E00C1F81A0004B080BD14
:1056200080B588B08DED060ACDED050A8DED041A22
:105630004CF6CD40C3F64C7003904CF6CD40C3F60B
:105640004C6002909DED060A02F09EFF8DED010A6E
:105650009DED050A02F098FFB0EE401A9DED010A9B
:1056600030EE410A02F090FF9DED041AB4EE410ABB
:10567000F1EE10FA11DBFFE79DED050A9DED061A2C
:105680009FED122A21EE021A9FED0E2A20EE020A49
:1056900030EE010A8DED070A10E09DED050A9DED43
:1056A000061A9FED082A21EE021A9FED072A20EE26
:1056B000020A30EE010A8DED070AFFE79DED070AA9
:1056C00008B080BDCDCC4C3FCDCC4C3ECCCC4C3E7C
:1056D00083B002900191029890F83E0000F00F0014
:1056E000012877D1FFE701990020C86001998860FF
:1056F000019908610199486101998861019948F609
:105700000060CCF68F000862019940F2EE20A1F80B
:105710004400019940F20E60A1F84600019890F80B
:105720002400012804D1FFE701990020C8610CE0A2
:10573000019890F8240038B9FFE701994CF2000075
:10574000C4F22340C861FFE7FFE701990020009001
:1057500081F84000019988620199C8620199486303
:1057600001998863019908630199C86340F2744103
:10577000C2F20001087040F27541C2F200010870E7
:1057800040F27641C2F20001087040F27741C2F265
:1057900000010870029A92F8441001F0DF0182F8CB
:1057A0004410029A92F8441001F0BF0182F84410AC
:1057B000029A92F8451001F0FB0182F84510029A16
:1057C00092F8451001F0F70182F84510019981F82F
:1057D0004800FFE703B0704782B001900091019844
:1057E00090F844004009C007002800F07F82FFE7DE
:1057F000019890F84500C008C007002840F0768264
:10580000FFE740F27540C2F200000078002841D165
:10581000FFE700990020C860009947F60040C4F6F1
:1058200012000861009944F20000C4F29C70886084
:10583000009940F60040CCF6F800086240F248605B
:10584000C2F20000406943F26861C0F2020188427E
:105850001FDBFFE740F20070C2F2000040694CF627
:105860009811CFF6FD71884213DCFFE740F608403F
:10587000C2F20000406942F2F841C0F201018842E0
:1058800007DBFFE740F27541C2F20001012008701A
:10589000FFE7FFE740F27540C2F200000078012800
:1058A0004FD1FFE7009946F20050C4F681004861ED
:1058B000009947F60040C4F69200886100994CF2C6
:1058C0000000C4F22340C86100994FF44870A1F869
:1058D000440040F6C040C2F20000406941F6235146
:1058E00088422DDBFFE740F6C040C2F2000040696D
:1058F00041F68751884223DCFFE740F67850C2F238
:10590000000090ED000A9FEDD91AB4EE410AF1EEC5
:1059100010FA15DDFFE740F27840C2F2000090ED8A
:10592000000A9FEDD31AB4EE410AF1EE10FA07DA3D
:10593000FFE740F27541C2F2000102200870FFE764
:10594000FFE740F27540C2F200000078022852D111
:10595000FFE7019890F83E100120B0EB111F4AD1EB
:10596000FFE7009890F84900022844D0FFE700992B
:105970004DF20010C4F6EC00C860009942F20040FD
:10598000C4F6F400086140F67000C2F200004069FD
:1059900044F26031C0F2070188422BDBFFE740F29E
:1059A000B870C2F2000040694BF6A041CFF6F87122
:1059B00088421FDCFFE740F24860C2F20000406905
:1059C00048F69851C0F20701884213DBFFE740F226
:1059D0000070C2F20000406943F6A461CFF6FF7187
:1059E000884207DCFFE740F27541C2F20001032064
:1059F0000870FFE7FFE740F27540C2F20000007850
:105A0000032839D1FFE7009900204861009945F249
:105A10000000C4F22650C861009945F20000C4F2AB
:105A2000C360886040F67850C2F2000090ED000A32
:105A30009FEDAF1AB4EE410AF1EE10FA1BDAFFE760
:105A400040F6C040C2F20000406942F2F94188428B
:105A500011DBFFE740F60840C2F20000406947F260
:105A60003051884207DCFFE740F27541C2F2000185
:105A700004200870FFE7FFE740F27540C2F2000023
:105A80000078042844D1FFE7009942F20020C4F6D0
:105A9000A100C860009941F20040C4F6CD00086141
:105AA00040F67000C2F20000406943F22001C0F2EB
:105AB000050188422BDCFFE740F2B870C2F200001B
:105AC00040694CF6E071CFF6FA7188421FDBFFE7C0
:105AD00040F24860C2F20000406948F2E071C0F252
