:020000040800F2
:10000000B005002001010008692F00083D2C000800
:10001000652F0008D50200087130000800000000BC
:10002000000000000000000000000000712F000828
:1000300019030008000000006D2F0008752F00084C
:100040001B0100081B0100081B0100081B01000820
:100050001B0100081B0100081B0100081B01000810
:100060001B0100081B0100081B0100080103000818
:100070001B0100081B0100080D0300081B010008FC
:100080001B0100081B010008490100081B010008B2
:10009000653000081B0100081B0100081B01000857
:1000A0001B0100081B0100081B0100081B010008C0
:1000B0001B0100087D2F00081B0100081B01000820
:1000C0001B0100081B0100081B0100081B010008A0
:1000D0001B010008593000081B0100081B01000823
:1000E0001B0100081B0100081B010008DFF80CD0F1
:1000F00000F018F80048004775300008B0050020EF
:100100000648804706480047FEE7FEE7FEE7FEE7B1
:10011000FEE7FEE7FEE7FEE7FEE7FEE7792F0008D1
:10012000ED000008064C074D06E0E06840F00103D2
:1001300094E8070098471034AC42F6D3FFF7DAFF93
:10014000003200082032000840F24000C2F20000F5
:1001500000F060BBB0B5044600688168C90709D0EB
:10016000816821F00101816001F00EFC216889683D
:10017000C90701D10020B0BD054602E08068C00774
:10018000F8D001F001FC411B20680329F6D38168F7
:10019000C907F3D0A06A40F01000A062E06A40F006
:1001A0000100E0620120B0BD0146406A826A12F09F
:1001B000500F03D0006A026B084610470168826A3C
:1001C00042F400728262896801F46021B1F5602F07
:1001D00001D1017B11B100F017BB00BF816A21F48E
:1001E00080718162816AC90448BF00F00DBB816AD9
:1001F00041F00101816200F007BB0000406A816AA2
:1002000041F040018162C16A41F00401C16200F025
:10021000FFBA0000406A00F0F9BA0000B0B582B041
:1002200004460020019021688A68D2074FD188686F
:1002300040F00100886040F20800C2F2000000684F
:100240004DF68361C4F21B31A0FB0101880C0190C3
:100250000198A0B1019801380190019878B10198F6
:1002600001380190019850B101980138019001982E
:1002700028B101980138019001980028EAD101F0D5
:1002800083FB21688968C9071CD1054603E000BFCC
:100290008068C0071AD101F077FB411B2068032951
:1002A000F6D38168C907F3D1A06A40F01000A062BC
:1002B000E06A40F00100E062002084F824000120A0
:1002C00002B0B0BD002002B0B0BD00BF002002B03F
:1002D000B0BD0000FEE7000080B588B00A460821E6
:1002E00006910021029040F27000CDE90411C2F2A3
:1002F000000002A901AB00F0BBFC08B080BD00000B
:1003000040F29800C2F2000001F0D0B840F2DC00E8
:10031000C2F2000001F0CAB870470000EFF310808D
:1003200072B600BFFEE7000070B582B00446002040
:10033000019094F82400012804D10225284602B037
:1003400070BD00BF012084F824002046FFF702FFA3
:10035000054600286CD1A06A41F2021188430230A0
:10036000A06240F20800C2F200000668022001F01C
:10037000C5FBB6FBF0F0400001900198A8B100BFAA
:10038000019801380190019878B1019801380190E5
:10039000019850B1019801380190019828B1019855
:1003A0000138019001980028EAD12046FFF736FF76
:1003B0002068816841F00801816001F0E5FA216858
:1003C0008A6812070ED4886840F00400886001F043
:1003D000DBFA21688968490714D401206FF0030112
:1003E00022E000BF064602E088680007EBD501F076
:1003F000CBFA801B21680B28F6D388680007F3D559
:100400000EE000BF064602E080684007E5D501F037
:10041000BBFA811B20680B29F6D381684907F3D505
:10042000012510206FF01201A26A11400843A0625A
:10043000002084F82400284602B070BDF0B581B0D9
:100440000022009290F82420012A05D14FF0020CDE
:10045000604601B0F0BD00BF8368D1F804E001221E
:1004600080F82420A3B10A690668BEEB020505EBFB
:100470008505B46B05F10F054FF01F0303FA05F373
:1004800024EA030323F4401416D9B4631FE000BF29
:10049000BEF1010F40F0AA8006684FF0000CB26B6D
:1004A0000D686FF3150242EAC532B2634FF0010ED8
:1004B000B268D20710D016E040F2000CCFF6F07C04
:1004C0000B680CEB0252AB4022431A43B2634FF06D
:1004D000000CB268D20706D1B26847F201038C69FA
:1004E0009A432243B2604A7D012A1FD00B7D012B23
:1004F00030D00A68092A3FD902EB4204F3681E3C57
:1005000007258F68A540AB4307FA04F4234322F084
:100510000104102CF36049D1B368012543F40003B2
:10052000B360BEF1030F36D144E000BF8B6900F128
:100530002804B3F5E04F4FF0200314BF4FF0010C37
:10054000341D08BF4FF4806325682B4323600B7D67
:10055000012BCED100F12803002A4FF0200214BF56
:100560004FF0010C331D08BF4FF480521C6822432A
:100570001A600A68092ABFD8336902EB42040725CA
:100580008F68A540AB4307FA04F423433361002589
:10059000BEF1030F0ED0BEF1020F0FD0BEF1010F5E
:1005A00014BF06F1200406F1140409E00025BEF191
:1005B000030FF0D106F11C0402E000BF06F118049D
:1005C000236840F6FF77C968BB431943002D2160BB
:1005D00048D042F20041C4F201018E4212D0816A39
:1005E0004FF0010C41F0200181623BE00668826A15
:1005F0004FF0010C42F020028262B268D2073FF451
:100600006BAF70E7896809022CD4B168102A41F4F5
:100610000001B16026D140F20801C2F20001096870
:100620004DF68362C4F21B32A1FB0212910C01EB66
:100630008101490000910099A1B10099013900910F
:10064000009979B1009901390091009951B100994F
:1006500001390091009929B100990139009100995F
:100660000029EAD1002180F82410604601B0F0BDD5
:100670007047000010B581B00022009290F824204D
:10068000012A03D10221084601B010BD4B680122A6
:10069000062B80F8242015D8026803EB8303A3F10E
:1006A000050E1F23D2F834C003FA0EF40B682CEAAF
:1006B000040C03FA0EF444EA0C045463092B17D912
:1006C00037E000BF02680C2B20D803EB8303A3F1B3
:1006D00023041F23D2F830C003FA04FE0B682CEA6F
:1006E0000E0C03FA04F444EA0C041463092B20D81A
:1006F000D2F810C003EB4303072489689C402CEA1E
:100700000404994021431161002136E003EB830387
:10071000A3F141041F23D2F82CC003FA04FE0B6896
:100720002CEA0E0C03FA04F444EA0C04D462092BFC
:10073000DED903EB4304D2F80CC0A4F11E0E07244B
:10074000896804FA0EF42CEA040401FA0EF121433C
:1007500023F00104102CD1600ED142F20841C4F202
:100760000101A1F10804A2420ED0816A41F02001EA
:100770008162012101E000BF0021002280F82420D5
:10078000084601B010BD00BF0A68120230D40A68E2
:10079000102B42F400020A602CD140F20801C2F290
:1007A000000109684DF68362C4F21B32A1FB0212FC
:1007B000910C01EB8101490000910099E1B1009990
:1007C000013900910099C9B100990139009100994E
:1007D000B1B1009901390091009999B1009901399D
:1007E0000091009900294FF00001E8D1C5E700BF52
:1007F0000021C2E70021C0E70021BEE70021BCE7DD
:100800000021BAE70021B8E77047000070470000F8
:100810007047000010B5044600684168890644BF6F
:1008200001685FEA81710BD44168090644BF016821
:100830005FEA41712AD4416849065BD410BD00BF0C
:10084000A16AC90603D4A16A41F40071A16281685A
:1008500001F46021B1F5602F10D1217B71B941689D
:1008600021F020014160A06A20F48070A062A06A9B
:10087000C00403D4A06A40F00100A0622046FFF744
:10088000C3FF20686FF012010160CDE7A16AC906BD
:1008900003D4A16A41F40051A162816801F4E041EE
:1008A000B1F5E04F10D1416821F080014160A06AAC
:1008B00020F48050A062A06AC00511D4A06A40F064
:1008C0000100A0620CE000BF4168490508D48168BE
:1008D00001F46021B1F5602F02D1217B0029E2D023
:1008E0002046FFF7C5FE20686FF00C0101604168EB
:1008F0004906A3D50068C00708BF10BDA06A40F430
:100900008030A062204600F0B3F820686FF001014B
:10091000016010BDB0B5002800F0A8800446806AD0
:1009200020B121688868C0070BD114E00020E06284
:1009300084F82400204600F09DF821688868C007EC
:1009400009D0886820F00100886001F01DF8216856
:100950008A68D20726D1A06AC0063AD4A06A41F2BA
:10096000021290430230A062E069D4E9013240EA09
:10097000030C531EB3FA83F35D091346B2F5807F6F
:1009800018BF2B02207D257B01284CEA450030D181
:1009900035B3A56A45F02005A562E56A45F0010575
:1009A000E56226E0054602E08868C007D3D000F083
:1009B000EBFF401B21680328F6D38868C007F3D0FB
:1009C000A06A40F01000A062E06A40F00100E0621E
:1009D000A06AA06A40F01000A0620120B0BD00BF74
:1009E000D4F818C04EF60005CFF6FF7505EB4C3570
:1009F0002B434D68B2F5807F25F4694543EA050332
:100A00004B608B684FF2FD75CFF6E17503EA050385
:100A100043EA00038B6001D0012A07D12269002339
:100A2000CFF6F07303EB025201E000BF0022CB6A65
:100A300023F470031A43CA62896840F6FE62CFF657
:100A40001F721140814207D10020E062A16A012299
:100A500062F30101A162B0BDA06A40F0100020F075
:100A60000200A062E06A40F00100E0620120B0BD37
:100A70007047000070B586B0044640F60000C4F22E
:100A80000100216800F5E052002691420596049687
:100A900002D006B070BD00BF41F21801C4F20201DD
:100AA0000A6842F400720A600A6802F40072019255
:100AB000019A0A6842F004020A60096801F0040120
:100AC00001910199902102910321039102A900F063
:100AD00045FE40F298050820C2F20005C4F202006B
:100AE0004FF48072C5E9000605F1100080214FF433
:100AF00080634FF0200C80E80C102846C5E90261A5
:100B0000EE6100F0A1FD002818BFFFF707FC1220DE
:100B10000021002225626C6200F0B4FF122000F078
:100B2000A1FF06B070BD000070B515460446006810
:100B300042F60002C4F2010290420E4605D042F293
:100B40000041C4F20101884209D142F20440C4F2DA
:100B50000100006810F4702F1CBF012070BD94F8D4
:100B60002400012804BF022070BD012084F8240065
:100B70002046FFF753FB18B1002184F8241070BD04
:100B800042F204402168A26AC4F2010040F60173F7
:100B90009A4300F57F7302F580729942A26243D0B6
:100BA000A06A20F48010A0624868400504D5A06ABD
:100BB000012262F30D30A062A26A0020D2044FF03D
:100BC000000244BFE26A22F00602E26284F82400D6
:100BD000206A40F2A912C0F6000240F2152340F24A
:100BE000FD1C00F1280EC0F60003C0F6000C8EE8D4
:100BF0000C106FF002020A608A682B4642F4807281
:100C00008A604C31324600F05BFD2068816801F457
:100C100060228168B2F5602F0CBF41F4A00141F45D
:100C200080118160002070BD026812F4702FB7D06F
:100C3000A26A42F48012A26200684005BCD5B6E701
:100C400090F82020013A012A08D8006800F1140227
:100C50000020136819431160704700BF00F124029F
:100C600001204FF480211368194311607047000080
:100C700010B590F820E0D0F800C0AEF1010EBEF142
:100C8000010FDCF808E011D81EF0E05F18D0CEF3B9
:100C9000016EBEF1030F1DD100F1240101204FF4BC
:100CA00000020B681A430A6010BD00BF00F1240166
:100CB00001204FF480220B681A430A6010BD00BF68
:100CC00000F1240101204FF400120B681A430A605E
:100CD00010BD00BF012000FA0EF01860886818B13E
:100CE0004B6840EAC30001E008684005D1E90334DD
:100CF00003430CEB0E10C0F88031C0F88441097D2D
:100D0000012905D100F5C2710B6843F480730B60B3
:100D10005168C0F88C11126800F5C071C0F88821C4
:100D2000002001220B681A430A6010BDB0B50268AA
:100D300090F82030013B012B28D8D2F80002012383
:100D400040F00100C2F80002D1F814E0CC690EF0C6
:100D50001F0003FA00F0D2F81C326FEA000C834344
:100D6000012CC2F81C3217D06CBBD2F80C3203EA4B
:100D70000C03C2F80C32CB688C8844EA034302EBC4
:100D8000CE04C4F840320B4615E000BF416A41F47E
:100D9000802141620120B0BDD2F80C320343C2F879
:100DA0000C320B688C8844EA034302EBCE04C4F88F
:100DB000403201F10C038C681B8843EA044302EBC8
:100DC000CE04C4F84432D2F804328D6943EA0004F8
:100DD000D1F810E0096A002D08BF03EA0C04C2F83C
:100DE0000442D2F81432BEF1000F43EA000408BFF7
:100DF00003EA0C040129C2F8144204D1D2F81C12EF
:100E00000843C2F81C02D2F8000220F00100C2F828
:100E100000020020B0BD00007047000010B590F83F
:100E20002040013C012C71D8D0F800C0002977D0B7
:100E3000DCF81040A40777D00CEB011CDCF8B041C3
:100E40000CF5D87E14F004049460DCF8B04119BFAE
:100E5000E4085460640D1460DEF80040002904F0DA
:100E60000204D460DCF8B44104F00F041461DCF82F
:100E7000B441C4F307249461DCF8B4414FEA14444C
:100E80005461DCF8B8211A70026802EB0112D2F842
:100E9000B8214FEA12225A70026802EB0112D2F80E
:100EA000B8214FEA12429A70026802EB0112D2F89E
:100EB000B8214FEA1262DA70026802EB0112D2F82E
:100EC000BC211A71026802EB0112D2F8BC214FEA70
:100ED00012225A71026802EB0112D2F8BC214FEAC9
:100EE00012429A71026802EB0112D2F8BC214FEA59
:100EF0001262DA71006814BF00F1100100F10C01F8
:100F0000002020220B681A430A6010BD00F1240162
:100F100001204FF480220B681A430A6010BD00BF05
:100F2000DCF80C40A40787D100F1240101204FF424
:100F300000120B681A430A6010BD00002DE9F04F43
:100F400081B0044600684669D0F804908768D0F8FC
:100F50000CB0D0F810A0D0F81880F10704D100250B
:100F600030071DD424E000BFF90710D00121BA07D3
:100F7000816009D4780700F1AF80380700F1B680AE
:100F8000204600F00BFA02E0204600F009FA0025A6
:100F9000F80500F18780F80300F1B180300707D52C
:100FA0001BF0100004D0206845F400751021C160CA
:100FB000700708D51BF0080005D020680821C16023
:100FC000204600F0ABF9B00706D52068C06880075E
:100FD00002D0204600F0A4F9700607D51AF01000E0
:100FE00004D0206845F4806510210161B00608D561
:100FF0001AF0080005D0206808210161204600F0A1
:1010000099F9F00606D520680069800702D02046CD
:1010100000F092F9B00308D519F0100005D020684F
:1010200010214160204600F089F9F00308D519F03D
:10103000080005D0206808214160204600F0BAF978
:10104000300440F19B805FEA497040F1948006F4DF
:10105000807008EA102028435FEA8871014648BF83
:1010600041F00201B20558BF01465FEA48700D46E3
:1010700048BF45F00405700558BF0D46300540F1E6
:101080007A8018F0700000F076801038000905288A
:101090006CD8DFE800F003595D61656945F008052B
:1010A00064E000BF20684FF48071BA0581600BD402
:1010B000780515D438051DD4204600F073F9F803DF
:1010C0007FF56CAF1BE000BF204600F06DF9F80320
:1010D0007FF564AF13E000BF4FF4006558E700BF31
:1010E00005F50055F8037FF559AF08E04FF480553A
:1010F0004EE700BF05F58045F8037FF54FAF206848
:101100004FF48031BA0381600AD4780310D43803D5
:1011100014D4204600F04AF930073FF541AF47E7C5
:10112000204600F045F930073FF53AAF40E700BFF1
:1011300005F5004530073FF533AF39E705F5803554
:1011400030073FF52DAF33E745F010050EE000BF47
:1011500045F020050AE000BF45F0400506E000BF6D
:1011600045F0800502E000BF45F480752068816984
:1011700021F07001816120680421416055B1606AED
:1011800040EA05012046616201B0BDE8F04FFFF77B
:1011900043BE00BF01B0BDE8F08F0000B0B5C8B1DC
:1011A000044690F8200010B9204600F071F820683D
:1011B000016841F00101016000F0E6FB054600BF57
:1011C00020684168C90707D100F0DEFB401B0B28EF
:1011D000F6D312E00120B0BD016821F002010160E8
:1011E00000F0D2FB054600BF2068416889070DD595
:1011F00000F0CAFB401B0B28F6D3606A052140F4BF
:1012000000306062012084F82010B0BD217E0268A9
:10121000012922F0800208BF80320260617E0268EC
:10122000012922F0400208BF40320260A17E02681C
:10123000012922F0200208BF20320260E17E02680C
:10124000012922F0100218BF10320260217F0268CB
:10125000012922F0080208BF08320260617F02689B
:10126000012922F0040208BF04320260D4E901C25D
:10127000D4E9033561691A432A431143ACF10102F1
:101280001143C16100200121606284F82010B0BDCB
:10129000B0B586B040F60004C4F201040068A4F5BD
:1012A000244200219042059102D006B0B0BD00BF9B
:1012B00041F21800C4F20200426802AD42F000722E
:1012C0004260426802F000720192019A026842F0A4
:1012D00004020260006800F00400019001984FF4DD
:1012E0000060CDE9020104912046294600F036FA5B
:1012F0004FF4805002900220039003200590204676
:10130000294600F02BFA14200021002200F0BAFB3D
:10131000142000F0A7FB06B0B0BD0000704700002D
:1013200040F21003C2F2000303F108020021FFF7AC
:1013300075BD000070470000704700007047000056
:10134000B0B5044690F8200001281DD1022084F891
:1013500020002068016821F00101016000F014FB09
:10136000054600BF20684068C00713D000F00CFBA2
:10137000401B0B28F6D3606A40F400306062052001
:1013800084F820000120B0BD606A40F40020606253
:101390000120B0BD00206062B0BD000070470000B9
:1013A0007047000070470000704700007047000061
:1013B0007047000070470000014690F821000228A5
:1013C00016D10868D1E90FC3026822F00E0202604C
:1013D000026822F001020260012000FA03F2CCF858
:1013E000042081F821000020002281F8202070478D
:1013F000042088630120002281F82020704700002B
:1014000080B590F82110022924D10268116821F0DA
:101410000E0111602F211368C4F202018A4240F2CA
:101420000401C4F2020123F00103136016DD30232E
:10143000C4F202039A421DD04423C4F202039A422A
:101440001CD05823C4F202039A421DD14FF48033BA
:1014500022E000BF04218163012080BD0823C4F283
:1014600002039A420ED01C23C4F202039A420BD10B
:10147000102311E04FF480730EE000BF4FF480534F
:101480000AE000BF012307E001F1680C4FF0807310
:10149000624508BF4FF480130B60416B4FF48072BC
:1014A000028401B18847002080BD000010B5D0E95A
:1014B0000FCE0168DCF800300A6823FA0EF35C07EF
:1014C0002AD512F0040427D00A68920603D40A68C9
:1014D00022F004020A602F22C4F20202914240F27A
:1014E0000402C4F2020259DD3023C4F2020399421D
:1014F00070D04423C4F20203994271D05823C4F23D
:101500000203994278D14FF480231360C16A002905
:1015100040F097806EE000BF9C0727D512F00204D0
:1015200024D00A68920606D40A6822F00A020A60E9
:10153000012280F821202F22C4F20202914240F2BF
:101540000402C4F2020239DD3023C4F202039942DC
:101550005ED04423C4F2020399425DD05823C4F202
:10156000020399425ED14FF4003363E01B0741D57B
:1015700012F0080208BF10BD0A6822F00E020A60CD
:10158000012101FA0EF2CCF804208163016B4FF4C3
:1015900080720029028454D12CE000BF0823C4F2D9
:1015A0000203994222D01C23C4F20203994223D1A0
:1015B00040231360C16A002943D11BE00823C4F211
:1015C000020399422CD01C23C4F20203994229D170
:1015D00020232FE04FF480631360C16A89BB09E0C8
:1015E0004FF480431360C16A59BB03E004231360C6
:1015F000C16A31BB10BD00BF02F168044FF08063C7
:10160000A14208BF4FF480031360C16AC9B9F1E772
:101610004FF400730EE000BF4FF400530AE000BF28
:10162000022307E002F168044FF00073A14208BFF3
:101630004FF400131360816A0022002980F82020F3
:10164000D8D0BDE810400847002804BF01207047EB
:101650002DE9F04101684FF6F872CBF6FD724CF6B9
:10166000CD430A44CCF6CC43A2FB03236FF003071F
:1016700007EA93030027C4F2020700F1040E00F109
:101680001008C0E90F739EE8045098E870010B68D9
:1016900043F6F077BB431A4342EA0C0242EA0E02D9
:1016A00022432A43324342EA08020A6000214FF4EF
:1016B000807281630284BDE8F041084670470000F3
:1016C000F0B590F820C0BCF1010F32D090F821C0E5
:1016D0004FF0010EBCF1010F80F820E026D14FF051
:1016E000020C80F821C04FF0000CC0F838C0D0E9DF
:1016F00000C4C56AC66BDCF80070102C27F0010727
:10170000CCF80070006C0EFA00F070600846CCF85F
:10171000043004BF10460A46CCF80800CCF80C2070
:10172000DCF8000045B140F00E000DE0002180F82B
:1017300020100220F0BD00BF20F00400CCF8000013
:10174000DCF8000040F00A00CCF80000DCF80000F3
:1017500040F00100CCF800000020F0BD2DE9F04F72
:1017600082B041F20042C4F201020E6804239042AA
:1017700008BF0323002E009300F0F68040F20C4EC9
:101780004FF6FF7CC4F2010E00220124C1F2100CBE
:101790004FF0000A4FF0000943E000BF012502F0BE
:1017A0000C040F27A7402BEA070705FA04F43C4373
:1017B00043F82640D1F804B040F20045C4F20105D8
:1017C0005FEACB332B6854BF23EA080343EA0803DC
:1017D0002B606B685FEA8B3454BF23EA080343EA4B
:1017E00008036B605FEACB24AB6854BF23EA0803AD
:1017F00043EA08035FEA8B24AB60DEF800304FF069
:10180000010454BF23EA080343EA0803CEF800307A
:101810000E680AF1010A36FA0AF302F1040200F036
:10182000A38004FA0AF816EA080FF1D04B68634562
:1018300012DC122B56D8DFE803F0350B454955551D
:1018400055555555555555555555554D510000BF94
:10185000D1F80C9046E000BF4FF6FF77C1F22107A8
:10186000BB420FDC0027C1F21107BB421AD0002790
:10187000C1F21207BB4215D00027C1F22107BB42BB
:1018800010D02FE00027C1F22207BB420AD0002768
:10189000C1F23107BB4205D00027C1F23207BB427B
:1018A00020D100BF8B684BB1012B14BFC0F814804E
:1018B000C0F810804FF0080914E000BF4FF0040991
:1018C00010E000BFCB6803F108090BE04FF00009FE
:1018D00008E000BFCB6803F1040903E0CB6803F123
:1018E0000C0900BF13460546BAF1080F24BF203B80
:1018F00004352E680F279F40BE4309FA03F3334394
:101900002B60CB79DB067FF583AF41F21804C4F27C
:10191000020423684FEA9A0643F001032360236818
:1019200040F6000403F001030193019B40F20043E1
:10193000C4F20103A3F57E7353F826B0C4F2010488
:10194000A0420FD040F60044C4F20104A0423FF48C
:1019500025AF41F20004C4F20104009DA04208BF7B
:1019600002251CE700251AE702B0BDE8F08F000051
:101970008068084018BF012070470000002A08BF97
:10198000090401617047000040F2AC10C2F200008F
:101990000068704740F2000040F2AC11C2F2000053
:1019A000C2F2000100780A68104408607047000025
:1019B00080B542F20000C4F20200016841F010015B
:1019C0000160032000F08AF80F2000F005F800F015
:1019D00027F8002080BD000070B540F20006C2F27A
:1019E000000640F208013278C2F200014FF47A7327
:1019F0000968B3FBF2F20446B1FBF2F1084600F0CD
:101A00005DFC0F2C4FF0010508D838B94FF0FF30BE
:101A100021460022002500F035F87460284670BD8C
:101A200082B041F21800C4F202000168022241F0C3
:101A300001010160016801F0010101910199416812
:101A400041F080514160406800F080500090009863
:101A50000420C4F20100016862F31A61016002B05F
:101A600070470000002848BF704700F01F010122A6
:101A700002FA01F14EF200124009CEF2000242F8E1
:101A80002010704710B54EF60C5CCEF2000CDCF85E
:101A90000030C3F3022E8EF00704042C28BF042468
:101AA000BEF103034FF0FF3E0EFA04F438BF0023EB
:101AB000A14399400EFA03F39A43114300F00F0239
:101AC000043A624409010C3200F16043B0F1FF3F77
:101AD000C8BF03F56442117010BD00004EF60C51F2
:101AE000CEF200010A684FF6FF031A4060F30A22A3
:101AF00042F0806040F0FD700860704780B50128BA
:101B000018D0022836D0102832D141F20401C4F294
:101B100002010A6851F8040CC00129D5C2F38340C0
:101B20002DA3185CD2033DD440F60012C0F23D0252
:101B3000504343E041F20400C4F20200C16940F2A4
:101B400002320A40B2F5817F04BF4FF4004080BDED
:101B500001F44071B1F5407F1CD0B1F5007F07D191
:101B6000006A49F64041800701EAE07080BD00BF8D
:101B7000002080BD00F0B4F941F20401C4F202017A
:101B800009680222C1F3813102EB4101B0FBF1F09F
:101B900080BD00BF50F8040C4FF22441800301EADD
:101BA000E07080BD0A6810A3C2F340429A5C41F223
:101BB0000023C0F27A03B3FBF2F2504309684902F2
:101BC00048BF80BD4AF6AB214000CAF6AA21A0FB5F
:101BD0000101480880BD00BF02030405060708098B
:101BE0000A0B0C0D0E0F1010010200002DE9F04140
:101BF00082B00446007841F21C06C007C4F2020617
:101C00004AD0306810F0805808D1306840F08050D9
:101C10003060306800F080500190019847F2000772
:101C2000C4F200073868C00512D4386840F48070E8
:101C30003860FFF7A9FE05463868C00508D4FFF7ED
:101C4000A3FE401B6428F7D9032002B0BDE8F08151
:101C5000706810F4407012D0616801F440718842DD
:101C60000DD0706840F24042C4F24222012320F4B9
:101C7000407113600023C007136071602AD170683F
:101C8000616820F440700843B8F1000F706003D120
:101C9000306820F0805030602068810707D556F802
:101CA000181CA26821F44041114346F8181CC006D4
:101CB00004D4002002B0BDE8F08100BF56F8180C33
:101CC000E16820F48000084346F8180C002002B0B8
:101CD000BDE8F081FFF758FE054641F2883700BFA6
:101CE00070688007CBD4FFF74FFE401BB8424FF01F
:101CF0000300F5D9EBE700002DE9F04381B000289F
:101D000000F0858042F20008C4F202080446D8F8C8
:101D100000000D4600F0070088420CD2D8F8000001
:101D200020F007002843C8F80000D8F8000000F0B1
:101D30000700A8426BD1206841F204098107C4F270
:101D4000020917D5410705D5D9F8001041F4E06123
:101D5000C9F80010010705D5D9F8001041F4605109
:101D6000C9F80010D9F80010A26821F0F001114361
:101D7000C9F80010C00741D1D8F8000000F00700F2
:101D8000A8420CD9D8F8000020F007002843C8F872
:101D90000000D8F8000000F00700A84237D1206802
:101DA000410707D5D9F80010E26821F4E06111433A
:101DB000C9F80010000708D5D9F80000216920F4FF
:101DC000605040EAC100C9F80000D9F8002002F0D4
:101DD0000C00082841F20020C0F27A0050D143F2F2
:101DE000EE13C2F38341C0F60003595CD2033BD427
:101DF00040F60010C0F23D00484341E06068022810
:101E00000AD001282AD159F8041C890308D40120DA
:101E100001B0BDE8F08300BF59F8041C8901F6D574
:101E2000D9F8001021F003010843C9F80000FFF7BA
:101E3000ABFD064641F28837D9F80000616800F032
:101E40000C00B0EB810F97D0FFF79EFD801BB842CE
:101E5000F2D9032001B0BDE8F08300BF59F8041C9B
:101E60008907D4D5DCE700BFD9F8002043F2D413AA
:101E7000C2F34042C0F600039A5C4843B0FBF2F064
:101E8000D9F8001043F2D612C1F30311C0F60002D4
:101E9000515C40F2080220FA01F140F20400C2F263
:101EA00000000068C2F200021160FFF795FD0020FB
:101EB00001B0BDE8F083000040F2080041F20401E7
:101EC000C2F20000C4F202010068096843F2E6129F
:101ED000C1F30221C0F60002515CC8407047000007
:101EE00040F2080041F20401C2F20000C4F2020113
:101EF0000068096843F2E612C1F3C221C0F600028D
:101F0000515CC840704700002DE9F04182B00028C4
:101F100068D00446007841F20006C007C4F2020609
:101F200025D0706800F00C0004281BD0706800F009
:101F30000C00082802D17068C00313D46068002820
:101F400000F06881B0F5A02F00F07C81B0F5803FF3
:101F500000F07C81306820F480303060306820F4FC
:101F6000802076E13068800301D56068D0B32078A6
:101F7000800718D5706810F00C0F07D0706800F05B
:101F80000C0008286ED17068C0036BD430688007DD
:101F900002D52069012825D13068616920F0F80058
:101FA00040EAC1003060207800071FD42078400745
:101FB00032D4E56995B1706800F00C00082840F053
:101FC0008F80012D0ED07068216A00F480328A4221
:101FD00008D1616A00F47010884203D1002002B079
:101FE000BDE8F081012002B0BDE8F081A0690028C1
:101FF00062D00020C4F242200121C0F88014FFF713
:10200000C3FC0546706A800700F18C80FFF7BCFCBA
:10201000401B0228F6D92AE1F06910F0805808D157
:10202000F06940F08050F061F06900F0805000905D
:10203000009847F20007C4F200073868C00529D4A9
:10204000386840F480703860FFF79EFC054600BF9A
:102050003868C0051ED4FFF797FC401B6428F7D9E9
:1020600005E100BF2069002840F20000C4F24220D0
:1020700000F0828001210160FFF786FC054600BF69
:10208000306880073FF588AFFFF77EFC401B0228D1
:10209000F6D9ECE0E068002800F08080052800F028
:1020A0009780012800F09880306A20F001003062AB
:1020B000306A20F0040092E00020C4F242200021A7
:1020C000C0F88014FFF760FC054600BF706A800707
:1020D0007FF56CAFFFF758FC401B0228F6D9C6E02D
:1020E0000027C4F2422700203866FFF74DFC022D7E
:1020F00005460BD13068800140F1BE80FFF744FCFB
:10210000401B02284FF00300F4D968E730688001D3
:102110007FF564AFFFF738FC401B02284FF0030047
:10212000F4D95CE740F20800C2F20000006844F60F
:10213000D351C1F26201A0FB0101480A019000BF26
:1021400000BF0198411E002801913FF42FAF00BF4E
:102150000198411E002801913FF428AF00BF01986B
:10216000411E002801913FF421AF00BF0198411E9C
:1021700000280191E4D119E700210160FFF704FC78
:10218000054600BF306880077FF50DAFFFF7FCFB09
:10219000401B02284FF00300F4D920E7306A20F0FA
:1021A00001003062306A20F004003062FFF7ECFB7F
:1021B000054641F2883700BF306A800720D5FFF717
:1021C000E3FB401BB8424FF00300F5D907E700BF1F
:1021D000306A40F004003062306A40F00100306242
:1021E000FFF7D2FB054641F2883700BF306A80070F
:1021F00006D4FFF7C9FB401BB842F7D937E000BF50
:10220000B8F1000F7FF4D5AEF06920F08050F06196
:10221000CFE600BF306820F480303060306820F4B2
:1022200080203060FFF7B0FB054600BF30688003B8
:102230007FF59DAEFFF7A8FB401B64284FF003001D
:10224000F4D9CCE6306840F480203060306840F447
:1022500080303060FFF798FB054600BF3068800390
:102260003FF585AEFFF790FB401B6428F6D90320AD
:1022700002B0BDE8F08100BF206AB0F5803F05D113
:102280007168A26821F40031114371607168626A5B
:1022900021F4741110430843706001203866FFF781
:1022A00073FB0446306880013FF598AEFFF76CFB86
:1022B000001B02284FF00300F4D990E6411E0020D5
:1022C000B0EB116F1CBF012070474EF21002CEF22E
:1022D000000251604EF62351CEF20001F0230B7044
:1022E0000721906011607047704700007047000040
:1022F00010B590F83C20012A4FF0020233D080F84C
:102300003D200268D2F804E0D2F808C00C682EF034
:102310007003234340F2FF74C4F20004A2425360EE
:102320000ADCB2F1804F13D040F20043C4F2000344
:102330009A420DD011E000BF42F60043C4F20103FF
:102340009A4205D040F60003C4F200039A4204D139
:1023500049682CF08003194391600121002280F824
:102360003D1080F83C20104610BD0000002804BF3E
:102370000120704710B5044690F83D0028B90020B0
:1023800084F83C00204600F067F8022084F83D0005
:10239000206840F2FF730268C4F2000342F6004C6A
:1023A0009842C4F2010C15DCB0F1804F1AD040F213
:1023B0000041C4F20001884214D0984218DCB0F108
:1023C000804F1DD040F20041C4F20001884217D076
:1023D0001AE000BF604505D040F60001C4F20001DC
:1023E0008842EAD1A16822F070020A439842E6DDF1
:1023F000604505D040F60001C4F20001884203D1D7
:10240000216922F440720A43A36922F08001D4F8C2
:1024100004E0E268194360450160C262C0F828E048
:1024200002D16169CCF8301001214161002084F8AB
:10243000461084F83E1084F83F1084F8401084F869
:10244000411084F8421084F8431084F8441084F852
:10245000451084F83D1010BD80B582B0006840F290
:102460000041C4F2000188421CBF02B080BD41F2AD
:102470001C00C4F202000168002241F00201016068
:102480000068002100F00200019001981D20FFF774
:10249000F9FA1D2002B0BDE88040FFF7E3BA000062
:1024A00090F83D1001291CBF01207047022180F8DF
:1024B0003D10006840F2FF72C168C4F20002904211
:1024C00041F00101C16009DCB0F1804F12D040F24F
:1024D0000041C4F2000188420CD012E042F60041F3
:1024E000C4F20101884205D040F60001C4F20001A7
:1024F000884206D1816801F00701062904BF002047
:102500007047016841F00101016000207047000040
:1025100080B590F83C20012A4FF0020200F0BF8005
:1025200080F83D20D0F800C04FF67772DCF8083014
:1025300023EA0202CCF808200B683F2B1CDD5F2B3E
:1025400020DD602B50D0B3F5005F6DD0702B40F0D4
:10255000A080D1E901E3C968DCF8082043EA0E0352
:1025600022F47F4243EA01211143CCF80810DCF841
:10257000081041F077018AE01F2B29DC63B3102B90
:102580002AD086E0402B63D0502B40F08280D1F8D7
:1025900004E0C968DCF82030DCF8202022F00102D9
:1025A000CCF82020DCF8182022F0F00242EA0111D9
:1025B00023F00A0242EA0E02CCF81810CCF82020D0
:1025C000DCF8081041F0570121F020015FE000BF66
:1025D000202B01D0302B5CD1DCF8081021F07001E9
:1025E000194341F0070152E0D1F804E0C968DCF872
:1025F000203023F01003CCF82030DCF81830DCF861
:10260000202023F4704322F0A00243EA013142EA81
:102610000E12CCF81810CCF82020DCF8081041F08D
:10262000670121F0100132E0D1E901E3C968DCF86B
:10263000082043EA0E0322F47F4243EA01211143BA
:10264000CCF80810DCF8081041F480411FE000BF0E
:10265000D1F804E0C968DCF82030DCF8202022F052
:102660000102CCF82020DCF8182022F0F00242EA27
:10267000011123F00A0242EA0E02CCF81810CCF83D
:102680002020DCF8081041F0470121F03001CCF89F
:1026900008100121002280F83D1080F83C201046EF
:1026A00080BD00007047000010B50168044608694D
:1026B000800744BFC8685FEA807039D40869400762
:1026C00044BFC8685FEA40703ED40869000744BF51
:1026D000C8685FEA007045D40869C00644BFC8688E
:1026E0005FEAC0604AD40869C0071CBFC8685FEAD7
:1026F000C07051D10869000644BFC8685FEA006035
:1027000052D40869400644BFC8685FEA406053D4A9
:102710000869800646BFC8685FEA806010BD6FF038
:10272000200220460A61BDE81040FFF7DFBD00BF70
:102730006FF002000861012020778869800743D08C
:102740002046FFF7AFFF45E06FF00400086102206C
:102750002077886910F4407F40D02046FFF7A2FF21
:1027600042E000BF6FF00800086104202077C869CC
:1027700080073DD02046FFF795FF3FE06FF0100047
:10278000086108202077C86910F4407F3AD02046BD
:10279000FFF788FF3CE000BF6FF0010008612046B2
:1027A00000F03EF82168A5E76FF080000861204640
:1027B000FFF79AFD2168A4E76FF04000086120460A
:1027C00000F030F82168A3E7204600F025F8204605
:1027D00000F024F82168002020776FE7204600F001
:1027E0001BF8204600F01AF82168002020776CE7DB
:1027F000204600F011F8204600F010F82168002073
:10280000207769E7204600F007F8204600F006F838
:1028100021680020207766E77047000070470000BD
:1028200070470000704700007047000070470000CC
:10283000B0B582B0026805461068D368546900F0EC
:102840002F01202903F0200106D129B1284602B02A
:10285000BDE8B04000F0A4BB5FEA007C1EBF04F0FE
:10286000010E03F4907414EB0E0455D1296B012969
:1028700005D110F0100118BF13F0100136D1010678
:1028800022D513F080011FD095F83D00212841D1B9
:10289000A868B0F5805F03D12869002800F0F680B1
:1028A000286A411C296200785060E88C01380104D4
:1028B000E8842FD1D06820F08000D060D06840F04C
:1028C0004000D06002B0B0BD400623D513F04000F8
:1028D00020D0D068202120F04000D060284685F824
:1028E0003D1002B0BDE8B04000F0A6B90020019054
:1028F000106801905068019001985069400613D407
:10290000A88DE98DEB8D002B1CBF401A5FEA0041BA
:1029100040F0A48002B0B0BDC40718BF13F48073A8
:102920002CD1430730D436E0A86B01684B689CB2C9
:10293000002CEFD0A98D8C42ECD2EB858369202B43
:1029400017D0D16821F48071D160516921F0010163
:102950005161516921F040015161202185F83E10FB
:1029600000212963D16821F01001D160FEF724FD18
:10297000A98DE88D081A81B2284682E02B6C43F0BD
:1029800001032B64430706D5BEF1000F03D02B6C67
:1029900043F002032B64830706D5BEF1000F03D07A
:1029A0002B6C43F004032B64BCF1000F06D551EAF5
:1029B0000E0303D02B6C43F008032B642B6C002B0D
:1029C000A8D010F0200018BF002903D0284600F03E
:1029D000E7FA2A685069296C00F0400001F008010C
:1029E00040182DD0D06820F49070D060506920F04D
:1029F00001005061286B012803D1D06820F010003D
:102A0000D060202085F83E000020286350694006F1
:102A10001ED5506920F040005061A86BC0B142F64D
:102A20009571C0F600014163FEF7EAFC00283FF40F
:102A300071AFA86B416B02B0BDE8B040084700BF62
:102A40002846FFF7F3FE0020286402B0B0BD00BFA7
:102A5000284602B0BDE8B040FFF7E8BED16821F4D7
:102A60009071D160516921F001015161202185F8F7
:102A70003E1000212963D16821F0100381B228465D
:102A8000D36002B0BDE8B040FFF7CEBE286A30F890
:102A9000021B6FF35F215160286206E7002804BF24
:102AA0000120704710B5044690F83D0028B9002079
:102AB00084F83C00204600F05FF8242084F83D00B4
:102AC0002068D4E90212C36823F40053C360036989
:102AD00023F440531A430261D4E904231143C2682A
:102AE000194341F20C639A431143C1604169A269E1
:102AF00021F44071114343F60002C4F201029042F6
:102B0000416103D0FFF7D8F902E000BFFFF7E8F911
:102B10006268192148439100B0FBF1F048F21F515F
:102B2000C5F2EB11A0FB01235A096FF0630302FB0E
:102B30000300322303EB0010A0FB0101F02303EAA2
:102B40005113206803EB0212C1F343111144816059
:102B5000016921F490410161416921F02A0141613B
:102B6000C16841F40051C16000202021206484F834
:102B70003D1084F83E1010BDF0B585B040F600055C
:102B80000446C4F20105006805F54051002788425B
:102B9000039701D005B0F0BD41F21800C4F2020065
:102BA000016801AE41F480410160016801F4804197
:102BB00000910099016841F004010160006831460C
:102BC00000F00400009000984FF400700190022083
:102BD0000290032004902846FEF7C0FD4FF4806069
:102BE000CDE90107284631460397FEF7B7FD40F2CD
:102BF000DC054420C2F20005C4F20200102180224C
:102C000085E883002846C5E90327C5E90577EF6114
:102C1000FEF71AFD002818BFFDF780FB25200021D4
:102C2000002265636C62FEF72DFF2520FEF71AFF78
:102C300005B0F0BD7047000070470000FEE70000DF
:102C4000B0B58AB040F2400042F200410024C2F226
:102C50000000C4F201014FF4807201254FF460239B
:102C6000C0E9001402210694CDE90444CDE90244F0
:102C7000CDE9004405730475C36182600161FDF70D
:102C800049FE002818BFFDF749FB0420CDE90705E0
:102C900040F24000C2F2000007A90994FDF7EAFCE7
:102CA000002818BFFDF73AFB0720079040F24000CC
:102CB0000224C2F2000007A90894FDF7DBFC0028FB
:102CC00018BFFDF72BFB042000900120019000208D
:102CD00002904FF4E041ADF81400039040F2400040
:102CE0000691C2F2000069460494FDF7A7FB002894
:102CF00018BFFDF713FB072000900220019040F25F
:102D00004000C2F200006946FDF798FB002818BF9A
:102D1000FDF704FB0AB0B0BD10B58AB040F27000F8
:102D200046F20041C2F20000C4F2000100244FF458
:102D300080234FF4001C042280E81600C0E90343FE
:102D4000C0E905C48483FEF729FA002818BFFDF7FF
:102D5000E5FA0E20CDE90544CDE90044CDE9024471
:102D6000049440F2700409900120C2F20004CDE9FD
:102D7000070069462046FDF7D9FF20460221FDF7EE
:102D80005FFF2046FEF7DCFA0AB010BD80B582B0C6
:102D900041F21400C4F202000168002241F0010176
:102DA00001600068002100F00100019001980B20F3
:102DB000FEF768FE0B20FEF755FE0E2000210022D4
:102DC000FEF760FE0E2002B0BDE88040FEF74ABE6E
:102DD0002DE9F04F85B041F21800C4F202000168FD
:102DE00040F6000941F0100101600168C4F20109D8
:102DF00001F0100101910199016809F5006641F0A7
:102E0000200101600168002201F020010191019977
:102E100001684FF4005741F00401016001684FF070
:102E2000000801F0040101910199016841F00801D5
:102E3000016000684FF4005100F008000190019813
:102E40003046FEF79BFD48466A2100224FF06A0B90
:102E5000FEF794FD09F58065284601210022012432
:102E6000FEF78CFDCDE9017401AF4FF0020A304648
:102E70003946CDF80C80CDF810A0FEF76FFC48461F
:102E80003946CDE901B4CDE9038AFEF767FC042099
:102E9000CDE90108484639460394FEF75FFC284611
:102EA0003946CDE90144CDE9038AFEF757FC05B068
:102EB000BDE8F08F80B586B040F2201040F20042AD
:102EC0000021C2F20000C4F20002472340F2E73CB6
:102ED0000591CDE90311CDE90011C0E90023C0E956
:102EE000021C01618161FFF741FA002818BFFDF75C
:102EF00015FA4FF48050029040F22010C2F2000008
:102F000002A9FFF705FB002818BFFDF707FA40F2FA
:102F10002010C2F200006946FFF7EAF9002818BF46
:102F2000FDF7FCF906B080BD80B540F2681043F6AD
:102F30000001C2F20000C4F2010100234FF00C0CAA
:102F40004FF4E13280E80E00C0E90333C0E905C365
:102F5000C361FFF7A3FD002808BF80BDBDE8804026
:102F6000FDF7DCB9FEE70000FEE700007047000057
:102F700070470000FEF70EBD7047000080B500F0FE
:102F8000FDF840F22010C2F20000BDE88040FFF7DB
:102F90008BBB0000406A0021C185C184FFF746BC9D
:102FA00081B090F83E10222920D18368B3F5805F6C
:102FB00008D10169002941D000F128010A6803689D
:102FC0005B680AE0014651F8282F13B90369002B0A
:102FD000F5D003685B6803F07F0313700A68013261
:102FE0000A60C18D01390A04C18501D001B0704762
:102FF0000168CA6822F02002CA60CA6822F480729E
:10300000CA604A6922F001024A61202280F83E200B
:10301000026B012A1CD100220263CB6823F010034B
:10302000CB600B68DB0605D500920A680092496800
:1030300000910099818D01B0FFF7F6BB0168826AAB
:1030400049686FF35F2122F8021B8262C9E700BF63
:1030500001B0FFF7EFBD000040F26810C2F20000BF
:10306000FFF7E6BB40F27000C2F20000FDF766BF5A
:10307000FEE7000094B0FEF79BFC00240120CDE9A0
:103080000F44CDE90D440A900E904FF4E0104FF438
:103090008031022513900AA80494CDE90244CDE9B9
:1030A0000B14CDE91151FEF72FFF28B1EFF310807B
:1030B00072B600BFFEE700BF0F20CDE905054FF453
:1030C0008060CDE9080405A802210794FEF714FEEC
:1030D00020B1EFF3108072B6FEE700BF022001902E
:1030E0004FF40040039001A8FEF780FD20B1EFF3FC
:1030F000108072B6FEE700BFFFF76AFEFFF746FEDC
:10310000FFF79EFDFFF710FFFFF7D4FEFFF704FE69
:1031100040F60004C4F20104204640210122FEF7DB
:103120002DFC04F5806001210022FEF727FC2046DB
:1031300008210122FEF722FC204620210022FEF772
:103140001DFC204602210022FEF718FC40F2201050
:10315000C2F20000FFF7A4F940F24004C2F20004FA
:103160002046FDF7E1F840F23401C2F200012046AA
:103170000222FDF7D9FC00BFFEE70000B0B540F227
:103180003405C2F20005A5202C46296804F8040F76
:1031900040F60000C5F80510C4F201000421FEF756
:1031A000E7FB0022687240F201102146AA72BDE8D6
:1031B000B040FDF791B802E008C8121F08C1002A0C
:1031C000FAD170477047002001E001C1121F002AA8
:1031D000FBD1704701020000000000000000010266
:1031E00003040607080900000000010203040203AB
:1031F0000405060708090A0B0C0D0E0F101000003D
:10320000203200080000002010000000B631000845
:103210003032000810000020A0050000C631000870
:1032200001000000100000000024F4000000000075
:04000005080000ED02
:00000001FF
