:020000040800F2
:10000000980800209D01000899340008392900084B
:100010009534000839080008B939000800000000CC
:10002000000000000000000000000000AD350008E6
:100030006D080008000000009D340008B13500087C
:10004000B7010008B7010008B7010008B7010008B0
:10005000B7010008B7010008B7010008B7010008A0
:10006000B7010008B7010008B7010008B701000890
:10007000B7010008B7010008B7010008B701000880
:10008000B7010008B7010008B7010008B701000870
:100090003D080008B7010008B7010008B7010008D3
:1000A000B7010008B7010008B7010008B701000850
:1000B00085360008B7010008B7010008B70100083D
:1000C000B7010008B7010008B7010008B701000830
:1000D000B7010008B7010008B7010008B701000820
:1000E000B7010008B7010008B7010008B701000810
:1000F000B7010008B7010008B7010008B701000800
:10010000B7010008B7010008B9360008B7010008B8
:10011000B7010008B7010008B7010008B7010008DF
:10012000B7010008B7010008B7010008B7010008CF
:10013000B70100080000000000000000B70100083F
:100140004D080008B7010008B7010008B701000812
:10015000B70100085D080008B7010008A9390008C8
:10016000B7010008B7010008B7010008B70100088F
:10017000B7010008B70100080000000000000000FF
:10018000B7010008B7010008DFF80CD000F0F0FA62
:1001900000480047E14100089808002006488047D1
:1001A00006480047FEE7FEE7FEE7FEE7FEE7FEE75C
:1001B000FEE7FEE7FEE7FEE7693600088901000872
:1001C0002DE9F05F0546002092469B46884606468C
:1001D000814640241BE0284641464746224600F01F
:1001E000F8F953465A46C01A914110D311461846A1
:1001F000224600F0DFF92D1A67EB01084F46224630
:100200000120002100F0D6F917EB00094E41201E15
:10021000A4F10104DFDC484631462A464346BDE8E6
:10022000F09FD2B201E000F8012B491EFBD27047CB
:100230000022F6E710B513460A4604461946FFF7B2
:10024000F0FF204610BD2DE9FE4F804681EA0300F5
:10025000C00F0C46009021F0004123F00045B8EBA0
:100260000200A94105D24046214690461C460B4655
:10027000024623F00040104347D0270DC7F30A0081
:10028000C3F30A510290401A019040286BDAC3F37D
:10029000130040F4801B0098924620B10023D2EB5B
:1002A000030A63EB0B0B01985946C0F1400250461C
:1002B00000F080F906460D4650465946019A00F076
:1002C00098F910EB08006141002487EA115284EA92
:1002D000E7731A4340D0009A62B3019A012A4FEAA9
:1002E000075215DC001B61EB02014FF0004202EAED
:1002F0000752CDE90042001C41F5801132462B46E1
:1003000000F0CFF903B0BDE8F08F40462146F9E791
:10031000001B61EB0201001C41F5801300185B41DA
:100320002018A2F5001747EB030140EAD570B61973
:100330006D4111E06D084FEA360645EAC0754FEA97
:100340000752001B61EB0201001C41F580114908B6
:100350004FEA30000019514132462B4603B0BDE848
:10036000F04F00F08FB90098012240000023D0EB3D
:10037000020263EBE073009821464FEAE074B8EBA9
:10038000000061EB0401E9E783F000435BE781F0E3
:10039000004158E72DE9FE4F81EA030404F00044D0
:1003A00021F0004100944FF0000B23F0004350EA8D
:1003B00001045ED052EA03045BD0C3F30A54C1F3D4
:1003C0000A552C44A4F2F3340194A0FB0254C1F367
:1003D000130141F48011C3F3130343F4801301FBB1
:1003E000024400FB034E840A970A44EA815447EA18
:1003F0008357A4FB076802958D0A05FB07854FEA22
:10040000932C04FB0C542705029D4FEA065847EA3B
:100410001637B5EB08056EEB070C870E920E47EA10
:10042000811742EA8312A7FB0201B6EB0B0164EBD2
:1004300000042B0D43EA0C335E1844EB1C50DA46E3
:100440005146E7FB0201C5F313044FEA0B3343EABD
:1004500014534FEA0432019C43EA0603A4F10C044E
:100460000294009CCDE900B400F01BF903B0BDE894
:10047000F08F00200146F9E72DE9F04D81EA0304F1
:1004800004F0004B21F0004514464FF0000A23F021
:10049000004150EA050220D054EA01021DD0C5F304
:1004A0000A570246C5F31303C1F31300C1F30A56FA
:1004B00040F4801543F48013A7EB0608101BD646C2
:1004C00008F2FD3873EB050002D308F1010801E0E2
:1004D00092185B41B8F1000F03DA00200146BDE835
:1004E000F08D00204FF48011064684460EE0171B65
:1004F00073EB050705D3121B63EB050306434CEAB8
:10050000010C49084FEA300092185B4150EA01079C
:10051000EDD152EA030012D082EA040083EA050119
:10052000084305D0101BAB4106D20122002306E090
:1005300000224FF0004302E06FF0010253101AEB6B
:1005400006004CEB085110EB0A0041EB0B01BDE833
:10055000F04D00F097B800F0004230F000400AD0B3
:10056000C10D01F56071C0F3160042EA0151C208E5
:1005700040071143704700200146704701F00043D7
:1005800030B421F0004150EA010206D00A0DA2F574
:100590006072C1F31301002A02DC30BC00207047F6
:1005A000440F44EAC104C100E01830BC00EBC25063
:1005B00000F031B8202A04DB203A00FA02F10020D2
:1005C00070479140C2F1200320FA03F31943904091
:1005D0007047202A04DB203A21FA02F000217047FC
:1005E00021FA02F3D040C2F120029140084319469B
:1005F0007047202A06DBCB17203A41FA02F043EA83
:10060000E07306E041FA02F3D040C2F120029140CB
:100610000843194670470029A8BF7047401C49008D
:1006200008BF20F00100704710B4B0FA80FC00FA57
:100630000CF050EA010404BF10BC704749B1CCF182
:10064000200421FA04F411FA0CF118BF012121430E
:100650000843A3EB0C01CB1D4FEA00614FEA1020C9
:1006600042BF002010BC704700EBC350104400296B
:10067000A4BF10BC7047401C490008BF20F0010017
:1006800010BC704710B5141E73F1000408DA401C4A
:1006900041F1000192185B411A4301D120F00100A1
:1006A00010BD2DE9F04D92469B4611B1B1FA81F291
:1006B00002E0B0FA80F220329046FFF77BFF04465A
:1006C0000F4640EA0A0041EA0B0153465A460843E6
:1006D00013D0114653EA010019D0C8F14002504628
:1006E000FFF777FF05460E46504659464246FFF74C
:1006F00061FF084305D0012004E020463946BDE8EB
:10070000F08D0020054346EAE0762C4337430A98F3
:100710006305E40AA0EB08000022FD0A44EA4754FE
:100720000A3002D500200146E9E7010510196941A8
:10073000DDE9084500196941BDE8F04DA2E7000078
:1007400030B5041E71F1000404DB4FF00044404258
:1007500064EB0101141E73F1000405DB1C464FF02D
:100760000043524263EB04038B4208BF824230BD18
:10077000064C074D06E0E06840F0010394E80700EE
:1007800098471034AC42F6D3FFF702FD584E0008EC
:10079000784E00082DE9F04D00231A461B1A8A41B5
:1007A00003DB00200146BDE8F08DC1F30A52C1F31E
:1007B000130141F480154FF0000BD10702D100184E
:1007C0006D41521E0027044640F2FF11384601EBEE
:1007D000620A3E468046024600204FF48011FFF731
:1007E000F8FEC2197141BB1846EB0100B4EB030CD3
:1007F00075EB000C04D3E41A65EB000517460E46B2
:10080000241908F101006D4180463428E3DDF9190F
:1008100046EB0600091BA84103D24FF0FF321346F6
:1008200001E0002213461BEB070046EB0A51BDE82E
:10083000F04DFFF727BF0000FEE7000080B540F253
:10084000C010C2F2000000F0FBF880BD80B540F29D
:10085000E810C2F2000000F0F3F880BD80B540F26D
:100860001020C2F2000000F083FB80BD7047000042
:10087000EFF3108072B600BFFEE7000010B590F8ED
:1008800020E0D0F800C0AEF1010EBEF1010FDCF89F
:1008900008E00DD81EF0E05F10D0CEF3016EBEF17F
:1008A000030F11D100F1240101204FF4000233E0C5
:1008B00000F1240101204FF480222DE000F12401F9
:1008C00001204FF4001227E0012000FA0EF018601A
:1008D000886818B14B6840EAC30001E00868400529
:1008E000D1E9033403430CEB0E10C0F88031C0F89B
:1008F0008441097D012905D100F5C2710B6843F4DB
:1009000080730B605168C0F88C11126800F5C071DB
:10091000C0F88821002001220B681A430A6010BD2C
:100920007047000010B590F82040013C012C0CD815
:10093000D0F800C079B1DCF81040A4070FD100F165
:10094000240101204FF4001270E000F12401012085
:100950004FF480226AE0DCF80C40A4076AD00468F7
:1009600004EB011CDCF8B0410CF5D87E14F0040453
:100970009460DCF8B04119BFE4085460640D146061
:10098000DEF80040002904F00204D460DCF8B44131
:1009900004F00F041461DCF8B441C4F3072494613B
:1009A000DCF8B4414FEA14445461DCF8B8211A7001
:1009B000026802EB0112D2F8B8214FEA12225A70F3
:1009C000026802EB0112D2F8B8214FEA12429A7083
:1009D000026802EB0112D2F8B8214FEA1262DA7013
:1009E000026802EB0112D2F8BC211A71026802EB14
:1009F0000112D2F8BC214FEA12225A71026802EBAE
:100A00000112D2F8BC214FEA12429A71026802EB3D
:100A10000112D2F8BC214FEA1262DA71006814BFE9
:100A200000F1100100F10C01002020220B681A4394
:100A30000A6010BD00F1240101204FF40012F5E717
:100A40002DE9F04F81B0044600684669D0F8049063
:100A50008768D0F80CB0D0F810A0D0F81880F10753
:100A600003D1002530071CD423E0F90710D0012161
:100A7000BA07816009D4780700F1AA80380700F12D
:100A8000B080204600F014FA02E0204600F012FA8E
:100A90000025F80500F18480F80300F1AA803007F2
:100AA00007D51BF0100004D0206845F40075102114
:100AB000C160700708D51BF0080005D02068082128
:100AC000C160204600F0DEF9B00706D52068C06896
:100AD000800702D0204600F0D7F9700607D51AF03B
:100AE000100004D0206845F4806510210161B00633
:100AF00008D51AF0080005D02068082101612046B9
:100B000000F0D0F9F00606D520680069800702D011
:100B1000204600F0C9F9B00308D519F0100005D03F
:100B2000206810214160204600F0C0F9F00308D58C
:100B300019F0080005D0206808214160204600F027
:100B4000C3F9300440F18F805FEA497040F188803A
:100B500006F4807008EA102028435FEA8871014695
:100B600048BF41F00201B20558BF01465FEA487034
:100B70000D4648BF45F00405700558BF0D463005C9
:100B80006ED518F070006BD010380009052862D8B7
:100B9000DFE800F0035356595C5F45F008055AE062
:100BA00020684FF48071BA0581600AD4780512D4A8
:100BB000380519D4204600F07FF9F8037FF56FAFB0
:100BC00017E0204600F07AF9F8037FF568AF10E0EF
:100BD0004FF400655DE705F50055F8037FF55FAF5D
:100BE00007E04FF4805554E705F58045F8037FF59D
:100BF00056AF20684FF48031BA0381600AD478037D
:100C00000FD4380313D4204600F05AF930073FF5CB
:100C100048AF4EE7204600F055F930073FF541AFA9
:100C200047E705F5004530073FF53BAF41E705F5E0
:100C3000803530073FF535AF3BE745F010050AE05A
:100C400045F0200507E045F0400504E045F080054B
:100C500001E045F480752068816921F070018161AF
:100C60002068042141602DB1606A284360622046FB
:100C7000FFF756FE01B0BDE8F08F0000B0B5C8B177
:100C8000044690F8200010B9204600F071F8206862
:100C9000016841F00101016000F0ACFB054600BFB6
:100CA00020684168C90707D100F0A4FB401B0B284E
:100CB000F6D312E00120B0BD016821F0020101600D
:100CC00000F098FB054600BF2068416889070DD5F4
:100CD00000F090FB401B0B28F6D3606A052140F41E
:100CE00000306062012084F82010B0BD217E0268CF
:100CF000012922F0800208BF80320260617E026812
:100D0000012922F0400208BF40320260A17E026841
:100D1000012922F0200208BF20320260E17E026831
:100D2000012922F0100218BF10320260217F0268F0
:100D3000012922F0080208BF08320260617F0268C0
:100D4000012922F0040208BF04320260D4E901C282
:100D5000D4E9033561691A432A431143ACF1010216
:100D60001143C16100200121606284F82010B0BDF0
:100D700010B586B0006846F60002C4F200020021F9
:100D80009042CDE90411CDE9021101912ED046F235
:100D90000041C4F20001884272D140F22001C2F247
:100DA00000010A6843F64000C4F20200531C0B60C5
:100DB00052B900210091016841F0007101600168A1
:100DC00001F00071009100990021009150F8101C71
:100DD000142441F0020140F8101C50F8100C00F0EF
:100DE0000200009000984FF4407031E043F640005C
:100DF000C4F202000091016841F080610160016865
:100E000001F080610091009940F22001C2F20001DE
:100E10000A68531C0B6052B900210091016841F02F
:100E200000710160016801F00071009100990021DA
:100E3000009150F8101C402441F0020140F8101CB1
:100E400050F8100C00F00200009000984FF4405051
:100E500001900220029000200390032004900920BA
:100E6000059040F20040C4F2020001A900F0E6F94A
:100E700020460021002200F041FB204600F02EFB1E
:100E800006B010BD7047000080B540F28C1240F2F1
:100E90007943C2F20002C2F200030021FFF742FDD3
:100EA00080BD0000704700007047000070470000E0
:100EB0007047000070470000704700007047000056
:100EC00070470000704700007047000070B5866DE5
:100ED000044600F08FFA94F83510022925D1054612
:100EE0002068216C026822F016020260426922F03A
:100EF0008002426109B9A16C19B1016821F00801B1
:100F00000160016821F00101016000BF20680068F4
:100F1000C0070ED000F06EFA401B0628F6D3202042
:100F20006065032084F835000CE0802060650120B6
:100F300008E0E06D3F2101FA00F0B060012084F884
:100F400035000020002184F8341070BD90F8351071
:100F5000022909D1052180F835100068016821F0C7
:100F60000101016000207047802141650120704728
:100F7000F0B581B004460020009040F20400C2F2B7
:100F800000000268D4E9166048F2B51337680821FA
:100F9000C1F64E3381403942A2FB03250CD02268B2
:100FA00013685B0708D5136823F004031360B1606E
:100FB000616D41F00101616501218140394208D034
:100FC00022685269120604D5B160616D41F00201D8
:100FD000616504218140394208D022681268920775
:100FE00004D5B160616D41F004016165102181405B
:100FF000394215D020680268120711D5B160026825
:101000000168520306D4C90506D4016821F008011D
:10101000016001E0080340D4216C09B120468847F3
:10102000E16D202000FA01F23A4242D020680368C4
:10103000DB063ED5B26094F835300268052B1CD132
:1010400022F016020260426922F080024261226CA4
:101050000AB9A26C1AB1026822F0080202603F20AD
:101060008840B060012084F83500216D00200029FF
:1010700084F834003DD101B0F0BD0168520310D4B2
:10108000C90512D4016821F010010160012084F823
:101090003500002084F8340007E0A16C0029BDD1A0
:1010A000BEE7080301D4616C00E0E16B09B12046A2
:1010B0008847606D0028DED0606DC00716D005201F
:1010C00084F835002068A90A026822F00102026053
:1010D000009A01328A42009202D80268D207F7D100
:1010E000012084F83500002084F83400E16C0029E8
:1010F000C1D02046884701B0F0BD00002DE9F04185
:10110000044600F077F9C4B10546022084F83500A2
:101110000020216884F83400086820F0010008608D
:1011200020680168C9070BD000F064F9401B05284E
:10113000F6D90321202203207BE00120BDE8F081C5
:10114000016848F23F02CFF21002D4E9013501EA0A
:10115000020ED4E9032143EA0E032B43D4E9056CC4
:101160001A431143D4E90778314341EA0C02616A1A
:101170003A43042942EA080304D1D4E90B271A436D
:1011800042EA070303604269042922F0070241EAA8
:1011900002012DD1D4E90A5341EA050143B3BCF55C
:1011A000005F08D0BCF1000F12D1022D16D0012D26
:1011B00007D09DB119E0032D17D8DFE805F00B0F1C
:1011C0000B02A3F1C072B2FA82F252094AB90FE0DF
:1011D000032D02D2012222B90AE006D1C3F3006234
:1011E00032B101214022012023E00022002AF8D15F
:1011F0006FF00F024AF6AB2352FA80F2CAF6AA2326
:10120000A2FB033744F6506341613909C0F600037D
:10121000595C40F2FF3398435F2A4FF03F0288BF8A
:101220000430C4E9160102FA01F1816000220121B3
:101230000020626584F83510BDE8F0812DE9F04F9B
:1012400082B000F13E4241F6004502F1FF77C4F260
:10125000020508224FEAB726A84208BF0722072E38
:1012600038BF4FEAB7224FF0010E002400274FF09D
:101270000009009209E000BF09F101090437B9F142
:10128000100F04F1020400F0A4800A680EFA09FCB1
:1012900012EA0C08F0D0D1F804B00BF0030AAAF15E
:1012A0000102012A14D882680323CE6803FA04FEDF
:1012B00022EA0E02A640324382604268CBF3001657
:1012C00022EA0C0206FA09F64FF0010E32434260A0
:1012D000BAF1030F1DD0C26803238D6803FA04F628
:1012E000B24305FA04F63243BAF1020FC26010D1DC
:1012F0006FF0030202EA59020244D2F820C007F05C
:101300001C050F230E69AB402CEA0303AE403343A8
:101310001362026803234E68A3409A4306F0030356
:10132000A3401A4316F4403F0260A5D0002243F6C2
:1013300044030192C4F202031A6843F6004C42F4DB
:1013400080421A601A68C4F2010C02F480420192D1
:10135000019A29F003024FF6084A6244CFF6FF7A59
:1013600052F80A3007F00C060F25B540AB43009D3C
:1013700005FA06F6334342F80A30DCF800204B68E1
:1013800042EA0806DD0358BF22EA0806CCF80060EE
:10139000DCF804209D0342EA080658BF22EA08064A
:1013A000CCF80460DCF80820DD0242EA080643F6C7
:1013B0000C4558BF22EA0806CCF80860C4F20105C3
:1013C0002A689B0242EA080658BF22EA08062E60F5
:1013D00052E702B0BDE8F08F426902EA010391438F
:1013E00041EA034181617047002A08BF0904816115
:1013F0007047000040F29440C2F20000006870475D
:1014000040F2100040F29441C2F20000C2F200012A
:1014100000780A68104408607047000080B543F601
:101420000040C4F20200016841F4007101600168EB
:1014300041F480610160016841F480710160032022
:1014400000F088F8002000F005F800F02BF80020EC
:1014500080BD0000B0B540F21002C2F2000240F2BE
:1014600004011278C2F200014FF47A730968B3FBE9
:10147000F2F20446B1FBF2F1084600F0D1FC0F2C69
:101480004FF001050CD858B94FF0FF30214600222B
:10149000002500F033F840F21400C2F200000460AE
:1014A0002846B0BD82B0002043F640010190C4F24E
:1014B00002014A6842F480424A604A6802F480426B
:1014C0000192019A0090086840F080500860086816
:1014D00000F080500090009802B07047002848BF8C
:1014E000704700F01F01012202FA01F14EF20012D2
:1014F0004009CEF2000242F82010704710B54EF6B7
:101500000C5CCEF2000CDCF80030C3F3022E8EF03F
:101510000704042C28BF0424BEF103034FF0FF3E50
:101520000EFA04F438BF0023A14399400EFA03F3E6
:101530009A4300F00F03043B1143634409010C3349
:1015400000F16042B0F1FF3FC8BF02F5644319707B
:1015500010BD00004EF60C51CEF200010A684FF6A5
:10156000FF031A4060F30A2242F0806040F0FD70F1
:10157000086070472DE9F041002800F08B8043F6A9
:101580000808C4F202080446D8F8F8030D4600F033
:101590000700884207D288F8F853D8F8F80300F01B
:1015A0000700A84276D12068810717D5410705D5E5
:1015B000D8F8001041F4E051C8F80010010705D533
:1015C000D8F8001041F46041C8F80010D8F80010B5
:1015D000A26821F0F0011143C8F80010C0073FD104
:1015E000D8F8F80300F00700A84207D988F8F853A4
:1015F000D8F8F80300F00700A8424BD12068410753
:1016000007D5D8F80010E26821F4E0511143C8F87A
:101610000010000708D5D8F80000216920F46040C8
:1016200040EAC100C8F8000000F07CF8D8F80010CB
:1016300044F63862C1F30311C0F60002515C40F277
:10164000040220FA01F140F21400C2F20000006826
:10165000C2F200021160FFF7FDFE0020BDE8F0813C
:101660006068811E022907D258F8081C89015CBFF6
:101670000120BDE8F08110E0012807D158F8081CCE
:1016800089035CBF0120BDE8F08106E058F8081C22
:10169000890702D40120BDE8F081D8F8001021F0BC
:1016A00003010843C8F80000FFF7A4FE064641F214
:1016B000883700BFD8F80000616800F00C00B0EB7C
:1016C000810F8DD0FFF796FE801BB842F2D9032020
:1016D000BDE8F08140F2040043F60801C2F20000C8
:1016E000C4F202010068096844F64862C1F382212D
:1016F000C0F60002515CC8407047000040F2040090
:1017000043F60801C2F20000C4F202010068096851
:1017100044F64862C1F34231C0F60002515CC84051
:101720007047000010B543F60404C4F20204606878
:1017300000F00C0142F200400829C0F2F40007D08A
:10174000042918BF10BD41F20020C0F27A0010BD7C
:10175000216801F03F02216823684902C3F3881120
:1017600005D4A1FB00010023FEF72AFD06E041F2AB
:101770000020C0F27A004843B0FBF2F02168022258
:10178000C1F3014102EB4101B0FBF1F010BD0000DB
:101790002DE9F04182B0002800F0A28004460078D4
:1017A00043F60006C007C4F2020643D0B06800F05A
:1017B0000C00042805D1306880033BD56068C8BBA5
:1017C0008EE0B06800F00C00082802D1706840027A
:1017D000F1D46568B5F5A02F0AD0B5F5803F0BD0E0
:1017E000306820F480303060306820F4802006E0DB
:1017F000306840F480203060306840F480303060E1
:10180000FFF7F8FD002D054611D000BF30688003BA
:1018100010D4FFF7EFFD401B6428F7D922E100BF89
:10182000FFF7E8FD401B64284FF0030055D83068EF
:101830008003F5D4207880071AD5B06810F00C0F1B
:1018400009D0B06800F00C00082840F08A80706869
:10185000400200F186803068800702D5E0680128E8
:101860003ED13068216920F0F80040EAC1003060C4
:101870002078000738D4207840074CD4A5695DB3A0
:10188000B06800F00C00082840F09E80012D27D0A1
:101890007068E16900F480028A4221D1216A00F077
:1018A0003F028A421CD147F6C071626A0140B1EB27
:1018B000821F15D1A26A0023CFF6FF7303EBC23259
:1018C00000F440316FF30F02914209D1E16A00F058
:1018D0007060B0EB016F03D1002002B0BDE8F08171
:1018E000012002B0BDE8F0816069002840F20000EC
:1018F000C4F2472057D00121C0F8801EFFF77AFDBF
:10190000054600BF706F8007B5D4FFF773FD401B1D
:101910000228F7D9A6E0306C10F080580AD10020D8
:101920000190306C40F080503064306C00F080509A
:101930000190019847F20007C4F200073868C0051B
:1019400024D4386840F480703860FFF753FD0546B2
:101950003868C0051AD4FFF74DFD401B0228F7D99F
:1019600080E0E068002851D00020C4F24720012127
:101970000160FFF73FFD0546306880073FF571AF16
:10198000FFF738FD401B0228F6D96BE0A568052D4E
:1019900050D0012D52D0306F20F001003067306FF1
:1019A00020F004004DE00021C0F8801EFFF722FD6A
:1019B000054600BF706F80077FF55DAFFFF71AFD2A
:1019C000401B0228F6D94DE00027C4F2472700202B
:1019D0003866FFF70FFD022D05460BD130688001F8
:1019E00058D5FFF707FD401B02284FF00300F5D93B
:1019F00073E700BF306880017FF56EAFFFF7FAFC38
:101A0000401B02284FF00300F4D966E70020C4F21F
:101A1000472000210160FFF7EDFC05463068800794
:101A20007FF526AFFFF7E6FC401B02284FF00300CE
:101A3000F4D952E7306F40F004003067306F40F067
:101A400001003067FFF7D6FC002D054641F28837CC
:101A500014D000BF306F800713D4FFF7CBFC401BBE
:101A6000B842F7D9032002B0BDE8F081FFF7C2FC0D
:101A7000401BB8424FF003003FF62FAF306F800796
:101A8000F4D4B8F1000F7FF4F9AE306C20F0805040
:101A90003064F3E604F11C052FCD08430021CFF696
:101AA000FF7140EA821001EBC3316FF30F0140EA8E
:101AB00005600843706001203866FFF79BFC044610
:101AC000306880013FF508AFFFF794FC001B022847
:101AD0004FF00300F4D900E770B538B10446406A0E
:101AE00030B10020206104F1140007E0012070BD36
:101AF0006068B0F5827F03D004F11C000021016012
:101B00000026A66294F8510020B9204684F850605F
:101B100000F03CF8022084F8510094E80F0001F432
:101B20008271056802F4044225F040050560114405
:101B300003F400622369114403F002026369114453
:101B400003F00102A369E569114403F40072114432
:101B500005F03802256A114405F08002A56A114398
:101B600005F4005211430160626A042101EA134145
:101B700002F0100211444160C16921F40061C161A9
:101B80000120666584F85100304670BD80B586B08E
:101B900043F200010068C4F201010022884205926C
:101BA000CDE903220292019201D006B080BD43F636
:101BB00030000092C4F20200436943F48053436151
:101BC000436903F480530093009B0092036843F041
:101BD00001030360006800F0010000900098E0201D
:101BE00001900220CDE90202032004900520059017
:101BF00001F5504001A9FFF721FB06B080BD0000B0
:101C00002DE9F04383B0044690F85000012803D139
:101C1000022003B0BDE8F08301201E4615460F46A2
:101C200084F85000FFF7E6FB94F851108146012933
:101C30000AD06068B0F5827F72D1A06800284FF0AA
:101C4000020008BF04296CD1002F4FF0010018BF1B
:101C5000002D66D0002E64D094F851000021042895
:101C60001CBF052084F851006165A563E687A6873F
:101C70002763E6862068A6862164616401684906B8
:101C800003D4016841F0400101606168731EE2689D
:101C9000B1FA81F1B3FA83F3DDF8288049095B09D1
:101CA000B2F5006F41EA030144D139B1216B31F83B
:101CB000022BC2602163E08E0138E086012608F124
:101CC000010500BFE08E10B9E08F00286ED02068BB
:101CD000816889070CD5E18E51B1012E08D1216BA5
:101CE000002631F8022BC2602163E18E0139E186C2
:101CF0008168C9070AD0E18F41B1C068A16B012694
:101D000021F8020BA163E08F0138E087FFF772FB37
:101D1000002DD7D0A0EB09004045D3D3032000E02D
:101D20000220012184F85110002184F8501003B0E2
:101D3000BDE8F08339B139780173206B013020633D
:101D4000E08E0138E086012608F10105E08E08B931
:101D5000E08F58B32068816889070DD5E18E59B1AD
:101D6000012E09D1216B002609780173206B013007
:101D70002063E08E0138E08620688168C9070BD0B7
:101D8000E18F49B1C068A16B01260870A06B0130DA
:101D9000A063E08F0138E087FFF72CFB002DD5D042
:101DA000A0EB09004045D1D30320BAE740F204007C
:101DB000C2F20000006849F68171C1F25E61A0FBC9
:101DC0000101480D4FF47A71484302906068B0F504
:101DD000827F0ED12046802142464B4601F07EFB99
:101DE00080B1606D40F020006065202060650120BA
:101DF00097E7029830B10298013802902068806815
:101E00000006F6D4A06800284FF000007FF489AFE8
:101E100001902168CA68019289680191019980E75F
:101E2000411E0020B0EB116F1CBF012070474EF225
:101E30001002CEF2000251604EF62351CEF20001A4
:101E4000F0230B700721906011607047704700000D
:101E50007047000010B590F83C20012A4FF00202B4
:101E600052D0012380F83C3080F83D200268D2F83F
:101E700004E0D2F808C00C682EF07003234341F24E
:101E8000FF74C4F20004A24253600DDC40F2FF7301
:101E9000C4F200039A4215DCB2F1804F29D040F21F
:101EA0000043C4F2000322E040F2FF33C4F2010316
:101EB0009A4212DC41F60003C4F200039A4218D0A1
:101EC000002312E040F60003C4F200039A4210D04F
:101ED00040F60043C4F2000309E044F20003C4F2F8
:101EE00001039A4205D040F20043C4F201039A4232
:101EF00004D149682CF0800319439160012100222C
:101F000080F83D1080F83C20104610BD002804BF2A
:101F10000120704710B5044690F83D0028B9002014
:101F200084F83C00204600F01FF8022084F83D00B1
:101F30002068211D01F0CCFB012084F8460084F8C4
:101F40003E0084F83F0084F8400084F8410084F8A3
:101F5000420084F8430084F8440084F8450084F883
:101F60003D00002010BD000080B582B0006800F187
:101F700040404FEAB020032852D8DFE800F0021BAF
:101F8000293A0020019043F64000C4F202000168A3
:101F9000002241F0010101600068002100F0010011
:101FA000019001981C20FFF7A9FA1C20FFF796FA70
:101FB00002B080BD0020019043F64000C4F2020050
:101FC000016841F002010160006800F002000CE0CD
:101FD0000020019043F64000C4F20200016841F085
:101FE00004010160006800F004000190019802B053
:101FF00080BD0020019043F64000C4F20200016859
:10200000002241F0080101600068002100F0080092
:10201000019001983220FFF771FA3220FFF75EFA43
:1020200002B080BD90F83D1001291CBF012070470F
:10203000022180F83D10006841F2FF71C4F20001F6
:1020400088420DDC40F2FF71C4F20001884215DCC9
:10205000B0F1804F29D040F20041C4F2000122E0EB
:1020600040F2FF31C4F20101884212DC41F6000166
:10207000C4F20001884218D0002112E040F60001AD
:10208000C4F20001884210D040F60041C4F20001C1
:1020900009E044F20001C4F20101884205D040F297
:1020A0000041C4F20101884206D1816801F00701B4
:1020B000062904BF00207047016841F0010101605A
:1020C0000020704790F83D1001291CBF0120704787
:1020D000022180F83D10006841F2FF72C168C4F22D
:1020E0000002904241F00101C1600DDC40F2FF713D
:1020F000C4F20001884215DCB0F1804F29D040F2D3
:102100000041C4F2000122E040F2FF31C4F20101BB
:10211000884212DC41F60001C4F20001884218D066
:10212000002112E040F60001C4F20001884210D004
:1021300040F60041C4F2000109E044F20001C4F29B
:102140000101884205D040F20041C4F201018842F9
:1021500006D1816801F00701062904BF00207047FD
:10216000016841F0010101600020704701460068EC
:1021700041F21113026A1A4208D1026A40F2444342
:102180001A4203D1026822F00102026001220020FB
:1021900081F83D207047000080B590F83C20012A6E
:1021A0004FF0020200F0C280012380F83C3080F83A
:1021B0003D20D0F800C04FF67772DCF8083023EAF3
:1021C0000202CCF808200B684F2B28DC1F2B43DDC4
:1021D000202B44D0302B42D0402B40F0A980D1F8A6
:1021E00004E0C968DCF82030DCF8202022F001028D
:1021F000CCF82020DCF8182022F0F00242EA01118D
:1022000023F00A0242EA0E02CCF81810CCF8202083
:10221000DCF8081041F0470121F030017DE06F2B20
:1022200025DDB3F5005F46D0B3F5805F77D0702B26
:102230007ED1D1E901E3C968DCF8082043EA0E0346
:1022400022F47F4243EA01211143CCF80810DCF864
:10225000081041F0770160E00BB1102B68D1DCF879
:10226000081021F07001194341F0070155E0502B8F
:1022700034D0602B5CD1D1F804E0C968DCF82030A0
:1022800023F01003CCF82030DCF81830DCF82020E4
:1022900023F4704322F0A00243EA013142EA0E1215
:1022A000CCF81810CCF82020DCF8081041F06701B9
:1022B00021F0100131E0D1E901E3C968DCF8082020
:1022C00043EA0E0322F47F4243EA01211143CCF892
:1022D0000810DCF8081041F480411EE0D1F804E059
:1022E000C968DCF82030DCF8202022F00102CCF8AC
:1022F0002020DCF8182022F0F00242EA011123F03D
:102300000A0242EA0E02CCF81810CCF82020DCF8C1
:10231000081041F0570121F02001CCF808100022EC
:10232000012180F83D10002180F83C10104680BD4E
:102330000122F5E77047000010B504460068016906
:10234000890744BFC1685FEA817138D42068016998
:10235000490744BFC1685FEA41713CD42068016904
:10236000090744BFC1685FEA017141D4206801696F
:10237000C90644BFC1685FEAC16145D420680169EC
:10238000C9071CBFC1685FEAC1714AD120680169F1
:10239000090644BFC1685FEA016149D42068016948
:1023A000490644BFC1685FEA416148D420680169B9
:1023B000890644BFC1685FEA816147D410BD6FF0F0
:1023C00002010161012121778069800745D0204603
:1023D000FFF7B0FF47E06FF00401016102212177B0
:1023E000806910F4407F41D02046FFF7A3FF43E00F
:1023F0006FF00801016104212177C06980073ED098
:102400002046FFF797FF40E06FF0100101610821BF
:102410002177C06910F4407F3AD02046FFF78AFF49
:102420003CE06FF001010161204600F03FF8ADE7AC
:102430006FF0800101612046FFF708FDAEE76FF005
:1024400040010161204600F033F8AFE76FF0200152
:1024500001612046FFF7FCFC10BD204600F022F889
:10246000204600F021F8002020776FE7204600F09A
:1024700019F8204600F018F8002020776EE7204673
:1024800000F010F8204600F00FF8002020776DE7EC
:10249000204600F007F8204600F006F800202077DC
:1024A0006CE70000704700007047000070470000B4
:1024B000704700007047000070470000B0B582B060
:1024C000044600680168C368426901F02F05202DA9
:1024D00003F0200505D125B1204601F093F902B0A3
:1024E000B0BD5FEA017C1EBF02F0010E03F49072E2
:1024F00012EB0E0277D1226B012A05D111F01002E6
:1025000018BF13F0100235D10A0622D513F080024D
:102510001FD094F83D1021292AD1A168B1F5805F20
:1025200003D12169002900F03881216A4A1C226206
:1025300009784160E18C01390A04E18418D1C1684D
:1025400021F08001C160C16841F04001C16002B06A
:10255000B0BD49060CD513F0400109D0C16821F087
:102560004001C160202084F83D00204600F0E2F9DF
:1025700002B0B0BD00210191016801914168019153
:1025800001994069400636D4A08DE18DE28D002A84
:102590001CBF401A5FEA0041EAD000BF216851E841
:1025A000031F226821F4907142E80313002BF5D138
:1025B000216851E8051F226821F0010142E8051356
:1025C000002BF5D1202184F83E100021216300BFAB
:1025D000216851E8031F226821F0100142E803132B
:1025E000002BF5D14AE0C80718BF13F480704BD117
:1025F00048074FD455E0A06B016849688AB2002AA9
:10260000B6D0A38D9A42B3D2E185C069B0F5807F80
:1026100031D000BF206850E8030F216820F480709B
:1026200041E80302002AF5D1206850E8050F21682F
:1026300020F0010041E80502002AF5D1206850E8A9
:10264000050F216820F0400041E80502002AF5D17D
:10265000202084F83E000020206300BF206850E85E
:10266000030F216820F0100041E80302002AF5D191
:10267000A06BFEF72BFCA08DE18D401A81B22046A5
:10268000FFF718FF02B0B0BD206C40F001002064DD
:10269000480706D5BEF1000F03D0206C40F00200C1
:1026A0002064880706D5BEF1000F03D0206C40F0EF
:1026B00004002064BCF1000F06D555EA0E0003D0DB
:1026C000206C40F008002064206C00283FF450AFDC
:1026D00011F0200018BF002D02D0204601F092F822
:1026E00020684069216C00F0400001F008014018AA
:1026F00047D000BF206850E8030F216820F4907095
:1027000041E80302002AF5D1206850E8050F21684E
:1027100020F0010041E80502002AF5D1206B0128D4
:102720000AD100BF206850E8030F216820F0100094
:1027300041E80302002AF5D1202084F83E00002061
:10274000206320684069400622D500BF206850E819
:10275000050F216820F0400041E80502002AF5D16C
:10276000A06BA8B143F2F571C0F600010165FEF758
:10277000EDFB00283FF4FCAEA06B016D884702B072
:10278000B0BD2046FFF798FE0020206402B0B0BD27
:102790002046FFF791FE02B0B0BD216A31F8022B4E
:1027A0006FF35F2242602162C4E60000002804BF8C
:1027B0000120704710B5044690F83D0028B900206C
:1027C00084F83C00204600F021F8242084F83D00E5
:1027D0002068C16821F40051C160204601F074F8FE
:1027E0002068016921F490410161416921F02A01C9
:1027F0004161C16841F40051C16000202021206482
:1028000084F83D1084F83E1010BD000070B586B00D
:102810000446006841F20041C4F2010100268842EA
:10282000CDE90466CDE90266019630D041F200019F
:10283000C4F20101884279D1002043F630010090B2
:10284000C4F202014A6942F010024A614A6902F088
:1028500010020092009A00900A6842F001020A6099
:10286000096801F00101009100994FF4C0610191E4
:102870000221CDE9021003200490072005900020DA
:10288000C4F2020001A9FEF7D9FC06B070BD43F600
:1028900030000096C4F20200416941F0200141611C
:1028A000416901F02001009100990096016841F012
:1028B00004010160006801A900F004000090009884
:1028C000C02001900220CDE90206032004900820D8
:1028D00005900020C4F2020000F50060FEF7AEFC97
:1028E00040F2102546F2A040C2F20005C4F20200F8
:1028F0004FF0206140224FF4806385E8470028466E
:10290000C5E90436C5E90666C5E90866FEF7F6FBC3
:10291000002818BFFDF7ACFF4720002100226563A7
:10292000AC63FEF7EBFD4720FEF7D8FD06B070BDA7
:102930007047000070470000FEE7000010B540F24D
:102940002404C2F20004A11C221D204601F07CF8E0
:10295000A01D04F1080104F10A0201F0BFF801F022
:1029600055FAB4F90010B4F9020000EE101AB4F9E7
:10297000061005EE100A40F25C00C2F2000006EEFE
:10298000101A90ED007AD0ED010AD0ED021AB4F9D8
:102990000800B8EEC66A36EE476A07EE100AB4F9C8
:1029A0000A00B8EEC77A37EE607A00EE900AF8EEC9
:1029B000E00A9FED401A70EEE10ADFED421AB8EE30
:1029C000C00A9FED3D2A20EE010A26EE216A27EE7D
:1029D000217A60EEA10ADFED3C1A80EE023A86EE23
:1029E000216A87EE217AC0EEA10AB8EEC55AB4F981
:1029F000040025EE015A85EE025A01EE900AF8EE27
:102A0000E11A94ED034A9FED2D0A21EE811ADFEDC4
:102A10002C1A81EE021A9FED2D2A24EE004A23EE95
:102A2000213A33EE043A86EE024A87EE026A80EEDD
:102A3000822A94ED047A84ED033A27EE003A25EEDB
:102A4000215A35EE033A94ED055A21EE211A25EE6E
:102A5000000A31EE000A40F6240040F2704184ED95
:102A6000043A84ED050A84ED064A84ED076A84ED94
:102A7000082AC4F20000C2F2000100680A6840F2AD
:102A80007443C2F20003904218600ED3821A00EE23
:102A9000102A9FED0F1AB8EE400A80EE010A40F2AC
:102AA000BC12C2F2000282ED000A0860012084F824
:102AB000340010BD9A99993E00707F463333333FFE
:102AC000CDCC1C41DB0F49400000344333338341FC
:102AD0000024F4492DE9F04381B040F2240540F28E
:102AE0005C07C2F20005C2F20007002405F10608E7
:102AF00005F1080905F10A06C7E90044BC6000BFFA
:102B000040464946324600F0E9FFB5F90600B5F9FE
:102B1000081000EE100A97ED001AB8EEC00AB5F9D9
:102B20000A2097ED012A31EE000A01EE101AB8EEE4
:102B3000C11A97ED023A32EE011A02EE102AB8EEEF
:102B4000C22A33EE022A022087ED000A87ED011A1D
:102B500087ED022A01F08EFBF92C04F10104CFD39A
:102B600097ED000A97ED011A9FED092A97ED023AB9
:102B700020EE020A21EE021A23EE022A87ED000A55
:102B800087ED011A002087ED022A01B0BDE8F0832D
:102B90006F12833B80B52DED048B22EE023A21EEBD
:102BA000A14A34EE033A22EEA24A34EE034A45F635
:102BB000DF1C14EE102AC5F6377CACEB6202BEEEC9
:102BC000003A04EE902A24EE034A40F27C1E24EEE2
:102BD000244AC2F2000E64EE245AB7EE084ADEED33
:102BE000003A9EED017A9EED026A9EED035A75EE63
:102BF000845A65EEA44A63EE865A64EEA11A24EE66
:102C0000822A64EEA22A67EE054A74EEE54A63EE74
:102C1000875A66EE056A75EEA65A63EEA36A67EEFA
:102C2000077A76EEE76A66EE067A76EEE76A65EE92
:102C3000057A40F20C0076EEA76A75EEA55A74EE9E
:102C4000A44AC2F2000065EEA27A22EE268A62EE63
:102C5000A42A24EE822A40F26802DFED884A90ED31
:102C6000009A78EE677A66EEA16A61EEA51AC2F262
:102C7000000240F2080071EEC21A92ED002A67EEDF
:102C8000A45A40F26C0369EE277AC2F20000C2F245
:102C9000000337EE800AD0ED007A72EEE62A35EEB8
:102CA000822AD3ED005A40F2700162EEA46AC2F2A9
:102CB000000182ED002A27EE822A76EEA55AD1ED98
:102CC000006A32EE000A29EE222A21EEA48A32EEB0
:102CD000202A67EEA50A78EE266A30EE822A69EE8F
:102CE000210A30EE811A67EEA60A30EE811A62EEF2
:102CF000060A67EE401A71EEE01A65EE012ADFED72
:102D0000600A71EEE21A61EEA01A73EEA11A66EE85
:102D1000012A61EE803A73EEA22A65EE023A72EE63
:102D2000E32A62EEA02A37EE227A61EE072A61EEEC
:102D3000823A73EEE22A65EE003A73EEA22A62EE60
:102D4000A02A36EE226A62EE072A61EE813A73EE1D
:102D5000A22A66EE003A72EEE32A62EEA02A35EE6F
:102D6000225A60EE242A62EE243A63EEA33A62EE1F
:102D7000A22A72EEA32A61EE243A63EEA33A73EE1E
:102D8000A22AFCEE003A62EEA32AF7EE003A72EEB7
:102D9000A32A62EE063A67EE404A74EEE33A65EE25
:102DA000014A73EEE43A63EEA03A62EEA11A71EEC4
:102DB000A31A61EE063A61EE804A74EEA33A65EE1C
:102DC000024A73EEE43A63EEA03A22EE877A37EED7
:102DD000237A61EE073A61EE824A74EEE33A65EED9
:102DE000004A74EEA33A63EEA03A22EE866A36EE0B
:102DF000236A22EE072A21EE811A31EE021A26EE0C
:102E0000000A31EE400A20EE200A22EE851A31EE49
:102E1000000A27EE071A21EEA12A32EE011A26EE49
:102E2000062A32EE011A20EE002A32EE011A11EEC5
:102E3000100AACEB600021EE031A02EE100A21EE3C
:102E4000021A21EE021A31EE041A21EE021A21EEC4
:102E5000812A27EE013A26EE014A20EE010AC3ED4F
:102E6000005AC1ED006A8EED002A8EED013A8EED1A
:102E7000024A8EED030ABDEC048B80BD0AD7A33B4A
:102E80000AD7233B000000002DE9F0412DED108B07
:102E900040F27C10C2F2000090ED000A90ED01CAF1
:102EA00090ED029A90ED03AAB8EE00BA2CEE0BEA70
:102EB00030EE00DA2DEE090A2EEE0A1A31EE000A83
:102EC00010EE100AFDF747FB41EC100B01F00CFA75
:102ED00051EC100B9FED620B54EC105B2A4623461D
:102EE000FDF758FA9FED600B56EC107B3A463346DF
:102EF000FDF7C2FAFDF742FB39EE09FA2DEE0C0A96
:102F00002FEE0A1A31EE000A40F2B01810EE101A35
:102F1000C2F20008C8F800000846FDF71CFB29EEC5
:102F20000F0A2EEE0C1A31EE400AB7EE00EA30EE30
:102F30000E0A41EC180B10EE100AFDF70CFB41ECE9
:102F4000110BB0EE480AF0EE680A01F0E9FC51EC12
:102F5000100B2A462346FDF71DFA3A463346FDF785
:102F60008BFAFDF70BFB3CEE0C0A2DEE0A1A20EE55
:102F7000090A30EE010AC8F8040010EE100AFDF745
:102F8000EAFA29EE0B0A2AEE0B1A2AEE011A20EEB3
:102F9000090A30EE010A30EE0E0A41EC180B10EE71
:102FA000100AFDF7D8FA41EC110BB0EE480AF0EE2A
:102FB000680A01F0B5FC51EC100B2A462346FDF7D8
:102FC000E9F93A463346FDF757FAFDF7D7FA98ED97
:102FD000011A9FED272A00EE100AB4EE421AF1EE14
:102FE00010FAC8F8080006DC9FED222AB4EE421A57
:102FF000F1EE10FA19DA98ED001AB5EE401AF1EE7A
:1030000010FA05DD9FED1C2A32EE411A88ED001AF8
:1030100098ED001AB5EE401AF1EE10FA05DA9FEDC0
:10302000172A32EE411A88ED001A9FED131AB4EEFA
:10303000410AF1EE10FA02DD9FED111A08E09FED52
:103040000F1AB4EE410AF1EE10FA05DA9FED0D1AEF
:1030500031EE000A88ED020ABDEC108BBDE8F0816C
:10306000000000000080664044174154FB210940E5
:103070000000B4420000B4C200003443000034C376
:103080000000B4C30000B44380B540F2C01046F263
:103090000041C2F20000C4F200010322002380E8D4
:1030A0000E0000F10C014FF4002C4FF4401E81E89B
:1030B000085083618383FDF7E1FD002818BFFDF709
:1030C000D7FB80BD80B540F2E81046F60001C2F2A1
:1030D0000000C4F200010322002380E80E0000F18A
:1030E0000C014FF4002C4FF4401E81E8085083611E
:1030F0008383FDF7C3FD002818BFFDF7B9FB80BD32
:1031000080B582B00020019043F63000C4F2020086
:103110000168002241F4800101600068002100F490
:103120008000019001984520FEF7E8F94520FEF760
:10313000D5F902B080BD00002DE9F04387B000272B
:1031400043F630000697CDE90477CDE90277019781
:10315000C4F202000168002441F0800101600168AE
:10316000C4F2020401F08001019101990197016804
:10317000002241F00101016001684FF0100901F0E7
:103180000101019101990197016841F0020101607B
:10319000016801F00201019101990197016841F074
:1031A000040101600068102100F004000190019802
:1031B0002046FEF719F904F5806528468021012292
:1031C0004FF080080126FEF70FF9CDE902960DF1C8
:1031D000080920464946CDE90466FEF72FF828463F
:1031E0004946CDE90286CDE90477FEF727F807B016
:1031F000BDE8F08380B540F2702043F20001C2F2D6
:103200000000C4F201014FF4827200234FF4007CED
:1032100080E80E000A21C0E90333C0E9053CC36120
:10322000C0E90833C0E90A31FEF756FC002818BF90
:10323000FDF71EFB80BD000080B586B040F2C820BF
:103240000021C2F200004FF08042A72341F2873CE8
:10325000CDE90411CDE90211CDE90011C0E9002347
:10326000C0E9021C01618161FEF750FE002818BF11
:10327000FDF7FEFA4FF48050029040F2C820C2F2EF
:10328000000002A9FEF788FF002818BFFDF7F0FA3A
:103290000020CDE9000040F2C820C2F200006946DB
:1032A000FEF7D8FD002818BFFDF7E2FA06B080BD92
:1032B00080B586B040F2103040F200420021C2F2E8
:1032C0000000C4F20002A7234FF0010CCDE9041165
:1032D000CDE90211CDE90011C0E90023C0E9021CCB
:1032E00001618161FEF712FE002818BFFDF7C0FAE8
:1032F0004FF48050029040F21030C2F2000002A958
:10330000FEF74AFF002818BFFDF7B2FA0020CDE90A
:10331000000040F21030C2F200006946FEF79AFD4C
:10332000002818BFFDF7A4FA06B080BD80B586B0AE
:1033300040F2583040F600020021C2F20000C4F210
:103340000002A7234FF6FF7CCDE90411CDE902115D
:10335000CDE90011C0E90023C0E9021C01618161CF
:10336000FEF7D4FD002818BFFDF782FA4FF4805015
:10337000029040F25830C2F2000002A9FEF70CFFA2
:10338000002818BFFDF774FA0020CDE9000040F2D4
:103390005830C2F200006946FEF75CFD002818BFF5
:1033A000FDF766FA06B080BD80B586B040F2A03069
:1033B00040F600420021C2F20000C4F20002A7233E
:1033C00040F2E73CCDE90411CDE90211CDE900114D
:1033D000C0E90023C0E9021C01618161FEF796FD8E
:1033E000002818BFFDF744FA4FF48050029040F2D5
:1033F000A030C2F2000002A9FEF7CEFE002818BFDE
:10340000FDF736FA0020CDE9000040F2A030C2F20C
:1034100000006946FEF71EFD002818BFFDF728FAD8
:1034200006B080BD80B540F2E83041F20001C2F242
:103430000000C4F2010100234FF00C0C4FF4E13204
:1034400080E80E00C0E90333C0E905C3C361FFF79C
:10345000ADF9002818BFFDF70BFA80BD80B540F22A
:103460002C4041F20041C2F20000C4F201010023ED
:103470004FF00C0C4FF4E13280E80E00C0E903334A
:10348000C0E905C3C361FFF791F9002818BFFDF734
:10349000EFF980BDFEE70000FEE700007047000086
:1034A00080B588B00346082006900020CDE90400CE
:1034B00040F2C010C2F200008342029107D040F2F5
:1034C000E810C2F20000834201D008B080BD02A91A
:1034D00001ABFDF7D3F908B080BD00002DE9F04342
:1034E00081B01E4690460D468146FDF783FF301A97
:1034F00000EB0807FDF77EFF40F20401C2F2000175
:103500000968C1F3CB3179430091D9F8001089687B
:103510002940A94219D1064608F1010406E000BF7E
:10352000D9F8000080682840A8420ED1002CF7D0BE
:10353000FDF760FF801BB8420BD20098009900286D
:1035400008BF0746481E0090EAE7002001B0BDE82A
:10355000F083D9E900014268B1F5827F22F0E002F0
:1035600042600BD1D9F80810B1F5004F02D0B1F587
:10357000806F03D1016821F040010160D9F8281063
:10358000B1F5005F07D1016821F4005101600168C5
:1035900041F400510160012089F85100002089F8B0
:1035A0005000032001B0BDE8F08300007047000028
:1035B00080B5FDF725FF80BD70B592B006AC204602
:1035C0003021FCF735FE002543F640000595CDE996
:1035D0000355CDE901550095C4F2020001680226A9
:1035E00041F080510160006800F080500090009828
:1035F00047F200000095C4F20000016841F48041E8
:103600000160006800F4804000900098012009905B
:1036100010200A9008200E90A820CDE90F06042063
:10362000119020460696CDE90C65FEF7B1F820B161
:10363000EFF3108072B600BFFEE70F20CDE9010660
:103640004FF4A05004904FF48050059001A805213C
:103650000395FDF78FFF20B1EFF3108072B600BF26
:10366000FEE712B070BD00004EF68850CEF20000AA
:10367000016841F4700101604FF0006140F8801C66
:103680007047000080B5FFF759F940F22400C2F2FC
:10369000000000F10C011830D1EC031A90EC030A81
:1036A000FFF778FAFFF7F0FB40F2C820C2F2000003
:1036B000FEF742FE80BD000080B5012000F07EF9DB
:1036C00040F2A030C2F20000FEF736FE80BD0000DE
:1036D00010B540F6FF3E0368C4F2000E40F2004C05
:1036E0007045C4F2010C0FDCB0F1804F19D040F2EC
:1036F0000042C4F20002904213D040F60002C4F22D
:10370000000290420DD010E040F60042C4F20002E8
:10371000904206D0604504D00022C4F201029042DB
:1037200003D14A6823F07003134341F6FF72C4F2D9
:10373000000290420DDC70451FDCB0F1804F41D09B
:1037400040F20042C4F2000290423BD040F6000238
:1037500021E043F6FF72C4F20102904220DC42F203
:103760000002C4F2000290422CD00022C4F20102F6
:10377000904227D0604525D028E040F60042C4F2B0
:10378000000290421ED041F60002C4F200029042B4
:1037900018D041F60042C4F20002904212D015E067
:1037A00044F20002C4F2010290420BD044F600023F
:1037B000C4F20102904205D044F20042C4F2010278
:1037C000904203D1CA6823F44073134323F080026C
:1037D0004B69D1F800E08C681A430260C46240F47F
:1037E0008062C0F828E0624504BF096901630121D5
:1037F000416110BD80B5806B0021C185C184FEF799
:103800005BFE80BD80B582B090F83E1022291ED1AB
:103810008268B2F5805F02D10169002948D0816ACF
:10382000B2F5805F07D00AB9026922B10268526816
:1038300002F07F0201E0026852680A700121826A88
:1038400011448162C18D01390A04C18501D002B0E1
:1038500080BD0168CA6822F02002CA60CA6822F4EA
:103860008072CA604A6922F001024A61202180F810
:103870003E10016B012923D100210163016851E849
:10388000031F026821F0100142E80313002BF5D159
:1038900001680A68D20606D5002201920A680192E0
:1038A000496801910199818DFEF704FE02B080BD47
:1038B0000168826A49686FF35F2111800221BEE7C7
:1038C000FFF736F802B080BD10B504460068D4E9B1
:1038D00002C22369016921F4405111430161626907
:1038E00043EA0C01E3691143C268194349F20C63CE
:1038F0009A431143C1604169A26921F4407141F2C8
:103900000043114340F48062C4F201039A424161D2
:1039100002D1FDF7F3FE01E0FDF7DCFEE16963682B
:103920001922B1F5004FA0FB02011DD15A00DB0F97
:10393000FCF746FC48F21F51C5F2EB11A0FB012336
:103940005A096FF0630302FB0300322303EBC0004C
:10395000A0FB01014FF4F87000EA111000EB021017
:10396000C1F3421108441BE09A009B0FFCF728FCAE
:1039700048F21F51C5F2EB11A0FB01235A096FF069
:10398000630302FB0300322303EB0010A0FB0101E1
:10399000F02000EA511000EB0210C1F3431108447B
:1039A0002168886010BD000080B540F22C40C2F252
:1039B0000000FEF783FD80BDFEE7000080B540F209
:1039C000B010C2F2000090ED000A9FED1E2A90EDAB
:1039D000011A20EE020ABDEEC00A90ED023A10EE86
:1039E000100A40F2180221EE020AC2F20002BDEEF5
:1039F000C00A108010EE100A23EE020ABDEEC00AC3
:103A0000508010EE100A908040F2C010C2F2000008
:103A10005221FFF745FD40F28240C2F200000188CA
:103A200001318AB2B2F5FA7F018008D1002101800C
:103A300040F20040C4F202008021FDF7CDFC0120DD
:103A400080BD00BF0000C8422DE9F04784B040F2BD
:103A50000009C4F2020990468A46064648461021EB
:103A60000022FDF7C1FC40F2844140F2854440F25F
:103A70007027C2F20001BB20C2F20004C2F20007AC
:103A800040F27842087020703725C2F200023846B2
:103A900001230095FEF7B4F80DF10A0238462146DD
:103AA00006230095FEF7ACF8484610210122FDF7E9
:103AB0009BFCBDF80A00BDF80C1000BA000C308069
:103AC00008BABDF80E10000CAAF8000008BA010CE4
:103AD0000020A8F8001004B0BDE8F0872DE9F047F9
:103AE00084B040F20009C4F2020990468A460646B4
:103AF000484610210022FDF777FC40F2844140F255
:103B0000854440F27027C2F20001C320C2F20004D3
:103B1000C2F2000740F27842087020703725C2F2E6
:103B20000002384601230095FEF76AF80DF10A02FB
:103B30003846214606230095FEF762F848461021D4
:103B40000122FDF751FCBDF80A00BDF80C1000BAC7
:103B5000000C308008BABDF80E10000CAAF8000066
:103B600008BA010C0020A8F8001004B0BDE8F087E6
:103B70002DE9F04F81B040F20008C4F2020840463F
:103B8000102100224FF00009FDF72EFC40F2844581
:103B900040F2702740F27846C2F20005C2F20007F8
:103BA000C2F200064FF06B0A3724384629463246E7
:103BB000012385F800A000944FF0010BFEF720F8D8
:103BC0008020287038462946324601230094FEF7AB
:103BD00017F8404610210122FDF706FC322000F0C4
:103BE00049FB404610210022FDF7FEFB38462946DE
:103BF0003246012385F800A00094FEF701F838460C
:103C000029463246012385F800B00094FDF7F8FFFD
:103C1000404610210122FDF7E7FB322000F02AFB8D
:103C2000404610210022FDF7DFFB1920287038469E
:103C30002946324601230094FDF7E2FF3846294623
:103C40003246012385F800900094FDF7D9FF4046E5
:103C500010210122FDF7C8FB404610210022FDF78C
:103C6000C3FB1A20287038462946324601230094A7
:103C7000FDF7C6FF4FF0040A3846294632460123B5
:103C800085F800A00094FDF7BBFF404610210122FB
:103C9000FDF7AAFB404610210022FDF7A5FB1D20E1
:103CA000287038462946324601230094FDF7A8FFC4
:103CB000384629463246012385F800A00094FDF7D6
:103CC0009FFF404610210122FDF78EFB40F2A81015
:103CD00044F62901C2F20000C3F6800101604046AB
:103CE00010210022FDF780FB1C2028703846294651
:103CF000324601230094FDF783FF384629463246B9
:103D0000012385F800900094FDF77AFF40461021CA
:103D10000122FDF769FB40F2AC104CF29011C2F2A7
:103D20000000C3F679510160404610210022FDF7E2
:103D30005BFB1B202870384629463246012300943D
:103D4000FDF75EFF182028703846294632460123C9
:103D50000094FDF755FF404610210122FDF744FB7A
:103D6000642000F087FA002001B0BDE8F08F000069
:103D700040F2F80140F2000C0022C2F200010020E3
:103D8000C4F2C83CC4F220124FF07E530860486170
:103D9000C1E9073CC1E90923486040F22411C2F29D
:103DA00000014861C1E9073CC1E90923C1E90000FC
:103DB00040F25011C2F200014861C1E9073CC1E97B
:103DC0000923C1E9000040F27401C2F20001486118
:103DD000C1E9073CC1E90923C1E9000040F2A001A3
:103DE000C2F200014861C1E9073CC1E90923C1E908
:103DF000000040F2CC01C2F200014861C1E9073C79
:103E0000C1E90923C1E90000704700002DE9F04F26
:103E100081B02DED068B40F22401C2F20001D1E900
:103E20000308FCF798FB40F2740BC2F2000B9BED09
:103E3000050A9BED071A9BED082A9BED093A21EE36
:103E4000000A30EE029A39EE030A89EE00AA9BEDD1
:103E5000000A824621EE000A10EE100A89468BED18
:103E6000010A8BED039A8BED06AAFCF774FB05465D
:103E70001AEE100A0E46FCF76EFB04460F4650463B
:103E800049462A463346FCF77FFA02460B4620464F
:103E90003946FCF77FFA2A463346FCF7D4F9FCF79B
:103EA0006DFBB7EE008A38EE4A0A29EE000ACBF81D
:103EB00008008BED040A8BED050ACBF8000040F2F8
:103EC000240BC2F2000BCBF80C004046FCF743FB7E
:103ED00040F2A006C2F2000696ED070A96ED052A0A
:103EE00096ED081A96ED093A20EE022A32EE019A72
:103EF00039EE031A89EE01AA96ED001A814620EEEA
:103F0000010A10EE100A884686ED010A86ED039A32
:103F100086ED06AAFCF71FFB04461AEE100A0D46B2
:103F2000FCF719FB07468A464846414622462B467F
:103F3000FCF72AFA02460B4638465146FCF72AFAA5
:103F400022462B46FCF77FF9FCF718FBB06038EEF1
:103F50004A0A3060CBF81000DBF8140029EE000AA2
:103F600086ED040A86ED050AFCF7F5FA40F2CC0668
:103F7000C2F2000696ED070A96ED052A96ED081A9C
:103F800096ED093A20EE022A32EE019A39EE031A32
:103F900089EE01AA96ED001A814620EE010A10EE84
:103FA000100A884686ED010A86ED039A86ED06AA78
:103FB000FCF7D1FA04461AEE100A0D46FCF7CBFACC
:103FC00007468A464846414622462B46FCF7DCF91E
:103FD00002460B4638465146FCF7DCF922462B4692
:103FE000FCF731F9FCF7CAFAB06038EE4A0A3060E3
:103FF000CBF81400DBF8180029EE000A86ED040A5D
:1040000086ED050AFCF7A7FA40F2F806C2F20006B0
:1040100096ED070A96ED052A96ED081A96ED093AEF
:1040200020EE022A32EE019A39EE031A89EE01AA35
:1040300096ED001A814620EE010A10EE100A88461D
:1040400086ED010A86ED039A86ED06AAFCF783FA4F
:1040500004461AEE100A0D46FCF77DFA07468A461A
:104060004846414622462B46FCF78EF902460B464F
:1040700038465146FCF78EF922462B46FCF7E3F80A
:10408000FCF77CFAB06038EE4A0A3060CBF81800D2
:10409000DBF81C0029EE000A86ED040A86ED050A0D
:1040A000FCF759FA40F22416C2F2000696ED070A10
:1040B00096ED052A96ED081A96ED093A20EE022AA9
:1040C00032EE019A39EE031A89EE01AA96ED001A32
:1040D000814620EE010A10EE100A884686ED010A9C
:1040E00086ED039A86ED06AAFCF735FA04461AEE29
:1040F000100A0D46FCF72FFA07468A464846414605
:1041000022462B46FCF740F902460B4638465146FC
:10411000FCF740F922462B46FCF795F8FCF72EFAFF
:10412000B06038EE4A0A3060CBF81C00DBF82000A3
:1041300029EE000A86ED040A86ED050AFCF70BFA63
:1041400040F25016C2F2000696ED070A96ED052AD7
:1041500096ED081A96ED093A20EE022A32EE019AFF
:1041600039EE031A89EE01AA96ED001A814620EE77
:10417000010A10EE100A884686ED010A86ED039AC0
:1041800086ED06AAFCF7E7F904461AEE100A0D467A
:10419000FCF7E1F907468A464846414622462B4647
:1041A000FCF7F2F802460B4638465146FCF7F2F8A7
:1041B00022462B46FCF747F8FCF7E0F938EE4A0AAE
:1041C00029EE000AB06086ED040A86ED050A30602B
:1041D000CBF82000BDEC068B01B0BDE8F08F0000ED
:1041E000FDF71CF9FFF7E8F9FEF7A6FFFEF788FFD9
:1041F000FFF718F9FEF748FFFFF730F9FEF7FAFF6F
:10420000FFF71AF8FFF754F8FFF790F8FEF75AFF98
:10421000FFF7CAF840F27C10C2F200004FF07E5166
:104220000022C0E90012C0E90222FFF7A1FCFFF75B
:104230009FFD00BFFEF74EFC0028FBD140F200407E
:10424000C4F2020080210022FDF7CEF840F258307F
:10425000C2F20000FDF7E6FE40F2C820C2F2000004
:10426000FDF730FF40F2A030C2F20000FDF72AFF58
:10427000FEE700002DE9F041002808BFBDE8F0810D
:1042800040F2103504460026C2F200054FF61248EF
:104290004FF6FA772846FDF7C5FE2868C0F8248057
:1042A000416A89B2B942FBD32846FDF75FFF013668
:1042B000A642EFD3BDE8F08103B401984100009815
:1042C00050EAC12018BF04204A0D18BF40F0010079
:1042D00040F2FF72B2EB515F08BF40F002000128CC
:1042E00008BF052002B0704770B5C1482DED020B24
:1042F0002DED0E8B82B0119D25F000449FEDBEDBAD
:104300009FEDBFEB84423EDBA4F140511098A1F138
:104310007F6108430FD0BC48844202DC28D110984A
:1043200030B39DED100B02B0BDEC0E8B02B0BDE8BA
:10433000704000F071BC9DED100B53EC1D2B51EC47
:10434000100BFCF727F89DED100B41EC180B53EC0C
:104350001E2B51EC100BFCF71DF853EC182BFBF740
:1043600072FF41EC100B02B0BDEC0E8B02B070BDC1
:10437000012000F095FC02B0BDEC0E8B02B0BDE850
:10438000704000F05DBCA1489FEDA18B844256DADD
:104390009DED100BB4F1795F0ADA51EC100BFFF7C9
:1043A0008BFF042808BF00F05BFC9DED100BDAE7E3
:1043B00053EC102B51EC100BFBF7ECFF41EC190BFD
:1043C00095480621B0EE490AF0EE690A784400F0FB
:1043D000A7FB53EC192B51EC100BFBF7DBFF41EC67
:1043E0001A0B8E48B0EE490AF0EE690A04217844AF
:1043F00000F096FB53EC192B51EC100BFBF7CAFFA6
:1044000053EC182BFBF71FFF41EC100B51EC1A0B70
:1044100053EC102BFCF730F8CDE900019DED000BBB
:1044200053EC102B9DED100B51EC100BFBF7B2FF72
:104430009DED101B53EC112BFBF705FFD2E09DED1A
:10444000100B51EC100B00F039FC53EC182BFBF760
:104450009EFF9FED730BCDE9000153EC102B9DEDFA
:10446000000B51EC100BFBF795FF41EC190B6E485C
:104470000621B0EE490AF0EE690A784400F050FBDC
:1044800053EC192B51EC100BFBF784FF41EC1B0B89
:104490006648B0EE490AF0EE690A0421784400F05B
:1044A0003FFB53EC192B51EC100BFBF773FF53EC54
:1044B000182BFBF7C8FE41EC1C0B51EC190B00F05C
:1044C00009FC41EC180B5A489FED5BABA04222DC83
:1044D00053EC1C2B51EC1B0BFBF7CEFFCDE900017D
:1044E0009DED000B51EC180B53EC102BFBF752FF1A
:1044F00053EC182BFBF7A7FE53EC1A2BFBF74AFFE4
:1045000053EC1D2BFBF740FF53EC1E2BFBF73FFF3B
:1045100041EC100B5FE08DED008B002000909DEDD5
:10452000000B51EC180B53EC102BFBF78CFE9DEDA0
:10453000000B41EC1E0B53EC102B51EC100BFBF756
:1045400029FF53EC192BFBF722FF53EC1E2BFBF733
:1045500093FF41EC190B53EC1C2B51EC1B0BFBF79D
:104560008BFF41EC1B0B53EC1A2B51EC190BFBF797
:1045700011FF53EC1D2BFBF70AFF41EC190B53EC19
:104580001A2B51EC180BFBF705FF53EC1B2BFBF719
:1045900001FF53EC192BFBF7F7FE9DED000B41ECEF
:1045A000180B53EC1A2B51EC100BFBF7F3FE9FED9D
:1045B000249B53EC192BFBF7EAFE41EC100B51EC5A
:1045C000180B53EC102BFBF7DFFE53EC192BFBF70A
:1045D000DEFE41EC100B002D3FF7C5AE51EC100B89
:1045E00081F0004141EC100BBDE60000000000002E
:1045F0000000F03F00000000075C143326A6913C49
:10460000182D4454FB21F93F0000F07F0000E03FEB
:10461000000000000000F03F78090000860900005B
:10462000000000000000E03FCA080000D8080000B9
:104630003333EF3F000000000000000000000040A6
:10464000182D4454FB21E93F70B59B482DED020B1A
:104650002DED068B079D25F00044A04218DC9748FD
:10466000844202DC0AD1069840B19DED060BBDECF8
:10467000068B02B0BDE8704000F0CEBA002DCCBF72
:104680009FED8F0B9FED900BBDEC068B02B070BDC4
:104690008F48A04215DD8F48A042D8BF4FF0FF34AD
:1046A00058DD9DED060B51EC100BFFF705FE0428BD
:1046B00008BF00F0D5FA9DED060BBDEC068B02B0ED
:1046C00070BD9DED060B51EC100B00F0F7FACDE933
:1046D000060181489FED828BA0423CDD8248A042CA
:1046E0001FDD00249FED82AB9DED060B53EC1A2BD2
:1046F00051EC100BFBF7A7FD9DED060B41EC190BE0
:1047000053EC1A2B51EC100BFBF744FE53EC182B17
:10471000FBF73AFE53EC192BFBF7AEFECDE9060191
:1047200049E09DED060B012453EC182B51EC100BC6
:10473000FBF789FD9DED060B41EC190B53EC182B93
:1047400051EC100BFBF720FE53EC192BFBF794FEFA
:10475000CDE906012FE06848A0421FDD02249FED4D
:10476000689B9DED060B53EC192B51EC100BFBF7DE
:1047700011FE53EC182BFBF766FD9DED060B41EC8B
:10478000180B53EC192B51EC100BFBF7FDFD53EC00
:10479000182BFBF771FECDE906010CE09DED060B31
:1047A000032453EC102B9FED580B51EC100BFBF72F
:1047B00063FECDE906019DED060B53EC102B51EC89
:1047C000100BFBF7E7FD41EC180B53EC182BFBF734
:1047D000E1FD41EC190B4E480621B0EE490AF0EE1E
:1047E000690A784400F09CF953EC182B51EC100B3B
:1047F000FBF7D0FD41EC180B4648B0EE490AF0EE4D
:10480000690A0521784400F08BF953EC192B51EC1F
:10481000100BFBF7BFFD41EC100B51EC180B53ECE8
:10482000102B002C0EDAFBF70EFD9DED061B53EC52
:10483000112BFBF7AFFD9DED061B53EC112BFBF786
:10484000A6FD35E0FBF7FFFC9DED061B53EC112B9D
:10485000FBF7A0FD41EC100B2F48784400EBC4009F
:1048600090ED001B51EC100B53EC112BFBF78CFD62
:104870009DED061B53EC112BFBF786FD41EC100B55
:104880002648784400EBC40090ED001B51EC100B5F
:1048900053EC112BFBF77BFD41EC100B002DA2BF5D
:1048A000BDEC068B02B070BD51EC100B81F00041E5
:1048B00041EC100B01E70000000010440000F07F05
:1048C000182D4454FB21F93F182D4454FB21F9BF06
:1048D0000000DC3F0000203E0000F33F000000002D
:1048E000000000000000F03F0000E63F0000000074
:1048F00000000000000000400080034000000000B5
:10490000000000000000F83F000000000000F0BFC1
:104910001A060000D00500005A050000120500002C
:1049200070B56F4E2DED040B2DED048B82B0DDF8CC
:1049300024C0DDE907235C422CF000411C4341EA1E
:10494000D474069D22F00040B44205D86C422C433A
:1049500040EAD474B4420BD99DED081B9DED060BC3
:1049600002B0BDEC048B04B0BDE8704000F05EB94D
:10497000ACF14054A4F17F641C430BD0022404EA40
:10498000AC7444EAD27405439FED578B9FED582BCE
:1049900007D015E09DED060B51EC100B00F086F9E9
:1049A00042E0002C11BF012C9DED060B02B0BDECC6
:1049B000048B04BF04B070BD022C38D0032C3BD054
:1049C0000B439FED4D1B9FED4E0B0AD0B14218D10A
:1049D000B04209D121F0804120F080400991079038
:1049E0000FE0002A15DA10E0474B7B44002C08BF8B
:1049F00093ED000B0DD0012C10D0022C17D0032CFE
:104A00001AD0B0421DD1002A03DAB0EE410AF0EE0E
:104A1000610A02B0BDEC048B04B070BD93ED000BD5
:104A200051EC100B81F0004141EC100BF1E7B0EEBE
:104A3000480AF0EE680AECE7B0EE420AF0EE620ACD
:104A4000E7E7401A00159FED329B3C28C8BF8DED6B
:104A5000000B17DCBCF1000FBCBF10F13C0F8DED5B
:104A6000009B0FDB9DED080B53EC102B9DED060B0F
:104A700051EC100BFBF700FD00F020F900F016F9E7
:104A8000CDE90001B4B1012C10D0022C9FED220B16
:104A900053EC102B9DED000B51EC100B19D0FBF7D4
:104AA00073FC53EC182BFBF76FFCBDE7019880F00B
:104AB000004001909DED000B53EC192B51EC100BB5
:104AC000FBF73EFE04BF022000F0EAF89DED000B6C
:104AD0009FE7FBF759FC53EC182BFBF758FCA3E7B7
:104AE0000000F07F00000000182D4454FB21094015
:104AF000182D4454FB2109C0182D4454FB21F9BF43
:104B0000182D4454FB21F93F42040000000000002E
:104B10000000000000000000075C143326A6A13C42
:104B200070B504462DED028B4D1E00EBC500B0EEB6
:104B3000408AF0EE608A90ED000B35F0060017D049
:104B400053EC182B51EC100BFBF724FC41EC100B31
:104B50006D1E04EBC50090ED001B51EC100B53ECE7
:104B6000112BFBF770FB41EC100B35F00600E7D181
:104B7000022D36D0042D1CD0062D1CBFBDEC028B9F
:104B800070BD53EC182B51EC100BFBF703FC94EDAC
:104B90000A1B53EC112BFBF756FB53EC182BFBF7BE
:104BA000F9FB94ED081B53EC112BFBF74CFB41EC8C
:104BB000100B53EC182B51EC100BFBF7EBFB94EDA7
:104BC000061B53EC112BFBF73EFB53EC182BFBF7AA
:104BD000E1FB94ED040B53EC102BFBF734FB41ECA1
:104BE000100B53EC182B51EC100BFBF7D3FB94ED8F
:104BF000021B53EC112BFBF726FB53EC182BFBF796
:104C0000C9FB94ED001B53EC112BFBF71CFBBDEC17
:104C1000028B41EC100B70BD10B553EC102B51EC16
:104C2000100BFBF710FB41EC100B10BD10B553EC53
:104C3000112B51EC100BFBF706FB41EC100B10BDD8
:104C40009FED050B10B553EC102B51EC100BFBF73F
:104C500013FC41EC100B10BD000000000000000030
:104C60009FED050B10B553EC102B51EC100BFBF71F
:104C700091FB41EC100B10BD000000000000001083
:104C800002E008C8121F08C1002AFAD17047704715
:104C9000002001E001C1121F002AFBD17047000073
:104CA00001490860704700000000002010B541EC89
:104CB000100BFFF7C9FC51EC100B10BD82B0CDE911
:104CC000000121F0004001909DED000B02B051EC7D
:104CD000100B704700B52DED048B83B041EC190B20
:104CE000FBF758FD41EC180B18EE100A18EE901A5D
:104CF0008DED008B002818BF0120084320F00040F4
:104D0000C0F17F6000F1E040C00F14D019EE101A1E
:104D100019EE900A8DED009B002918BF0121084370
:104D200020F00040C0F17F6000F1E040C00F04BF00
:104D30000120FFF7B5FF51EC180B03B0BDEC048B5D
:104D400000BD000000000000555555555555C53FA4
:104D50007D6FEB0312D6D4BF5544880E55C1C93FB1
:104D60003B8F68B52882A4BF88B20175E0EF493F48
:104D700009F7FD0DE13D023F4B2D8A1C273A03C088
:104D8000C88A599CE52A004059018D1B6C06E6BF74
:104D900082922EB1C5B8B33F4FBB610567ACDD3F12
:104DA000182D4454FB21E93F9BF681D20B73EF3F52
:104DB000182D4454FB21F93FE2652F227F2B7A3CCA
:104DC000075C143326A6813CBDCBF07A8807703C83
:104DD000075C143326A6913CC4EB98999999C9BFF6
:104DE000711623FEC671BCBF6D9A74AFF2B0B3BF2B
:104DF0009AFDDE522DDEADBF2F6C6A2C44B4A2BFEB
:104E00000D5555555555D53FFF8300922449C23F56
:104E10006E204CC5CD45B73F513DD0A0660DB13F8A
:104E2000EB0D76244B7BA93F11DA22E33AAD903F9C
:104E30000000000000000000000000000000000072
:104E40000102030406070809000000000102030430
:104E50000006101600061016784E0008000000200C
:104E600018000000804C0008904E00081800002038
:104E700080080000904C0008000000000024F400AE
:104E8000CDCC4C3E00004842010000001000000064
:040000050800018965
:00000001FF
