:020000040800F2
:10000000088C0020A5020008716900084D42000814
:100010006D690008AD09000859940008000000004F
:10002000000000000000000000000000016D00085A
:10003000A90A000800000000116B0008256D0008E7
:10004000BF020008BF020008BF020008BF0200088C
:10005000BF020008BF020008BF020008BF0200087C
:10006000BF020008BF020008BF020008BF0200086C
:10007000BF020008BF020008910A00089D0A00089C
:10008000BF020008BF020008BF020008BF0200084C
:10009000B1090008BF020008BF020008BF02000843
:1000A000BF020008BF020008BF020008BF0200082C
:1000B000016E0008BF020008BF020008BF0200086E
:1000C000BF020008BF020008BF020008BF0200080C
:1000D000116C0008BF020008BF020008BF02000840
:1000E000BF020008BF020008BF0200080D6E000832
:1000F000BF020008BF020008BF020008BF020008DC
:10010000BF020008BF020008BF020008BF020008CB
:10011000BF020008BF020008BF020008BF020008BB
:10012000BF020008BF020008BF020008BF020008AB
:10013000BF0200080000000000000000BF0200082D
:10014000BF020008BF020008BF020008756900086E
:10015000BF020008BF020008BF020008BF0200087B
:10016000BF020008BF020008BF020008BF0200086B
:10017000BF020008BF020008BF0200080000000024
:1001800000000000BF0200080000000000000000A6
:10019000BF0200080000000000000000BF020008CD
:1001A000000000000000000000000000BF02000886
:1001B000BF020008BF020008BF020008BF0200081B
:1001C000BF02000800F002F800F05CF80AA090E816
:1001D000000C82448344AAF10107DA4501D100F002
:1001E00051F8AFF2090EBAE80F0013F0010F18BF73
:1001F000FB1A43F001031847A4CF0000C4CF00004E
:100200000A444FF0000C10F8013B13F0070408BF3C
:1002100010F8014B1D1108BF10F8015B641E05D0DA
:1002200010F8016B641E01F8016BF9D113F0080F8F
:100230001EBF10F8014BAD1C0C1B09D16D1E58BF21
:1002400001F801CBFAD505E014F8016B01F8016B58
:100250006D1EF9D59142D6D37047000000230024CB
:1002600000250026103A28BF78C1FBD8520728BFC6
:1002700030C148BF0B6070471FB50CF0DCFA1FBDE2
:1002800010B510BD00F038F91146FFF7F5FF0AF080
:100290004DFD00F056F903B4FFF7F2FF03BC00F088
:1002A00059F900000948804709480047FEE7FEE782
:1002B000FEE7FEE7FEE7FEE7FEE7FEE7FEE7FEE716
:1002C00004480549054A064B70470000E56D0008E3
:1002D000C501000808800020088C00200884002048
:1002E0000884002053EA020C00F069802DE9F04BED
:1002F0004FF00006002B1FBFB3FA83F503FA05F495
:1003000024FA05F65E4012BF1643B2FA82F502FAED
:1003100005F4C5F120051EBF22FA05FC44EA0C04D1
:10032000203556EA044C4FEA144418BF641C4FF0C1
:1003300000084FF00009904271EB030C39D30029FB
:1003400019BFB1FA81F701FA07F6B0FA80F700FA9F
:1003500007F6C7F120071EBF20FA07FC46EA0C0685
:100360002037B6FBF4FCA7EB0507103F07F01F0B87
:10037000CBF120062CFA06F60CFA0BFB44BFB34671
:100380000026202FA4BF5E464FF0000B5BEA060C50
:1003900008BF4FF0010B19EB0B0948EB0608ABFB4C
:1003A000027C06FB02CC0BFB03CCC01B71EB0C01E7
:1003B000C1E70B46024641464846BDE8F08B13B5FF
:1003C000084318BF4FF0FF300146AFF30080BDE88F
:1003D0001C40704710B5203AC0F00B80B1E81850AF
:1003E000A0E81850B1E81850A0E81850203ABFF41F
:1003F000F5AF5FEA027C24BFB1E81850A0E81850BE
:1004000044BF18C918C0BDE810405FEA827C24BF11
:1004100051F8043B40F8043B08BF7047D20728BF9F
:1004200031F8023B48BF11F8012B28BF20F8023BEE
:1004300048BF00F8012B70474FF000020429C0F0BC
:10044000128010F0030C00F01B80CCF1040CBCF106
:10045000020F18BF00F8012BA8BF20F8022BA1EB58
:100460000C0100F00DB85FEAC17C24BF00F8012B3D
:1004700000F8012B48BF00F8012B70474FF0000235
:1004800000B5134694469646203922BFA0E80C508A
:10049000A0E80C50B1F12001BFF4F7AF090728BF65
:1004A000A0E80C5048BF0CC05DF804EB890028BFE1
:1004B00040F8042B08BF704748BF20F8022B11F00A
:1004C000804F18BF00F8012B704770477047704786
:1004D00010B500F009F8006810BD10B5044600F032
:1004E00003F8046010BD000000487047A001002020
:1004F00000487047A00100207546FFF7F9FFAE469F
:1005000005006946534620F00700854618B020B51F
:10051000FFF7D6FEBDE820404FF000064FF0000781
:100520004FF000084FF0000BAC46ACE8C009ACE857
:10053000C009ACE8C009ACE8C00921F007018D464C
:10054000704710B50446AFF300802046BDE8104068
:10055000FFF7A1BE01491820ABBEFEE7260002004E
:100560007047000040F20040C4F202000221012264
:1005700001F0CCB840F20040C4F202000221002297
:1005800001F0C4B87047000040F20040C4F202001D
:100590000121012201F0BAB840F20040C4F2020089
:1005A0000121002201F0B2B87047000070B50028A8
:1005B0006CD04EF2180149F24002CEF20001C0F2B6
:1005C000020210F0030EA0F1010C38D051F8043CE7
:1005D0000D68002408E02C44A41BB54298BF1C44BD
:1005E000944235460DD200BF0E68B542F3D10E6875
:1005F000B542F0D10E68B542EDD10E68B542F3D0E8
:10060000E9E7BEF1010F63463CD051F8043C0D68A8
:10061000002407E02C44A41BB54298BF1C4494421C
:1006200035460ED20E68B542F4D10E68B542F1D10E
:100630000E68B542EED10E68B542F3D0EAE7034644
:1006400020E0BEF1020F01D1831E1BE051F8043CF3
:100650000E68002408E03444641BAE4298BF1C447A
:1006600094422E460DD200BF0D68AE42F3D10D6804
:10067000AE42F0D10D68AE42EDD10D68AE42F3D07E
:10068000E9E7C31E1FFA8CF0032805D270BD00BF36
:10069000043B180408BF70BD51F8040C0E68002418
:1006A00008E03444641BAE4298BF044494422E4692
:1006B0000ED200BF0D68AE42F3D10D68AE42F0D14C
:1006C0000D68AE42EDD10D68AE42F3D0E9E700BF50
:1006D00051F8040C0E68002408E03444641BAE4258
:1006E00098BF044494422E460ED200BF0D68AE421D
:1006F000F3D10D68AE42F0D10D68AE42EDD10D6878
:10070000AE42F3D0E9E700BF51F8040C0E680024B4
:1007100008E03444641BAE4298BF044494422E4621
:100720000ED200BF0D68AE42F3D10D68AE42F0D1DB
:100730000D68AE42EDD10D68AE42F3D0E9E700BFDF
:1007400051F8040C0E68002408E03444641BAE42E7
:1007500098BF044494422E469AD200BF0D68AE4220
:10076000F3D10D68AE42F0D10D68AE42EDD10D6807
:10077000AE42F3D0E9E7000080B54EF21801CEF2A8
:100780000001A82251F804CC00FB02FE08680023F7
:1007900008E003449B1A904298BF63447345104697
:1007A00028BF80BD0A689042F3D10A689042F0D118
:1007B0000A689042EDD10A689042F3D0E9E7000060
:1007C00010B5FFF7DFFEFFF7EFFE0AF09BF90446D6
:1007D0000AF00CF9204310BD2DE9F04F81B00092D2
:1007E0000E468146FFF7C6FE922000F0C7F8922021
:1007F00000F0C4F8552000F0C1F88046552000F004
:10080000BDF88346552000F0B9F88246552000F027
:10081000B5F80446552000F0B1F80746552000F021
:10082000ADF80546FFF79EFE48EA0B2000B200EE49
:10083000100A40F20000C2F2000090ED001AB8EE7B
:10084000C00A21EE000A86ED000A4AEA042190ED72
:10085000001A47EA052009B200B200EE101A02EEB3
:10086000100AB8EEC00AB8EEC22A21EE000A21EE44
:10087000021A86ED010A86ED021AFFF78DFE80202E
:1008800000F07CF8552000F079F80646552000F07D
:1008900075F8552000F072F88246552000F06EF889
:1008A0000546552000F06AF88346552000F066F8AA
:1008B0000446552000F062F80746552000F05EF827
:1008C0008046FFF761FE0F2E28D14AEA052000B2CC
:1008D00000EE100A40F20400C2F2000090ED001A8F
:1008E000B8EEC00A21EE000A89ED000A4BEA0421A5
:1008F00090ED001A47EA082009B200B200EE101A83
:1009000002EE100AB8EEC00AB8EEC22A21EE000AC2
:1009100021EE021A89ED010A89ED021AFFF72AFE7B
:10092000A22000F02BF8A22000F028F8552000F0BB
:1009300025F80446552000F021F80546FFF712FE81
:10094000E00040EA55104FF600010022CFF6FF719B
:10095000B2EB902F18BF084300EE100AB8EEC00AA1
:10096000B4EE001A20EE010AB3EE071A009830EE3A
:10097000010A80ED000A01B0BDE8F08F80B582B0B9
:100980008DF8070043F694204FF47A7CC2F2000001
:100990000DF107010DF106020123CDF800C002F0B0
:1009A00025FE9DF8060002B080BD0000FEE70000B5
:1009B00043F2A040C2F2000000F0F8B970B540F276
:1009C000002443F2A045C2F200040E2601200021BB
:1009D000C2F20005C4E90806C4E90011C4E9021125
:1009E000C4E90411C4E906102846214600F0DEF8E7
:1009F000284600F0C9FB2846022100F071F8666223
:100A0000666170BD002070470020704710B543F24A
:100A1000C414C2F2000442F21C11C2F200012046CA
:100A2000002206F055FC41F61C11C2F200012046DE
:100A300006F040FC002010BD10B543F2C414C2F211
:100A400000040146204606F035FC204606F00CFC6A
:100A5000002010BD0020704710B543F2C412C2F24E
:100A60000002D2F8BC22D2F81432002B1CBF0120A5
:100A700010BD43F2C414C2F200040A4601462046E7
:100A800006F026FC2046BDE8104006F0BFBC000082
:100A900043F2C840C2F2000000F0C4BB43F2285049
:100AA000C2F2000000F0BEBB7047000070470000BB
:100AB00040F2C020C2F2000090ED690A70470000C9
:100AC00040F2C020C2F2000090ED680A70470000BA
:100AD00040F2C020C2F2000090ED6A0A70470000A8
:100AE00090F82020013A012A04D8006800F114028D
:100AF000002004E000F1240201204FF4802113685B
:100B0000194311607047000010B590F820E0D0F84C
:100B100000C0AEF1010EBEF1010FDCF808E00DD807
:100B20001EF0E05F10D0CEF3016EBEF1030F11D1C5
:100B300000F1240101204FF4000233E000F1240110
:100B400001204FF480222DE000F1240101204FF418
:100B5000001227E0012000FA0EF01860886818B132
:100B60004B6840EAC30001E008684005D1E903345E
:100B700003430CEB0E10C0F88031C0F88441097DAE
:100B8000012905D100F5C2710B6843F480730B6035
:100B90005168C0F88C11126800F5C071C0F8882146
:100BA000002001220B681A430A6010BDB0B590F80E
:100BB0002020013A012A2FD846F20060C4F200003A
:100BC000026842F001020260026822F47C52026074
:100BD000D1F814E0CC694A6A0368012C43EA022286
:100BE00002600EF01F024FF0010303FA02F2C36924
:100BF0006FEA020C23EA0203C36113D02CBBC36863
:100C000003EA0C03C360CB688C8844EA034300EB1F
:100C1000CE0423640B4611E0416A41F48021416215
:100C20000120B0BDC3681343C3600B688C8844EADD
:100C3000034300EBCE04236401F10C038C681B8892
:100C400043EA044300EBCE04636443688D6943EADE
:100C50000204D1F810E0096A002D08BF03EA0C0471
:100C600044604369BEF1000F43EA020408BF03EA8F
:100C70000C040129446102D1C1691143C1610168B9
:100C800021F0010101600020B0BD000070470000AC
:100C900010B590F82040013C012C0CD8D0F800C0D1
:100CA00079B1DCF81040A4070FD100F12401012034
:100CB0004FF400126FE000F1240101204FF4802274
:100CC00069E0DCF80C40A40769D00CEB011CDCF8EF
:100CD000B0410CF5D87E14F004049460DCF8B04107
:100CE00019BFE4085460640D1460DEF80040002968
:100CF00004F00204D460DCF8B44104F00F04146181
:100D0000DCF8B441C4F307249461DCF8B4414FEA41
:100D100014445461DCF8B8211A70026802EB011225
:100D2000D2F8B8214FEA12225A70026802EB01127F
:100D3000D2F8B8214FEA12429A70026802EB01120F
:100D4000D2F8B8214FEA1262DA70026802EB01129F
:100D5000D2F8BC211A71026802EB0112D2F8BC2150
:100D60004FEA12225A71026802EB0112D2F8BC213A
:100D70004FEA12429A71026802EB0112D2F8BC21CA
:100D80004FEA1262DA71006814BF00F1100100F13D
:100D90000C01002020220B681A430A6010BD00F1EC
:100DA000240101204FF40012F5E700002DE9F04F77
:100DB00081B0044600684669D0F804908768D0F88E
:100DC0000CB0D0F810A0D0F81880F10703D100259E
:100DD00030071CD423E0F90710D00121BA07816045
:100DE00009D4780700F1AA80380700F1B0802046C6
:100DF00000F0F8F902E0204600F0F6F90025F805C9
:100E000000F18480F80300F1AA80300707D51BF0B9
:100E1000100004D0206845F400751021C1607007EF
:100E200008D51BF0080005D020680821C1602046C5
:100E300000F096F9B00706D52068C068800702D098
:100E4000204600F08FF9700607D51AF0100004D084
:100E5000206845F4806510210161B00608D51AF0BC
:100E6000080005D0206808210161204600F086F9BD
:100E7000F00606D520680069800702D0204600F001
:100E80007FF9B00308D519F0100005D020681021B3
:100E90004160204600F076F9F00308D519F008000B
:100EA00005D0206808214160204600F0A7F93004F1
:100EB00040F18F805FEA497040F1888006F48070CD
:100EC00008EA102028435FEA8871014648BF41F0D4
:100ED0000201B20558BF01465FEA48700D4648BF9F
:100EE00045F00405700558BF0D4630056ED518F065
:100EF00070006BD010380009052862D8DFE800F0D8
:100F0000035356595C5F45F008055AE020684FF4DA
:100F10008071BA0581600AD4780512D4380519D4D5
:100F2000204600F063F9F8037FF56FAF17E0204625
:100F300000F05EF9F8037FF568AF10E04FF400654C
:100F40005DE705F50055F8037FF55FAF07E04FF467
:100F5000805554E705F58045F8037FF556AF2068C6
:100F60004FF48031BA0381600AD478030FD4380378
:100F700013D4204600F03EF930073FF548AF4EE766
:100F8000204600F039F930073FF541AF47E705F556
:100F9000004530073FF53BAF41E705F580353007A9
:100FA0003FF535AF3BE745F010050AE045F0200579
:100FB00007E045F0400504E045F0800501E045F418
:100FC00080752068816921F07001816120680421A9
:100FD00041604DB1606A40EA05012046616201B09E
:100FE000BDE8F04FFFF752BE01B0BDE8F08F000042
:100FF000B0B5C8B1044690F8200010B9204600F002
:1010000071F82068016841F00101016000F084FB83
:10101000054600BF20684168C90707D100F07CFB86
:10102000401B0B28F6D312E00120B0BD016821F06F
:101030000201016000F070FB054600BF20684168B6
:1010400089070DD500F068FB401B0B28F6D3606ABA
:10105000052140F400306062012084F82010B0BD0A
:10106000217E0268012922F0800208BF80320260DE
:10107000617E0268012922F0400208BF403202600E
:10108000A17E0268012922F0200208BF20320260FE
:10109000E17E0268012922F0100218BF10320260BE
:1010A000217F0268012922F0080208BF083202608D
:1010B000617F0268012922F0040208BF0432026045
:1010C000D4E901C2D4E9033561691A432A431143C3
:1010D000ACF101021143C16100200121606284F87A
:1010E0002010B0BD80B586B0016846F20040C4F261
:1010F0000000814201D006B080BD002143F63002DD
:101100000191C4F20202136900F5D03043F000737C
:101110001361136903F000730193019B019113683C
:1011200043F002031360126802F002020192019A76
:101130004FF4407201920222CDE902210321049171
:101140000921059101A900F003FA142005210022CC
:1011500000F09AFB142000F087FB06B080BD000071
:101160007047000080B582B043F28412C2F20002E0
:101170006B460021FFF78CFD02B080BD7047000078
:101180007047000070470000B0B5044690F820009A
:1011900001281DD1022084F820002068016821F078
:1011A0000101016000F0B8FA054600BF2068406800
:1011B000C00713D000F0B0FA401B0B28F6D3606ACA
:1011C00040F400306062052084F820000120B0BDAA
:1011D000606A40F4002060620120B0BD00206062BF
:1011E000B0BD00007047000070470000704700006D
:1011F0007047000070470000704700007047000013
:1012000090F83510022909D1052180F835100068C1
:10121000016821F0010101600020704780214165D3
:1012200001207047F0B581B004460020009040F2E4
:10123000B800C2F200000268D4E9166048F2B513A3
:1012400037680821C1F64E3381403942A2FB03259D
:101250000CD0226813685B0708D5136823F00403D9
:101260001360B160616D41F0010161650121814050
:10127000394208D022685269120604D5B160616D06
:1012800041F00201616504218140394208D02268A1
:101290001268920704D5B160616D41F00401616587
:1012A00010218140394215D020680268120711D5FB
:1012B000B16002680168520306D4C90506D401680A
:1012C00021F00801016001E008033FD4216C09B15D
:1012D00020468847E16D202000FA01F23A4241D0D1
:1012E00020680368DB063DD5B26094F835300268AB
:1012F000052B1BD122F016020260426922F0800207
:101300004261226C0AB9A26C1AB1026822F008028A
:1013100002603F208840B060012084F83500216DD4
:101320000020002984F8340052D156E001685203AD
:1013300010D4C90512D4016821F010010160012008
:1013400084F83500002084F8340007E0A16C0029FF
:10135000BED1BFE7080301D4616C00E0E16B09B1C5
:1013600020468847606DC0B3606DC0072ED0052051
:1013700084F835002068A90A026822F001020260A0
:10138000009A01328A4200921AD80268D20717D016
:10139000009A01328A42009212D80268D2070FD016
:1013A000009A01328A4200920AD80268D20707D016
:1013B000009A01328A42009202D80268D207DFD135
:1013C000012084F83500002084F83400E16C21B15C
:1013D000204601B0BDE8F040084701B0F0BD000074
:1013E0002DE9F041044600F097F9002C4DD0054658
:1013F000022084F835000020216884F83400086851
:1014000020F00100086000BF0868C00706D000F0A7
:1014100083F9401B052865D82168F5E7086848F27C
:101420003F02CFF21002D4E90135024004F10C0E64
:101430009EE8C1511A432A4310433043384340EADF
:101440000800626A40EA0C00042A40EA0E031FD139
:10145000D4E90A5E206B4EEA030210430860486933
:10146000BEF1000F20F0030040EA050040F0040C3C
:1014700014D0B8F5005F39D0B8F1000F45D1022D76
:1014800046D0012D3BD04DB942E00120BDE8F081AE
:101490000B60486920F0070040EA020C6FF00F0073
:1014A0004AF6AB2250FA81F0CAF6AA22A0FB022328
:1014B0001A094CF65013C0F600039A5C40F2FF3351
:1014C0005F284FF03F00C1F814C021EA030100FA81
:1014D00002F088BF0431C4E916128860002301229B
:1014E00000201CE003222023032018E0032DD5D880
:1014F000012240230120DFE805F0120B1202AEF1B9
:10150000C070B0FA80F0400904E0032D04D3C5D1C7
:10151000CEF300600028C1D0012240230120636582
:1015200084F83520BDE8F081B0B5044600F0F4F849
:10153000054640F29610C2F200000078611C18BF08
:10154000044400BF00F0E8F8401BA042FAD3B0BD4D
:101550002DE9F04F82B000F13E4241F6000502F164
:10156000FF77C4F2020507224FEAB726A84208BF58
:101570000622062E38BF4FEAB7224FF0010A002498
:1015800000274FF00008009208E000BF023708F182
:101590000108202F04F1040400F0B4800E680AFA58
:1015A00008F916EA090FF1D0D1F804A00AF0030BEC
:1015B000ABF10106012E17D80322866802FA07FE56
:1015C000CA6826EA0E06BA40324382604268CAF30D
:1015D000001522EA090205FA08F54FEA480C6FEAFD
:1015E0000E062A4342600BE00322BA40D643BBF109
:1015F000030FBC4604D1BC464FF0030B22E000BFF2
:10160000C2688D68324005FA0CF52A43BBF1020F1F
:10161000C26017D16FF0030202EA5802024404F0DC
:101620001C030F25D2F820E005FA03FA0D692EEA13
:101630000A0E05FA03F343EA0E031362D1F804A07D
:101640000AF0030B02680BFA0CF332401A431AF447
:10165000403F4FF0010A026098D0002243F6440355
:101660000192C4F202031A6843F6004E42F480422B
:101670001A601A68C4F2010E02F480420192019AC3
:1016800028F003024FF6084C7244CFF6FF7C52F864
:101690000C3004F00C060F25B540AB43009D05FA55
:1016A00006F6334342F80C30DEF808204B6842EA75
:1016B000090643F60C4CDD0258BF22EA0906CEF8B3
:1016C0000860C4F2010CDCF800209D0242EA090621
:1016D00058BF22EA0906CCF80060DEF804209D031A
:1016E00042EA090658BF22EA0906CEF80460DEF88D
:1016F0000020DB0342EA090658BF22EA0906CEF8B9
:10170000006043E702B0BDE8F08F0000002A08BF88
:10171000090481617047000047F6F440C2F20000FE
:101720000068704740F2961047F6F441C2F200009C
:10173000C2F2000100780A68104408607047000097
:1017400080B543F60040C4F20200016841F4007124
:101750000160016841F480610160016841F48071B9
:101760000160032000F0BCF80F2000F005F800F045
:1017700059F8002080BD000070B586B0002543F602
:1017800040010195C4F202010A68044642F00102D8
:101790000A60096801A801F00101019101996946F7
:1017A00001F068FB049E002E18BF012601F088FBA3
:1017B0004DF68361B040C4F21B31A0FB01014FF034
:1017C000FF3000EB914143F63430C2F200004FF09D
:1017D000804240F2E733C0E90021C0E902530561CD
:1017E000856102F08BF80546C8B943F63430C2F281
:1017F000000002F027F9054688B91C2000F034F8F3
:101800000F2C0BD81C2021460022002500F03CF8AC
:1018100040F29810C2F20000046000E00125284662
:1018200006B070BD82B0002043F640010190C4F2C2
:1018300002014A6842F480424A604A6802F48042E7
:101840000192019A00900868002240F080500860E0
:1018500008680F2100F08050009000986FF00100A0
:1018600002B000F011B80000002848BF704700F037
:101870001F01012202FA01F14EF200124009CEF2DC
:10188000000242F82010704710B54EF60C5CCEF204
:10189000000CDCF80030C3F3022E8EF00704042C99
:1018A00028BF0424BEF103034FF0FF3E0EFA04F4F8
:1018B00038BF0023A14399400EFA03F39A43114322
:1018C00000F00F02043A624409010C3200F1604357
:1018D000B0F1FF3FC8BF03F56442117010BD0000B6
:1018E0004EF60C51CEF200010A684FF6FF031A4083
:1018F00060F30A2242F0806040F0FD70086070479B
:1019000001220168C0F80025002280F8F4248869CB
:1019100040F000608861486D40F0805040F0030264
:1019200000204A657047000010B50129044619D00F
:1019300079BB206A48B105F00DFA4EF61050CEF290
:101940000000016821F0060101602068D0F8001E47
:1019500021F00101C0F8001ED4F80805BDE81040D0
:1019600006F028B92068D0F8001E41F00101C0F847
:10197000001ED4F8080506F09FF9206A002808BF69
:1019800010BD4EF61050CEF20000016841F0060185
:10199000016010BD02680020516270472DE9F043DC
:1019A000D0F80080D8F82400B9B1D8F82830B1F1C7
:1019B000010E00EB13435CD05FFA8EF00121012889
:1019C00098BF0846471EFFB2032F00F0030C0BD24E
:1019D0000026BCF1000F31D14BE040EA0240C8F8CC
:1019E00028000020BDE8F08300F0FC0908F1F404B1
:1019F000002008F5827500BF54F8106F074603EB0E
:101A0000164047F00103DBB247F0020655F82330D9
:101A1000F6B255F8266000EB134000EB164347F092
:101A20000300C0B255F82010381DC6B24E4503EB76
:101A30001143E1D1791DBCF1000F1AD008EB8600EB
:101A4000D0F80401BCF1010F03EB104311D0C8B270
:101A500008EB8000D0F80401BCF1020F03EB104347
:101A600007D0481CC0B208EB8000D0F8040103EB9B
:101A7000104343EA024008EB8E01C1F80401002044
:101A8000BDE8F083D0F8080505F0B6BF01EBC10250
:101A9000D0F8083500EB8200C26C184605F016BF7E
:101AA00001EBC102D0F8083500EB8200D0F88C229F
:101AB000184605F065BF0000D0F8080505F09EBF88
:101AC00010B50446080601F00F0000EBC00104EB5E
:101AD000810205D402F51F71002382F87D3204E0F3
:101AE000012302F13C0182F83D3094F8BC240870D7
:101AF000012A04BF022010BD2068012284F8BC2402
:101B000006F092FD002084F8BC0410BDB0B5426818
:101B1000044601F00F00904284BF0120B0BD0906C9
:101B200009D400EBC00104EB810202F51F71002310
:101B300082F87D3208E000EBC00104EB8102012352
:101B400002F13C0182F83D3094F8BC240025012AC2
:101B50008D70087004BF0220B0BD2068012284F897
:101B6000BC2407F0ADF8284684F8BC54B0BD000092
:101B700001F00F0101EBC10100EB8100D0F89C02E4
:101B800070470000B0B50546080601F00F0000EBF5
:101B9000C00105EB810C05D40CF51F7100248CF8F5
:101BA0007D4204E001240CF13C018CF83D404C786E
:101BB0000870002CCA600B7118BF0881022B04BF8B
:101BC0000020487195F8BC04012804BF0220B0BD74
:101BD0002868012285F8BC2406F0E2FB002085F885
:101BE000BC04B0BD80B501F00F0C0CEBCC0100EBD8
:101BF000810ECEF894320023CEF89C328EF87D32DE
:101C00000369CEF88C22012B8EF87CC208BFCEF877
:101C1000902200680EF51F71DAB2BCF1000F03D0FC
:101C200007F094F8002080BD06F0A2FF002080BDE0
:101C3000B0B50446406801F00F05854284BF01201D
:101C4000B0BD080609D401EBC10004EB800000F52B
:101C50001F71002280F87D2208E005EBC50004EB2F
:101C60008000012200F13C0180F83D2094F8BC0482
:101C7000012201288A700D7004BF0220B0BD2068C7
:101C800084F8BC2407F044F82DB92068217C04F2C4
:101C9000C44206F0E7FF002084F8BC04B0BD000099
:101CA00010B501F00F0C0CEBCC0100EB810E71466E
:101CB00001F83CCF8B6100230B62036901244C7057
:101CC000012B0A6108BFCEF850200068DAB2BCF1DF
:101CD000000F03D007F03AF8002010BD06F048FFCF
:101CE000002010BD2DE9F04F8BB0056882462846D4
:101CF00007F022FA10B10BB0BDE8F08FDAF800005F
:101D000007F048FA0028F6D0D5F80808C0F30D21EE
:101D1000DAF80000CAF8FC1407F03CFA0146DAF8D9
:101D20000000890703D5416901F00201416105F511
:101D30000061039107F02EFA0146DAF80000C906A7
:101D400005953BD5816921F0100181612C6AC4F3AE
:101D50004340062804F00F0518D0022827D147F683
:101D6000F07014EA000622D005EBC5000AEB8007EC
:101D7000D7F88C1234090598224607F00FFAD7F8E5
:101D80008C0200EB1610C7F88C0207E005980AF2E7
:101D9000C441082207F002FAC4F30A1405EBC50097
:101DA0000AEB8000D0F89C122144C0F89C12DAF8AB
:101DB0000000816941F010018161059D07F0EAF999
:101DC0000003CDF828A040F1E480DAF8000007F025
:101DD000BFF9002800F0DD8006460AF2C4400AF58B
:101DE00027784FF430644FF0000B09901BE000BFE0
:101DF0002819022181605FEA8A6042BF28192021E8
:101E000081605FEA8A40DDF828A042BF28194FF4BC
:101E1000005181600BF1010B760804F1200408F1F8
:101E2000240800F0B680F007F4D0DAF800005FFA7A
:101E30008BF9494607F0A6F98246C0075AD02819FF
:101E4000012181600A9F38682118036C8A683F6904
:101E5000012F26D1170732D4970674D412F0280F19
:101E600048D143F20B07C4F65477BB4202D312F4B5
:101E700000422DD158F8042C0969BBF1000F6FF313
:101E8000DF41A2EB0101C8F800102FD10A9BD3F863
:101E90009422002A7BD0D3F88C020844C3F88C0229
:101EA00024E043F20B07C4F65477FF37BB4212D14C
:101EB00010040DD4900644BF2020886016E043F241
:101EC0000B00C4F65470834214D312F4004011D0B6
:101ED0004FF4004038E0BBF1000F07D10A99D1F868
:101EE000941219B90021099A06F0BCFE0A984946D5
:101EF000FFF7D6FD5FEA0A702AD52819082181600C
:101F00000A9843F20B020068C4F65472056C204430
:101F10008168571EBD4205D911F400411CBF4FF422
:101F2000004181600A9800F09BFCBD42059D0FD9DD
:101F30000A98006901280BD10A98099A00680121C2
:101F400006F090FE04E0202088605FEA0A70D4D496
:101F50005FEACA6042BF2819102181605FEA8A7077
:101F60007FF549AF6869000604D50399486840F4D5
:101F70008060486018F81D0C01287FF439AF0020FC
:101F800008F81D0C0A98494600F040FB30E7012193
:101F9000A9E7DAF8000007F0FDF8039E400340F1DE
:101FA000DD80DAF8000007F0CBF8002800F0D680DA
:101FB00005F5106104910AF2C4414FF0000B029143
:101FC0000FE0089F0BF00F02D7F83418012303FA33
:101FD00002F29143C7F8341840080BF1010B00F0EE
:101FE000BD80C107F8D00690DAF800005FFA8BF1E7
:101FF000099107F0B5F8049F0446C00728D00BF0FC
:102000000F00716B012202FA00F021EA00007063F8
:1020100007EB4B108260DAF81000012814D10BEBAB
:10202000CB000AEB8000D0E91212BBF1000F114483
:10203000C16409D1DAF8540030B9DAF80000029A24
:10204000012106F00FFE00BF09995046FFF71EFD63
:10205000200742BF07EB4B1008218160E00642BF1A
:1020600007EB4B1010218160600642BF07EB4B105D
:1020700040218160A00715D52846594606F0F2FF99
:102080000BEBCB000AEB800010F83F1F012905D1B4
:10209000002101700999504600F0B4FA07EB4B108B
:1020A000022181602006069896D50BEBCB010AEB46
:1020B0008104A14659F8542FC84658F8087FBA42FF
:1020C0008AD3DAF8005054F8483FD11B994288BFB0
:1020D0001946089505EB4B1CDCF818590331ADB2D5
:1020E000B5EB910F28BFBA4204D8059DBA423FF61E
:1020F00073AF66E704F1040ADAF800100CF5106516
:10210000079400BF0A98D41B9C42067C88BF1C46DB
:10211000DDE90802A3B2009607F064F9DAF80000DE
:10212000E31C0119D8F80000CAF800100719C8F814
:102130000070AA6996B2D9F80020B6EB930F28BFB9
:10214000BA4202D907980368DCE7DDF828A0039EAD
:10215000DDE90550BA423FF63FAF32E7DAF800005A
:1021600007F018F8002802D4DAF8000018E07068C8
:1021700020F0010070609AF8F404012807D10020D3
:102180008AF8F40450460021FFF7CEFB02E05046E7
:1021900000F04AFBDAF80000416901F000414161BA
:1021A00006F0F8FF000502D4DAF800000BE0B06892
:1021B000C00702D0504600F07BFBDAF8000041690E
:1021C00001F40061416106F0E5FF000118D5DAF87D
:1021D0000000416901F0006141619AF8F41419B1FD
:1021E000504600F065FB0BE001218AF8F414406DC5
:1021F0000121C0F38300CAF8F8045046FFF794FBAE
:10220000DAF8000006F0C6FFC00402D4DAF80000D5
:1022100000E1D5F80408102120F00100C5F80408F9
:10222000DAF8000006F01EFFDAF80400002800F0DB
:10223000C480411E032900F0030C01D200216BE091
:1022400020F0030E05F536634FF6A0564FF6C05545
:102250004FF6E0544FF6006000214FF67F37CFF67F
:10226000FF76CFF6FF75CFF6FF74CFF6FF7000BF95
:10227000A3F5187297609A59043122F400129A510A
:1022800043F8587C53F8602C8E4522F4001243F832
:10229000602C53F8602C42F0006243F8602CA3F5E8
:1022A000107297605A5922F400125A5143F8387C40
:1022B00053F8402C22F4001243F8402C53F8402CE1
:1022C00042F0006243F8402CA3F5087297601A5957
:1022D00022F400121A5143F8187C53F8202C22F4EF
:1022E000001243F8202C53F8202C42F0006243F8EF
:1022F000202CA3F5007297601A5822F400121A508D
:102300009F601A6822F400121A601A6842F0006294
:102310001A6003F18003ABD1059D039EBCF1000F51
:102320004BD005F5106000EB41124FF67F334F01A3
:102330009360C65905F5306226F40016C65102EBCB
:102340004116B360D659BCF1010F26F40016D651E0
:10235000D65946F00066D651039E2ED04F1C00EB96
:1023600047157E01AB60855902EB471725F4001530
:102370008551BB609359BCF1020F23F400139351B4
:10238000935943F000639351039E16D0023100EB42
:1023900041174FF67F364B01BE60C75827F4001730
:1023A000C75002EB41108660039ED05820F4001005
:1023B000D050D05840F00060D050F06940F001108B
:1023C000F061DAF8300040B1D6F8840040F00B003C
:1023D000C6F8840006F1440006E0706942F22B0161
:1023E0000843706106F1100001680AF2C44241F02E
:1023F0000B010160306820F4FE603060DAF8000004
:102400009AF8101006F02EFCDAF80000416901F489
:102410008051416106F0BEFE0146DAF800008904F1
:102420001AD506F003F8DAF8000006F077FEDAF8BD
:102430000040CAF80C0000F03DFD9AF80C2001465F
:10244000204606F043FF504600F0D8F9DAF80000C5
:10245000416901F40051416106F09CFE000702D47D
:10246000DAF8000008E0504600F0E2F9DAF800007F
:10247000416901F00801416106F08CFE000628D593
:102480000599886920F080008861DAF80400022844
:102490001FD30AF2A324012505E000BF01358542C0
:1024A00004F1240415D221780129F7D105F00F0099
:1024B00000EBC0000AEB80022806DAF8000002F107
:1024C0003C0158BF02F51F7106F03EFDDAF804002A
:1024D000E4E7DAF8000006F05DFEC00202D4DAF8A4
:1024E00000002EE0DAF80400022824D305990AF14E
:1024F000640501F512640126012705E00137203447
:10250000874205F1240516D221682A78012AF5D1DF
:10251000B1F1FF3FF2DC07F00F0000EBC0000AEB67
:102520008001DAF800003C3105F8016C06F00CFD82
:10253000DAF80400E2E7DAF80000416901F48011FA
:10254000416106F027FE059D800202D4DAF8000002
:1025500033E0DAF80400022829D3013805F53261A6
:102560000AF52972012305E0013801F1200102F189
:1025700024021CD00F681678012EF5D1B7F1FF3F69
:10258000F2DCDAF8FC6407F4803706F00106B742A3
:10259000EAD102F8013CAF6947F08007AF616F698B
:1025A0003F06E1D40399486840F400704860DAF8C7
:1025B0000000416901F40011416106F0EBFD4000AB
:1025C00002D4DAF8000008E05046FFF75BFADAF8C8
:1025D0000000416901F08041416106F0DBFD4007E8
:1025E0007FF589ABDAF800004468610704D55046EE
:1025F000FFF762FADAF800004168214341600BB04E
:10260000BDE8F08FD0F8080505F054BAD0F80805F9
:1026100005F064BA2DE9F04F8BB0002800F08680F9
:102620000446056890F8BD0428B9002084F8BC046D
:10263000204600F093F8032084F8BD04E86BC00541
:102640005CBF00202061206806F08AFA206804F14F
:102650001C0A0A90D4E90C5004F1040E9AE8C00751
:102660009EE80E58CDE9085003A880E8C0030A98F8
:102670008DE80058CDF81CA005F0E8FE002852D1E6
:1026800020680021002506F0DDFD616861B30120AE
:102690000023002203EBC30304EB830787F83C20ED
:1026A000D3B20132A7F84430D3B2994287F83D0043
:1026B00087F84050C7E912557D65EBD8002000230C
:1026C000002200BF03EBC30304EB830787F87C22DF
:1026D0000132D3B2994287F87D0287F88002C7E9B8
:1026E000A200C7F89402EDD8A06822680A90D4E945
:1026F0000C5004F1140E04F1240AD4E903379EE8C7
:1027000040589AE80007CDE9085002A880E8005830
:1027100010460A9ACDE90076CDE90589CDF81CA0CE
:1027200005F0E4FF30B1022084F8BD0401200BB0B5
:10273000BDE8F08F002084F83800012084F8BD0443
:10274000606A012802D12046FFF7DAF8206805F018
:10275000BDFF00200BB0BDE8F08F0000B0B59EB00B
:10276000044602A804305821FDF788FE2068B0F125
:10277000A04F01D01EB0B0BD4FF48070029002A8EF
:1027800000F0B0F8002818BFFEF790F9002543F6D6
:1027900030041995C4F20204206819A940F0010020
:1027A0002060206800F00100199019984FF4C05083
:1027B00019900220CDE91A0503201C900A201D90D3
:1027C0000020C4F20200FEF7C3FE6068052140F05D
:1027D0008000606001956069002240F48040606183
:1027E000606900F48040019001984320FFF74CF8A5
:1027F0004320FFF739F81EB0B0BD000010B5044605
:10280000C06828B1022818BFFEF750F9012100E086
:102810000021D4F8080505F0E5F9D4F80805BDE86D
:10282000104005F095B90000D0F8080505F0C2B9D0
:10283000D0F8080505F0C8B910B5044690F8BC04F6
:10284000012804BF022010BD012084F8BC0484F8D4
:102850003810206806F028FD002084F8BC0410BD64
:10286000D0F8082500F2C441104605F0D1B90000A7
:1028700010B5044690F8BC04012804BF022010BD26
:10288000A16A20680122012984F8BC2406D1A1692B
:10289000012903D0816B41F48031816306F0DAFBBA
:1028A000206805F003FF002084F8BC0410BD000080
:1028B00010B50446D0F8080505F0FEF92068D0F8F8
:1028C000001E41F00101C0F8001E206A002808BF68
:1028D00010BD4EF61050CEF20000016841F0060126
:1028E000016010BD2DE9F04381B00446006843F655
:1028F0008C06C107C4F2020604D14FF0000981071B
:102900000CD415E03168A26B21F0C0611143316035
:10291000B2FA82F14FEA5119810709D53168E26BA9
:1029200021F0C05111433160002A08BF4FF0010966
:10293000410704D44FF00008010711D41FE03168AB
:10294000226B21F4401111433160B2FA82F14FEA57
:102950005118B2F5801F08BF4FF0010901070ED5CD
:102960003168626B21F440011143B2F5800F316090
:1029700008BF4FF00109002A08BF4FF00108810687
:1029800058D50020009056F84C0C47F2000740F054
:10299000805046F84C0C56F84C0CC4F2000700F07E
:1029A000805000900098386840F480703860FEF7DE
:1029B000B3FE05463868C00505D4FEF7ADFE401BE2
:1029C0000228F7D93CE156F81C0C10F4407017D0DF
:1029D000216C01F44071884212D056F81C0C40F66C
:1029E0004061C4F24721012220F440700A600022B5
:1029F0000A6046F81C0C56F81C0CC00740F07581A4
:102A00002068216C56F8842C4FF6FF4701F4407380
:102A100022F4F812C0F6FF770F40B3F5407F08BFED
:102A20003A4346F8842C56F81C2C6FF31F3111439F
:102A300046F81C1CC1060AD4010613D4410619D459
:102A4000C1051FD481052AD4410530D438E094F85B
:102A5000580040F64061C4F24721C1F8A003206845
:102A60000106EBD5B168E26C21F440011143B1607D
:102A70004106E5D5B168A26C21F080611143B160D7
:102A8000C105DFD5B168626D21F000611143B1600D
:102A9000B2F1006F08BF4FF001088105D4D5B168CD
:102AA000626C21F080511143B160410508D5B168D5
:102AB000226D21F000511143B2F1005FB1601ED0D0
:102AC000B9F1000F1BD1B0F5006F18D0B8F1000FAD
:102AD0004FF0000000F01A816827C4F24727B86061
:102AE000FEF71AFE054600BF56F88C0C800040F138
:102AF000AB80FEF711FE401B0228F5D9A0E040F2A2
:102B00006809C4F247290020C9F80000FEF704FE56
:102B1000054600BF56F88C0C000105D5FEF7FCFDFC
:102B2000401B0228F6D98BE02068C10701D0A16BB9
:102B300019B1810714D5E16B91B956F8081C56F804
:102B4000082CD4E9013501F4403102F070621943D8
:102B50006769114341EA851141EA077146F8081C8B
:102B6000410703D5216BB1F5801F05D001071FD5A3
:102B7000616BB1F5800F1BD156F8081C56F8082C74
:102B8000D4E9013701F4403102F0E04219432569EC
:102B9000114341EA871141EA0561D4F828C046F89B
:102BA000081C3168ACF1010221F01F0111433160B2
:102BB000410520D5216DB1F1005F1CD156F808CC3C
:102BC00056F8082CE5680021CFF6FF71D4E90137EB
:102BD00001EBC5314FF0C06502F0E04205EA4C253B
:102BE00005F100751A432A436FF30F0142EA871279
:102BF000114346F8081C000511D5271D8FCF40EA68
:102C000081100021CFF6FF7101EBC2316FF30F018C
:102C100040EA0360084340EA077046F8080C0120C8
:102C2000C9F80000FEF778FD054600BF56F88C0C89
:102C300000013FF54BAFFEF76FFD401B0228F5D9B1
:102C4000032001B0BDE8F0832068410701D5216B66
:102C500019B101071AD5616BC1B956F8041CD4E942
:102C6000062301F44031656A114341EA831141EAC8
:102C70000561D4F82CC046F8041C31686FF0FF02DF
:102C800021F4F85102EB0C2211433160C00517D535
:102C9000606DB0F1006F13D156F8040C04F1180305
:102CA0000ECB002500F07060CFF6FF7505EBC33347
:102CB00008436FF30F0340EA8210184346F8040CF0
:102CC0000120B860FEF728FD044600BF56F88C0CC2
:102CD000800006D4FEF720FD001B0328F6D3032056
:102CE00014E0002001B0BDE8F083FEF715FD0546B5
:102CF00041F2883756F81C0C80073FF581AEFEF78D
:102D00000BFD401BB8424FF00300F3D901B0BDE802
:102D1000F08300002DE9F041002800F08B8043F69D
:102D20000808C4F202080446D8F8F8030D4600F07B
:102D30000F00884207D288F8F853D8F8F80300F05B
:102D40000F00A84276D12068810717D5410705D525
:102D5000D8F8001041F4E051C8F80010010705D57B
:102D6000D8F8001041F46041C8F80010D8F80010FD
:102D7000A26821F0F0011143C8F80010C0073FD14C
:102D8000D8F8F80300F00F00A84207D988F8F853E4
:102D9000D8F8F80300F00F00A8424BD12068410793
:102DA00007D5D8F80010E26821F4E0511143C8F8C3
:102DB0000010000708D5D8F80000216920F4604011
:102DC00040EAC100C8F8000000F08EF8D8F8001002
:102DD0004CF6A802C1F30311C0F60002515C40F2A8
:102DE000B80220FA01F140F29810C2F20000006827
:102DF000C2F200021160FEF7BFFC0020BDE8F081C6
:102E00006068811E022907D258F8081C89015CBF3E
:102E10000120BDE8F08110E0012807D158F8081C16
:102E200089035CBF0120BDE8F08106E058F8081C6A
:102E3000890702D40120BDE8F081D8F8001021F004
:102E400003010843C8F80000FEF766FC064641F29D
:102E5000883700BFD8F80000616800F00C00B0EBC4
:102E6000810F8DD0FEF758FC801BB842F2D90320A9
:102E7000BDE8F0810F22026043F60802C4F20202AC
:102E8000136803F003034360136803F0F0038360E7
:102E9000136803F4E053C360D2F800C04FF4E0536A
:102EA00003EADC030361D2F8F80300F00F000860C6
:102EB0007047000040F2B800C2F20000006870479E
:102EC00040F2B80043F60801C2F20000C4F2020169
:102ED000006809684CF6B802C1F38221C0F600020E
:102EE000515CC8407047000010B543F60404C4F2BA
:102EF00002046068C0F3810142F20040C0F2F400B5
:102F0000DFE801F04102072641F60030C0F2B700C9
:102F100010BD206821682368490241F60031C0F2E3
:102F2000B70100F03F02C3F388105CBF42F20041DA
:102F3000C0F2F401A1FB00010023FDF7D3F92168E1
:102F40000222C1F3014102EB4101B0FBF1F010BDDF
:102F5000206821682368490241F60031C0F2B701B8
:102F600000F03F02C3F388105CBF42F20041C0F2A0
:102F7000F401A1FB00010023FDF7B4F92168C1F3BE
:102F80000271B0FBF1F010BD2DE9F04182B00028D4
:102F900000F096800446007843F60006C007C4F2AD
:102FA00002062BD0B06800F00C00042820D0B068D6
:102FB00000F00C00082802D17068400218D4B068F4
:102FC00000F00C000C2802D17068400210D4606838
:102FD000B0F5803F07D0B0F5A02F40F037813068C2
:102FE00040F480203060306840F48030306037E159
:102FF0003068800302D56068002861D0207880079F
:1030000022D5B06810F00C0F11D0B06800F00C00A1
:10301000082802D17068400209D5B06800F00C00A1
:103020000C2840F09C807068400200F19880306865
:10303000800702D5E068012842D13068216920F07C
:10304000F80040EAC1003060207800073CD42078C6
:10305000400750D4A5698DB3B06800F00C00082873
:1030600040F0A480012D2BD07068E16900F480024B
:103070008A4225D1216A00F03F028A4220D147F6D8
:10308000C071626A0140B1EB821F19D1A26A0023AC
:10309000CFF6FF7303EBC23200F440316FF30F023F
:1030A00091420DD1E16A00F07062B2EB016F07D17D
:1030B000216B00F0E040B0EB017F01D100202DE159
:1030C000012002B0BDE8F0816069002840F20000F4
:1030D000C4F247205AD00121C0F8801EFEF71CFB25
:1030E000054600BF706F8007B1D4FEF715FB401B8B
:1030F0000228F7D9C1E0306C10F080580AD10020C6
:103100000190306C40F080503064306C00F08050A2
:103110000190019847F20007C4F200073868C00523
:103120000FD4386840F480703860FEF7F5FA054631
:103130003868C00505D4FEF7EFFA401B0228F7D91E
:103140009BE0A068012805D0052851D1306F40F0E0
:1031500004003067306F40F00100306752E0E068F3
:1031600000285ED00020C4F2472001210160FEF754
:10317000D3FA0546306880073FF55FAFFEF7CCFA1B
:10318000401B02284FF00300F4D9C7E00021C0F82B
:10319000801EFEF7C1FA0546706F80077FF557AFB6
:1031A000FEF7BAFA401B0228F6D966E00027C4F2FF
:1031B000472700203866FEF7AFFA022D05460BD1EF
:1031C000306880015DD5FEF7A7FA401B02284FF05A
:1031D0000300F5D9A2E000BF306880017FF56EAF33
:1031E000FEF79AFA401B02284FF00300F4D995E04D
:1031F000316F002821F001013167316F21F00401A6
:10320000316763D0FEF788FA054641F2883700BF80
:10321000306F80076BD4FEF77FFA401BB842F7D9B6
:103220002BE00020C4F2472000210160FEF774FA71
:10323000054600BF306880077FF506AFFEF76CFAE1
:10324000401B02284FF00300F4D967E031680028E2
:1032500021F480313160316821F4802131604FD018
:10326000FEF75AFA054600BF306880033FF5C6AE48
:10327000FEF752FA401B6428F6D9032002B0BDE8DD
:10328000F08104F11C052FCD246B08430021CFF6FB
:10329000FF7140EA821001EBC3316FF30F0140EA86
:1032A0000560084340EA0470706001203866FEF74C
:1032B00033FA0446306880013FF500AFFEF72CFA80
:1032C000001B02284FF00300F4D927E0FEF724FA90
:1032D000054641F2883700BF306F800707D5FEF7FB
:1032E0001BFA401BB8424FF00300F5D916E0B8F1C5
:1032F000000F7FF4AFAE306C20F080503064A9E650
:10330000FEF70AFA0546306880037FF577AEFEF7D0
:1033100003FA401B64284FF00300F4D902B0BDE863
:10332000F081000070470000B0B582B0044600682C
:103330004168826812F0400305D112F0010518BF00
:1033400011F040050ED1950704D511F0800501D08C
:10335000616C08E012F4B07F18BF11F0200507D1AE
:1033600002B0B0BD216C204602B0BDE8B0400847B5
:10337000BBB194F85130032B08D100210191C168F1
:10338000019180680190019802B0B0BD636D43F077
:103390000403636500230193C36801938368019369
:1033A000019B12F0200302F480720CD0636D43F095
:1033B000010363650023019383680193036823F08D
:1033C00040030360019B42B1626D42F008026265F6
:1033D0000022019282680192019A626D002ABFD098
:1033E0004268890722F0E00242604FF0010284F84F
:1033F00051201FD0416846F61D4521F00301416070
:10340000E06CC0F6000538B10565FDF7F9FE18B1AE
:10341000606D40F040006065A06C0028A0D005659C
:10342000FDF7EEFE00289BD0606D40F04000606527
:1034300002B0B0BD204602B0BDE8B040FFF772BF99
:1034400070B538B10446406A30B10020206104F103
:10345000140007E0012070BD6068B0F5827F03D0E2
:1034600004F11C00002101600026A66294F85100BE
:1034700020B9204684F8506000F03CF8022084F81F
:10348000510094E80F0001F48271056802F40442CF
:1034900025F040050560114403F4006223691144DE
:1034A00003F002026369114403F00102A369E569B4
:1034B000114403F40072114405F03802256A1144E6
:1034C00005F08002A56A114305F400521143016022
:1034D000626A042101EA134102F0100211444160C2
:1034E000C16921F40061C1610120666584F8510061
:1034F000304670BD2DE9F04186B00446016843F6C0
:103500000000C4F20000814202D006B0BDE8F081A4
:10351000002643F630010196C4F202010A6946F220
:10352000580842F480420A610A6900F5E63002F464
:1035300080420192019A01960A68C4F2020842F0A0
:1035400002020A60096801F00201019101994FF439
:10355000444101910221CDE9021603210491052184
:10356000059101A9FDF7F4FF43F2C845C2F2000539
:103570004FF440304FF48067C5E908062846C5E996
:103580000086C5E90266C5E90476C5E90666FDF769
:1035900027FF002818BFFDF789FAE564AC6343F202
:1035A000285508F11800C2F200054021C5E90006BF
:1035B00005F10800C2C04FF40030C5E908062846EE
:1035C000C5E90566EE61FDF70BFF002818BFFDF7A2
:1035D0006DFA242005210022A564AC63FEF754F99E
:1035E0002420FEF741F906B0BDE8F0812DE9F04353
:1035F00083B0044690F85000012803D1022003B0A4
:10360000BDE8F08301201E4615460F4684F85000A1
:10361000FEF782F894F85110814601290AD06068BB
:10362000B0F5827F70D1A06800284FF0020008BF7B
:1036300004296AD1002F4FF0010018BF002D64D07B
:10364000002E62D094F85100002104281CBF0520F0
:1036500084F851006165A563E687A6872763E6863F
:103660002068A686216461640168490603D4016864
:1036700041F0400101606168731EE268B1FA81F1B6
:10368000B3FA83F3DDF8288049095B09B2F5006FCE
:1036900041EA030142D131B137F8021BC16027630F
:1036A000E08E0138E086012608F10105E08E10B9B0
:1036B000E08F00286ED02068816889070CD5E18EE4
:1036C00051B1012E08D1216B002631F8022BC260C6
:1036D0002163E18E0139E1868168C9070AD0E18F53
:1036E00041B1C068A16B012621F8020BA163E08FF4
:1036F0000138E087FEF710F8002DD7D0A0EB0900C5
:103700004045D3D3032000E00220012184F851106A
:10371000002184F8501003B0BDE8F08339B1397846
:103720000173206B01302063E08E0138E0860126B2
:1037300008F10105E08E08B9E08F58B32068816870
:1037400089070ED5E18E61B1012E0AD1216B0026C9
:1037500009780173216B206801312163E18E013901
:10376000E1868168C9070BD0E18F49B1C068A16BC0
:1037700001260870A06B0130A063E08F0138E0875C
:10378000FDF7CAFF002DD5D0A0EB09004045D1D3ED
:103790000320BAE740F2B800C2F20000006849F620
:1037A0008171C1F25E61A0FB0101480D4FF47A7195
:1037B000484302906068B0F5827F0ED12046802198
:1037C00042464B4603F030FA58B3606D40F020009B
:1037D000606520206065012097E7029808B3029891
:1037E000013802902068806800061AD50298C0B19E
:1037F00002980138029020688068000611D502986E
:1038000078B102980138029020688068000608D5D7
:10381000029830B102980138029020688068000652
:10382000DBD4A06800284FF000007FF46EAF019059
:103830002168CA68019289680191019965E70000D1
:10384000704700007047000010B590F83C20012A36
:103850004FF002024FD080F83D200268D2F804E019
:10386000D2F808C00C682EF07003234341F2FF74B5
:10387000C4F20004A24253600DDC40F2FF73C4F2B4
:1038800000039A4215DCB2F1804F29D040F2004388
:10389000C4F2000322E040F2FF33C4F201039A4273
:1038A00012DC41F60003C4F200039A4218D0002350
:1038B00012E040F60003C4F200039A4210D040F632
:1038C0000043C4F2000309E044F20003C4F2010320
:1038D0009A4205D040F20043C4F201039A4204D157
:1038E00049682CF08003194391600121002280F87F
:1038F0003D1080F83C20104610BD0000002804BF99
:103900000120704710B5044690F83D0028B900200A
:1039100084F83C00204600F01FF8022084F83D00A7
:103920002068211D03F078FA012084F8460084F80D
:103930003E0084F83F0084F8400084F8410084F899
:10394000420084F8430084F8440084F8450084F879
:103950003D00002010BD000080B582B0006841F637
:103960000001C4F2000188421CBF02B080BD0020EB
:10397000019043F64000C4F202000168002241F0C9
:10398000400101600068052100F0400001900198AD
:103990002B20FDF779FF2B2002B0BDE88040FDF71A
:1039A00063BF000090F83D1001291CBF0120704743
:1039B000022180F83D10006841F2FF71C4F200015D
:1039C00088420DDC40F2FF71C4F20001884215DC30
:1039D000B0F1804F29D040F20041C4F2000122E052
:1039E00040F2FF31C4F20101884212DC41F60001CD
:1039F000C4F20001884218D0002112E040F6000114
:103A0000C4F20001884210D040F60041C4F2000127
:103A100009E044F20001C4F20101884205D040F2FD
:103A20000041C4F20101884206D1816801F007011A
:103A3000062904BF00207047016841F001010160C0
:103A40000020704790F83D1001291CBF01207047ED
:103A5000022180F83D10006841F2FF72C168C4F293
:103A60000002904241F00101C1600DDC40F2FF71A3
:103A7000C4F20001884215DCB0F1804F29D040F239
:103A80000041C4F2000122E040F2FF31C4F2010122
:103A9000884212DC41F60001C4F20001884218D0CD
:103AA000002112E040F60001C4F20001884210D06B
:103AB00040F60041C4F2000109E044F20001C4F202
:103AC0000101884205D040F20041C4F20101884260
:103AD00006D1816801F00701062904BF0020704764
:103AE000016841F0010101600020704780B590F845
:103AF0003C20012A4FF0020200F0BF8080F83D20F8
:103B0000D0F800C04FF67772DCF8083023EA0202E2
:103B1000CCF808200B684F2B28DC1F2B43DD202B13
:103B200044D0302B42D0402B40F0A980D1F804E0A3
:103B3000C968DCF82030DCF8202022F00102CCF843
:103B40002020DCF8182022F0F00242EA011123F0D4
:103B50000A0242EA0E02CCF81810CCF82020DCF859
:103B6000081041F0470121F030017DE06F2B25DD89
:103B7000B3F5005F46D0B3F5805F77D0702B7ED170
:103B8000D1E901E3C968DCF8082043EA0E0322F416
:103B90007F4243EA01211143CCF80810DCF80810F9
:103BA00041F0770160E00BB1102B68D1DCF8081010
:103BB00021F07001194341F0070155E0502B34D03A
:103BC000602B5CD1D1F804E0C968DCF8203023F028
:103BD0001003CCF82030DCF81830DCF8202023F477
:103BE000704322F0A00243EA013142EA0E12CCF8FF
:103BF0001810CCF82020DCF8081041F0670121F003
:103C0000100131E0D1E901E3C968DCF8082043EA9A
:103C10000E0322F47F4243EA01211143CCF808103D
:103C2000DCF8081041F480411EE0D1F804E0C968D6
:103C3000DCF82030DCF8202022F00102CCF8202033
:103C4000DCF8182022F0F00242EA011123F00A0207
:103C500042EA0E02CCF81810CCF82020DCF808104C
:103C600041F0570121F02001CCF808100022012179
:103C700080F83D10002180F83C10104680BD0122E4
:103C8000F5E700007047000010B5016804460869B8
:103C9000800744BFC8685FEA807038D4086940076D
:103CA00044BFC8685FEA40703DD40869000744BF5C
:103CB000C8685FEA007043D40869C00644BFC8689A
:103CC0005FEAC06048D40869C0071CBFC8685FEAE3
:103CD000C0704ED10869000644BFC8685FEA006042
:103CE0004FD40869400644BFC8685FEA406050D4BA
:103CF0000869800646BFC8685FEA806010BD6FF043
:103D0000200220460A61BDE81040FFF79BBD6FF01E
:103D100002000861012020778869800741D0204691
:103D2000FFF7B0FF43E06FF0040008610220207746
:103D3000886910F4407F3ED02046FFF7A3FF40E0A3
:103D40006FF00800086104202077C86980073CD024
:103D50002046FFF797FF3EE06FF010000861082053
:103D60002077C86910F4407F39D02046FFF78AFFDA
:103D70003BE06FF001000861204600F019FA21686D
:103D8000A8E76FF0800008612046FFF759FD216821
:103D9000A7E76FF040000861204600F055FA21685F
:103DA000A6E7204600F026F8204600F079F92168C1
:103DB0000020207772E7204600F01CF8204600F033
:103DC0006FF92168002020776FE7204600F012F895
:103DD000204600F065F92168002020776CE7204636
:103DE00000F008F8204600F05BF9216800202077F9
:103DF00069E70000704700002DE9F04190F83C3081
:103E0000012B04BF0220BDE8F0814FEAB202032A71
:103E100000F2FA80DFE802F0023E7DBC036840F267
:103E200000471A6A43F4806522F001021A621C6A94
:103E30001A46D3F804E052F818CF8E6824F0020432
:103E4000C4F20107BD4244EA060405D1CE6824F05D
:103E50000C0426F0040634430E68BD4207D1D1E9B4
:103E600005572EF4407E45EA0E0545EA070E2CF074
:103E700073073743C3F804E09F614F6809695F63C4
:103E80001C629F6947F008079F619F6927F004073C
:103E90009F61AFE0036840F200481A6A43F480650E
:103EA00022F010021A621C6A1A46D3F804E052F893
:103EB00018CF8F6824F02004C4F20108454544EA75
:103EC000071407D1CF686FF0400624F0C00406EA5B
:103ED000071634430F68454507D1D1E905562EF43E
:103EE000406E4EEA850545EA860E2CF4E64646EA23
:103EF0000727C3F804E09F614F6809699F631C624C
:103F00009F6947F400679F619F6927F480679F61FD
:103F10006FE0036840F200481A6A43F4806522F4B7
:103F200080721A621C6A1A46D3F804E052F81CCF59
:103F30008F6824F40074C4F20108454544EA07245C
:103F400008D1CF6840F2FF463F0224F4406427EADC
:103F5000060634430F68454507D1D1E905562EF4CE
:103F6000405E4EEA051545EA061E2CF073063743FF
:103F7000C3F804E0DF614F680969DF631C62DF6931
:103F800047F00807DF61DF6927F00407DF6131E0F0
:103F9000036840F200451A6A43F4806722F48052B5
:103FA0001A621A46D3F820C05C6852F81CEFD1F8A8
:103FB00000808E68C4F20105AF4204D14D6924F43B
:103FC000804444EA85142CF4005747EA06372EF45F
:103FD000E64646EA08265C60DE614E6809691E64B2
:103FE0001F62DF6947F40067DF61DF6927F48067DC
:103FF000DF6109021368194311600021002280F873
:104000003C200846BDE8F0810121F7E7002804BF05
:104010000120704710B5044690F83D0028B90020F3
:1040200084F83C00204600F01FF8022084F83D0090
:104030002068211D02F0F0FE012084F8460084F87B
:104040003E0084F83F0084F8400084F8410084F882
:10405000420084F8430084F8440084F8450084F862
:104060003D00002010BD000081B0006840F200411A
:10407000C4F20001884201D001B0704700200090D6
:1040800043F64000C4F20200016841F00201016001
:10409000006800F002000090009801B07047000036
:1040A0007047000041B1082910D0042914BF00F165
:1040B000410200F13F020BE090F83E20012A1CBFB4
:1040C00001207047022280F83E2012E000F14002F9
:1040D0001278012A1CBF012070470222082906D04D
:1040E000042914BF80F8412080F83F2001E080F8C7
:1040F0004020006801F01F010122036A02FA01F169
:1041000023EA01020262026A114341F2FF72C4F221
:104110000002904201620BDC40F2FF71C4F2000128
:10412000884213DCB0F1804F35D040F2004115E0F9
:1041300040F2FF31C4F20101884214DC41F6000173
:10414000C4F20001884226D0002114E040F60001AC
:10415000C4F2000188421ED040F60041C4F20001C2
:10416000884218D01EE044F20001C4F201018842E6
:1041700011D040F20041C4F20101884212D1416CD9
:1041800040F2004340F48062C4F2010341F4004174
:104190009A42416406D1816801F00701062904BFF3
:1041A00000207047016841F0010101600020704764
:1041B00010B504460068B0F1804F02D1FDF7B2FAA5
:1041C000206841F60001C4F20001884218BF10BD0A
:1041D00043F61C40C2F2000090ED000A47F6FC7165
:1041E000BDEEC00AC2F2000110EE100A91ED000A05
:1041F00000EB800043F6D8420001C2F20002BDEE9F
:10420000C00A508010EE100A00EB80000001108000
:1042100043F2AC10C2F2000090ED000A90ED021AD9
:10422000BDEEC00A10EE100ABDEEC10AD08010EE3D
:10423000103A43F2A040C2F2000040F20111938014
:10424000BDE8104002F0CABC70470000FEE7000065
:1042500085B0D0F8EC1091E80C10C968CDE90232B5
:10426000CDE9001C9DED030A9DED031A9DED022A88
:104270009DED023A20EE010A22EE032A9DED011A7D
:104280009DED013A30EE020A21EE031A9DED002A5F
:104290009DED003A31EE000A22EE031A31EE000ADB
:1042A0004FF07E510491B1EEC00A9DED041A81EEEB
:1042B000000A8DED040A049904919DED040AD0F8DA
:1042C000EC20D0F8001192ED001A20EE010A82EDE8
:1042D000000A9DED040A92ED011A92ED022A20EEE9
:1042E000010A82ED010A92ED033A9DED040A20EEE7
:1042F000020A82ED020A9DED040A20EE030A82ED15
:10430000030A40F2C022C2F200029DED020A92EDC1
:104310006F1A20EE010AB6EE001A20EE010A81EDB6
:10432000040A9DED010A92ED6F2A20EE020A20EEAA
:10433000010A81ED050A9DED030A92ED6F2A20EE38
:10434000420A20EE010A81ED0A0A9DED000A92ED73
:104350006F2A20EE020A20EE010A81ED0B0A9DED84
:10436000000A92ED6F2A20EE420A20EE010A81ED4A
:10437000100A9DED030A92ED6F2A20EE420A20EE0C
:10438000010A81ED110A9DED010A92ED6F2A20EEDE
:10439000020A20EE010A81ED160A9DED020A92ED55
:1043A0006F2A20EE420A20EE010A81ED170AD0F8AA
:1043B000F80092ED740A90ED1C1A44F2000181EEAF
:1043C000002A90ED230AC4F21C6180ED1C2A92EDB4
:1043D000741A80EE010A9FED091AB4EE412AF1EE3B
:1043E00010FAB4EE410A80ED230AC8BF0167F1EE6E
:1043F00010FAC8BFC0F88C1005B0704700401C46CA
:10440000B0B540F2C024C2F20004012020704CF686
:104410007740C3F22B20C4F8CC0104F5D87080ECAF
:10442000030AB7EE000A0025F4EE401A201D06210B
:104430000022032384F83851C4E95055C4E9525589
:1044400084ED6F2AF1EE10FAC8BFF0EE401AC4ED09
:10445000741A00F01FFE04F5E07004F5E473012106
:10446000012205F0FBFAD4F8EC104FF07E52C1E9BE
:104470000025C1E9025544F2CD41C0F6000144F2E5
:10448000512244F2095344F69D1504F1D00CC0F6B4
:104490000002C0F60003C0F600058CE82E0040F2D2
:1044A0000111D4F80401E1854CF6C001C0F6000109
:1044B0009022FBF78FFFD4F8FC0040F22801C2F2F3
:1044C00000019022FBF786FFB0BD000010B5044646
:1044D000D0F8F81040F22800C2F200009022FBF75A
:1044E00079FFD4F81C1140F27020C2F2000048227B
:1044F000FBF770FFD4F80C1140F22820C2F2000044
:104500004822FBF767FF10BD10B584B00446D0F811
:10451000EC0044F2E20190ED000A90ED011A90EDFA
:10452000022A30EE000A90ED033A8DED030A31EED7
:10453000010A8DED020A32EE020A8DED010A33EE18
:10454000030A8DED000AC2F200010988A27B237BD9
:10455000D4F80C0151435943FBF790FF9DED010A3C
:10456000D4F80C01B1EE400A80ED000A00994160D8
:104570009DED030A029A039B019CB1EE400A80ED77
:10458000020AC260C0E90623C0E9081403639DED76
:10459000020A9DED011AB1EE400AB1EE411A80ED1A
:1045A0000D0A80ED0E1AC16304B010BDB0B52DED3B
:1045B000088B84B040F2C024C2F20004B0EE429AEC
:1045C00094ED582A94ED593A94ED5A4A94ED6F5A65
:1045D00030EE420AB6EE00BA84ED5B0A20EE0B0A1A
:1045E00030EEC32A31EE441A20EE050A84ED5C2A2F
:1045F00084ED5D1A8DED030A22EE0B0A20EE050A0A
:104600008DED020A21EE0B0A20EE050A8DED010A5E
:10461000D4F804014CF6C001C0F600019022B0EEBF
:10462000628AB0EE61AAFBF7D5FE9DED030AD4F8CD
:1046300004019DED021A9DED012A0399019AB1EE44
:10464000400AB1EE411AB1EE422A80ED010A80ED36
:10465000021A80ED032A816102629DED020A029A2C
:10466000B1EE400A80ED090A02639DED010AC163C3
:104670000199B1EE400A80ED0D0AC0E912129DEDDC
:10468000030AB1EE400A80ED140AD4E9520108434E
:1046900006D094ED5E2A94ED5F1A94ED600A09E06D
:1046A00000200121B0EE480AB0EE491AB0EE4A2AC5
:1046B000C4E9521094ED643A94ED6F4A22EE032A55
:1046C00033EE045A24EE0A6A23EE011A24EE097A24
:1046D00082EE052A86EE056A81EE051A87EE057AD6
:1046E00023EE000A24EE083A80EE050A83EE053A2E
:1046F0000021002532EE062A84ED5E2A37EE011AEB
:1047000084ED5F1A21EE011A22EE022A33EE000A2E
:1047100084ED600A32EE011A20EE000A30EE010A42
:10472000B7EE001AB1EEC00A81EE001A84ED660AF7
:104730008DED001A94ED5E0A9DED001AA06820EE42
:10474000010A80ED000A94ED5F0A9DED001A20EE4B
:10475000010A80ED010A94ED600A9DED001A20EE39
:10476000010A80ED020A94ED5B0A94ED5C1A94ED67
:104770005D2A21EE011A20EE000A30EE010A22EE37
:10478000021A31EE000A9FED7E1AB1EEC00AB4EEB5
:10479000410A002084ED650AF1EE10FAB8BF01204D
:1047A00094ED660A9FED772A94ED6C1AB4EE420AF6
:1047B0009FED752A94ED6F3AF1EE10FAC8BF012112
:1047C0000840B4EE420A0021F1EE10FAB8BF012110
:1047D000084084F83901D4F8180121EE030A80ED6D
:1047E000000A94ED6C0A94ED6F1A20EE010A80ED38
:1047F000070A94ED6C0A94ED6F1A20EE010A80ED21
:104800000E0A94ED6C0A94ED6F1A20EE010A80ED09
:10481000150A94ED6D0A94ED6F1A20EE010A80EDF1
:104820001C0A94ED6D0A94ED6F1A20EE010A80EDDA
:10483000230AD4F8B801D4F81C110860D4F8B821C0
:10484000201D0A61D4F8B8210A6200F071FF606887
:1048500090ED000A84ED540A90ED011A84ED551A8A
:1048600090ED022A20EE010A84ED562A90ED033ADB
:1048700021EE011A84ED573A22EE033A3BEE411A3B
:1048800022EE022A30EE030A71EE420A04F5D070DD
:1048900004F0FCFD94ED680A9FED3C8A94ED551AF6
:1048A00020EE080A84ED680A94ED540A94ED562A25
:1048B00094ED573A22EE000A21EE031A30EE410A37
:1048C00030EE000A07F05EFB20EE080A84ED690A6C
:1048D00094ED540A94ED551A94ED572A94ED563AF6
:1048E00020EE020A21EE031A31EE000A23EE031A2B
:1048F0003BEE411A22EE022A71EE420A04F5D47010
:1049000004F0C4FD94ED6A0A606820EE080A84EDA4
:104910006A0A016994ED761A9FED1D2AC4F86011A8
:1049200030EE411A4069B4EE421AF1EE10FAC4F8C2
:104930006401C4F8685103DDB4F8D401013809E01A
:104940009FED142AB4F8D401B4EE421AF1EE10FA35
:1049500002DA0130A4F8D40100B201EE100A9FED92
:104960000E2AB8EEC11A21EE021A31EE001A84EDB9
:104970006B1A84ED760A04B0BDEC088BB0BD00BFA5
:104980009A99993ECDCC1441CDCC2441E12E65427B
:1049900000003443000034C30000B4432DE9F04F5D
:1049A00085B000F1780500F18008044628464146AC
:1049B00005F00EFF84F8C800B4F87800274627F801
:1049C000A80FB4F85A0004F15801A4F8AA00284628
:1049D0003A46009105F0B0FC84F8C8003888A34638
:1049E000B4F882102BF8B00FA4F8B2103846414644
:1049F0005A4605F0A1FC214684F8C80051F8900FF2
:104A0000254645F8A00F58462A4604F0A5FF84F82D
:104A1000C8002846594605F025F8D4F8EC1084F86B
:104A2000C80091E84C00C968A246CDE90116B4F867
:104A300078104FF00109CDE903322AF8B81FA4F825
:104A4000BA90D4F82C019DED030A9DED011A9DED5D
:104A5000042A9DED023A20EE010A23EE022A30EEEE
:104A6000420A30EE000A80ED000A9DED041A9DED29
:104A7000032A9DED023A9DED014A21EE021A23EE32
:104A8000043A31EE031A31EE011A80ED011A9DED60
:104A9000041A9DED042A9DED033A9DED034A21EE93
:104AA000021A24EE033A9DED022A9DED024A31EEF0
:104AB000431A22EE042A9DED013A9DED014A31EEA2
:104AC000421A23EE042A32EE011AB0EEC00A80ED3B
:104AD000021A04F0F7FE40F2C026C2F2000686ED8C
:104AE000610AD4F82C0190ED010AB0EEC00A04F07E
:104AF000E9FE86ED620AD4F82C0190ED020AB0EED0
:104B0000C00A04F0DFFE86ED630A204630F8481F35
:104B1000254625F8C01F51462A46A5F8029005F003
:104B2000D5FD298884F8C8003980584629463A4678
:104B3000A4F8AA9005F000FC84F8C8002888514623
:104B4000A4F8BA002846AAF8009005F041FE84F8BF
:104B5000C80006F5E0725046394605F0EDFB84F8D2
:104B6000C80096ED731A96ED720AB6EE002A21EE91
:104B7000022AB4EE420AF1EE10FA02DA86F838910F
:104B800006E096F83891B9F1000F18BF4FF001090F
:104B9000B4EE410AF1EE10FA19DDB9F1000F16D0AA
:104BA000D6E9501096F83921013140F10000002A71
:104BB00004BF10461146B1F1330270F10002C6E99C
:104BC0005010C0F01D81002086F8380121E09FEDD3
:104BD0009C2A31EE403A21EE022A83EE022A9FED12
:104BE000973AB9F1000F21EE031AB7EE003AB0EE92
:104BF000434AB4EE410A4FF0000018BFB0EE424AFB
:104C0000F1EE10FAC8BFB0EE443A86ED673AC6E955
:104C10005000002084F82C00B4F85800B4F882103A
:104C2000A4F8A8000098A4F8AA1041463A4605F056
:104C300083FB04F1980884F8C80038465946424678
:104C400005F07AFBB4F898C0B4F89A2084F8C8004C
:104C500002FB0CF3D4F81C21EBB30027002000BFAB
:104C600002EB870196ED670A91ED001A40F001070B
:104C7000FFB220EE010ABB4281ED000A2BD902EB04
:104C8000870196ED670A91ED001A40F00207FFB226
:104C900020EE010ABB4281ED000A1CD902EB87011C
:104CA00096ED670A91ED001A40F00307FFB220EE7F
:104CB000010ABB4281ED000A0DD902EB870196ED96
:104CC000670A91ED001A0430C7B220EE010ABB4218
:104CD00081ED000AC4D896ED610A9FED5A1A92ED53
:104CE0000C2A80EE010A0120294620EE020A82EDFC
:104CF0000C0A96ED610A92ED0D2A80EE010A20EE73
:104D0000020A82ED0D0A96ED610A92ED0E2A80EEFE
:104D1000010A20EE020A82ED0E0A96ED620A92ED79
:104D20000F2A80EE010A20EE020A82ED0F0A96EDAC
:104D3000620A92ED102A80EE010A20EE020A82ED4C
:104D4000100A96ED620A80EE010A92ED111A20EE29
:104D5000010A82ED110AA4F8BA0040465246A4F8AE
:104D6000B8C005F0E9FA84F8C80096F83811D4F80C
:104D7000BC00B9B396ED6F0A9FED331A90ED043A7B
:104D800020EE012AB4EE423AF1EE10FA05DD80ED94
:104D9000042A96ED6F0AB0EE423A9FED2C2A20EEDF
:104DA000024AB4EE443AF1EE10FABCBF80ED044A78
:104DB00096ED6F0A90ED053A20EE011AB4EE413AF5
:104DC000F1EE10FA05DD80ED051A96ED6F0AB0EEF2
:104DD000413A20EE020AB4EE403AF1EE10FAB8BFC2
:104DE00080ED050A0021C16004F1380004F13002B1
:104DF000514604F0B1FD84F8C80005B0BDE8F08F5D
:104E000044F2E205C2F200052A88237BD4F8E800C8
:104E1000D4F8EC105A43FBF7DDFA2A88237BD4F848
:104E2000F800D4F8FC105A435A43FBF7D3FA012098
:104E300084F82C0005B0BDE8F08F00BFCDCCCC3D90
:104E40006666663FDA0FC93F0AD7233C0AD723BC00
:104E5000F0B581B043F2AC1543F2741644F2E404A9
:104E6000C2F20005C2F20006C2F200042846314632
:104E70002246FBF7B1FC43F2A810C2F20000017811
:104E800059B9DFED641A96EC030A0121B0EE612AEC
:104E9000F0EE612A017001F00FF843F28117C2F2BF
:104EA00000073878012846D002287AD143F2B8109A
:104EB000C2F2000090ED011A90ED022A95ED014A30
:104EC00095ED025A90ED000A95ED003A74EE410A14
:104ED00035EE421AD6EC031A33EE400A85EC020A8C
:104EE00085ED021AFFF762FB9FED4A3A95EC030A43
:104EF000D6EC031AF0EE433AB0EE434A01F01CFB45
:104F000001F096FAFBF7D4FD43F61C40C2F2000014
:104F100080ED000AFBF7D4FD43F6D040C2F200005A
:104F200080ED000AFBF7D4FD47F6FC70C2F20000EA
:104F300080ED000A35E043F2A41143F2B810C2F24A
:104F40000001C2F200000A6895ED000A95ED011A11
:104F500095ED022A90ED003A90ED014A90ED025A4B
:104F6000013230EE030A31EE041A32EE052AB2F5B0
:104F70007A7F80ED000A80ED011A80ED022A0A6036
:104F80000FD39FED253A80EE030A81EE031A82EEDD
:104F9000032A80ED000A80ED011A80ED022A02202A
:104FA000387040F2B825C2F2000528684CF6CD41B1
:104FB000CCF6CC41414349F699124FEA7101C1F652
:104FC0009912914222D894ED000A43F6C434C2F2F9
:104FD0000004DFED120A204601F0D2FC94ED080A2D
:104FE000B5EE400AF1EE10FA03DA9FED0A0A00204E
:104FF000206243F67C30C2F20000BDEEC00A0068B9
:1050000010EE101A81632868012139700130286080
:1050100001B0F0BD0000000000007A440000204212
:1050200080B5DFED180A9FED161ADFED172AB2EEF4
:10503000040AF7EE001AB0EE602AFFF7E1F99FEDDF
:10504000130A43F6C4304CF65812C2F20000C0F600
:1050500000020021F0EE400A01F03EFD9FED0C0A37
:1050600001F0AAF943F67C30C2F200000421FFF7F8
:1050700019F800BFFBF7A4FB0028FBD180BD00BFDF
:105080008096184B6F12833A00000000000016440F
:1050900000007A442DE9F04744F2E2070446C2F2E8
:1050A00000070420388044F2E0008946C2F2000084
:1050B000082101800020207418469A46904684F802
:1050C0000C906273A37306F075F851466061FBF7AC
:1050D000B3F9388800FB0AF006F06CF83988A06153
:1050E00001FB0AF1FBF7CAF9388800FB0AF006F069
:1050F00061F83988E06101FB0AF1FBF7BFF93888F4
:1051000000FB09F006F056F83988206201FB09F12E
:10511000FBF7B4F9504606F04DF851466062FBF7D4
:105120008BF9388800FB09F006F044F839882060D4
:1051300001FB09F1FBF7A2F9388800FB0AF006F041
:1051400039F83988606001FB0AF1FBF797F9388874
:1051500000FB08F006F02EF83988A06001FB08F18A
:10516000FBF78CF9388800FB09F006F023F8398842
:10517000C4F8E80001FB09F1FBF780F9217BD4F8C2
:10518000E83004F13000012204F068FC388800FBAC
:1051900009F006F00FF83988C4F8EC0001FB09F1BA
:1051A000FBF76CF9217BD4F8EC3004F138000122D4
:1051B00004F054FCB8F1000F13D0388800FB08F05D
:1051C00005F0F8FF3988C4F8F00001FB08F1FBF79F
:1051D00055F9617BD4F8F03004F14000012204F06D
:1051E0003DFC388800FB0AF005F0E4FF3988C4F87C
:1051F000F40001FB0AF1FBF741F9A17BD4F8F4308C
:1052000004F14800012204F029FC388809FB09F662
:10521000704305F0CFFF3988C4F8F8007143FBF7FD
:105220002DF9217BD4F8F83004F150000A4604F03F
:1052300015FC3888704305F0BDFF3988C4F8FC00C0
:105240007143FBF71BF9217BD4F8FC3004F15800C3
:105250000A4604F003FC3888704305F0ABFF398838
:10526000C4F8000106FB01F005F0A4FF3988C4F87A
:105270000401D4F800017143FBF700F93988D4F830
:1052800004017143FBF7FAF8217BD4F8003104F1F3
:1052900060000A4604F0E2FB217BD4F8043104F1FB
:1052A00068000A4604F0DAFBB8F1000F13D0388822
:1052B00008FB09F5684305F07DFF3988C4F808014B
:1052C0006943FBF7DBF8217B627BD4F8083104F1FA
:1052D000700004F0C3FB38880AFB09F5684305F049
:1052E00069FF3988C4F80C0105FB01F005F062FF85
:1052F0003988C4F81001D4F80C016943FBF7BEF8F3
:105300003988D4F810016943FBF7B8F8227BA17BF8
:10531000D4F80C3104F1780004F0A0FB217BA27BCF
:10532000D4F8103104F1800004F098FB3888704301
:1053300005F040FF3988C4F814017143FBF79EF86B
:10534000217BD4F8143104F188000A4604F086FB6E
:1053500038880AFB0AF6704305F02CFF3988C4F838
:1053600018017143FBF78AF8A17BD4F8183104F1D6
:1053700090000A4604F072FB3888684305F01AFF73
:105380003988C4F81C016943FBF778F8217BA27BBC
:10539000D4F81C3104F1980004F060FB3888217BBC
:1053A0004843484305F006FF3988227BC4F82001B2
:1053B00051435143FBF762F83888217B4843484307
:1053C00005F0F8FE3988227BC4F82401514351438B
:1053D000FBF754F83888217B4843484305F0EAFE40
:1053E0003988227BC4F8280151435143FBF746F822
:1053F0003888217B484305F0DDFE3988227BC4F8DC
:105400002C015143FBF73AF83888217B484305F0DB
:10541000D1FE3988227BC4F83001D4F82C015143E5
:10542000FBF72CF8217BD4F8203104F1A0000A46C8
:1054300004F014FB217BD4F8243104F1A8000A46BF
:1054400004F00CFB217BD4F8283104F1B0000A46AB
:1054500004F004FB217BD4F82C3104F1B8000122C4
:1054600004F0FCFA217BD4F8303104F1C0000122B1
:1054700004F0F4FA002084F82C00A062BDE8F08764
:105480002DE9F04F83B00446C07B44F2E2080028C7
:10549000C2F2000868D00020B8F80020A37B207476
:1054A000D4F8F40061685A43FAF794FFB8F8001092
:1054B000A27B60685143FAF7E1FFB8F80010A27BC5
:1054C000D4F8180151435143FAF7D8FFB8F8001047
:1054D000227BA37BD4F80C0151435943FAF7CEFF4A
:1054E00094F80EC0BCF1000F2BD00020002104E086
:1054F0000131614500F1040023D2D4F8F4301F18C3
:1055000097ED000AB5EE400AF1EE10FAF0D0227CD9
:10551000676A03EB820383ED000AB954D4E90532CC
:10552000257B1758227C5B5CD4F80C6194F80EC084
:1055300012FB053306EB8303013243F8047C22742B
:10554000D6E794F810A0BAF1000F71D0E169626A51
:10555000D4F818C1AAF1010003280AF003008DE86D
:10556000051012D2002340E0B8F80020A37BD4F845
:10557000F40061685A43FAF72DFFB8F80010A27BD7
:1055800060685143FAF77AFF65E0082000EBCA092A
:10559000102000EB0A1504200AEB4A030C260AF03F
:1055A000FC0B013200EB8A0006EB8306002300BFF0
:1055B00002EB030E1EF8018C51F82870CCF8007035
:1055C000D75C043351F827709B454CF800709EF867
:1055D000017051F827704CF809709EF8027051F86C
:1055E00027704CF80670AC44E2D1009D44F2E2080A
:1055F000DDE90167C2F20008D5B1F05C03FB0A32B5
:1056000051F82000012D47F8220011D0581C325CBF
:1056100000FB0A0051F82220022D47F8202007D075
:10562000981C325C00FB0A0051F8221047F8201049
:10563000207BA4F878A0A4F87A00A4F88000A4F84D
:1056400082A0A4F890A0A4F892A0A4F89800A4F8CE
:105650009AA0A4F848A0B8F80020637BD4F8F00022
:10566000A1685A43FAF7B6FE03B0BDE8F08F000018
:105670002DE9F04381B0044690F82A0010B101B042
:10568000BDE8F08304F1780504F180092846494615
:1056900005F09EF884F8C800B4F87800264626F88D
:1056A000A80FB4F85A0004F15808A4F8AA00284634
:1056B0004146324604F040FE84F8C8003088274650
:1056C000B4F8821027F8B00FA4F8B210304649465B
:1056D0003A4604F031FE214684F8C80051F8900F94
:1056E000254645F8A00F38462A4604F035F984F8D7
:1056F000C8002846394604F0B5F984F8C800B4F863
:105700005800B4F882103080A4F8AA1040464946E8
:10571000324604F011FE84F8C800A5F108023046B4
:10572000394604F009FE84F8C80001B0BDE8F083F2
:105730002DE9F04F81B08346FFF7A2FEDBF8CC10D5
:1057400009B158468847584600F054F9DBF8D010A4
:1057500009B1584688479BF8290050BB0BF16005FA
:105760000BF168062846314605F032F80BF1580770
:105770008BF8C8000BF1500128463A4604F0DCFDD6
:10578000BBF858105D4625F8A81F35F83E1C8BF86D
:10579000C8006980384631462A4604F0CDFD8BF8B2
:1057A000C800A5F1200128463A4604F0D5F88BF848
:1057B000C800DBF8D41009B1584688479BF81000A0
:1057C00044F2E204C2F20004D8B35846FFF750FF97
:1057D000DBF8D81009B158468847584600F042F91E
:1057E000DBF8DC1009B1584688479BF82C000028EC
:1057F00040D1584630F8982F5D4625F8A82F2E4600
:1058000026F8082F35F84E2C35F82E3CA5F130013E
:105810006A812A466B80A5F1500704F08DFD85F85A
:10582000200028463946324604F086FD85F82000DF
:10583000A5F158023846314604F048FF85F82000AB
:1058400018E09BF80F000028BFD022889BF80C308E
:10585000DBF8E800DBF8EC105A43FAF7BBFD2288CE
:105860009BF80C30DBF8F800DBF8FC105A435A4385
:10587000FAF7B0FDDBF8E01009B1584688479BF80D
:105880000CA0BAF1000F00F0A180DBF82030DBF8AB
:10589000F8E0AAF1010003280AF0030904D200206D
:1058A000B9F1000F57D191E0082000EBCA0C10208D
:1058B0000AEB4A010C2200EB0A16042002EB8101DC
:1058C0000AF0FC02009303F1080500EB8A00524243
:1058D0000123744694ED001A15ED020A04EB00084A
:1058E000B4EE401AF1EE10FAB8BF84ED000A98ED5C
:1058F000001A15ED010A04EB0C07B4EE401AF1EEA4
:1059000010FAB8BF88ED000A97ED001A95ED000A6D
:105910000433B4EE401AF1EE10FAB8BF87ED000A76
:10592000671897ED001A95ED010A3444B4EE401A59
:10593000F1EE10FAB8BF87ED000AD718012F05F174
:105940001005C7D1581E44F2E204009BC2F20004C5
:10595000B9F1000F3AD000FB0A0103EB80020EEB15
:10596000810191ED001A92ED000AB4EE401AF1EEB9
:1059700010FAB8BF81ED000AB9F1010F26D0421C20
:1059800002FB0A2103EB82020EEB810191ED001A6A
:1059900092ED000AB4EE401AF1EE10FAB8BF81EDB4
:1059A000000AB9F1020F11D0811C01FB0A1003EBB0
:1059B00081010EEB800090ED001A91ED000AB4EE2B
:1059C000401AF1EE10FAB8BF80ED000A2288DBF829
:1059D0000000DBF8E81002FB0AF2FAF7FBFCDBF848
:1059E000E41009B158468847DBF8000001B0BDE873
:1059F000F08F000070B5044690F82800002818BF0A
:105A000070BD607B10B3207B254625F8B80F0126BA
:105A100004F1600004F130012A46A4F8BA6004F0F1
:105A20008BFC217B24F8C01F2072A4F15000A4F14C
:105A300080012246668004F07FFC2072A4F1880277
:105A40002846214603F088FF207270BD04F16000F3
:105A500004F1300104F1380204F06EFC84F8C8004F
:105A600070BD00002DE9F04381B0044690F82B0092
:105A700010B101B0BDE8F083204630F8781F25460C
:105A800025F8B81F04F138084FF0010941462A46AD
:105A9000A4F8BA9004F050FC84F8C800204630F80E
:105AA000481F274627F8C01F29463A46A4F8C29047
:105AB00004F00CFE264636F8981F84F8C8002980AA
:105AC000304639462A46A4F8BA9004F035FC84F8EA
:105AD000C800A6F168024046294603F03DFF84F85D
