:020000040800F2
:10000000B005002001010008D12F0008952C000840
:10001000CD2F0008D9020008D130000800000000F0
:10002000000000000000000000000000D92F0008C0
:100030001D03000800000000D52F0008DD2F000878
:100040001B0100081B0100081B0100081B01000820
:100050001B0100081B0100081B0100081B01000810
:100060001B0100081B0100081B0100080503000814
:100070001B0100081B010008110300081B010008F8
:100080001B0100081B010008550100081B010008A6
:10009000C53000081B0100081B0100081B010008F7
:1000A0001B0100081B0100081B0100081B010008C0
:1000B0001B010008E52F00081B0100081B010008B8
:1000C0001B0100081B0100081B0100081B010008A0
:1000D0001B010008B93000081B0100081B010008C3
:1000E0001B0100081B0100081B010008DFF80CD0F1
:1000F00000F018F800480047D5300008B00500208F
:100100000648804706480047FEE7FEE7FEE7FEE7B1
:10011000FEE7FEE7FEE7FEE7FEE7FEE7E12F000869
:10012000ED0000081CB509480090094801900546FB
:10013000009C06E0E06840F0010394E8070098475F
:100140001034AC42F6D3FFF7D5FF00009032000820
:10015000B032000840F24000C2F2000000F04EBB96
:10016000B0B5044600688168C90709D0816821F0EC
:100170000101816001F004FC21688968C90701D18F
:100180000020B0BD054602E08068C007F8D001F04D
:10019000F7FB411B20680329F6D38168C907F3D018
:1001A000A06A40F01000A062E06A40F00100E06246
:1001B0000120B0BD0146406A826A12F0500F03D0A0
:1001C000006A026B084610470168826A42F40072B6
:1001D0008262896801F46021B1F5602F01D1017B51
:1001E00011B100F005BB00BF816A21F4807181620A
:1001F000816AC90448BF00F0FBBA816A41F001017D
:10020000816200F0F5BA0000406A816A41F0400165
:100210008162C16A41F00401C16200F0EDBA0000E0
:10022000406A00F0E7BA0000B0B582B00446002092
:10023000019021688A68D2074BD1886840F001009C
:10024000886040F20800C2F2000000684DF6836149
:10025000C4F21B31A0FB0101880C01900198A0B1F0
:10026000019801380190019878B101980138019006
:10027000019850B1019801380190019828B1019876
:100280000138019001980028EAD101F079FB21683A
:100290008968C9071CD1054603E000BF8068C00714
:1002A00016D101F06DFB411B20680329F6D381684C
:1002B000C907F3D1A06A40F01000A062E06A40F0E4
:1002C0000100E062002084F82400012002B0B0BDEB
:1002D000002002B0B0BD0000FEE7000080B588B08D
:1002E0000A46082106910021029040F27000CDE9F3
:1002F0000411C2F2000002A901AB00F0B1FC08B089
:1003000080BD000040F29800C2F2000001F0C8B8C1
:1003100040F2DC00C2F2000001F0C2B870470000F9
:10032000EFF3108072B600BFFEE7000070B582B038
:1003300004460020019094F82400012804D10225ED
:10034000284602B070BD00BF012084F8240020467A
:10035000FFF706FF054600286CD1A06A41F20211A2
:1003600088430230A06240F20800C2F20000066832
:10037000022001F0C1FBB6FBF0F0400001900198B3
:10038000A8B100BF019801380190019878B1019897
:1003900001380190019850B10198013801900198FD
:1003A00028B101980138019001980028EAD120462F
:1003B000FFF73AFF2068816841F00801816001F091
:1003C000DFFA21688A6812070ED4886840F00400BA
:1003D000886001F0D5FA21688968490714D40120A2
:1003E0006FF0030122E000BF064602E088680007C4
:1003F000EBD501F0C5FA801B21680B28F6D388687D
:100400000007F3D50EE000BF064602E08068400713
:10041000E5D501F0B5FA811B20680B29F6D3816878
:100420004907F3D5012510206FF01201A26A11408F
:100430000843A062002084F82400284602B070BD62
:10044000F0B581B00022009290F82420012A05D155
:100450004FF0020C604601B0F0BD00BF8368D1F8D8
:1004600004E0012280F82420A3B10A690668BEEBEB
:10047000020404EB8404B56B04F10F044FF01F0376
:1004800003FA04F325EA030323F4401516D9B563F0
:100490001FE000BFBEF1010F40F0AA8006684FF0D8
:1004A000000CB26B0D686FF3150242EAC532B263FD
:1004B0004FF0010EB268D20710D016E040F2000CE7
:1004C0000B68CFF6F07C0CEB0252A3401A432A4390
:1004D000B2634FF0000CB268D20706D1B26847F29F
:1004E00001038C699A432243B2604A7D012A1FD0DE
:1004F0000B7D012B30D00A68092A02EB42043FD958
:10050000F3681E3C07258F68A540AB4307FA04F447
:10051000234322F00104102CF36049D1B368012574
:1005200043F40003B360BEF1030F36D144E000BFD3
:100530008B6900F12804B3F5E04F4FF0200314BF9E
:100540004FF0010C341D08BF4FF4806325682B4326
:1005500023600B7D012BCED100F12803002A4FF040
:10056000200214BF4FF0010C331D08BF4FF480521E
:100570001C6822431A600A68092A02EB4204BFD8A9
:10058000336907258F68A540AB4307FA04F423437A
:1005900033610025BEF1030F0ED0BEF1020F0FD064
:1005A000BEF1010F14BF06F1200406F1140409E0A6
:1005B0000025BEF1030FF0D106F11C0402E000BFDC
:1005C00006F11804236840F6FF77C968BB43194356
:1005D000002D216048D042F20041C4F201018E4258
:1005E00012D0816A4FF0010C41F0200181623BE0A2
:1005F0000668826A4FF0010C42F020028262B26803
:10060000D2073FF46BAF70E7896809022CD4B16858
:10061000102A41F40001B16026D140F20801C2F273
:10062000000109684DF68362C4F21B32A1FB02127D
:10063000910C01EB8101490000910099A1B1009951
:1006400001390091009979B100990139009100991F
:1006500051B1009901390091009929B100990139EE
:10066000009100990029EAD1002180F82410604609
:1006700001B0F0BD7047000010B581B000220092BB
:1006800090F82420012A03D10221084601B010BDB0
:100690004B680122062B80F8242033D8D0F800C004
:1006A00003EB83035A1F1F23DCF834E003FA02F440
:1006B0000B682EEA040403FA02F22243CCF8342039
:1006C000092B03EB430249D9DCF80CE01E3A07245E
:1006D000896894402EEA0404914023F001022143EA
:1006E000102ACCF80C1043D142F20841C4F20101A7
:1006F000A1F10802944543D0816A41F02001816252
:10070000012136E0D0F800C00C2B03EB830213D894
:10071000233A1F23DCF830E003FA02F40B682EEAD8
:10072000040403FA02F22243CCF83020092B03EB35
:100730004302C9D812E000BF413A1F23DCF82CE085
:1007400003FA02F40B682EEA040403FA02F22243CD
:10075000CCF82C20092B03EB4302B5D8DCF8103081
:10076000072489689440A34391401943CCF81010A2
:100770000021002280F82420084601B010BD00BFEF
:100780000A681202F4D40A68102B42F400020A60CC
:10079000EED140F20801C2F2000109684DF6836211
:1007A000C4F21B32A1FB0212910C01EB8101490042
:1007B000009100990029DBD000990139009100993E
:1007C0000029D5D000990139009100990029CFD096
:1007D00000990139009100990029C9D00099013987
:1007E0000091009900294FF00001E5D1C1E7000018
:1007F00070470000704700007047000010B50446C5
:1008000000684168890644BF01685FEA81710BD4C2
:100810004168090644BF01685FEA41712AD4416812
:1008200049065BD410BD00BFA16AC90603D4A16A02
:1008300041F40071A162816801F46021B1F5602F7B
:1008400010D1217B71B9416821F020014160A06A7B
:1008500020F48070A062A06AC00403D4A06A40F0B3
:100860000100A0622046FFF7C3FF20686FF012016D
:100870000160CDE7A16AC90603D4A16A41F4005121
:10088000A162816801F4E041B1F5E04F10D1416807
:1008900021F080014160A06A20F48050A062A06A2B
:1008A000C00511D4A06A40F00100A0620CE000BFB6
:1008B0004168490508D4816801F46021B1F5602FD1
:1008C00002D1217B0029E2D02046FFF7D3FE206829
:1008D0006FF00C01016041684906A3D50068C007AC
:1008E00008BF10BDA06A40F48030A062204600F02E
:1008F000B5F820686FF00101016010BD002804BF49
:1009000001207047B0B50446806A28B12168886824
:10091000C0070CD115E000BF0020E06284F824007D
:10092000204600F09DF821688868C00709D08868D3
:1009300020F00100886001F023F821688A68D2075E
:1009400026D1A06AC0063AD4A06A41F202129043AE
:100950000230A062E069D4E9013240EA030C531E80
:10096000B3FA83F35D091346B2F5807F18BF2B02FB
:10097000207D257B01284CEA450030D135B3A56A9E
:1009800045F02005A562E56A45F00105E56226E02F
:10099000054602E08868C007D3D000F0F1FF401B95
:1009A00021680328F6D38868C007F3D0A06A40F016
:1009B0001000A062E06A40F00100E062A06AA06A54
:1009C00040F01000A0620120B0BD00BFD4F818C0F4
:1009D0004EF60005CFF6FF7505EB4C352B434D6801
:1009E000B2F5807F25F4694543EA05034B608B68C7
:1009F0004FF2FD75CFF6E17503EA050343EA000304
:100A00008B6001D0012A07D122690023CFF6F07351
:100A100003EB025201E000BF0022CB6A23F4700313
:100A20001A43CA62896840F6FE62CFF61F7211400F
:100A3000814207D10020E062A16A012262F3010134
:100A4000A162B0BDA06A40F0100020F00200A062D8
:100A5000E06A40F00100E0620120B0BD7047000094
:100A600070B586B0044640F60000C4F2010021686B
:100A700000F5E052002691420596049602D006B099
:100A800070BD00BF41F21801C4F202010A6842F4CD
:100A900000720A600A6802F400720192019A0A6800
:100AA00042F004020A60096801F004010191019911
:100AB000902102910321039102A900F04BFE40F224
:100AC00098050820C2F20005C4F202004FF48072BB
:100AD000C5E9000605F1100080214FF480634FF056
:100AE000200C80E80C102846C5E90261EE6100F098
:100AF000A5FD002818BFFFF713FC122000210022DB
:100B000025626C6200F0BCFF122000F0A7FF06B067
:100B100070BD000070B515460446006842F600023C
:100B2000C4F2010290420E4605D042F20041C4F2E6
:100B3000010188420AD142F20440C4F20100006877
:100B400010F4702F02D0012070BD00BF94F8240073
:100B5000012804BF022070BD012084F82400204633
:100B6000FFF762FB20B1002084F82400012070BD53
:100B700042F204402168A26AC4F2010040F6017307
:100B80009A4300F57F7302F580729942A26243D0C6
:100B9000A06A20F48010A0624868400504D5A06ACD
:100BA000012262F30D30A062A26A0020D2044FF04D
:100BB000000244BFE26A22F00602E26284F82400E6
:100BC000206A40F2B512C0F6000240F2212340F242
:100BD000092C00F1280EC0F60003C0F6000C8EE8C8
:100BE0000C106FF002020A608A682B4642F4807291
:100BF0008A604C31324600F05DFD2068816801F466
:100C000060228168B2F5602F0CBF41F4A00141F46D
:100C100080118160002070BD026812F4702FB7D07F
:100C2000A26A42F48012A26200684005B7D4BBE712
:100C300090F82020013A012A08D8006800F1140237
:100C40000020136819431160704700BF00F12402AF
:100C500001204FF480211368194311607047000090
:100C600010B590F820E0D0F800C0AEF1010EBEF152
:100C7000010FDCF808E011D81EF0E05F18D0CEF3C9
:100C8000016EBEF1030F1DD100F1240101204FF4CC
:100C900000020B681A430A6010BD00BF00F1240176
:100CA00001204FF480220B681A430A6010BD00BF78
:100CB00000F1240101204FF400120B681A430A606E
:100CC00010BD00BF012000FA0EF01860886828B13E
:100CD0004B68CC6844EAC303034303E00868CB686D
:100CE00043EA40530CEB0E10C0F880310B69C0F89A
:100CF0008431097D012905D100F5C2710B6843F4E7
:100D000080730B605168C0F88C11126800F5C071D7
:100D1000C0F88821002001220B681A430A6010BD28
:100D2000026890F82030013B012B29D8B0B5D2F8E9
:100D30000002012340F00100C2F80002D1F814E0E3
:100D4000CC690EF01F0003FA00F0D2F81C326FEAF3
:100D5000000C8343012CC2F81C3217D06CBBD2F8B4
:100D60000C3203EA0C03C2F80C32CB688C8844EADC
:100D7000034302EBCE04C4F840320B4615E000BF3B
:100D8000416A41F48021416201207047D2F80C325F
:100D90000343C2F80C320B688C8844EA034302EB2D
:100DA000CE04C4F8403201F10C038C681B8843EA7E
:100DB000044302EBCE04C4F84432D2F804328D6905
:100DC00043EA0004D1F810E0096A002D08BF03EAE5
:100DD0000C04C2F80442D2F81432BEF1000F43EA08
:100DE000000408BF03EA0C040129C2F8144204D12C
:100DF000D2F81C120843C2F81C02D2F8000220F0FC
:100E00000100C2F800020020B0BD000070470000E1
:100E100010B590F82040013C012C73D8D0F800C0E8
:100E200000290CBFDCF80C40DCF81040A40773D09C
:100E30000CEB011CDCF8B0410CF5D87E14F0040476
:100E40009460DCF8B04119BFE4085460640D14608C
:100E5000DEF80040002904F00204D460DCF8B4415C
:100E600004F00F041461DCF8B441C4F30724946166
:100E7000DCF8B4414FEA14445461DCF8B8211A702C
:100E8000026802EB0112D2F8B8214FEA12225A701E
:100E9000026802EB0112D2F8B8214FEA12429A70AE
:100EA000026802EB0112D2F8B8214FEA1262DA703E
:100EB000026802EB0112D2F8BC211A71026802EB3F
:100EC0000112D2F8BC214FEA12225A71026802EBD9
:100ED0000112D2F8BC214FEA12429A71026802EB69
:100EE0000112D2F8BC214FEA1262DA7100680CBF1D
:100EF00000F10C0100F11001002020220B681A43C0
:100F00000A6010BD00F1240101204FF480220B681B
:100F10001A430A6010BD00BF00F1240101204FF404
:100F200000120B681A430A6010BD00002DE9F04F53
:100F300081B0044600684669D0F804908768D0F80C
:100F40000CB0D0F810A0D0F81880F10704D100251B
:100F500030071DD424E000BFF90710D00121BA07E3
:100F6000816009D4780700F1AF80380700F1B680BE
:100F7000204600F00BFA02E0204600F009FA0025B6
:100F8000F80500F18780F80300F1B180300707D53C
:100F90001BF0100004D0206845F400751021C160DA
:100FA000700708D51BF0080005D020680821C16033
:100FB000204600F0ABF9B00706D52068C06880076E
:100FC00002D0204600F0A4F9700607D51AF01000F0
:100FD00004D0206845F4806510210161B00608D571
:100FE0001AF0080005D0206808210161204600F0B1
:100FF00099F9F00606D520680069800702D02046DE
:1010000000F092F9B00308D519F0100005D020685F
:1010100010214160204600F089F9F00308D519F04D
:10102000080005D0206808214160204600F0BAF988
:10103000300440F19B805FEA497040F1948006F4EF
:10104000807008EA102028435FEA8871014648BF93
:1010500041F00201B20558BF01465FEA48700D46F3
:1010600048BF45F00405700558BF0D46300540F1F6
:101070007A8018F0700000F076801038000905289A
:101080006CD8DFE800F003595D61656945F008053B
:1010900064E000BF20684FF48071BA0581600BD412
:1010A000780515D438051DD4204600F073F9F803EF
:1010B0007FF56CAF1BE000BF204600F06DF9F80330
:1010C0007FF564AF13E000BF4FF4006558E700BF41
:1010D00005F50055F8037FF559AF08E04FF480554A
:1010E0004EE700BF05F58045F8037FF54FAF206858
:1010F0004FF48031BA0381600AD4780310D43803E6
:1011000014D4204600F04AF930073FF541AF47E7D5
:10111000204600F045F930073FF53AAF40E700BF01
:1011200005F5004530073FF533AF39E705F5803564
:1011300030073FF52DAF33E745F010050EE000BF57
:1011400045F020050AE000BF45F0400506E000BF7D
:1011500045F0800502E000BF45F480752068816994
:1011600021F07001816120680421416055B1606AFD
:1011700040EA05012046616201B0BDE8F04FFFF78B
:1011800045BE00BF01B0BDE8F08F0000002804BFDD
:1011900001207047B0B5044690F8200010B92046F1
:1011A00000F06EF82068016841F00101016000F074
:1011B000E7FB054620684168C90705D100F0E0FB60
:1011C000401B0B28F6D310E0016821F002010160FA
:1011D00000F0D6FB054600BF2068416889070DD5A1
:1011E00000F0CEFB401B0B28F6D3606A052140F4CB
:1011F00000306062012084F82010B0BD217E0268BA
:10120000012922F0800208BF80320260617E0268FC
:10121000012922F0400208BF40320260A17E02682C
:10122000012922F0200208BF20320260E17E02681C
:10123000012922F0100218BF10320260217F0268DB
:10124000012922F0080208BF08320260617F0268AB
:10125000012922F0040208BF04320260D4E901C26D
:10126000D4E9033561691A432A431143ACF1010201
:101270001143C16100200121606284F82010B0BDDB
:10128000B0B586B040F60004C4F201040068A4F5CD
:10129000244200219042059102D006B0B0BD00BFAB
:1012A00041F21800C4F20200426802AD42F000723E
:1012B0004260426802F000720192019A026842F0B4
:1012C00004020260006800F00400019001984FF4ED
:1012D0000060CDE9020104912046294600F03AFA67
:1012E0004FF4805002900220039003200590204686
:1012F000294600F02FFA14200021002200F0C0FB44
:10130000142000F0ABFB06B0B0BD00007047000039
:1013100040F21C03C2F2000303F108020021FFF7B0
:1013200077BD000070470000704700007047000064
:10133000B0B5044690F8200001281DD1022084F8A1
:1013400020002068016821F00101016000F018FB15
:10135000054600BF20684068C00713D000F010FBAE
:10136000401B0B28F6D3606A40F400306062052011
:1013700084F820000120B0BD606A40F40020606263
:101380000120B0BD00206062B0BD000070470000C9
:101390007047000070470000704700007047000071
:1013A0007047000070470000014690F821000228B5
:1013B00016D10868D1E90FC3026822F00E0202605C
:1013C000026822F001020260012000FA03F2CCF868
:1013D000042081F821000020002281F8202070479D
:1013E000042088630120002281F82020704700003B
:1013F00090F82110022923D10268116821F00E0112
:1014000011602F211368C4F202018A4240F20401E4
:10141000C4F2020123F00103136015DD3023C4F28E
:1014200002039A421CD04423C4F202039A421BD006
:101430005823C4F202039A421CD14FF4803321E0B6
:1014400004218163012070470823C4F202039A42F9
:101450000ED01C23C4F202039A420BD1102311E0D8
:101460004FF480730EE000BF4FF480530AE000BFDA
:10147000012307E001F1680C4FF08073624508BF5B
:101480004FF480130B60416B4FF48072002902848B
:1014900004BF0020704780B58847002080BD000051
:1014A00010B5D0E90FCE0168DCF800300A6823FAE5
:1014B0000EF35C072AD512F0040427D00A689206BE
:1014C00003D40A6822F004020A602F22C4F2020246
:1014D000914240F20402C4F2020259DD3023C4F208
:1014E0000203994270D04423C4F20203994271D09E
:1014F0005823C4F20203994278D14FF48023136039
:10150000C16A002940F097806EE000BF9C0727D594
:1015100012F0020424D00A68920606D40A6822F067
:101520000A020A60012280F821202F22C4F202025E
:10153000914240F20402C4F2020239DD3023C4F2C7
:10154000020399425ED04423C4F2020399425DD063
:101550005823C4F2020399425ED14FF4003363E092
:101560001B0741D512F0080208BF10BD0A6822F01F
:101570000E020A60012101FA0EF2CCF80420816308
:10158000016B4FF480720029028454D12CE000BF1B
:101590000823C4F20203994222D01C23C4F202039E
:1015A000994223D140231360C16A002943D11BE033
:1015B0000823C4F2020399422CD01C23C4F2020374
:1015C000994229D120232FE04FF480631360C16A30
:1015D00089BB09E04FF480431360C16A59BB03E043
:1015E00004231360C16A31BB10BD00BF02F168045F
:1015F0004FF08063A14208BF4FF480031360C16ABB
:10160000C9B9F1E74FF400730EE000BF4FF4005387
:101610000AE000BF022307E002F168044FF0007304
:10162000A14208BF4FF400131360816A0022002911
:1016300080F82020D8D0BDE810400847002804BF1B
:10164000012070472DE9F04101684FF6F872CBF6A2
:10165000FD724CF6CD430A44CCF6CC43A2FB0323E7
:101660006FF0030707EA93030027C4F2020700F1B3
:10167000040E00F11008C0E90F739EE8045098E8CA
:1016800070010B6843F6F077BB431A4342EA0C0241
:1016900042EA0E0222432A43324342EA08020A6027
:1016A00000214FF4807281630284BDE8F041084656
:1016B0007047000090F820C0BCF1010F04BF022069
:1016C0007047F0B590F821C04FF0010EBCF1010F4A
:1016D00080F820E026D14FF0020C80F821C04FF0B6
:1016E000000CC0F838C0D0E900C4C56AC66BDCF88D
:1016F0000070102C27F00107CCF80070006C0EFA77
:1017000000F070600846CCF8043004BF10460A466A
:10171000CCF80800CCF80C20DCF8000045B140F013
:101720000E000DE0002180F820100220F0BD00BF67
:1017300020F00400CCF80000DCF8000040F00A00C3
:10174000CCF80000DCF8000040F00100CCF800000C
:101750000020F0BD2DE9F04F82B00E68002E00F0A1
:10176000FF8040F20C4C40F2004E41F20042C4F2C5
:10177000010CC4F2010EC4F201020427002401236B
:101780004FF0000A4FF00009904208BF032700976E
:1017900042E000BF012704F00C030F229A402BEA1D
:1017A000020207FA03F34FEA9A051A4346F8252086
:1017B0004E68F203DEF8002054BF22EA080242EA33
:1017C0000802CEF80020DEF80420B30354BF22EA5A
:1017D000080242EA0802CEF80420F302DEF80820EC
:1017E00054BF22EA080242EA0802B302CEF80820F7
:1017F000DCF800204FF0010354BF22EA080242EA5D
:101800000802CCF800200E680AF1010A36FA0AF242
:1018100004F1040400F0A48003FA0AFB16EA0B08A2
:10182000F1D04E684FF6FF72C1F21002964211DC01
:10183000122E55D8DFE806F0340A44485454545464
:101840005454545454545454544C5000D1F80C90A3
:1018500046E000BF4FF6FF72C1F2210296420FDC54
:101860000022C1F2110296421AD00022C1F21202E5
:10187000964215D00022C1F22102964210D02FE0EC
:101880000022C1F2220296420AD00022C1F23102A5
:10189000964205D00022C1F23202964220D100BF0A
:1018A0008A684AB1012A14BFC0F814B0C0F810B059
:1018B0004FF0080914E000BF4FF0040910E000BF2A
:1018C000CA6802F108090BE04FF0000908E000BF08
:1018D000CA6802F1040903E0CA6802F10C0900BFFA
:1018E00022460646B8F5807F24BF203A0436376882
:1018F0000F25954027EA050509FA02F22A433260CE
:10190000CA79D2067FF57FAF41F21803C4F2020311
:101910001A68AEF57E7642F001021A601A6802F08B
:1019200001020192019A2AF0030256F802B040F631
:101930000002C4F20102904210D040F60042C4F20C
:10194000010290423FF426AF41F20002C4F20102CC
:10195000009F904208BF02271DE700BF00271AE73B
:1019600002B0BDE8F08F00008068084018BF012079
:1019700070470000002A08BF090401617047000099
:1019800040F2AC10C2F200000068704740F2000064
:1019900040F2AC11C2F20000C2F2000100780A6805
:1019A000104408607047000080B542F20000C4F2A5
:1019B0000200016841F010010160032000F08CF882
:1019C0000F2000F005F800F027F8002080BD00008F
:1019D00070B540F20006C2F2000640F2080132780B
:1019E000C2F200014FF47A730968B3FBF2F20446C5
:1019F000B1FBF2F1084600F087FC0F2C4FF0010517
:101A000008D838B94FF0FF3021460022002500F0F9
:101A100037F87460284670BD82B041F21800C4F2F5
:101A200002000168022241F001010160016801F039
:101A3000010101910199416841F080514160406884
:101A400000F08050009000980420C4F2010001686A
:101A500062F31A61016002B070470000002848BFBD
:101A6000704700F01F01012202FA01F11C2202EA74
:101A7000D0004EF20012CEF20002815070470000FA
:101A800010B54EF60C5CCEF2000CDCF80030C3F35F
:101A9000022E8EF00704042C28BF0424BEF1030399
:101AA0004FF0FF3E0EFA04F438BF0023A1439940E3
:101AB0000EFA03F39A43114300F00F0200F1604362
:101AC0000901043A03F564436244002848BF02F167
:101AD0000C03197010BD00004EF60C51CEF200013F
:101AE0000A684FF6FF031A4060F30A2242F0806052
:101AF00040F0FD700860704701280FD002282DD0FB
:101B0000102808D141F20401C4F202010A6851F818
:101B1000040CC00134D40020704700BF41F204001F
:101B2000C4F20200C16940F202320A40B2F5817F7C
:101B300004BF4FF40040704701F44071B1F5407F9D
:101B40002AD0B1F5007F1CBF00207047006A49F61B
:101B50004041800701EAE070704700BF80B500F0A7
:101B6000BFF941F20401C4F2020109680222C1F383
:101B7000813102EB4101B0FBF1F0BDE880407047DC
:101B8000C2F3834015A3185CD2030DD440F60012B3
:101B9000C0F23D02504313E050F8040C4FF22441D0
:101BA000800301EAE07070470A6810A3C2F3404264
:101BB0009A5C41F20023C0F27A03B3FBF2F2504385
:101BC0000968490248BF70474AF6AB214000CAF68F
:101BD000AA21A0FB01014808704700BF02030405C9
:101BE000060708090A0B0C0D0E0F10100102000069
:101BF0002DE9F04182B00446007841F21C06C0078E
:101C0000C4F202064AD030685FEAC00808D43068DF
:101C100040F080503060306800F0805001900198B2
:101C200047F20007C4F200073868C00512D43868CC
:101C300040F480703860FFF7A3FE05463868C005A1
:101C400008D4FFF79DFE401B6428F7D9032002B09B
:101C5000BDE8F081706810F4407012D0616801F442
:101C6000407188420DD0706840F24042C4F2422276
:101C7000012320F4407113600023C00713607160DA
:101C800026D17068616820F440700843B8F1000FF5
:101C9000706003D4306820F0805030602068810785
:101CA00007D556F8181CA26821F44041114346F8A4
:101CB000181CC00607D556F8180CE16820F48000FF
:101CC000084346F8180C002002B0BDE8F08100BFC0
:101CD000FFF756FE054641F2883700BF706880075F
:101CE000CFD4FFF74DFE401BB8424FF00300F5D9AB
:101CF000EAE70000002804BF012070472DE9F04307
:101D000081B042F20008C4F202080446D8F800008C
:101D10000D4600F0070088420CD2D8F8000020F0F1
:101D200007002843C8F80000D8F8000000F00700BA
:101D3000A8426CD1206841F204098107C4F202096B
:101D400017D5410705D5D9F8001041F4E061C9F86D
:101D50000010010705D5D9F8001041F46051C9F809
:101D60000010D9F80010A26821F0F0011143C9F861
:101D70000010C00742D1D8F8000000F00700A842C8
:101D80000CD9D8F8000020F007002843C8F800005C
:101D9000D8F8000000F00700A84238D120684107B9
:101DA00007D5D9F80010E26821F4E0611143C9F8C1
:101DB0000010000708D5D9F80000216920F4605010
:101DC00040EAC100C9F80000D9F8002002F00C0078
:101DD000082841F20020C0F27A0051D143F27E235C
:101DE000C2F38341C0F60003595CD2033CD440F6F1
:101DF0000010C0F23D00484342E000BF6068022886
:101E00000AD001282AD159F8041C890308D40120DA
:101E100001B0BDE8F08300BF59F8041C8901F6D574
:101E2000D9F8001021F003010843C9F80000FFF7BA
:101E3000A7FD064641F28837D9F80000616800F036
:101E40000C00B0EB810F96D0FFF79AFD801BB842D3
:101E5000F2D9032001B0BDE8F08300BF59F8041C9B
:101E60008907D4D5DCE700BFD9F8002043F264230A
:101E7000C2F34042C0F600039A5C4843B0FBF2F064
:101E8000D9F8001043F26622C1F30311C0F6000234
:101E9000515C40F2080220FA01F140F20400C2F263
:101EA00000000068C2F200021160FFF791FD0020FF
:101EB00001B0BDE8F083000040F2080041F20401E7
:101EC000C2F20000C4F202010068096843F27622FF
:101ED000C1F30221C0F60002515CC8407047000007
:101EE00040F2080041F20401C2F20000C4F2020113
:101EF0000068096843F27622C1F3C221C0F60002ED
:101F0000515CC84070470000002804BF01207047A2
:101F10002DE9F04182B00446007841F20006C00786
:101F2000C4F202060CD0706800F00C00042840F0E7
:101F300081803068800303D56068002800F04E81FE
:101F4000207880071BD5706810F00C0F09D07068DE
:101F500000F00C00082840F08B807068C00300F18E
:101F600087803068800703D52069012840F03681DA
:101F70003068616920F0F80040EAC10030602078E4
:101F8000000713D4207840072CD4E569002D00F019
:101F90002081706800F00C00082840F0AF80012D0F
:101FA00040F00C81012002B0BDE8F081A06900285A
:101FB00000F08C800020C4F242200121C0F880147F
:101FC000FFF7DEFC054600BF706A800700F1BA80AB
:101FD000FFF7D6FC401B0228F6D9032002B0BDE86B
:101FE000F08100BFF0695FEAC00808D4F06940F0F2
:101FF0008050F061F06900F080500090009847F246
:102000000007C4F200073868C0054DD4386840F4B2
:1020100080703860FFF7B4FC054600BF3868C00523
:1020200042D4FFF7ADFC401B6428F7D9032002B06F
:10203000BDE8F081706800F00C00082803D17068DA
:10204000C0033FF576AF6068002800F00981B0F565
:10205000A02F00F01D81B0F5803F00F01D81306899
:1020600020F480303060306820F4802017E100BF19
:102070002069002840F20000C4F2422000F08C8069
:1020800001210160FFF77CFC054600BF3068800736
:102090003FF56EAFFFF774FC401B0228F6D9032012
:1020A00002B0BDE8F08100BFE068002800F09A802F
:1020B000052800F0B180012800F0B280306A20F0DD
:1020C00001003062306A20F00400ACE00020C4F26D
:1020D00042200021C0F88014FFF752FC054600BFE3
:1020E000706A80077FF54EAFFFF74AFC401B02285D
:1020F000F6D9032002B0BDE8F08100BF0027C4F28A
:10210000422700203866FFF73BFC022D05460DD123
:102110003068800140F1D680FFF732FC401B022876
:102120004FF00300F4D902B0BDE8F08130688001BF
:102130004FD5FFF725FC401B02284FF00300F5D9CF
:10214000F1E700BF40F20800C2F20000006844F668
:10215000D351C1F26201A0FB0101480A019000BF06
:1021600000BF0198411E002801913FF40BAF00BF52
:102170000198411E002801913FF404AF00BF01986F
:10218000411E002801913FF4FDAE00BF0198411EA1
:1021900000280191E4D1F5E600210160FFF7F0FB92
:1021A000054600BF306880077FF5E9AEFFF7E8FB22
:1021B000401B02284FF00300F4D9B4E77068216A8D
:1021C00000F480328A4209D1616A00F470108842BA
:1021D00004D1002002B0BDE8F08100BF012002B0B0
:1021E000BDE8F081306A20F001003062306A20F0F2
:1021F00004003062FFF7C4FB054641F2883700BF98
:10220000306A800722D5FFF7BBFB401BB8424FF076
:102210000300F5D987E700BF306A40F00400306260
:10222000306A40F001003062FFF7AAFB054641F238
:10223000883700BF306A800708D4FFF7A1FB401B36
:10224000B842F7D9032002B0BDE8F081B8F1000F21
:102250003FF59BAEF06920F08050F06195E600BF3D
:10226000306820F480303060306820F480203060A6
:10227000FFF786FB054600BF306880037FF560AE40
:10228000FFF77EFB401B64284FF00300F4D94AE7B8
:10229000306840F480203060306840F48030306036
:1022A000FFF76EFB054600BF306880033FF548AE80
:1022B000FFF766FB401B6428F6D9032002B0BDE897
:1022C000F08100BF206AB0F5803F05D17168A26837
:1022D00021F40031114371607168626A21F4741154
:1022E00011430843706001203866FFF749FB04463C
:1022F000306880013FF56DAFFFF742FB001B0228FD
:102300004FF00300F4D90EE7411E0020B0EB116F2F
:102310001CBF012070474EF21002CEF20002516045
:102320004EF62351CEF20001F0230B70072190608E
:1023300011607047704700007047000090F83C2023
:10234000012A4FF0020236D010B580F83D20026815
:10235000D2F804E0D2F808C00C682EF070032343D2
:1023600040F2FF74C4F20004A24253600ADCB2F1EE
:10237000804F13D040F20043C4F200039A420DD0C4
:1023800011E000BF42F60043C4F201039A4205D0B7
:1023900040F60003C4F200039A4204D149682CF0CD
:1023A0008003194391600121002280F83D1080F8DC
:1023B0003C20BDE81040104670470000002804BFD4
:1023C0000120704710B5044690F83D0028B9002060
:1023D00084F83C00204600F067F8022084F83D00B5
:1023E000206840F2FF730268C4F2000342F6004C1A
:1023F0009842C4F2010C15DCB0F1804F1AD040F2C3
:102400000041C4F20001884214D0984218DCB0F1B7
:10241000804F1DD040F20041C4F20001884217D025
:102420001AE000BF604505D040F60001C4F200018B
:102430008842EAD1A16822F070020A439842E6DDA0
:10244000604505D040F60001C4F20001884203D186
:10245000216922F440720A43A36922F08001D4F872
:1024600004E0E268194360450160C262C0F828E0F8
:1024700002D16169CCF8301001214161002084F85B
:10248000461084F83E1084F83F1084F8401084F819
:10249000411084F8421084F8431084F8441084F802
:1024A000451084F83D1010BD006840F20041C4F2B0
:1024B0000001884218BF704780B582B041F21C000D
:1024C000C4F202000168002241F0020101600068CC
:1024D000002100F00200019001981D20FFF7D0FAC2
:1024E0001D2002B0BDE88040FFF7B8BA90F83D105B
:1024F00001291CBF01207047022180F83D100068AF
:1025000040F2FF72C168C4F20002904241F0010142
:10251000C16009DCB0F1804F12D040F20041C4F23A
:10252000000188420CD012E042F60041C4F20101E1
:10253000884205D040F60001C4F20001884206D16D
:10254000816801F00701062904BF00207047016877
:1025500041F00101016000207047000090F83C202C
:10256000012A4FF0020200F0C28080B580F83D20C1
:10257000D0F800C04FF67772DCF8083023EA020288
:10258000CCF808200B683F2B1CDD5F2B20DD602B77
:1025900050D0B3F5005F6DD0702B40F0A080D1E932
:1025A00001E3C968DCF8082043EA0E0322F47F4205
:1025B00043EA01211143CCF80810DCF8081041F07F
:1025C00077018AE01F2B29DC63B3102B2AD086E029
:1025D000402B63D0502B40F08280D1F804E0C968D2
:1025E000DCF82030DCF8202022F00102CCF820209A
:1025F000DCF8182022F0F00242EA011123F00A026E
:1026000042EA0E02CCF81810CCF82020DCF80810B2
:1026100041F0570121F020015FE000BF202B01D0E5
:10262000302B5CD1DCF8081021F07001194341F027
:10263000070152E0D1F804E0C968DCF8203023F04B
:102640001003CCF82030DCF81830DCF8202023F41C
:10265000704322F0A00243EA013142EA0E12CCF8A4
:102660001810CCF82020DCF8081041F0670121F0A8
:10267000100132E0D1E901E3C968DCF8082043EA3F
:102680000E0322F47F4243EA01211143CCF80810E3
:10269000DCF8081041F480411FE000BFD1F804E0ED
:1026A000C968DCF82030DCF8202022F00102CCF8E8
:1026B0002020DCF8182022F0F00242EA011123F079
:1026C0000A0242EA0E02CCF81810CCF82020DCF8FE
:1026D000081041F0470121F03001CCF80810012129
:1026E000002280F83D1080F83C20BDE88040104674
:1026F000704700007047000010B501680446086983
:10270000800744BFC8685FEA807039D40869400711
:1027100044BFC8685FEA40703ED40869000744BF00
:10272000C8685FEA007045D40869C00644BFC8683D
:102730005FEAC0604AD40869C0071CBFC8685FEA86
:10274000C07051D10869000644BFC8685FEA0060E4
:1027500052D40869400644BFC8685FEA406053D459
:102760000869800646BFC8685FEA806010BD6FF0E8
:10277000200220460A61BDE81040FFF7DDBD00BF22
:102780006FF002000861012020778869800743D03C
:102790002046FFF7AFFF45E06FF00400086102201C
:1027A0002077886910F4407F40D02046FFF7A2FFD1
:1027B00042E000BF6FF00800086104202077C8697C
:1027C00080073DD02046FFF795FF3FE06FF01000F7
:1027D000086108202077C86910F4407F3AD020466D
:1027E000FFF788FF3CE000BF6FF001000861204662
:1027F00000F03EF82168A5E76FF0800008612046F0
:10280000FFF798FD2168A4E76FF0400008612046BB
:1028100000F030F82168A3E7204600F025F82046B4
:1028200000F024F82168002020776FE7204600F0B0
:102830001BF8204600F01AF82168002020776CE78A
:10284000204600F011F8204600F010F82168002022
:10285000207769E7204600F007F8204600F006F8E8
:1028600021680020207766E770470000704700006D
:10287000704700007047000070470000704700007C
:10288000B0B582B0026805461068D368546900F09C
:102890002F01202903F0200106D129B1284602B0DA
:1028A000BDE8B04000F0B0BB5FEA007C1EBF04F0A2
:1028B000010E03F4907414EB0E0441D1296BC4068D
:1028C00018D5012916D113F0100113D00020019062
:1028D000106801905068019001985069400637D403
:1028E000A88DE98DEB8D002B18BF884240F0D88071
:1028F00002B0B0BD010659D513F0800156D095F84D
:102900003D002128F4D1A868B0F5805F03D1286983
:10291000002800F0E580286A411C29620078506098
:10292000E88C01380104E884E2D1D06820F080000E
:10293000D060D06840F04000D06002B0B0BD00BFB1
:10294000C40718BF13F4807342D1430746D44CE048
:10295000A86B01684B689CB2002CC9D0A98D8C4231
:10296000C6D2EB858369202B17D0D16821F4807102
:10297000D160516921F001015161516921F040019B
:102980005161202185F83E1000212963D16821F092
:102990001001D160FEF708FDA98DE88D081A81B2FB
:1029A000284602B0BDE8B040FFF766BF40069FD59D
:1029B00013F040009CD0D068202120F04000D0606F
:1029C000284685F83D1002B0BDE8B04000F060B97F
:1029D0002B6C43F001032B64430706D5BEF1000FB7
:1029E00003D02B6C43F002032B64830706D5BEF1A2
:1029F000000F03D02B6C43F004032B64BCF1000FD9
:102A000006D55EEA010303D02B6C43F008032B6468
:102A10002B6C002B3FF46CAF800604D519B128460F
:102A200000F0F2FA2A685069296C00F0400001F0C9
:102A3000080140182CD0D06820F49070D060506904
:102A400020F001005061286B012803D1D06820F0EC
:102A50001000D060202085F83E00002028635069D7
:102A6000400637D5506920F040005061A86B88B30C
:102A700042F6FD71C0F600014163FEF7B9FC002883
:102A80003FF436AFA86B416B02B0BDE8B0400847D9
:102A90002846FFF7F3FE0020286402B0B0BD00BF57
:102AA000D368401A23F49073D360536981B223F042
:102AB00001035361202385F83E3000232B63D36844
:102AC000284623F01003D36002B0BDE8B040FFF702
:102AD000D3BE00BF284602B0BDE8B040FFF7CEBE6F
:102AE000286A30F8021B6FF35F215160286217E7F4
:102AF000002804BF0120704710B5044690F83D003F
:102B000028B9002084F83C00204600F061F8242019
:102B100084F83D002068D4E90212C36823F400530E
:102B2000C360036923F440531A430261D4E90423C8
:102B30001143C268194341F20C639A431143C160C7
:102B40004169A26921F44071114343F60002C4F2C5
:102B500001029042416103D0FFF7AEF902E000BFED
:102B6000FFF7BEF9D4E90023192148439900B0FBCF
:102B7000F1F048F21F5CC5F2EB1CA0FB0C314FF6E4
:102B80009C734909C0F6FF7301FB0300322303EB7A
:102B90000010A0FB0C03F02000EA531000EB011022
:102BA000C3F34311084490601069202120F4904041
:102BB0001061506920F02A005061D06840F4005044
:102BC000D0600020206484F83D1084F83E1010BDD1
:102BD000F0B585B040F600050446C4F20105006872
:102BE00005F5405100278842039701D005B0F0BD9C
:102BF00041F21800C4F20200016801AE41F48041C4
:102C00000160016801F4804100910099016841F080
:102C1000040101600068314600F004000090009853
:102C20004FF4007001900220029003200490284687
:102C3000FEF790FD4FF48060CDE90107284631464C
:102C40000397FEF787FD40F2DC054420C2F2000541
:102C5000C4F202001021802285E883002846C5E9DD
:102C60000327C5E90577EF61FEF7E8FC002818BFE8
:102C7000FDF756FB25200021002265636C62FEF7FC
:102C8000FFFE2520FEF7EAFE05B0F0BD704700000C
:102C900070470000FEE70000B0B58AB040F2400087
:102CA00042F200420021C2F20000C4F20102069189
:102CB000CDE90411CDE90211CDE900114FF4807383
:102CC000012501754FF46024C0E90021022105733C
:102CD000C46183600161FDF711FE002818BFFDF794
:102CE0001FFB0420CDE9070540F240000724C2F293
:102CF000000007A90994FDF7BFFC002818BFFDF7E5
:102D00000FFB40F2400007940224C2F2000007A922
:102D10000894FDF7B1FC002818BFFDF701FB042063
:102D20000090012001904FF4E04006900020ADF8A3
:102D30001400039040F2400004940724C2F2000003
:102D400069460294FDF77CFB002818BFFDF7E8FAFE
:102D50000220019040F24000C2F200006946009457
:102D6000FDF76EFB002818BFFDF7DAFA0AB0B0BD18
:102D700010B58AB040F2700046F20041C2F2000085
:102D8000C4F2000100244FF480234FF4001C0422FD
:102D900080E81600C0E90343C0E905C48483FEF758
:102DA000F5F9002818BFFDF7BBFA0E20CDE9054460
:102DB000CDE90044CDE90244049440F27004099046
:102DC0000120C2F20004CDE9070069462046FDF764
:102DD000A7FF20460221FDF72BFF2046FEF7A8FAA9
:102DE0000AB010BD80B582B041F21400C4F20200F6
:102DF0000168002241F0010101600068002100F03B
:102E00000100019001980B20FEF73AFE0B20FEF71F
:102E100025FE0E2000210022FEF732FE0E2002B019
:102E2000BDE88040FEF71ABE2DE9F04F85B041F2B3
:102E30001800C4F20200016840F6000841F01001D9
:102E400001600168C4F2010801F0100101910199CB
:102E5000016808F5006741F0200101600168002267
:102E600001F020010191019901684FF4005641F0F1
:102E7000040101600168002401F00401019101993D
:102E8000016841F00801016000684FF4005100F052
:102E90000800019001983846FEF76CFD40466E210F
:102EA00000224FF06E0BFEF765FD08F580652846A1
:102EB00040F601410022FEF75DFD019601AE4FF0A4
:102EC000010A4FF0020938463146CDE902A4CDF897
:102ED0001090FEF73FFC40463146CDE901A4039433
:102EE000FEF738FC40463146CDE901BACDE9034949
:102EF000FEF730FC40F60140CDE9010A2846314694
:102F0000CDE90349FEF726FC28463146CDE9019478
:102F10000394FEF71FFC05B0BDE8F08F80B586B0C6
:102F200040F2201040F200420021C2F20000C4F240
:102F30000002232340F2E73C0591CDE90311CDE9DE
:102F40000011C0E90023C0E9021C01618161FFF7A3
:102F500035FA002818BFFDF7E3F94FF480500290CE
:102F600040F22010C2F2000002A9FFF7F7FA002891
:102F700018BFFDF7D5F940F22010C2F200006946F3
:102F8000FFF7DCF9002818BFFDF7CAF906B080BDCD
:102F900080B540F2681043F60001C2F20000C4F2AE
:102FA000010100234FF00C0C4FF4E13280E80E00D9
:102FB000C0E90333C0E905C3C361FFF799FD0028E9
:102FC00008BF80BDBDE88040FDF7AAB9FEE700005C
:102FD000FEE700007047000070470000FEF7D6BC17
:102FE0007047000080B500F00BF940F22010C2F2EB
:102FF0000000BDE88040FFF77FBB0000406A002171
:10300000C185C184FFF73ABC90F83E10222918BF51
:10301000704783680246B3F5805F0DD152F8281FD0
:1030200052F8183C93B9026852686FF35F2221F896
:10303000022B816210E000BF52F8281F0BB9036910
:1030400023B103685B6803F07F0301E003685B68FA
:103050000B70116801311160C18D01390A04C185FD
:1030600000D070470168CA6822F02002CA60CA68AE
:1030700022F48072CA604A6922F001024A61202269
:1030800080F83E20026B012A18BFFFF7FFBD002227
:103090000263CB6823F01003CB600B68DB0607D517
:1030A00081B000920A68009249680091009901B0CD
:1030B000818DFFF7E1BB000040F26810C2F2000012
:1030C000FFF7DEBB40F27000C2F20000FDF72EBF3A
:1030D000FEE7000094B0FEF767FC00240120CDE974
:1030E0000F44CDE90D440A900E904FF4E0104FF4D8
:1030F0008031022513900AA80494CDE90244CDE959
:103100000B14CDE91151FEF7FFFE28B1EFF310804B
:1031100072B600BFFEE700BF0F20CDE905054FF4F2
:103120008060CDE9080405A802210794FEF7E2FDBE
:1031300020B1EFF3108072B6FEE700BF02200190CD
:103140004FF40040039001A8FEF752FD20B1EFF3C9
:10315000108072B6FEE700BFFFF766FEFFF742FE83
:10316000FFF79AFDFFF714FFFFF7D8FEFFF700FE09
:1031700040F60005C4F20105284640210122FEF771
:10318000F9FB05F58064204601210022FEF7F2FBE1
:10319000284608210122FEF7EDFB284620210022C7
:1031A000FEF7E8FB284604210122FEF7E3FB284650
:1031B00002210022FEF7DEFB20464FF400610122CF
:1031C000FEF7D8FB20464FF480610022FEF7D2FBC9
:1031D00040F22010C2F20000FFF788F940F24004EC
:1031E000C2F200042046FDF7A1F840F21001C2F23D
:1031F000000120460222FDF78DFC00BFFEE7000023
:1032000070B540F21006C2F20006316840F60005C3
:10321000A5203446C4F2010504F8040FC6F80510D1
:1032200005F580600221FEF79FFB707228460121A0
:10323000FEF79AFB024640F201102146B272BDE849
:103240007040FDF74BB802E008C8121F08C1002A01
:10325000FAD170477047002001E001C1121F002A17
:10326000FBD17047010200000000000000000102D5
:10327000030406070809000000000102030402031A
:103280000405060708090A0B0C0D0E0F10100000AC
:10329000B032000800000020100000004632000894
:1032A000C032000810000020A005000056320008BF
:1032B00001000000100000000024F40000000000E5
:04000005080000ED02
:00000001FF
