:020000040800F2
:1000000078B500205D020008FD6F00082D4C000847
:10001000F96F0008111A000815840008000000009C
:10002000000000000000000000000000317C00081B
:10003000D51C000800000000E17A0008657C00087B
:1000400077020008770200087702000877020008AC
:10005000770200087702000877020008770200089C
:1000600077020008D91C0008E11C0008770200088C
:10007000770200087702000877020008770200087C
:10008000770200087702000877020008770200086C
:10009000151A00087702000877020008E91C00081A
:1000A000770200087702000877020008770200084C
:1000B000B17C000877020008770200087702000888
:1000C000770200087702000877020008770200082C
:1000D00077020008FD830008770200087702000815
:1000E000770200087702000877020008770200080C
:1000F00077020008D97C0008770200087702000820
:100100007702000877020008BD7C0008770200082B
:1001100077020008770200087702000877020008DB
:1001200077020008951A0008770200087702000895
:1001300077020008770200087702000877020008BB
:10014000211A0008770200087702000877020008E9
:10015000A11A0008AD1A0008B91A0008098400089D
:10016000770200087702000877020008770200088B
:1001700077020008770200087702000800000000FC
:10018000770200087702000800F002F800F056F845
:1001900014A696E8000CB244B344DA4501D100F04D
:1001A0004DF8BAE80F000FA696E83000A5EB04055D
:1001B00004EB0607AAEB0704A7F101074FEA1515A0
:1001C0004FEA3414A4F10104AC4201D300F036F834
:1001D00013F0010F18BFFB1A43F0010300F001F800
:1001E000DBE7184724B9000044B90000103A24BFE7
:1001F00078C878C1FAD8520724BF30C830C144BF8C
:1002000004680C6070470000704700000023002461
:1002100000250026103A28BF78C1FBD8520728BF16
:1002200030C148BF0B6070471FB50AF05AFE9DE809
:10023000030000F027FF1FBD10B510BD00F0B4FF94
:100240001146FFF7F1FF08F00FFC00F0D2FF03B4F6
:10025000FFF7F2FF03BC01F003F8000009488047F4
:1002600009480047FEE7FEE7FEE7FEE7FEE7FEE798
:10027000FEE7FEE7FEE7FEE704480549054A064BB0
:1002800070470000957C00088901000878750020FF
:1002900078B5002078950020789500209FED1A1AF7
:1002A000F5EE000A40EE010ABDEEE00AF5EEC00AE6
:1002B00010EE100AF1EE10FA38BF401E00EE100AE0
:1002C0001349F7EE001AB8EEC00A30EEC00ADFEDAF
:1002D0000F0A20EE200AFCEEC00A10EE900AC0F3CE
:1002E000080000EE900A01EB8000F8EE600A90ED45
:1002F000011A70EE600A90ED000A71EEE01A21EE2C
:10030000800A00EE810A704783F9223E0000004413
:10031000F8AE0008B5EEC00AF1EE10FA07D2DFED34
:100320001E0AB4EEE00AF1EE10FAA8BF7047DFED46
:100330001B0AB5EEC00A60EE200ABDEEE01A11EE0F
:10034000100AF1EE10FA38BF401E00EE100A1549EF
:10035000F7EE001AB8EEC00A30EEC00ADFED100A60
:1003600060EE200ABCEEE00A10EE100AC0F30800AE
:1003700000EE100A01EB8000B8EE400A90ED011A81
:1003800070EEC00A90ED000A71EEE01A21EE800ACC
:1003900000EE810A70470000CD024CB483F9223E82
:1003A00000000044F8AE000870B405880E88446868
:1003B000D1F804C05368B54208D1408849888842C2
:1003C00001BF11888D425188884203D070BC6FF004
:1003D0000200704705FB00F1880827D094ED001A51
:1003E000DCED000A94ED010ADCED011A31EE201A71
:1003F000D4ED020A70EE211A9CED020A83ED001A78
:10040000C3ED011A94ED031ADCED031A30EE800AF5
:10041000401E71EE210A83ED020A04F11004C3EDBF
:10042000030A03F110030CF1100CD7D111F00300F3
:1004300030D0B0F1004F30D200282BDD211F1B1F20
:10044000ACF1040210F0010F0AD091ED010AD2EDD7
:10045000010A091D121D30EE200A83ED010A1B1D41
:10046000400817D091ED010AD2ED010A401E30EE8E
:10047000200A83ED010A91ED020AD2ED020A01F190
:10048000080102F1080230EE200A83ED020A03F1AE
:100490000803E7D170BC00207047B4EC010A401E8D
:1004A000FCEC010A30EE200AA3EC010AF5D1F1E7D9
:1004B00001804280436070472DE9F34F84B0049877
:1004C00040680090486801900498B0F800E04588C2
:1004D000DFEDFE0A00200290B0EE600AAE4506D1C4
:1004E00008884988884204BF7146864504D06FF069
:1004F000020006B0BDE8F08F01985FEA010C18BF5A
:10050000B7EE001A3DD000BFBEEB0C0117D0B1F121
:10051000004F80F01F82002911DD021F11F0010F32
:100520001CBFC2ED010A121D4B1006D0C2ED010A1C
:10053000C2ED020A08325B1EF8D100EB8100BCF16B
:100540000102A0EC011A19D0B2F1004F80F008822C
:10055000002A13DD031F12F0010F1CBFC3ED010AB7
:100560001B1D511008D000BFC3ED010AC3ED020AE4
:10057000491E03F10803F7D100EB8200BCF1010C26
:10058000C2D14FF000080395002D14BFB0EE602AD1
:10059000002000F0BF8100BF009908FB05F001EBCF
:1005A000800B0199DBED002A01EB80000346F0EEA1
:1005B000421AC64552D9AEEB0802ABEB850112F0E8
:1005C000010F17D001EB850191ED000AB5EEC00ACD
:1005D000F1EE10FA07DDB4EEE10AF1EE10FA09DDF2
:1005E000F0EE401A06E0B1EE400AF4EEC01AF1EE69
:1005F00010FAF5D3521031D001EB850C9CED000AB6
:10060000B5EEC00AF1EE10FA05DDB4EEE10AF1EE46
:1006100010FA09DD06E0B1EE400AF4EEC01AF1EE80
:1006200010FA01D2F0EE401A01EBC50191ED000A7B
:10063000B5EEC00AF1EE10FA05DDB4EEE10AF1EE16
:1006400010FA09DD06E0B1EE400AF4EEC01AF1EE50
:1006500010FA01D2F0EE401A521ECDD1F5EEC01ABA
:10066000F1EE10FA00F07381F5EEC02A0126F1EEEA
:1006700010FA0099D4BFB1EE620AB0EE620AB4EE8D
:10068000610AF1EE10FA1CBFAEEB0802B2F1010CE8
:1006900047D005FB08F201EB820292ED001A00BF81
:1006A000B0EE410A05FB06F4B5EEC00A00EB840487
:1006B000F1EE10FACCBFF0EE400AF1EE400AF4EE93
:1006C000610AF1EE10FA28D1B5EB080C11D0BCF19B
:1006D000004F7DD2BCF1000F0BDD00BF92ED000A90
:1006E000D1ED000ABCF1010CE2EC010AA1EC010A17
:1006F000F4D129000ED0B1F1004F6AD2002909DDF2
:1007000094ED000AD0ED000A491EE4EC010AA0ECC9
:10071000010AF5D1012002900BE0761CBCF1010C1E
:10072000BED10298012804D0F5EEC02AF1EE10FAED
:100730007ED09BED000AB5EB08009A465946064666
:1007400022D0B0F1004F74D200281DDD091F10F037
:10075000010F06D0F0EE400A80EEA01A81ED011ADA
:10076000091D401010D000BFD1ED010A401E80EEDF
:10077000801A81ED011A91ED021AC1EE000AC1ED55
:10078000020A01F10801EFD1280026D0B0F1004F94
:100790007ED2002821DDAAF1040110F0010F06D05D
:1007A000D1ED010A80EE801A81ED011A091D401079
:1007B00013D000BFD1ED010A401E80EE801A81EDFA
:1007C000011AD1ED020A80EE801A81ED021A01E0D1
:1007D000CBE0D6E001F10801ECD1DDE900124FF0E9
:1007E00000095FEA0E0773D0C14504BF01EB860123
:1007F00002EB850274D091ED000ADC465046331EB0
:1008000035D01C46B6F1004F7ED2002C2FDD0B1FD9
:10081000ABF1040C16F0010F0FD0F0EE400ADCED46
:10082000011AB0EE601A00EEE11A83ED011A01E040
:100830008DE0B1E01B1D0CF1040C741015D000BF4D
:10084000D3ED010A9CED011A40EE410AC3ED010A05
:10085000D3ED020A9CED021A0CF1080C40EE410A9D
:10086000C3ED020A0833641EEAD101EB86012B00B6
:1008700036D0B3F1004F72D2002B31DDA2F1040C5F
:10088000AAF1040013F0010F0CD0DCED010A00E026
:100890008BE090ED011A001D40EE410ACCED010AFB
:1008A0000CF1040C5C1019D0DCED010A90ED011A7A
:1008B00040EE410ACCED010ADCED020A90ED021A8D
:1008C000083040EE410ACCED020A03E000000000CF
:1008D0000DE005E0641E0CF1080CE5D102EB83028B
:1008E00001EB88017F1E09F101097FF47DAF0098BB
:1008F00008F10108001D00900398401E03907FF44A
:100900004BAE0299012900E058E004BF06B0BDE8F3
:10091000F08F00BFB5EEC00AF1EE10FA7FF4E9AD3A
:1009200004990EFB05F3002B4A684FF000010BD928
:1009300002EB810C9CED000AB5EEC00AF1EE10FA54
:1009400002D1491C8B42F3D88B427FF4D2AD6FF0B9
:100950000400CEE5E0EC010A491EFBD1EFE538E0EA
:10096000E0EC010A521EFBD108E692ED000AD1ED3F
:10097000000ABCF1010CE2EC010AA1EC010AF4D17D
:10098000B7E694ED000AD0ED000A491EE4EC010A36
:10099000A0EC010AF5D1BDE6D1ED000A401E80EEC3
:1009A000801AA1EC011AF7D1EEE6D3ED000A401E41
:1009B00080EE801AA3EC011AF7D10EE7BCEC011A05
:1009C000D1ED000A5B1E40EE410AE1EC010AF5D1CF
:1009D0004DE7B0EC011AD2ED000A5B1E40EE410A71
:1009E000E2EC010AF5D17BE72DE9F04F82B04668D1
:1009F00053680193058847884B8800200090088839
:100A0000874201BFB2F800C06545528893421EBFBD
:100A10006FF0020002B0BDE8F08F9FED412A4FEA6F
:100A2000970EC7F3400B00BFDDE9000202EB800A1E
:100A30004A6898464FF00009B0EE420AB4465FEAB1
:100A40000E0025D092ED001ADCED001A02EB8302B5
:100A5000DCED010A01EE810A92ED001A02EB83023D
:100A6000401ED2ED001A02EB830200EE810A9CEDDB
:100A7000021ADCED030A00040CF1100C000C01EE6C
:100A8000210A92ED001A02EB830200EE810AD9D10D
:100A900017F0030026D0ACF10404A2EB830210F09F
:100AA000010F08D002EB8302D4ED010A92ED001A87
:100AB000241D00EE810A5FEA0B0013D002EB830CC9
:100AC000D4ED010A9CED001A02EBC302401E00EEB9
:100AD000810AD4ED020A92ED001A04F1080400EE36
:100AE000810AEBD109F10100AAEC010A1FFA80F991
:100AF000486800EB8902A8F101001FFA80F8B8F1FC
:100B0000000F99D1009806EB8706184480B2009038
:100B1000681E05042D0C87D102B00020BDE8F08FBF
:100B20000000000070B405880E884468D1F804C045
:100B30005368B54208D140884988884201BF11886E
:100B40008D425188884203D070BC6FF0020070471C
:100B500005FB00F1880827D094ED001ADCED000AAF
:100B600094ED010ADCED011A31EE601AD4ED020AAF
:100B700070EE611A9CED020A83ED001AC3ED011AB2
:100B800094ED031ADCED031A30EEC00A401E71EE3C
:100B9000610A83ED020A04F11004C3ED030A03F1B4
:100BA00010030CF1100CD7D111F0030030D0B0F1CC
:100BB000004F30D200282BDD211F1B1FACF1040297
:100BC00010F0010F0AD091ED010AD2ED010A091DC2
:100BD000121D30EE600A83ED010A1B1D400817D07C
:100BE00091ED010AD2ED010A401E30EE600A83ED5C
:100BF000010A91ED020AD2ED020A01F1080102F1A7
:100C0000080230EE600A83ED020A03F10803E7D11F
:100C100070BC00207047B4EC010A401EFCEC010AD5
:100C200030EE600AA3EC010AF5D1F1E72DE9F04FAF
:100C300002884768B0F802804888D1F8049082B0F2
:100C40004FF0000A1646824207BF098888456FF0B8
:100C5000020002B018BFBDE8F08F4FEA980B02EB1C
:100C600042000190C8F34000CDF8000009EB8A0172
:100C7000BBF1000F33D0019801EB820C01EB800433
:100C80003B46E64601EBC2054FEA0B0093ED000A36
:100C9000401E81ED000A93ED010A01EB02118CED7B
:100CA000000A93ED020A0CEB021C85ED000A93ED9D
:100CB000030A05EB021584ED000A04EB021403F1AC
:100CC0001003E3D10EEB820000EB820000EB820107
:100CD000ABF10100504307EB0B1701EB001118F0CB
:100CE000030C21D03B1FA1EB82011CF0010F06D0A9
:100CF00093ED010A01EB82011B1D81ED000A0098B2
:100D000080B100BF93ED010A01EB820401EBC20147
:100D100084ED000A93ED020A401E81ED000A03F102
:100D20000803EFD107EB8C070AF101001FFA80FAE4
:100D3000701E0604360C99D102B00020BDE8F08F79
:100D400070B5A0FB0140B4F1805170F1000024BFE8
:100D5000002070BD204600F007F805001CBF2146AA
:100D600000F028F9284670BD70B5064600F06EF90F
:100D7000056806F10B0020F00704B4429CBF002078
:100D800070BD2B466A68BAB11068A04210D304F156
:100D9000080188423CBF5068586007D35168101959
:100DA00041601168091B016058601460101D70BD1E
:100DB00013465268002AE7D12146284600F04EF932
:100DC0000028DED170BD53EA020C00F069802DE9E5
:100DD000F04B4FF00006002B1FBFB3FA83F503FA68
:100DE00005F424FA05F65E4012BF1643B2FA82F506
:100DF00002FA05F4C5F120051EBF22FA05FC44EAFB
:100E00000C04203556EA044C4FEA144418BF641C05
:100E10004FF000084FF00009904271EB030C39D3FA
:100E2000002919BFB1FA81F701FA07F6B0FA80F785
:100E300000FA07F6C7F120071EBF20FA07FC46EAB2
:100E40000C062037B6FBF4FCA7EB0507103F07F0B4
:100E50001F0BCBF120062CFA06F60CFA0BFB44BF55
:100E6000B3460026202FA4BF5E464FF0000B5BEA7E
:100E7000060C08BF4FF0010B19EB0B0948EB0608F5
:100E8000ABFB027C06FB02CC0BFB03CCC01B71EB63
:100E90000C01C1E70B46024641464846BDE8F08BCF
:100EA00013B5084318BF4FF0FF300146AFF3008081
:100EB000BDE81C407047032A40F2308010F0030C5C
:100EC00000F0158011F8013BBCF1020F624498BF9D
:100ED00011F801CB00F8013B38BF11F8013BA2F13A
:100EE000040298BF00F801CB38BF00F8013B11F0B5
:100EF000030300F02580083AC0F0088051F8043B55
:100F0000083A51F804CBA0E80810F5E7121D5CBFC1
:100F100051F8043B40F8043BAFF30080D20724BFF4
:100F200011F8013B11F801CB48BF11F8012B24BF88
:100F300000F8013B00F801CB48BF00F8012B7047D7
:100F400010B5203AC0F00B80B1E81850A0E8185056
:100F5000B1E81850A0E81850203ABFF4F5AF5FEAA6
:100F6000027C24BFB1E81850A0E8185044BF18C94B
:100F700018C0BDE810405FEA827C24BF51F8043BF2
:100F800040F8043B08BF7047D20728BF31F8023B46
:100F900048BF11F8012B28BF20F8023B48BF00F8DA
:100FA000012B704702F0FF0343EA032242EA0242A8
:100FB00000F024B84FF000020429C0F0128010F0B5
:100FC000030C00F01B80CCF1040CBCF1020F18BF25
:100FD00000F8012BA8BF20F8022BA1EB0C0100F0B8
:100FE0000DB85FEAC17C24BF00F8012B00F8012B8B
:100FF00048BF00F8012B70474FF0000200B51346C0
:1010000094469646203922BFA0E80C50A0E80C5028
:10101000B1F12001BFF4F7AF090728BFA0E80C50D9
:1010200048BF0CC05DF804EB890028BF40F8042BD2
:1010300008BF704748BF20F8022B11F0804F18BF3F
:1010400000F8012B704770477047704700487047A1
:10105000C0000020704770477047704738B504469D
:101060000A4600206946AFF30080002808BF38BD5B
:1010700002460099204600F075F8012038BD012095
:1010800000F08AB8F8B5AFF30080054600200C46A2
:101090000C2000BF0646A819A0420DD93246694669
:1010A0000020AFF30080070008BF00F075F800983B
:1010B000A04218BF0546C419FFF7C8FF05600746E0
:1010C000F01D20F007004619284600F00AF8B44247
:1010D00008BFF8BDA21B31463868BDE8F84000F0F3
:1010E00041B800210160416070470C20704770B525
:1010F0000446051FFFF7AAFF0068002C14BF4468D0
:1011000070BD002C18BFAC423CBF20466468F8D3C9
:1011100001680A18AA4218BF456003D12A6805462B
:101120001144016028684119A1421CBF6C6070BD68
:101130006168696021680844286070BD10B500F0DE
:101140000DF8006810BD10B5044600F007F8046003
:1011500010BD000000487047B800002000487047EC
:10116000B8000020034640688C46002818BF88421B
:101170003CBF03464068F8D318681844884207D03B
:101180000CF1030020F00700001D411A521A01461D
:10119000081D0A60FFF7ABBF10B500F039F8BDE8D5
:1011A000104000F02FB870477546FFF7D3FFAE46EA
:1011B00005006946534620F00700854618B020B563
:1011C000FFF75AF8BDE820404FF000064FF0000747
:1011D0004FF000084FF0000BAC46ACE8C009ACE89B
:1011E000C009ACE8C009ACE8C00921F007018D4690
:1011F000704710B50446AFF300802046BDE81040AC
:10120000FFF725B8002801D000F02AB87047000089
:1012100010B5012805D0002103A000F027F8012017
:1012200010BD09A1F8E7000053494752544D454D00
:101230003A204F7574206F662068656170206D6577
:101240006D6F7279000000003A2048656170206D72
:10125000656D6F727920636F72727570746564006A
:1012600001491820ABBEFEE72600020070B5054616
:101270000C460A2000E06D1C00F011F835B128780A
:101280000028F8D102E0641C00F009F814B12078BD
:101290000028F8D1BDE870400A20AFF3008008B5FF
:1012A00069468DF800000320ABBE08BD0020C4F2E3
:1012B00002001021012201F035BC00000020C4F220
:1012C00002001021002201F02DBC000040F200407D
:1012D000C4F202000121012201F024BC40F20040CE
:1012E000C4F202000121002201F01CBC70B50446CA
:1012F000FFF7E4FF922000F071FB922000F06EFBFC
:10130000552000F06BFB40F21035C2F20005E8708A
:10131000552000F063FB2871552000F05FFB6871D9
:10132000552000F05BFBA871552000F057FBE871D9
:10133000552000F053FB2872FFF7B8FFB5F9030002
:1013400040F20806C2F2000600EE100A96ED011AFD
:10135000B8EEC00A94ED082A21EE000A22EE000A37
:1013600084ED000AB5F9050096ED011A00EE100AA9
:10137000B8EEC00A21EE000A22EE000A84ED010A4E
:10138000B5F9070000EE100AB8EEC00A21EE000A17
:1013900022EE000A84ED020AFFF7A0FF802000F091
:1013A0001DFB552000F01AFBE870552000F016FBDD
:1013B0002871552000F012FB6871552000F00EFBDB
:1013C000A871552000F00AFBE871552000F006FBDB
:1013D0002872552000F002FB6872552000F0FEFADA
:1013E000A872FFF773FFE8780F2845D1B5F905001B
:1013F000317801EE100A96ED020AB8EEC11A19B35F
:1014000094ED092AB5F9070021EE001AB5F9091083
:1014100031EE421A02EE100A94ED0A3AB8EEC22AF0
:1014200084ED031A01EE101A94ED0B4A22EE002A05
:10143000B8EEC11A32EE432A21EE000A84ED042AE6
:1014400030EE440A16E000BFB5F90700B5F90910FF
:1014500020EE011A02EE100A84ED031A01EE101AB2
:10146000B8EEC22AB8EEC11A20EE022A20EE010A16
:1014700084ED042A84ED050AFFF720FFA22000F086
:10148000ADFAA22000F0AAFA552000F0A7FAE87001
:10149000552000F0A3FA2871FFF708FFE8782979B2
:1014A000C00040EA51114FF600020023CFF6FF7250
:1014B000B3EB902F18BF114300EE101AB8EEC00A1C
:1014C000B4EE001A20EE010AB3EE071A30EE010A5C
:1014D00084ED070A70BD00002DE9F04F81B02DEDBD
:1014E000108B82B00C4640F26831C2F2000140F22B
:1014F000103A0860C2F2000A00208AF8000007F0E3
:1015000047F99AF8001008438AF8000007F0DEF95E
:101510009AF8001040EA01008AF8000084B300F055
:101520003DFB8AED050A00F039FB9AED051AB2EE93
:1015300004AA30EE410AB4EE4A0AF1EE10FA41DD97
:1015400043F6AC0041F2B061C3F62230C3F6CE11CF
:1015500041F23F62CAE9120100209FEDAE0AC4F2D7
:101560001B12C4F22020CAE91412CAF83C009FEDF5
:10157000AA1A9AF8000081EE000A8AED110A1AE010
:1015800043F6AC0148F6C437C3F62231C3F681777F
:1015900041F2B06241F23F63CAE911710021C3F622
:1015A000CE12C4F21B13C4F22021CAE91322CAF8D6
:1015B0005430CAF83C10C0B202B0BDEC108B01B080
:1015C000BDE8F08F9FED95CADFED958A9FED959A66
:1015D000B6EE00BA0024B4EE00DAB3EE07EA0AE091
:1015E00000F0DCFA9AED051A30EE410AB4EE4A0A30
:1015F000F1EE10FAA4DC9FEDF60A00F063FA4FF06A
:10160000000BCAE91244CAE9144400BFCDF804B083
:10161000FFF754FE922000F0E1F9922000F0DEF98D
:10162000552000F0DBF98046552000F0D7F905463B
:10163000552000F0D3F98146552000F0CFF9074638
:10164000552000F0CBF90446552000F0C7F90646B6
:10165000FFF72CFE48EA052000B200EE100A40F227
:101660000800C2F2000090ED011A49EA072000B21A
:1016700002EE100A44EA062000B2B8EEC00AB8EE44
:10168000C22A03EE100A21EE000A21EE022AB8EE69
:10169000C33A21EE031A22EE023A20EE004A34EE5B
:1016A000033A21EE014A34EE033AF1EEC39A8AED91
:1016B000090A9AED150A8AED0A2A8AED0B1AD34611
:1016C00030EE290A8AED150AFFF708FE802000F0A7
:1016D00085F9552000F082F90446552000F07EF986
:1016E000552000F07BF98146552000F077F9064639
:1016F000552000F073F98046552000F06FF905463B
:10170000552000F06BF98246552000F067F9074636
:10171000FFF7DCFD0F2C39D149EA062000B200EEBC
:10172000100A40F20800C2F2000090ED021AB8EE72
:10173000C00A9BED122A21EE000A48EA05208BED33
:101740000C0A30EE020A00B28BED120A00EE100A0B
:101750009BED133AB8EEC00A21EE000A4AEA0720D0
:101760008BED0D0A30EE030A00B28BED130A00EE8A
:10177000100A9BED144AB8EEC00A21EE000A8BED68
:101780000E0A30EE040A59468BED140A019CDA4623
:10179000002C49D09BED0C0AB4EE6B0AF1EE10FA66
:1017A000C8BFF0EE40BA9BED0D1AB4EE6F0AF1EE31
:1017B00010FAB4EE6C1AB8BFF0EE40FAF1EE10FA7F
:1017C000C8BFF0EE41CA9BED0E0AB4EE6E1AF1EE00
:1017D00010FAB4EE6A0AB8BFF0EE41EAF1EE10FA80
:1017E000B4EE6D0AC8BFF0EE40AAF1EE10FAF4EEC6
:1017F0004F9AB8BFF0EE40DAF1EE10FAF4EE489AE4
:10180000C8BFB0EE69FAF1EE10FAB8BFB0EE698A5F
:101810001AE000BF3F161B41C3F51C410080BB45C9
:101820009A99193E6F12033ADBED0CBADBED0EAA62
:10183000DBED0DCAF0EE6ADAF0EE6CEAF0EE6BFA70
:10184000B0EE69FAB0EE698A3FEE480AB4EE4B0A90
:101850008AED040A3BEEEF2A3CEEEE1AF1EE10FAA6
:101860003AEEED0A8AED062A8AED071A8AED080A91
:1018700019DCB4EE682AF1EE10FA14DCB4EE681A42
:10188000F1EE10FA0FDCB4EE680AF1EE10FA0ADCA1
:10189000B0EE490A00F016F941F26F70844204F18B
:1018A000010BFFF4B3AE9AED120A9AED131A9AEDFA
:1018B000142A9AED153A80EE0C0A81EE0C1A82EE8B
:1018C0000C2A83EE0C3A8AED120A8AED131A8AED7D
:1018D000142A8AED153AFFF7F1FCA22000F07EF8F9
:1018E000A22000F07BF8552000F078F8044655203F
:1018F00000F074F80546FFF7D9FCE000002440EA48
:101900005511B4EB902F4FF60000CFF6FF7018BFC3
:10191000014300EE101AB8EEC00A20EE0D0A30EEB8
:101920000E0A8AED0F0A9AED040ABAF80C00B4EE1A
:101930004B0A0130F1EE10FAAAF80C003FF750AE56
:101940009AED150A9FED231A30EE011AB0EEC11A76
:10195000B4EE4B1AF1EE10FA3FF742AE9AED061ACA
:10196000B4EE681AF1EE10FA3FF73AAE9AED071AA4
:10197000B4EE681AF1EE10FA3FF732AE9AED081A9B
:10198000B4EE681AF1EE10FA3FF72AAE9AED121A89
:101990009FED112AB0EEC11AB4EE421AF1EE10FA20
:1019A0003FF71EAE9AED131AB0EEC11AB4EE421A0A
:1019B000F1EE10FA3FF714AE9AED141AB0EEC11A18
:1019C000B4EE421AF1EE10FA3FF70AAECFE500BFCF
:1019D0000AD7A33BCDCC1CC10AD7233C80B582B02B
:1019E00040F26831C2F200010B688DF807004FF435
:1019F0007A7C0DF107010DF1060218460123CDF89E
:101A000000C001F087FD9DF8060002B080BD000017
:101A1000FEE7000040F63400C2F2000000F08ABA8F
:101A200040F65C00C2F2000000F084BA70B540F2EB
:101A30006C3440F63405C2F200040E260120002169
:101A4000C2F20005C4E90806C4E90011C4E90211A4
:101A5000C4E90411C4E906102846214600F06AF9D9
:101A6000284600F0C5FC2846022100F04BF940F65C
:101A70005C05C2F20005284621466662666100F0F8
:101A800059F9284600F0B4FC28460221BDE8704010
:101A900000F038B940F60C20C2F2000000F06CBD36
:101AA00040F64C10C2F2000000F066BD40F66C201B
:101AB000C2F2000000F060BD40F6AC10C2F20000BF
:101AC00000F05ABD41F2040040F26022CEF2000064
:101AD000C2F20002016892ED001AB8EE411A21EE3E
:101AE000000A16E00268521A01EE102AB8EE411AF6
:101AF000B4EE410AF1EE10FAD8BF70470268521AEC
:101B000001EE102AB8EE411AB4EE410AF1EE10FAD5
:101B100015DD0268521A01EE102AB8EE411AB4EE31
:101B2000410AF1EE10FA0ADD0268521A01EE102A9B
:101B3000B8EE411AB4EE410AF1EE10FAD2DC704769
:101B400010B582B041F2040ECEF2000EDEF80010A5
:101B5000009140F26021C2F20001DDF800C002688D
:101B60000B68009C0460DEF80000019001980C698D
:101B7000A04202D2C8680130C860ACEB020000EE9F
:101B8000100A01EE103A0198B8EE400AB8EE411A78
:101B900080EE010A086102B010BD00002DE9F04797
:101BA00082B041F20400CEF20000016840F2602AE7
:101BB00000910068C2F2000A01900199DAE903027B
:101BC000002791423CBF0130CAF80C000199002364
:101BD000CAF81010009E4FF0FF31E0FB0167DAE910
:101BE0000049DAF80880304639462246CAE90667D5
:101BF000FFF7E9F80546A0FB040201FB0421341AB3
:101C000067EB0106204631464A460023CAF82050B9
:101C1000FFF7D9F887B2AAF8240007FB09F0201AC9
:101C200066F1000142460023FFF7CDF801EE107A7D
:101C30009FED0D2A00EE105AB8EE411A81B2B8EEAF
:101C4000400A21EE021A31EE000A01EE101A9FED51
:101C5000072AB8EE411A21EE021A31EE000AAAF85C
:101C6000260002B0BDE8F0876F12833ABD37863593
:101C700010B54EF6FC5CCEF2000CDCF8002044F20D
:101C80004023C0F20F0342F08072584344F6D3530E
:101C9000CCF8002041F20002C1F26203CEF2000251
:101CA0004FF0000CA0FB033EC2F804C04DF6836168
:101CB0001368C4F21B31A0FB011443F00101116051
:101CC00040F26021C2F200014FEA9E12A30C81E8AB
:101CD0000D1010BD70470000082000F047BE000046
:101CE000102000F043BE000080B5202000F03EFE32
:101CF000402000F03BFE8020BDE8804000F036BE72
:101D00007047000090F82020013A012A08D80068A6
:101D100000F114020020136819431160704700BFDE
:101D200000F1240201204FF480211368194311604F
:101D30007047000090F82020013A012A30D8B0B551
:101D400046F20060C4F20000026842F00102026044
:101D5000026822F47C520260D1F814E0CC694A6A2D
:101D60000368012C43EA022202600EF01F024FF0CA
:101D7000010303FA02F2C3696FEA020C23EA0203C9
:101D8000C36113D02CBBC36803EA0C03C360CB68E8
:101D90008C8844EA034300EBCE0423640B4611E035
:101DA000416A41F48021416201207047C3681343B6
:101DB000C3600B688C8844EA034300EBCE042364C1
:101DC00001F10C038C681B8843EA044300EBCE044A
:101DD000636443688D6943EA0204D1F810E0096A3C
:101DE000002D08BF03EA0C0444604369BEF1000FF4
:101DF00043EA020408BF03EA0C040129446102D14A
:101E0000C1691143C161016821F001010160002035
:101E1000B0BD00007047000010B590F82040013CB4
:101E2000012C73D8D0F800C000290CBFDCF80C409E
:101E3000DCF81040A40773D00CEB011CDCF8B041B7
:101E40000CF5D87E14F004049460DCF8B04119BF9E
:101E5000E4085460640D1460DEF80040002904F0CA
:101E60000204D460DCF8B44104F00F041461DCF81F
:101E7000B441C4F307249461DCF8B4414FEA14443C
:101E80005461DCF8B8211A70026802EB0112D2F832
:101E9000B8214FEA12225A70026802EB0112D2F8FE
:101EA000B8214FEA12429A70026802EB0112D2F88E
:101EB000B8214FEA1262DA70026802EB0112D2F81E
:101EC000BC211A71026802EB0112D2F8BC214FEA60
:101ED00012225A71026802EB0112D2F8BC214FEAB9
:101EE00012429A71026802EB0112D2F8BC214FEA49
:101EF0001262DA7100680CBF00F10C0100F11001F0
:101F0000002020220B681A430A6010BD00F1240152
:101F100001204FF480220B681A430A6010BD00BFF5
:101F200000F1240101204FF400120B681A430A60EB
:101F300010BD00002DE9F04F81B0044600684669ED
:101F4000D0F804908768D0F80CB0D0F810A0D0F882
:101F50001880F10704D1002530071DD424E000BF0C
:101F6000F90710D00121BA07816009D4780700F180
:101F7000AF80380700F1B680204600F067FA02E033
:101F8000204600F065FA0025F80500F18780F80387
:101F900000F1B180300707D51BF0100004D0206895
:101FA00045F400751021C160700708D51BF00800CA
:101FB00005D020680821C160204600F0F5F9B0077F
:101FC00006D52068C068800702D0204600F0EEF9F0
:101FD000700607D51AF0100004D0206845F480651B
:101FE00010210161B00608D51AF0080005D020685C
:101FF00008210161204600F0F5F9F00606D52068B9
:102000000069800702D0204600F0EEF9B00308D541
:1020100019F0100005D0206810214160204600F022
:10202000E5F9F00308D519F0080005D0206808216B
:102030004160204600F016FA300440F19B805FEAD0
:10204000497040F1948006F4807008EA102028431B
:102050005FEA8871014648BF41F00201B20558BFEE
:1020600001465FEA48700D4648BF45F0040570051B
:1020700058BF0D46300540F17A8018F0700000F02E
:1020800076801038000905286CD8DFE800F0035985
:102090005D61656945F0080564E000BF20684FF4A4
:1020A0008071BA0581600BD4780515D438051DD42C
:1020B000204600F0CFF9F8037FF56CAF1BE000BFBE
:1020C000204600F0C9F9F8037FF564AF13E000BFC4
:1020D0004FF4006558E700BF05F50055F8037FF59C
:1020E00059AF08E04FF480554EE700BF05F5804535
:1020F000F8037FF54FAF20684FF48031BA03816059
:102100000AD4780310D4380314D4204600F0A6F97A
:1021100030073FF541AF47E7204600F0A1F930070F
:102120003FF53AAF40E700BF05F5004530073FF502
:1021300033AF39E705F5803530073FF52DAF33E78D
:1021400045F010050EE000BF45F020050AE000BF95
:1021500045F0400506E000BF45F0800502E000BF05
:1021600045F480752068816921F0700181612068E3
:102170000421416055B1606A40EA05012046616270
:1021800001B0BDE8F04FFFF745BE00BF01B0BDE8AC
:10219000F08F0000002804BF01207047B0B504464E
:1021A00090F8200010B9204600F06EF82068016811
:1021B00041F00101016000F0BBFC05462068416868
:1021C000C90705D100F0B4FC401B0B28F6D310E082
:1021D000016821F00201016000F0AAFC054600BF81
:1021E0002068416889070DD500F0A2FC401B0B2830
:1021F000F6D3606A052140F400306062012084F863
:102200002010B0BD217E0268012922F0800208BFA3
:1022100080320260617E0268012922F0400208BF1C
:1022200040320260A17E0268012922F0200208BF2C
:1022300020320260E17E0268012922F0100218BFFC
:1022400010320260217F0268012922F0080208BFD3
:1022500008320260617F0268012922F0040208BF8F
:1022600004320260D4E901C2D4E9033561691A433A
:102270002A431143ACF101021143C1610020012145
:10228000606284F82010B0BD10B586B0006846F6D4
:102290000002C4F2000200219042CDE90411CDE910
:1022A0000211019134D046F20041C4F2000188428B
:1022B00077D140F29431C2F200010A6843F640003F
:1022C000C4F20200531C0B6052B900210091016856
:1022D00041F000710160016801F000710091009906
:1022E0000021009150F8101C142441F0080140F81E
:1022F000101C50F8100C032100F00800009000980A
:1023000040F20040C4F2020000F5006035E000BF7A
:1023100043F64000C4F202000091016841F0806180
:102320000160016801F080610091009940F29431F0
:10233000C2F200010A68531C0B6052B900210091DF
:10234000016841F000710160016801F000710091C5
:1023500000990021009150F8101C402441F0020126
:1023600040F8101C50F8100C602100F002000090A2
:10237000009840F20040C4F2020001910221029153
:1023800000210391032104910921059101A900F085
:10239000F9FA20460521002200F08AFC204600F0D0
:1023A00075FC06B010BD000070470000B0B540F2EB
:1023B0008824C2F2000404F10802002123460546E5
:1023C000FFF72AFD40F65C00C2F20000854218BF0C
:1023D000B0BDD4E9000140F2DE22C2F20002516039
:1023E0001060B0BD704700007047000070470000EB
:1023F000B0B5044690F8200001281DD1022084F8D1
:1024000020002068016821F00101016000F090FBCC
:10241000054600BF20684068C00713D000F088FB65
:10242000401B0B28F6D3606A40F400306062052040
:1024300084F820000120B0BD606A40F40020606292
:102440000120B0BD00206062B0BD000070470000F8
:1024500070470000704700007047000070470000A0
:102460007047000070470000002804BF012070473B
:1024700010B50446407918B101206071002010BDEC
:1024800000202071204600F005F801206071002036
:1024900010BD000043F63001C4F202010068A1F54E
:1024A0000362904218BF704781B000200090086816
:1024B00040F480500860086800F480500090009854
:1024C00001B0704770B5866D044600F031FB94F89A
:1024D0003510022928D105462068216C026822F0B7
:1024E00016020260426922F08002426109B9A16CC1
:1024F00019B1016821F008010160016821F00101B2
:10250000016000BF20680068C00715D000F010FB14
:10251000401B0628F6D320206065032084F8350090
:10252000002184F8341070BD8020606501200021F6
:1025300084F8341070BD00BFE06D3F2101FA00F057
:10254000B060012084F835000020002184F83410A8
:1025500070BD000090F83510022909D1052180F8DE
:1025600035100068016821F001010160002070470A
:102570008021416501207047F0B581B004460020FC
:10258000009040F2AC00C2F200000268D4E916608C
:1025900048F2B51337680821C1F64E3381403942FD
:1025A000A2FB03250CD0226813685B0708D51368CB
:1025B00023F004031360B160616D41F001016165B6
:1025C00001218140394208D022685269120604D59F
:1025D000B160616D41F002016165042181403942C1
:1025E00008D022681268920704D5B160616D41F08D
:1025F0000401616510218140394217D020680268CA
:10260000120713D5B16002680168520308D4C905E6
:1026100008D4016821F008010160216C21B905E0AE
:1026200008033FD4216C09B120468847E16D202082
:1026300000FA01F23A4241D020680368DB063DD53A
:10264000B26094F835300268052B1BD122F01602D7
:102650000260426922F080024261226C0AB9A26CD7
:102660001AB1026822F0080202603F208840B06080
:10267000012084F83500216D0020002984F8340001
:1026800052D157E00168520310D4C90512D4016831
:1026900021F010010160012084F83500002084F849
:1026A000340007E0A16C0029BED1BFE7080301D4C4
:1026B000616C00E0E16B09B120468847606DC8B3EA
:1026C000606DC0072ED0052084F835002068A90A67
:1026D000026822F001020260009A01328A420092EE
:1026E0001AD80268D20717D0009A01328A420092A3
:1026F00012D80268D2070FD0009A01328A420092A3
:102700000AD80268D20707D0009A01328A420092A2
:1027100002D80268D207DFD1012084F835000020FA
:1027200084F83400E16C29B1204601B0BDE8F040E6
:10273000084700BF01B0F0BD2DE9F041044600F0AC
:10274000F7F9ECB10546022084F835000020216835
:1027500084F83400086820F00100086021680868E7
:10276000C00711D000F0E4F9401B0528F6D9032575
:1027700020230320636584F83550BDE8F08100BF55
:102780000120BDE8F08100BF086848F23F02CFF2A7
:102790001002D4E9013500EA020C04F10C0898E8B3
:1027A000C10143EA0C032B431843D4E9072E3043FD
:1027B00038431043626A40EA0E00042A40EA0803E4
:1027C0001CD1206BD4E90A2E40EA0E0018430860A1
:1027D0004869BEF1000F20F0030040EA020040F01B
:1027E000040C11D0B8F5005F36D0B8F1000F45D118
:1027F000022A46D0012A3BD032B942E00B60486938
:1028000020F0070040EA020C01F0F8004AF6AB2283
:102810001038CAF6AA22A0FB02231A094BF6A40319
:10282000C1F814C0C0F600039A5C40F2FF335F2881
:102830004FF03F0021EA030100FA02F088BF0431A3
:10284000C4E916128860002301250020636584F81E
:102850003550BDE8F08100BF032AD5D801254023BB
:102860000120DFE802F0030E030500BF82E700BF8E
:10287000AEF1C070B0FA80F0400904E0032A04D33E
:10288000C2D1CEF300600028BED001254023012034
:10289000636584F83550BDE8F081000090F834C0DD
:1028A000BCF1010F04BF0220704770B54FF0010C5E
:1028B00080F834C0D0F858E090F835C0BCF1010F72
:1028C00038D14FF0020C80F835C04FF0000CC0F842
:1028D00054C0D0F800C08468056CC06DDCF800609E
:1028E000402C26F48026CCF80060CCF804300B464F
:1028F00004BF13460A463F2101FA00F0CCF8083025
:10290000CCF80C20CEF80800DCF8000040F01600EF
:10291000CCF800002DB1DCF8000040F00800CCF845
:102920000000DCF8000040F00100CCF800000020BE
:1029300070BD00BF002180F83410022070BD00007F
:10294000B0B5044600F0F4F8054640F20000C2F2CB
:1029500000000078611C18BF044400BF00F0E8F8D4
:10296000401BA042FAD3B0BD7047000043F61441AB
:10297000C4F201010A68024214BF08607047FFF701
:10298000F3BF00002DE9F04F82B000F13E4707F1A0
:10299000FF77860546EA972741F60046C4F202060D
:1029A000082243F6004EB04208BF0722C4F2010ECF
:1029B000072F38BF3A46002600274FF00008009244
:1029C00009E000BF08F101080237B8F1100F06F165
:1029D000040600F0A3800D68012202FA08F415EA4B
:1029E0000409EFD0D1F804B003220BF0030CACF1D2
:1029F0000105BA40012D6FEA020A0FD88268CD683E
:102A000002EA0A02BD402A4382604268A243CBF335
:102A1000001404FA08F42243426005E0BCF1030FFD
:102A200002D14FF0030C1EE0C2688C6802EA0A0271
:102A3000BC402243BCF1020FC26014D16FF003020C
:102A400002EA58020244D2F820C006F01C040F2308
:102A50000D69A3402CEA0303A5402B431362D1F870
:102A600004B00BF0030C02680CFA07F302EA0A0246
:102A70001A431BF4403F0260A4D0002243F64403F3
:102A80000192C4F202031A684FF6084C42F48042E5
:102A90001A601A68CFF6FF7C02F480420192019A14
:102AA00028F00302724452F80C3006F00C050F2493
:102AB000AC40A343009C04FA05F52B4342F80C30CC
:102AC000DEF808204B6842EA090543F60C4CDC02AC
:102AD00058BF22EA0905CEF80850C4F2010CDCF810
:102AE00000209C0242EA090558BF22EA0905CCF8F9
:102AF0000050DEF804209C0342EA090558BF22EA90
:102B00000905CEF80450DEF80020DB0342EA09058F
:102B100058BF22EA0905CEF8005053E702B0BDE8DD
:102B2000F08F0000002A08BF09048161704700008F
:102B300046F68860C2F200000068704740F200006C
:102B400046F68861C2F20000C2F2000100780A680D
:102B5000104408607047000080B543F60040C4F29E
:102B60000200016841F400710160016841F4806174
:102B70000160016841F480710160032000F0C4F835
:102B8000002000F005F800F05FF8002080BD000094
:102B900070B586B0002543F640010195C4F20201EC
:102BA0000A68044642F001020A60096801A801F0BF
:102BB000010101910199694600F068F9049E002E17
:102BC00018BF012600F082F94DF68361B040C4F2CF
:102BD0001B31A0FB01014FF0FF3000EB914140F6AB
:102BE000FC30C2F200004FF0804240F2E733C0E90F
:102BF0000021C0E902530561856100F09FFE054692
:102C000010B1284606B070BD40F6FC30C2F200009C
:102C100000F01EFF05460028F3D11C2000F036F816
:102C20000F2C0DD81C2021460022002500F040F872
:102C300040F20400C2F200000460284606B070BDF5
:102C40000125284606B070BD82B0002043F6400141
:102C50000190C4F202014A6842F480424A604A6824
:102C600002F480420192019A00900868002240F02C
:102C70008050086008680F2100F080500090009894
:102C80006FF0010002B000F013B80000002848BF48
:102C9000704700F01F01012202FA01F11C2202EA32
:102CA000D0004EF20012CEF20002815070470000B8
:102CB00010B54EF60C5CCEF2000CDCF80030C3F31D
:102CC000022E8EF00704042C28BF0424BEF1030357
:102CD0004FF0FF3E0EFA04F438BF0023A1439940A1
:102CE0000EFA03F39A43114300F00F0200F1604320
:102CF0000901043A03F564436244002848BF02F125
:102D00000C03197010BD00004EF60C51CEF20001FC
:102D10000A684FF6FF031A4060F30A2242F080600F
:102D200040F0FD7008607047002804BF0120704724
:102D30002DE9F04143F60808C4F202080446D8F829
:102D4000F8030D4600F00700884207D288F8F853D0
:102D5000D8F8F80300F00700A84277D1206881076F
:102D600017D5410705D5D8F8001041F4E051C8F84F
:102D70000010010705D5D8F8001041F46041C8F8EB
:102D80000010D8F80010A26821F0F0011143C8F833
:102D90000010C00740D1D8F8F80300F00700A8429F
:102DA00007D988F8F853D8F8F80300F00700A842CC
:102DB0004CD12068410707D5D8F80010E26821F40B
:102DC000E0511143C8F80010000708D5D8F80000FA
:102DD000216920F4604040EAC100C8F8000000F01A
:102DE0009DF8D8F800104BF2FC62C1F30311C0F655
:102DF0000002515C40F2AC0220FA01F140F2040002
:102E0000C2F200000068C2F200021160FFF7C0FECB
:102E10000020BDE8F08100BF6068811E022907D252
:102E200058F8081C89015CBF0120BDE8F08111E061
:102E3000012807D158F8081C89035CBF0120BDE8B0
:102E4000F08107E058F8081C890703D40120BDE889
:102E5000F08100BFD8F8001021F003010843C8F842
:102E60000000FFF765FE064641F28837D8F80000FB
:102E7000616800F00C00B0EB810F8CD0FFF758FEBA
:102E8000801BB842F2D90320BDE8F0810F22026016
:102E900043F60802C4F20202136803F0030343601E
:102EA000136803F0F0038360136803F4E053C36016
:102EB000D2F800C04FF4E05303EADC030361D2F818
:102EC000F80300F0070008607047000040F2AC0013
:102ED00043F60801C2F20000C4F20201006809686A
:102EE0004BF20C72C1F38221C0F60002515CC84063
:102EF0007047000040F2AC0043F60801C2F2000047
:102F0000C4F20201006809684BF20C72C1F342314D
:102F1000C0F60002515CC8407047000010B543F68F
:102F20000404C4F20204606800F00C0008280BD00E
:102F3000042819BF42F20040C0F2F40041F600300C
:102F4000C0F2B70010BD00BF2068216823684902A5
:102F500041F60031C0F2B70100F03F02C3F3881020
:102F60005CBF42F20041C0F2F401A1FB000100236A
:102F7000FDF729FF21680222C1F3014102EB410163
:102F8000B0FBF1F010BD0000002804BF0120704725
:102F90002DE9F04182B00446007843F60006C007F0
:102FA000C4F202060CD0B06800F00C00042840F017
:102FB00081803068800303D56068002800F06A8152
:102FC000207880071BD5B06810F00C0F09D0B068CE
:102FD00000F00C00082840F087807068400200F183
:102FE00083803068800703D5E068012840F0528173
:102FF0003068216920F0F80040EAC1003060207894
:10300000000713D4207840072AD4A569002D00F0CA
:103010003C81B06800F00C00082840F0A180012D30
:1030200040F01081012002B0BDE8F0816069002805
:1030300040F20000C4F2472000F07E800121C0F879
:10304000801EFFF775FD0546706F8007DAD4FFF725
:103050006FFD401B0228F7D9032002B0BDE8F081C4
:10306000306C5FEAC0080AD400200190306C40F058
:1030700080503064306C00F080500190019847F22D
:103080000007C4F200073868C00547D4386840F428
:1030900080703860FFF74CFD054600BF3868C005FA
:1030A0003CD4FFF745FD401B0228F7D9032002B0AE
:1030B000BDE8F081B06800F00C00082803D170680A
:1030C00040023FF576AF6068B0F5803F07D0B0F5BD
:1030D000A02F40F09B80306840F480203060306842
:1030E00040F4803030609BE0E06800285CD0002035
:1030F000C4F2472001210160FFF71AFD054600BF19
:10310000306880073FF574AFFFF712FD401B0228BF
:10311000F6D9032002B0BDE8F08100BFA068012805
:1031200005D0052854D1306F40F004003067306F6F
:1031300040F00100306755E00021C0F8801EFFF725
:10314000F7FC0546706F80077FF55CAFFFF7F0FC7A
:10315000401B0228F6D9032002B0BDE8F08100BF71
:103160000027C4F2472700203866FFF7E1FC022D54
:1031700005460DD13068800140F19080FFF7D8FC02
:10318000401B02284FF00300F4D902B0BDE8F081E3
:103190003068800179D5FFF7CBFC401B02284FF047
:1031A0000300F5D9F1E700BF0020C4F24720002159
:1031B0000160FFF7BDFC0546306880077FF51FAF53
:1031C000FFF7B6FC401B02284FF00300F4D9DCE700
:1031D000316F002821F001013167316F21F00401C6
:1031E00031677DD0FFF7A4FC054641F2883700BF68
:1031F000306F800700F18680FFF79AFC401BB842D1
:10320000F6D9032002B0BDE8F08100BF3168002884
:1032100021F480313160316821F4802131607BD02C
:10322000FFF786FC054600BF306880033FF5C8AE57
:10323000FFF77EFC401B6428F6D9032002B0BDE8EE
:10324000F08100BF7068E16900F480028A4221D1F8
:10325000216A00F03F028A421CD147F6C071626ABF
:103260000140B1EB821F15D1A16A4FF6FF73C9036C
:10327000994300F44032A1F580318A420AD1E16AD3
:1032800000F07060B0EB016F04D1002002B0BDE827
:10329000F08100BF012002B0BDE8F08104F11C05FF
:1032A0002FCD084340EA8210D9034FF6FF729143B5
:1032B000A1F5803140EA056008437060012038665E
:1032C000FFF736FC044600BF30688001DDD4FFF70D
:1032D0002FFC001B02284FF00300F5D955E700BF73
:1032E000FFF726FC054641F2883700BF306F8007A4
:1032F00008D5FFF71DFC401BB8424FF00300F5D97D
:1033000043E700BFB8F1000F3FF57FAE306C20F00F
:103310008050306479E600BFFFF70AFC054600BF25
:10332000306880037FF54CAEFFF702FC401B642839
:103330004FF00300F4D928E770B538B10446406A6D
:1033400030B10020206104F1140007E0012070BDBD
:103350006068B0F5827F03D004F11C000021016099
:103360000026A66294F8510020B9204684F85060E7
:1033700000F03CF8022084F8510094E80F0001F4BA
:103380008271056802F4044225F04005056011448D
:1033900003F400622369114403F0020263691144DB
:1033A00003F00102A369E569114403F400721144BA
:1033B00005F03802256A114405F08002A56A114320
:1033C00005F4005211430160626A042101EA1341CD
:1033D00002F0100211444160C16921F40061C16131
:1033E0000120666584F85100304670BD2DE9F04F2C
:1033F00085B00446006843F20007C4F20107B842F2
:1034000002D005B0BDE8F08F002643F630000096EC
:10341000C4F2020041696D4641F480514161416945
:103420004FF0020901F48051009100990096016863
:103430004FF0010A41F00201016001684FF0030BF7
:1034400001F0020100910099009601684FF0050813
:1034500041F0010101600068294600F00100009080
:1034600000981820009007F55440CDF80490CDF84E
:1034700008A0CDF80CB0CDF81080FFF783FA8020BB
:103480008DE8010ECDF8108046F2404807F5504017
:103490002946C4F20208FFF775FA40F68C05C2F21D
:1034A00000054FF440304FF0C0674FF48069C5E924
:1034B00008062846C5E90087C5E90266C5E90496FD
:1034C000C5E90666FFF738F9002818BFFEF718FCB3
:1034D000E564AC6340F6EC0508F11800C2F20005A3
:1034E0004021C5E9000705F1080080E842024FF4D9
:1034F0000030C5E908062846C5E90566EE61FFF714
:103500001BF9002818BFFEF7FBFBA564AC6305B0F0
:10351000BDE8F08F2DE9F04383B0044690F85000E9
:10352000012803D1022003B0BDE8F08301201E462C
:1035300015460F4684F85000FFF7FAFA94F8511038
:10354000814601290DD06068B0F5827F40F0A280ED
:1035500004294FF0020040F05E81A168002940F08C
:103560005A81002F4FF0010018BF002D00F0538149
:10357000002E00F0508194F85100002104281CBF57
:10358000052084F851006165A563E687A687276357
:10359000E6862068A686216461640168490603D432
:1035A000016841F0400101606168731EE268B1FA90
:1035B00081F1B3FA83F3DDF8288049095B09B2F59C
:1035C000006F41EA030167D131B137F8021BC160D6
:1035D0002763E08E0138E086012518F1010032D121
:1035E00002E000BFFFF7A4FAE08E18B9E08F0028D0
:1035F00000F0BA802068816889070CD5E18E51B14E
:10360000012D08D1216B002531F8022BC260216306
:10361000E18E0139E1868168C907E3D0E18F002995
:10362000E0D0C068A16B012521F8020BA163E08FF7
:103630000138E087D6E700BFFFF77AFAA0EB090070
:10364000404580F0E780E08E18B9E08F002800F058
:103650008B802068816889070CD5E18E51B1012DDE
:1036600008D1216B002531F8022BC2602163E18E65
:103670000139E1868168C907DED0E18F0029DBD0FE
:10368000C068A16B012521F8020BA163E08F01380E
:10369000E087D1E70220BEE039B139780173206BB1
:1036A00001302063E08E0138E086012518F1010029
:1036B00032D101E0FFF73CFAE08E10B9E08F00282C
:1036C00052D02068816889070ED5E18E61B1012D45
:1036D0000AD1216B002509780173216B2068013123
:1036E0002163E18E0139E1868168C907E2D0E18F6B
:1036F0000029DFD0C068A16B01250870A06B0130E4
:10370000A063E08F0138E087D4E700BFFFF710FA2D
:10371000A0EB090040457DD2E08E08B9E08F18B3D8
:103720002068816889070ED5E18E61B1012D0AD12B
:10373000216B002509780173216B20680131216319
:10374000E18E0139E1868168C907DFD0E18F002968
:10375000DCD0C068A16B01250870A06B0130A063AC
:10376000E08F0138E087D1E740F2AC00C2F2000000
:10377000006849F68171C1F25E61A0FB0101480D4C
:103780004FF47A71484302906068B0F5827F0FD1A0
:103790002046802142464B4604F0D4F960B3606D68
:1037A00040F02000606520206065012033E000BF0C
:1037B000029808B3029801380290206880680006D9
:1037C0001AD50298C0B1029801380290206880682A
:1037D000000611D5029878B102980138029020684D
:1037E0008068000608D5029830B10298013802902E
:1037F000206880680006DBD4A06800284FF0000035
:1038000009D101902168CA680192896801910199E2
:1038100001E000BF0320012184F85110002184F849
:10382000501003B0BDE8F0837047000070470000FF
:1038300090F83C20012A04BF02207047B0B501F186
:1038400008053CCDD1E900CE23F47C5322F470521C
:103850001A432EF4F0431A432CF4E0431A4324F4A1
:10386000C0431A432A43C96922F4804203681143C2
:103870005964002180F83C10BDE8B040084670470C
:1038800090F83C20012A4FF0020254D010B580F885
:103890003D200268D2F804E0D2F808C00C682EF08F
:1038A0007003234341F2FF74C4F20004A242536048
:1038B0000EDC40F2FF73C4F200039A4216DCB2F150
:1038C000804F2BD040F20043C4F2000324E000BF3D
:1038D00040F2FF33C4F201039A4213DC41F60003C5
:1038E000C4F200039A4219D0002313E040F600030B
:1038F000C4F200039A4211D040F60043C4F2000320
:103900000AE000BF44F20003C4F201039A4205D06A
:1039100040F20043C4F201039A4204D149682CF0FA
:103920008003194391600121002280F83D1080F846
:103930003C20BDE81040104670470000002804BF3E
:103940000120704710B5044690F83D0028B90020CA
:1039500084F83C00204600F01FF8022084F83D0067
:103960002068211D04F0BEF9012084F8460084F887
:103970003E0084F83F0084F8400084F8410084F859
:10398000420084F8430084F8440084F8450084F839
:103990003D00002010BD000080B584B0006844F2F6
:1039A0000041C4F20101884226D042F20001C4F273
:1039B0000001884232D040F60041C4F20001884242
:1039C00029D10020039043F64000C4F202000168B0
:1039D000002241F0080101600068052100F00800A4
:1039E000039003983220FFF763F9322004B0BDE85A
:1039F0008040FFF74BB900BF0020029043F6400023
:103A0000C4F20200416841F400314160406800F4B2
:103A100000300290029804B080BD00BF00200190E9
:103A200043F64000C4F202000168002241F48071B4
:103A300001600068052100F48070019001982D203C
:103A4000FFF736F92D2004B0BDE88040FFF71EB91E
:103A500090F83D1001291CBF01207047022180F819
:103A60003D10006841F2FF72C168C4F2000290424A
:103A700041F00101C1600DDC40F2FF71C4F20001B0
:103A8000884215DCB0F1804F2AD040F20041C4F2E8
:103A9000000123E040F2FF31C4F20101884213DC4F
:103AA00041F60001C4F20001884219D0002113E060
:103AB00040F60001C4F20001884211D040F60041F6
:103AC000C4F200010AE000BF44F20001C4F20101A7
:103AD000884205D040F20041C4F20101884206D17B
:103AE000816801F00701062904BF002070470168C2
:103AF00041F00101016000207047000090F83C2077
:103B0000012A4FF0020200F0C58080B580F83D2008
:103B1000D0F800C04FF67772DCF8083023EA0202D2
:103B2000CCF808200B684F2B28DC1F2B44DD202B02
:103B300045D0302B43D0402B40F0AE80D1F804E08C
:103B4000C968DCF82030DCF8202022F00102CCF833
:103B50002020DCF8182022F0F00242EA011123F0C4
:103B60000A0242EA0E02CCF81810CCF82020DCF849
:103B7000081041F0470121F0300180E06F2B27DD74
:103B8000B3F5005F48D0B3F5805F7AD0702B40F07A
:103B90008380D1E901E3C968DCF8082043EA0E0319
:103BA00022F47F4243EA01211143CCF80810DCF8EB
:103BB000081041F0770162E00BB1102B6CD1DCF8FA
:103BC000081021F07001194341F0070157E000BFD0
:103BD000502B35D0602B5FD1D1F804E0C968DCF8F8
:103BE000203023F01003CCF82030DCF81830DCF85B
:103BF000202023F4704322F0A00243EA013142EA7C
:103C00000E12CCF81810CCF82020DCF8081041F087
:103C1000670121F0100132E0D1E901E3C968DCF865
:103C2000082043EA0E0322F47F4243EA01211143B4
:103C3000CCF80810DCF8081041F480411FE000BF08
:103C4000D1F804E0C968DCF82030DCF8202022F04C
:103C50000102CCF82020DCF8182022F0F00242EA21
:103C6000011123F00A0242EA0E02CCF81810CCF837
:103C70002020DCF8081041F0570121F02001CCF899
:103C800008100022012180F83D10002180F83C102E
:103C9000BDE88040104670470122F3E770470000FE
:103CA00010B5016804460869800744BFC8685FEA28
:103CB000807039D40869400744BFC8685FEA407023
:103CC0003ED40869000744BFC8685FEA007045D465
:103CD0000869C00644BFC8685FEAC0604AD4086982
:103CE000C0071CBFC8685FEAC07051D108690006F0
:103CF00044BFC8685FEA006052D40869400644BF08
:103D0000C8685FEA406053D40869800646BFC86847
:103D10005FEA806010BD6FF0200220460A61BDE8B6
:103D20001040FFF783BD00BF6FF002000861012063
:103D300020778869800743D02046FFF7AFFF45E032
:103D40006FF00400086102202077886910F4407F3A
:103D500040D02046FFF7A2FF42E000BF6FF008000E
:103D6000086104202077C86980073DD02046FFF70E
:103D700095FF3FE06FF01000086108202077C869C8
:103D800010F4407F3AD02046FFF788FF3CE000BFA8
:103D90006FF001000861204600F028FA2168A5E7CD
:103DA0006FF0800008612046FFF73EFD2168A4E720
:103DB0006FF040000861204600F020FA2168A3E778
:103DC000204600F025F8204600F07EF9216800200A
:103DD00020776FE7204600F01BF8204600F074F9CA
:103DE0002168002020776CE7204600F011F820467B
:103DF00000F06AF921680020207769E7204600F08A
:103E000007F8204600F060F921680020207766E777
:103E10007047000090F83C30012B04BF022070472F
:103E20004FEAB202032A00F201812DE9F043DFE8F4
:103E300002F0033F7FBF00BF036840F200461A6AEA
:103E400043F4806522F001021A621C6A1A46D3F814
:103E500004C052F818EF8F6824F00204C4F201067F
:103E6000B54244EA070405D1CF6824F00C0427F0DA
:103E700004073C430F68B54206D1D1E905582CF43C
:103E800040762E4346EA080C2EF073063743C3F8FB
:103E900004C09F614F6809695F631C629F6947F0B6
:103EA00008079F619F6927F004079F61B2E000BF88
:103EB000036840F200481A6A43F4806522F0100259
:103EC0001A621C6A1A46D3F804C052F818EF8F68B9
:103ED00024F02004C4F20108454544EA071407D140
:103EE000CF686FF0400624F0C00406EA071634439A
:103EF000D1F80090454506D1D1E905562CF440672C
:103F00002E4347EA860C2EF4E64747EA0927C3F812
:103F100004C09F614F6809699F631C629F6947F4F1
:103F200000679F619F6927F480679F6171E000BF10
:103F3000036840F200481A6A43F4806522F48072F4
:103F40001A621C6A1A46D3F804C052F81CEF8F6834
:103F500024F40074C4F20108454544EA072408D15A
:103F6000CF6840F2FF463F0224F4406427EA060689
:103F70003443D1F80090454506D1D1E905562CF4DB
:103F800040572E4347EA061C2EF0730747EA0907FD
:103F9000C3F804C0DF614F680969DF631C62DF6931
:103FA00047F00807DF61DF6927F00407DF6131E0D0
:103FB000036840F200451A6A43F4806722F4805295
:103FC0001A621A46D3F820C05C6852F81CEFD1F888
:103FD00000808E68C4F20105AF4204D14D6924F41B
:103FE000804444EA85142CF4005747EA06372EF43F
:103FF000E64646EA08265C60DE614E6809691E6492
:104000001F62DF6947F40067DF61DF6927F48067BB
:10401000DF6109021368194311600021BDE8F04314
:10402000002280F83C200846704700BF0121002292
:1040300080F83C2008467047002804BF01207047E4
:1040400010B5044690F83D0028B9002084F83C00E3
:10405000204600F01FF8022084F83D002068211D52
:1040600003F040FE012084F8460084F83E0084F806
:104070003F0084F8400084F8410084F8420084F84E
:10408000430084F8440084F8450084F83D00002093
:1040900010BD000000680021C4F20101884218BF71
:1040A000704781B00020009043F64400C4F2020043
:1040B000016841F001010160006800F0010000901A
:1040C000009801B0704700007047000041B1082916
:1040D00010D0042914BF00F1410200F13F020BE0AF
:1040E00090F83E20012A1CBF01207047022280F870
:1040F0003E2013E000F140021278012A1CBF01208B
:1041000070470222082907D0042914BF80F84120F3
:1041100080F83F2002E000BF80F84020006801F0F6
:104120001F010122036A02FA01F123EA010202627D
:10413000026A114341F2FF72C4F20002904201622E
:1041400010DC40F2FF71C4F2000188421CDCB0F1C7
:10415000804F3FD040F20041C4F20001884239D084
:104160003DE000BF40F2FF31C4F20101884219DC9A
:1041700041F60001C4F2000188422BD00021C4F2B4
:10418000010188421AD02AE040F60001C4F2000181
:1041900088421FD040F60041C4F20001884219D085
:1041A0001DE000BF44F20001C4F20101884211D0B9
:1041B00040F20041C4F20101884210D1416C40F24A
:1041C000004340F48062C4F2010341F400419A428A
:1041D000416404D1816801F00701062903D0016818
:1041E00041F0010101600020704700000068B0F15B
:1041F000804F18BF7047FEF7A1BC00007047000059
:104200007047000070470000B0B582B004460068F7
:104210000168C368426901F02F05202D03F02005D5
:1042200006D12DB1204602B0BDE8B04003F0EEBF8C
:104230005FEA017C1EBF02F0010E03F4907212EBE4
:104240000E0243D1226BCD0618D5012A16D113F0E8
:10425000100213D000210191016801914168019180
:104260000199406940063BD4A08DE18DE28D002A82
:1042700018BF884240F0EA8102B0B0BD0A0640F1A2
:10428000DF8013F0800200F0DB8094F83D102129DC
:10429000F2D1A168B1F5805F03D12169002900F056
:1042A0005982216A4A1C226209784160E18C0139F5
:1042B0000A04E184E0D1C16821F08001C160C168D5
:1042C00041F04001C16002B0B0BD00BFCA0718BFD5
:1042D00013F4807240F0C8804A0700F1CB80D0E030
:1042E000A16B0868426893B2002BC5D0A08D8342B1
:1042F000C2D2E285C969B1F5807F00F09E80206856
:1043000050E8030F216820F4807041E80302DAB11D
:10431000206850E8030F216820F4807041E8030210
:1043200092B1206850E8030F216820F4807041E8C2
:1043300003024AB1206850E8030F216820F480701E
:1043400041E80302002ADAD1206850E8050F21680D
:1043500020F0010041E80502BAB3206850E8050FDB
:10436000216820F0010041E8050272B3206850E89E
:10437000050F216820F0010041E805022AB32068FA
:1043800050E8050F216820F0010041E80502002AED
:10439000DAD11AE0206850E8050F216820F04000CB
:1043A00041E80502DAB1206850E8050F216820F0E5
:1043B000400041E8050292B1206850E8050F2168ED
:1043C00020F0400041E805024AB1206850E8050F9E
:1043D000216820F0400041E80502002ADAD12020BF
:1043E00084F83E0000202063206850E8030F216815
:1043F00020F0100041E80302DAB1206850E8030F12
:10440000216820F0100041E8030292B1206850E8D2
:10441000030F216820F0100041E803024AB1206830
:1044200050E8030F216820F0100041E80302002A41
:10443000DAD1A06BFEF746F8A08DE18D401A7CE141
:1044400049067FF519AF13F040013FF415AFC1687D
:1044500021F04001C1602021204684F83D1002B0C7
:10446000BDE8B04000F0DEBB226C42F001022264E5
:104470004A0706D5BEF1000F03D0226C42F00202BB
:1044800022648A0706D5BEF1000F03D0226C42F0E9
:1044900004022264BCF1000F06D55EEA050203D0D7
:1044A000226C42F008022264226C002A3FF4E4AE3F
:1044B000890604D51DB1204603F0A8FE2068406996
:1044C000216C00F0400001F00801401800F0B680B7
:1044D000206850E8030F216820F4907041E803023F
:1044E000BAB3206850E8030F216820F4907041E8C7
:1044F000030272B3206850E8030F216820F4907023
:1045000041E803022AB3206850E8030F216820F431
:10451000907041E80302002ADAD11AE0206850E8DE
:10452000050F216820F0010041E80502DAB120689A
:1045300050E8050F216820F0010041E8050292B122
:10454000206850E8050F216820F0010041E80502CD
:104550004AB1206850E8050F216820F0010041E8C9
:104560000502002ADAD1206B012824D1206850E806
:10457000030F216820F0100041E80302DAB120683F
:1045800050E8030F216820F0100041E8030292B1C7
:10459000206850E8030F216820F0100041E8030272
:1045A0004AB1206850E8030F216820F0100041E86C
:1045B0000302002ADAD1202084F83E000020206384
:1045C00020684069400640F1BF80206850E8050F30
:1045D000216820F0400041E80502DAB1206850E887
:1045E000050F216820F0400041E8050292B12068E3
:1045F00050E8050F216820F0400041E805024AB16B
:10460000206850E8050F216820F0400041E80502CD
:10461000002ADAD1A06B002800F0968047F65D6191
:10462000C0F600010165FDF795FF00283FF424AEB8
:10463000A06B016D02B0BDE8B04008472046FFF70F
:10464000E1FD0020206402B0B0BD00BF401A00BFF1
:10465000216851E8031F226821F4907142E8031396
:10466000BBB3216851E8031F226821F4907142E82E
:10467000031373B3216851E8031F226821F490717A
:1046800042E803132BB3216851E8031F226821F489
:10469000907142E80313002BDAD11AE0216851E847
:1046A000051F226821F0010142E80513DBB12168F2
:1046B00051E8051F226821F0010142E8051393B17A
:1046C000216851E8051F226821F0010142E8051325
:1046D0004BB1216851E8051F226821F0010142E831
:1046E0000513002BDAD1202184F83E10002121632C
:1046F000216851E8031F226821F0100142E80313EA
:10470000DBB1216851E8031F226821F0100142E863
:10471000031393B1216851E8031F226821F01001AF
:1047200042E803134BB1216851E8031F226821F0CE
:10473000100142E80313002BDAD181B2204602B007
:10474000BDE8B040FFF75CBD204602B0BDE8B04018
:10475000FFF758BD216A31F8022B6FF35F224260E8
:104760002162A3E5002804BF0120704710B504466C
:1047700090F83D0028B9002084F83C00204600F065
:1047800021F8242084F83D002068C16821F40051FC
:10479000C160204603F0BAFD2068016921F4904110
:1047A0000161416921F02A014161C16841F4005170
:1047B000C16000202021206484F83D1084F83E1060
:1047C00010BD00002DE9F04F87B00446006841F2AB
:1047D0000041C4F2010100268842CDE90566CDE919
:1047E0000366029600F08A8041F20001C4F20101E2
:1047F000884240F0F380002743F630000197C4F26E
:1048000002004169002541F0100141614169C4F293
:10481000020501F01001019101990197016802AEB2
:1048200041F002010160016846F2284801F00201EE
:1048300001910199019701684FF0020941F00101CE
:10484000016000684FF0030A00F001000190019838
:10485000802002904FF0070B05F580603146C4F2CE
:104860000208CDE90397CDF814A0CDF818B0FEF7F3
:1048700089F84FF40070CDE9020904A880E8800CA3
:1048800028463146FEF77EF840F6AC1508F1900058
:10489000C2F200054FF000664021C5E9000605F1AF
:1048A00008004FF4806980E882022846C5E9057750
:1048B000C5E907776F62FDF73FFF002818BFFDF7D6
:1048C0001FFA6563AC6340F64C1508F16000C2F254
:1048D000000585E8C1002846C5E90379C5E90577E3
:1048E000C5E907776F62FDF727FF002818BFFDF7BE
:1048F00007FAA56305F13800252566E043F6300088
:104900000196C4F20200416946F2284841F02001B4
:1049100041614169C4F2020801F02001019101994D
:104920000196016841F040010160006802A900F0B1
:104930004000019001984FF4844002900220CDE99C
:10494000030603200590082006900020C4F2020010
:1049500000F5C050FEF716F840F60C25C2F200052F
:104960004FF020674FF480692846C5E90087C5E904
:104970000266C5E90496C5E90666C5E90866FDF75D
:10498000DBFE002818BFFDF7BBF9A563AC6340F65A
:104990006C2508F17800C2F200054021C5E9000746
:1049A00005F10800002280E806022846C5E9052234
:1049B000C5E907226A62FDF7BFFE002818BFFDF7B0
:1049C0009FF9656305F138004725046028460521F5
:1049D0000022FEF76DF92846FEF758F907B0BDE84A
:1049E000F08F000070B582B0044690F83E00202899
:1049F0000ED113460A4600294FF0010018BF002BC4
:104A000002D102B070BD00BF94F83C00012803D170
:104A1000022002B070BD00BF012084F83C000026D7
:104A200022202663A262A385266484F83E00A06B40
:104A300047F6E57C48F241152168C0F6000CC0F647
:104A40000005C0E90FC547F66965C0F600050431E9
:104A5000C0E91356FDF722FF019620680168019115
:104A6000406801900198206984F83C6030B300BF31
:104A7000206850E8030F216840F4807041E8030289
:104A8000E2B1206850E8030F216840F4807041E8EB
:104A900003029AB1206850E8030F216840F4807047
:104AA00041E8030252B1206850E8030F216840F446
:104AB000807041E80302002ADAD100BF206850E884
:104AC000050F216840F0010041E80502BAB32068F3
:104AD00050E8050F216840F0010041E8050272B37B
:104AE000206850E8050F216840F0010041E8050208
:104AF0002AB3206850E8050F216840F0010041E822
:104B00000502002ADAD11AE0206850E8050F216872
:104B100040F0400041E80502DAB1206850E8050F96
:104B2000216840F0400041E8050292B1206850E859
:104B3000050F216840F0400041E805024AB12068B5
:104B400050E8050F216840F0400041E80502002AC6
:104B5000DAD1002002B070BD70470000704700003D
:104B600070B5044690F83D0020280BD100294FF085
:104B7000010055D0002A134608BF70BD94F83C00D0
:104B8000012801D1022070BD012084F83C000026DC
:104B900021202162A384E384266484F83D00606BB5
:104BA00048F2551C48F205252268C0F6000CC0F6F4
:104BB0000005C0E90FC547F66965C0F60005043277
:104BC000C0E91356FDF76AFE20686FF040010160EE
:104BD00084F83C60206850E8050F216840F08000B0
:104BE00041E80502DAB1206850E8050F216840F07D
:104BF000800041E8050292B1206850E8050F216865
:104C000040F0800041E805024AB1206850E8050FF5
:104C1000216840F0800041E80502002ADAD1002036
:104C200070BD00007047000070470000FEE7000004
:104C3000D0F8EC1045F6862391ED000A91ED011AAB
:104C400091ED022A91ED033A21EE014A20EE005A3D
:104C500035EE044A22EE025A35EE044A23EE035A98
:104C600035EE044A14EE102AC5F63773A3EB620240
:104C7000BEEE006A05EE102A24EE064A24EE054A2E
:104C800024EE054AB7EE087A34EE074A24EE054AC8
:104C900024EE005A24EE017A64EE020A24EE034A5E
:104CA00081ED005A81ED017AC1ED020A81ED034ADE
:104CB00040F2A841C2F2000191ED6F4AD0F8002104
:104CC00021EE044AB6EE005A24EE054A82ED044A6B
:104CD00091ED6F4AD0F8F80022EE044A24EE054A1E
:104CE00082ED054A91ED6F4A24EE004A24EE064A11
:104CF00082ED0A4A91ED6F4A23EE044A24EE054AFA
:104D000082ED0B4A91ED6F4A24EE033A23EE063A08
:104D100082ED103A91ED6F3A23EE000A20EE060A7A
:104D200082ED110A91ED6F0A22EE000A20EE050ACB
:104D300082ED160A91ED6F0A20EE010A20EE060AB6
:104D400082ED170A91ED740A90ED1C1A81EE002A8B
:104D500090ED230A80ED1C2A91ED741A44F20001B3
:104D600080EE010A9FED091AC4F21C61B4EE412ADB
:104D7000F1EE10FAB4EE410A80ED230AC8BF0167D4
:104D8000F1EE10FAC8BFC0F88C10704700401C4606
:104D9000B0B540F2A844C2F200040120207004F52E
:104DA000D87080EC030A4CF67740C3F22B20B7EEA4
:104DB000000AC4F8CC010025F4EE401A201D06219B
:104DC0000022032384F83851F1EE10FAC8BFF0EE48
:104DD000401AC4E95055C4E95255C4ED741A84ED23
:104DE000642A01F031F804F5E07004F5E473012160
:104DF0000122FBF75DFBD4F8EC104FF07E52C1E9C5
:104E00000025C1E9025544F65D61C0F6000144F693
:104E1000314244F6996345F2F53504F1D00CC0F601
:104E20000002C0F60003C0F600058CE82E0040F238
:104E30000111D4F80401E1854BF61401C0F600011C
:104E40009022FCF77DF8D4F8FC0040F21801C2F281
:104E500000019022FCF774F8B0BD000010B50446C4
:104E6000D0F8F81040F21800C2F200009022FCF7CF
:104E700067F8D4F81C1140F2E030C2F2000048227A
:104E8000FCF75EF8D4F80C1140F29830C2F2000042
:104E90004822FCF755F810BD10B52DED088B40F2F7
:104EA000AC210446C2F20001D0F8EC000988A27BD4
:104EB000237B90ED000A90ED011A90ED022A90ED0F
:104EC000033AD4F80C015143594330EE008A31EED5
:104ED000019A32EE02AA33EE03BAFCF78DF8D4F849
:104EE0000C01B1EE481AB1EE4A0A80ED021AB1EE99
:104EF000491A80ED000A80ED01BA80ED039A80ED39
:104F0000069A80ED078A80ED08BA80ED09AA80ED47
:104F10000C8A80ED0D1A80ED0E0A80ED0FBABDEC03
:104F2000088B10BD70B52DED108B40F2A845C2F274
:104F300000052878B0EE43BAB0EE628AB0EE429A2D
:104F4000B0EE61AAB0EE41CAB0EE60DA0028B0EE71
:104F500040EA5DD1012028700020C4F2201041F207
:104F60006F2149F2806205F5D873C3F68321C4F638
:104F7000183207C34CF67740C3F22B204FF07E5611
:104F80000024C5E97306281D06210022032385F8A5
:104F90003841C5E95044C5E95244C5F8904100F094
:104FA00053FF05F5E07005F5E47301210122FBF7DD
:104FB0007FFAD5F8EC1044F63142C1E90064C1E94A
:104FC000024444F65D61C0F6000144F6996345F27F
:104FD000F53605F1D00CC0F60002C0F60003C0F6AD
:104FE00000068CE84E0040F20111D5F80401E98575
:104FF0004BF61401C0F600019022FBF7A1FFD5F893
:10500000FC0040F21801C2F200019022FBF798FF69
:1050100095ED580A95ED591A95ED5A2A3EEE400A3B
:105020003DEE411A3CEE422AB6EE003AD5F80401B4
:105030004BF6140120EE03CA21EE03EA62EE038A66
:10504000C0F60001902285ED6FBA85ED5B0A85ED13
:105050005C1A85ED5D2A2CEE0BDA2EEE0BFA68EE6B
:105060008B9A2C1DFBF76CFFD5F804012CEE4B0A34
:105070002EEE4B1A28EECB2AD5E9521280ED010A0A
:1050800080ED021A80ED032A80ED06DAC0ED089A61
:1050900080ED091A80ED0CFA80ED0D2A80ED0FDA13
:1050A000C0ED129A80ED13FA80ED140A95ED5E0AB8
:1050B00095ED5F1A95ED602A51EA020095ED643A8C
:1050C00002BFB0EE482AB0EE491AB0EE4A0A95ED9A
:1050D0006F4A20EE030A33EE045A24EE0A6A23EEE6
:1050E000011A24EE097A80EE050A86EE056A81EE41
:1050F000051A87EE057A23EE022A24EE083A82EE9C
:10510000052A83EE053A45F68620C5F63770B7EED8
:10511000084A0023002630EE060A85ED5E0A37EEC7
:10512000011A85ED5F1A21EE011A33EE022A20EEF4
:10513000003A85ED602A33EE011A22EE022A32EEA1
:10514000011A11EE101AA0EB6101BEEE003A02EE58
:10515000101A21EE031A21EE021A21EE021A31EE84
:10516000041A21EE021AA96821EE000A81ED000A54
:1051700095ED5F0A21EE000A81ED010A95ED600AC6
:1051800021EE000A81ED020A95ED5B0A95ED5C2A9D
:1051900095ED5D5A22EE022A20EE000A30EE020A58
:1051A00025EE052A32EE000A10EE101AA0EB61007F
:1051B00002EE100A20EE030A20EE020A20EE020A96
:1051C00030EE040A20EE020AB7EE002A82EE000A50
:1051D00082EE011A9FED803A0020002195ED6C2AA5
:1051E00085ED650AB4EE430A9FED7C0AF1EE10FAF4
:1051F000B4EE401A9FED7A0A85ED661AB8BF012019
:10520000F1EE10FAC8BF0121B4EE401A95ED6F0A15
:10521000D5F8182122EE000A82ED000A95ED6C0AFD
:1052200095ED6F1AF1EE10FA20EE010A82ED070AF1
:1052300095ED6C0A95ED6F1A20EE010A82ED0E0ACB
:1052400095ED6C0A95ED6F1AB8BF012320EE010AA7
:1052500082ED150A95ED6D0A95ED6F1A184020EE56
:10526000010A82ED1C0A95ED6D0A95ED6F1A084052
:1052700020EE010A82ED230AD5F8B811D5F81C21D9
:1052800085F839011160D5F8B8011061D5F8B80179
:105290001062204601F0B4F86868BFEE008A90ED15
:1052A000001A85ED541A90ED012A85ED552A90EDEE
:1052B000020A85ED560A90ED033A22EE000A85EDCA
:1052C000573A016921EE033A22EE022A21EE011A31
:1052D000C5F8601131EE021A406933EE000A31EE72
:1052E000011A30EE000A71EE080AC5E9590605F008
:1052F0006DFC9FED3C9A95ED541A20EE090A85ED60
:105300006A0A95ED560A95ED572A95ED553A20EE25
:10531000020A21EE033A22EE022A21EE011A31EEB0
:10532000021A33EE000A31EE011A30EE000A71EE75
:10533000080A05F04BFC20EE090A85ED690A95ED97
:10534000540A95ED551A95ED562A95ED573A22EEE9
:10535000000A21EE031A30EE410A30EE000A05F091
:105360009FFB20EE092A95ED6A0A95ED761A9FEDCE
:105370001E3A30EE411AB4EE431AF1EE10FA85ED02
:10538000682A03DDB5F8D401013809E09FED172A3A
:10539000B5F8D401B4EE421AF1EE10FA02DA013097
:1053A000A5F8D40100B201EE100A9FED112AD5E94B
:1053B0005201B8EEC11A21EE021A013031EE001A84
:1053C00041F1000185ED6B1A85ED760AC5E95201C0
:1053D000BDEC108B70BD00BF9A99993ECDCC1441A5
:1053E000CDCC2441E12E654200003443000034C39B
:1053F0000000B4432DE9F04F81B000F1780500F1D1
:105400008008044628464146FBF710FC84F8C80093
:10541000B4F87800274627F8A80FB4F85A0004F12A
:105420005801A4F8AA0028463A460091FBF7DCFA96
:1054300084F8C8003888A346B4F882102BF8B00F5F
:10544000A4F8B210384641465A46FBF7CDFA214639
:1054500084F8C80051F8900F264646F8A00F584629
:105460003246FAF7A1FF84F8C80030465946FBF7E8
:1054700023F884F8C800D4F8EC00D4F82C1190ED8F
:10548000000A90ED011A90ED022A90ED033A22EE07
:10549000004A21EE035A20EE016A21EE011A20EEA5
:1054A000000A30EE410A22EE021A35EE444A22EE9C
:1054B000035A30EE410A23EE031AB4F8780034EEB2
:1054C000044A36EE055A31EE000AA1464FF0010AB1
:1054D00035EE055A81ED020AB0EEC40A29F8B80F7C
:1054E000A4F8BAA081ED004A81ED015A05F04CFA0A
:1054F00040F2A845C2F20005D4F82C0185ED610AFE
:1055000090ED010AB0EEC00A05F03EFAD4F82C0185
:1055100085ED620A90ED020AB0EEC00A05F034FA99
:10552000204630F8481F264626F8C01F4946324616
:1055300085ED630AA6F802A0FBF7F4FA318884F837
:10554000C8003980584631463A46A4F8AAA0FBF76D
:105550004BFA84F8C80030884946A4F8BA003046AF
:10556000A9F800A0FBF762FB84F8C80005F5E0721B
:1055700048463946FBF738FA95ED731A95ED720AED
:10558000B6EE002A21EE022AB4EE420AF1EE10FA3B
:1055900084F8C80008DA85F838A1B4EE410AF1EEC3
:1055A00010FA0DDC26E000BF95F838A1BAF1000F23
:1055B00018BF4FF0010AB4EE410AF1EE10FA19DDFE
:1055C000BAF1000F16D0D5E9501095F83921013104
:1055D00040F10000002A04BF10461146B1F1330229
:1055E00070F10002C5E95010C0F01C81002085F860
:1055F000380121E09FED992A31EE403A21EE022A4E
:1056000083EE022A9FED943ABAF1000F21EE031ABD
:10561000B7EE003AB0EE434AB4EE410A4FF0000054
:1056200018BFB0EE424AF1EE10FAC8BFB0EE443AED
:1056300085ED673AC5E9500084F82C00B4F85800AD
:10564000B4F88210A4F8A8000098A4F8AA10414663
:105650003A46FBF7C9F904F1980884F8C8003846BF
:1056600059464246FBF7C0F9B4F898C0B4F89A20FE
:1056700084F8C80002FB0CF3D4F81C21EBB300271C
:10568000002000BF02EB870195ED670A91ED001A3B
:1056900040F00107FFB220EE010ABB4281ED000A93
:1056A0002BD902EB870195ED670A91ED001A40F0C6
:1056B0000207FFB220EE010ABB4281ED000A1CD9AD
:1056C00002EB870195ED670A91ED001A40F00307A0
:1056D000FFB220EE010ABB4281ED000A0DD902EBB8
:1056E000870195ED670A91ED001A0430C7B220EEEC
:1056F000010ABB4281ED000AC4D895ED610A9FED15
:10570000581A92ED0C2A80EE010A0120A4F8BA0082
:1057100040463146A4F8B8C020EE020A82ED0C0AD9
:1057200095ED610A92ED0D2A80EE010A20EE020A43
:1057300082ED0D0A95ED610A92ED0E2A80EE010AC6
:1057400020EE020A82ED0E0A95ED620A92ED0F2A12
:1057500080EE010A20EE020A82ED0F0A95ED620A40
:1057600092ED102A80EE010A20EE020A82ED100A64
:1057700095ED620A80EE010A92ED111A20EE010AFF
:1057800082ED110A4A46FBF72FF995F83821D4F833
:10579000BC1084F8C800BAB395ED6F0A9FED311ABA
:1057A00091ED043A20EE012AB4EE423AF1EE10FAFD
:1057B00005DD81ED042A95ED6F0AB0EE423A9FEDCA
:1057C0002A2A20EE024AB4EE443AF1EE10FABCBFA7
:1057D00081ED044A95ED6F0A91ED053A20EE011A2C
:1057E000B4EE413AF1EE10FA05DD81ED051A95EDC2
:1057F0006F0AB0EE413A20EE020AB4EE403AF1EE02
:1058000010FAB8BF81ED050A0020C86004F1380025
:1058100004F130024946FAF7C7FD84F8C80001B028
:10582000BDE8F08F40F2AC25C2F200052A88237B48
:10583000D4E93A015A43FBF783FB2A88237BD4E956
:105840003E015A435A43FBF77BFB012084F82C00AE
:1058500001B0BDE8F08F00BFCDCCCC3D6666663FA1
:10586000DA0FC93F0AD7233C0AD723BC80B52DEDF8
:10587000028B40F204209FED278AC2F200004FF015
:105880007E510022DFED210A9FED211AC0E911119E
:10589000C0E913120121B2EE040AF7EE001AB0EECD
:1058A000482AC0E9152280F84010FFF771FA40F24B
:1058B00088609FED190ADFED190ADFED191AC2F2AF
:1058C0000000B3EE042AB0EE481AF0EE482AB0EE1B
:1058D000483AF0EE483AB0EE484AF0EE484A002125
:1058E000002202F0C3F840F66C30C2F20000002142
:1058F000FEF7ECFB40F2284044F29631C2F2000081
:10590000C3F60B410164BDEC028B80BD6F12833A7C
:105910008096184B000000000000FA4400009643F7
:1059200000007A44F0B581B02DED0A8B40F20424DA
:10593000C2F200042046FCF703F994ED031A40F28A
:105940003437C2F2000784ED020A30EE010A38460D
:1059500084ED030AFBF7CAFC94ED045A94ED142A73
:105960009FED2B7A32EE455AB0EEC55A97ED001AEC
:1059700097ED014A97ED023A97ED030AD7ED045AE5
:10598000D7ED057A40F22846B4EE475AC2F2000637
:10599000F1EE10FA86ED040AC6ED055AC6ED067A58
:1059A00086ED071A86ED084A86ED093A34DC94ED57
:1059B000056A94ED155A35EE466AB0EEC66AB4EE45
:1059C000476AF1EE10FA27DCD4ED060A94ED166A68
:1059D00076EE600AF0EEE00AF4EE470AF1EE10FA15
:1059E0001ADC94F84000B8B994ED077AD4ED080AAF
:1059F000D4ED092AD4ED0A1AD4ED0B4AD4ED0C6A81
:105A0000D4ED0D3A94ED0E8A94ED0F9A87E000BF25
:105A10006F12833AE12E65421FED028A82EE080A78
:105A2000FAF73CFC94ED151AB0EE409A81EE081A94
:105A3000B0EE410AFAF732FC94ED161AB0EE40AA25
:105A400081EE081AB0EE410AFAF728FC94ED141A18
:105A5000B0EE40BA81EE081AB0EE410AFAF75AFCED
:105A600094ED151AB0EE40CA81EE081AB0EE410A64
:105A7000FAF750FC94ED161A81EE081AB0EE408A3F
:105A8000B0EE410AFAF746FC2CEE081A21EE001A95
:105A900029EE0B2A32EE017A2BEE4C1A21EE083A4F
:105AA00029EE004A74EE032A29EE083A23EE003A62
:105AB00073EE011A22EE081A2CEE402A72EE416AA9
:105AC0006AEE403A94ED142A94ED155A94ED166A54
:105AD00096ED040AD6ED055AD6ED067A96ED071A2C
