:020000040800F2
:100000008013002079020008B94300082D3E000843
:10001000B543000855060008996F0008000000006D
:10002000000000000000000000000000A1610008C6
:10003000B50800080000000029440008F961000824
:10004000930200089302000893020008930200083C
:10005000930200089302000893020008930200082C
:10006000930200089302000893020008930200081C
:1000700093020008ED06000893020008FD06000840
:100080000D0700089302000893020008930200087D
:100090005906000893020008930200089302000822
:1000A0009302000893020008E1620008930200082E
:1000B00093020008930200089302000893020008CC
:1000C00093020008930200089302000893020008BC
:1000D0009302000893020008056F000893020008CD
:1000E000930200089302000893020008930200089C
:1000F000F1620008930200089302000893020008CE
:10010000930200089302000893020008930200087B
:100110009D640008930200089302000893020008FF
:10012000930200089302000893020008930200085B
:10013000930200089302000893020008930200084B
:100140006906000893020008930200089302000861
:10015000930200089302000893020008930200082B
:10016000930200089302000893020008930200081B
:1001700093020008930200089302000800000000A8
:1001800093020008930200089302000893020008FB
:1001900093020008930200089302000893020008EB
:1001A00000000000000000009302000800F002F8C8
:1001B00000F052F814A696E8000CB244B344DA45B5
:1001C00001D100F049F8BAE80F000FA696E8300018
:1001D000A5EB040504EB0607AAEB0704A7F101074A
:1001E0004FEA15154FEA3414A4F10104AC4201D3CF
:1001F00000F032F813F0010F18BFFB1A43F00103AF
:1002000000F001F8DBE71847DC720000FC72000028
:10021000103A24BF78C878C1FAD8520724BF30C832
:1002200030C144BF04680C60704700007047000094
:100230000023002400250026103A28BF78C1FBD8EF
:10024000520728BF30C148BF0B6070471FB506F08A
:100250008DFF1FBD10B510BD00F069F91146FFF705
:10026000F5FF06F067FF00F087F903B4FFF7F2FF30
:1002700003BC00F08FF90000094880470948004797
:10028000FEE7FEE7FEE7FEE7FEE7FEE7FEE7FEE746
:10029000FEE7FEE704480549054A064B70470000A3
:1002A000CD620008AD010008800D00208013002001
:1002B000800F0020800F002053EA020C00F06980BC
:1002C0002DE9F04B4FF00006002B1FBFB3FA83F56A
:1002D00003FA05F424FA05F65E4012BF1643B2FA9B
:1002E00082F502FA05F4C5F120051EBF22FA05FCCD
:1002F00044EA0C04203556EA044C4FEA144418BF73
:10030000641C4FF000084FF00009904271EB030CA1
:1003100039D3002919BFB1FA81F701FA07F6B0FA0B
:1003200080F700FA07F6C7F120071EBF20FA07FC86
:1003300046EA0C062037B6FBF4FCA7EB0507103F96
:1003400007F01F0BCBF120062CFA06F60CFA0BFB7C
:1003500044BFB3460026202FA4BF5E464FF0000BDB
:100360005BEA060C08BF4FF0010B19EB0B0948EBD9
:100370000608ABFB027C06FB02CC0BFB03CCC01BCC
:1003800071EB0C01C1E70B46024641464846BDE809
:10039000F08B13B5084318BF4FF0FF300146AFF3A1
:1003A0000080BDE81C407047032A40F2308010F006
:1003B000030C00F0158011F8013BBCF1020F624400
:1003C00098BF11F801CB00F8013B38BF11F8013B91
:1003D000A2F1040298BF00F801CB38BF00F8013B3E
:1003E00011F0030300F07180083AC0F0088051F862
:1003F000043B083A51F804CBA0E80810F5E7121DB9
:100400005CBF51F8043B40F8043BAFF30080D207D7
:1004100024BF11F8013B11F801CB48BF11F8012BA3
:1004200024BF00F8013B00F801CB48BF00F8012BC6
:1004300070474FF000020429C0F0128010F0030C46
:1004400000F01B80CCF1040CBCF1020F18BF00F8C7
:10045000012BA8BF20F8022BA1EB0C0100F00DB876
:100460005FEAC17C24BF00F8012B00F8012B48BFD4
:1004700000F8012B70474FF0000200B51346944678
:100480009646203922BFA0E80C50A0E80C50B1F1EC
:100490002001BFF4F7AF090728BFA0E80C5048BF00
:1004A0000CC05DF804EB890028BF40F8042B08BF9E
:1004B000704748BF20F8022B11F0804F18BF00F89A
:1004C000012B704770477047704710B5203AC0F055
:1004D0000B80B1E81850A0E81850B1E81850A0E817
:1004E0001850203ABFF4F5AF5FEA027C24BFB1E8B0
:1004F0001850A0E8185044BF18C918C0BDE81040F3
:100500005FEA827C24BF51F8043B40F8043B08BFFB
:100510007047D20728BF31F8023B48BF11F8012BC2
:1005200028BF20F8023B48BF00F8012B70477546F2
:1005300000F02CF8AE4605006946534620F007004F
:10054000854618B020B5FFF7A5FEBDE820404FF066
:1005500000064FF000074FF000084FF0000BAC46CC
:10056000ACE8C009ACE8C009ACE8C009ACE8C00917
:1005700021F007018D46704710B50446AFF30080A7
:100580002046BDE81040FFF770BE000000487047ED
:100590003800002001491820ABBEFEE7260002000B
:1005A0007047000080B584B0039002910020ADF840
:1005B0000600039820B1FFE70298022801D8FFE760
:1005C0001AE003980299023940F20002C2F20002D6
:1005D000128800F079F9ADF80600BDF80600039A1C
:1005E0000299114401F8020C9DF80700039A029940
:1005F000114401F8010CFFE704B080BD80B582B062
:100600000190ADF8021040F6AF41C2F200010020A7
:100610000870019828B1FFE7BDF80200022801DC4C
:10062000FFE715E00198BDF80210013989B2FF22F9
:1006300000F07EF9014640F6AF40C2F200000170C2
:100640000078019ABDF80210114401F8010CFFE78F
:1006500002B080BDFFE7FEE780B540F6EC00C2F2D5
:10066000000000F03BFC80BD80B540F61410C2F2E3
:10067000000000F033FC80BD80B586B040F2A011D0
:10068000C2F2000102910E200390486248610122EB
:100690000A6200208861CA61086048608860C8609A
:1006A0004861086140F6EC00C2F20000019000F0E1
:1006B00047FA019801F060F801980221049100F0D6
:1006C0005DF9029903984862486140F61410C2F23D
:1006D0000000059000F034FA059801F04DF80499F7
:1006E000059800F04BF906B080BD000080B540F6DB
:1006F0003C10C2F2000001F039F980BD80B540F62F
:100700009C10C2F2000001F031F980BD80B540F6C6
:10071000FC10C2F2000001F029F980BD82B0019006
:100720000198007810384AF6AB21CAF6AA21A0FB3E
:10073000011000090090009947F2DC20C0F600008B
:10074000405C0199C8650098042807D3FFE7019928
:100750000868042262F30900886506E001990868C8
:1007600040F2FF3290438865FFE70198806D02B048
:100770007047000086B0059000208DF813000598A2
:10078000806A03900598806910BBFFE70398029088
:1007900003281BD80299DFE801F0020D0218059822
:1007A00090F82F00C00720B1FFE701208DF813005B
:1007B000FFE70CE00598C06AB0F1C07F04D1FFE705
:1007C00001208DF81300FFE701E000E0FFE745E0BE
:1007D00005988069B0F5005F25D1FFE70398019087
:1007E00003281ED80199DFE801F00206021101205A
:1007F0008DF8130016E0059890F82F00C00720B17F
:10080000FFE701208DF81300FFE70BE00598C06AB1
:10081000B0F1C07F04D1FFE701208DF81300FFE79E
:1008200000E0FFE719E003980090032804D3FFE7F6
:100830000098032804D00EE001208DF813000BE08F
:10084000059890F82F00C00720B1FFE701208DF830
:100850001300FFE700E0FFE7FFE7FFE79DF8130065
:1008600006B0704784B00390029101920093039800
:100870000168086820F480200860009803990968DE
:10088000486003988068402809D1FFE701980399E0
:1008900009688860029803990968C86008E00298AE
:1008A000039909688860019803990968C860FFE79F
:1008B00004B070477047000081B0EFF3108072B64B
:1008C0000090FFE7FEE7000084B002900191ADF8D0
:1008D0000220029828B9FFE74FF6FF70ADF80E002E
:1008E00021E0FFE70198411E0191B8B1FFE70298AE
:1008F000411C029100788DF80100BDF802109DF8AE
:1009000001004840C2B247F2E420C0F6000030F8CF
:10091000120080EA1120ADF80200E3E7BDF8020002
:10092000ADF80E00FFE7BDF80E0004B07047000000
:1009300082B00190ADF802108DF80120FFE7BDF8FC
:100940000200411EADF8021098B1FFE79DF80100CA
:1009500001994A1C0192097848408DF800009DF8E1
:10096000001047F2DC10C0F60000405C8DF801007A
:10097000E5E79DF8010002B07047000084B00290E6
:100980000191029890F820008DF803009DF8030073
:10099000012805D0FFE79DF8030002280AD1FFE7F0
:1009A000019A0298016848691043486100208DF857
:1009B0000F0008E00299486A40F480204862012054
:1009C0008DF80F00FFE79DF80F0004B0704700009E
:1009D00088B00690059104920393069890F8200041
:1009E0008DF8070006980068806800900598806878
:1009F00008B9FFE700E0FFE79DF80700012806D0EF
:100A0000FFE79DF80700022840F08D80FFE79DF882
:100A10000300400700280CD4FFE79DF803000007FF
:100A2000002806D4FFE79DF80300C006002871D512
:100A3000FFE70098C0F3016002900298032809D3F1
:100A4000FFE70699486A40F40000486201208DF8EB
:100A50001F0071E002990120884003990860059801
:100A6000806868B9FFE705980168C06840EA4150AE
:100A700006990968029A01EB0211C1F880010EE0A3
:100A800005994A688868C96840EAC200084306991F
:100A90000968029A01EB0211C1F88001FFE705988D
:100AA000006906990968029A01EB0211C1F88401F4
:100AB0000598007D01280CD1FFE70698006802998F
:100AC00000EB0111D1F8840140F48070C1F8840179
:100AD000FFE70498406806990968029A01EB021141
:100AE000C1F88C010498006806990968029A01EB24
:100AF0000211C1F8880106980068029900EB011103
:100B0000D1F8800140F00100C1F8800100208DF88B
:100B10001F0011E00699486A40F400104862012065
:100B20008DF81F0008E00699486A40F4802048626A
:100B300001208DF81F00FFE79DF81F0008B07047E7
:100B400086B004900391049800680190049890F88E
:100B500020008DF803009DF80300012806D0FFE770
:100B60009DF80300022840F0B080FFE746F2004005
:100B7000C4F2000001900199D1F8000240F0010098
:100B8000C1F800020199D1F8000220F47C50C1F8AC
:100B900000020398426A0199D1F8000240EA02205B
:100BA000C1F800020398406900F01F01012088404D
:100BB0000290029A0199D1F81C029043C1F81C02DC
:100BC0000398C069F0B9FFE7029A0199D1F80C02C5
:100BD0009043C1F80C02039A9088D168526940EAA8
:100BE0000140019901EBC201C1F84002039A10884B
:100BF0009168526940EA0140019901EBC201C1F8D4
:100C00004402FFE70398C06901281ED1FFE7029A5A
:100C10000199D1F80C021043C1F80C02039A908894
:100C20001168526940EA0140019901EBC201C1F823
:100C30004002039A90899168526940EA0140019903
:100C400001EBC201C1F84402FFE70398806940B993
:100C5000FFE7029A0199D1F804029043C1F8040217
:100C600007E0029A0199D1F804021043C1F8040286
:100C7000FFE70398006940B9FFE7029A0199D1F8AC
:100C800014029043C1F8140207E0029A0199D1F8C6
:100C900014021043C1F81402FFE70398006A012808
:100CA00008D1FFE7029A0199D1F81C021043C1F85C
:100CB0001C02FFE70199D1F8000220F00100C1F801
:100CC000000200208DF8170008E00499486A40F4FB
:100CD0008020486201208DF81700FFE79DF817007B
:100CE00006B0704781B0009001B0704786B00490A4
:100CF000039102920193049890F820008DF803006C
:100D00009DF80300012806D0FFE79DF803000228A4
:100D100040F0D780FFE7039880B9FFE704980068A8
:100D2000C068800748B9FFE70499486A40F400109A
:100D3000486201208DF81700CCE00FE004980068AD
:100D40000069800748B9FFE70499486A40F4001039
:100D5000486201208DF81700BCE0FFE704980068A6
:100D6000039900EB0110D0F8B00100F004000299E3
:100D700088600298806858B9FFE704980068039972
:100D800000EB0110D0F8B001400D029908600AE0B4
:100D900004980068039900EB0110D0F8B001C00876
:100DA00002994860FFE704980068039900EB01107E
:100DB000D0F8B00100F002000299C8600498006801
:100DC000039900EB0110D0F8B40100F00F00029974
:100DD000086104980068039900EB0110D0F8B40191
:100DE00080B2000A0299886104980068039900EBB8
:100DF0000110D0F8B401000C029948610498006811
:100E0000039900EB0110D0F8B8010199087004981B
:100E10000068039900EB0110D0F8B801000A0199AD
:100E2000487004980068039900EB0110D0F8B801ED
:100E3000000C0199887004980068039900EB011078
:100E4000D0F8B801000E0199C870049800680399A1
:100E500000EB0110D0F8BC010199087104980068FA
:100E6000039900EB0110D0F8BC01000A0199487108
:100E700004980068039900EB0110D0F8BC01000C45
:100E80000199887104980068039900EB0110D0F86B
:100E9000BC01000E0199C871039838B9FFE70498A6
:100EA0000168C86840F02000C86006E00498016846
:100EB000086940F020000861FFE700208DF8170066
:100EC00008E00499486A40F48020486201208DF8C7
:100ED0001700FFE79DF8170006B0704780B58AB08D
:100EE00009900020089009980068406907900998C7
:100EF0000068406806900998006880680590099825
:100F00000068C06804900998006800690390099817
:100F10000068806902909DF81C00C007002800F05E
:100F20009480FFE79DF81400C00758B3FFE70998C5
:100F30000168012088609DF814008007002804D50E
:100F4000FFE7099800F062FC1BE09DF814004007E1
:100F5000002805D5FFE7089840F4006008900FE0EE
:100F60009DF814000007002805D5FFE7089840F415
:100F70008050089003E0099800F044FCFFE7FFE789
:100F8000FFE7FFE79DF81500C00760B3FFE709988A
:100F900001684FF4807088609DF815008007002874
:100FA00004D5FFE7099800F039FC1BE09DF8150017
:100FB0004007002805D5FFE7089840F40050089046
:100FC0000FE09DF815000007002805D5FFE70898F9
:100FD00040F48040089003E0099800F01BFCFFE714
:100FE000FFE7FFE7FFE79DF81600C00760B3FFE7E4
:100FF000099801684FF4803088609DF816008007DA
:10100000002804D5FFE7099800F010FC1BE09DF8CC
:1010100016004007002805D5FFE7089840F4004077
:1010200008900FE09DF816000007002805D5FFE79F
:10103000089840F48030089003E0099800F0F2FB33
:10104000FFE7FFE7FFE7FFE7FFE79DF81C0000076A
:10105000002810D5FFE79DF81000C006002809D52C
:10106000FFE7089840F40070089009980168102084
:10107000C860FFE7FFE79DF81C00400700280FD578
:10108000FFE79DF810000007002808D5FFE7099842
:1010900001680820C860099800F0CCFAFFE7FFE774
:1010A0009DF81C00800700280BD5FFE70998006811
:1010B000C068800720B1FFE7099800F0BFFAFFE79A
:1010C000FFE79DF81C004006002810D5FFE79DF8BB
:1010D0000C00C006002809D5FFE7089840F480609E
:1010E00008900998016810200861FFE7FFE79DF864
:1010F0001C00800600280FD5FFE79DF80C000007B4
:10110000002808D5FFE709980168082008610998B8
:1011100000F026FBFFE7FFE79DF81C00C006002853
:101120000BD5FFE7099800680069800720B1FFE749
:10113000099800F019FBFFE7FFE79DF81E00800704
:1011400000280FD5FFE79DF81800C006002808D535
:10115000FFE70998016810204860099800F008FB33
:10116000FFE7FFE79DF81E00C00778B1FFE79DF895
:1011700018000007002808D5FFE709980168082033
:101180004860099800F056FBFFE7FFE79DF81D0057
:101190000006002840F18D80FFE79DF81800400709
:1011A000002840F18180FFE79DF81D00C00750B185
:1011B000FFE79DF80800C00728B1FFE7089840F056
:1011C00001000890FFE79DF81D00800700280BD55F
:1011D000FFE79DF808008007002805D5FFE708987D
:1011E00040F002000890FFE79DF81D00400700282E
:1011F0000BD5FFE79DF808004007002805D5FFE75D
:10120000089840F004000890FFE79DF81D000007D3
:10121000002848D5FFE79DF8080010F0700F42D075
:10122000FFE7029800F0700001460191102814D0E9
:10123000FFE70198202815D0FFE70198302816D045
:10124000FFE70198402817D0FFE70198502818D0F1
:10125000FFE70198602819D01DE0089840F00800C9
:10126000089019E0089840F01000089014E00898E1
:1012700040F0200008900FE0089840F040000890EF
:101280000AE0089840F08000089005E0089840F4D3
:101290008070089000E0FFE709980168886920F0F5
:1012A00070008861FFE7FFE7099801680420486043
:1012B000FFE7089848B1FFE7089A0999486A104380
:1012C00048620998FFF70EFDFFE70AB080BD0000F5
:1012D00080B584B00290029820B9FFE701208DF814
:1012E0000F00E0E0029890F8200020B9FFE7029894
:1012F00000F0DEF8FFE702980168086840F001009E
:10130000086000F0EDFF0190FFE702980068406878
:10131000C007A8B9FFE700F0E3FF0199401A0B28C6
:101320000DD3FFE70299486A40F400304862029901
:10133000052081F8200001208DF80F00B3E0E4E7DC
:1013400002980168086820F00200086000F0C8FFF9
:101350000190FFE70298006840688007002815D5D3
:10136000FFE700F0BDFF0199401A0B280DD3FFE7FE
:101370000299486A40F4003048620299052081F8D9
:10138000200001208DF80F008DE0E3E70298007E39
:10139000012807D1FFE702980168086840F0800043
:1013A000086006E002980168086820F08000086084
:1013B000FFE70298407E012807D1FFE70298016805
:1013C000086840F04000086006E00298016808687C
:1013D00020F040000860FFE70298807E012807D1D6
:1013E000FFE702980168086840F02000086006E006
:1013F00002980168086820F020000860FFE7029862
:10140000C07E012807D1FFE702980168086820F034
:101410001000086006E002980168086840F01000BB
:101420000860FFE70298007F012807D1FFE70298D4
:101430000168086840F00800086006E0029801684A
:10144000086820F008000860FFE70298407F012844
:1014500007D1FFE702980168086840F004000860BF
:1014600006E002980168086820F004000860FFE7C1
:10147000029B19685A689868D3F80CC040EA0C00BF
:10148000D3F810C040EA0C005B691843013A1043DE
:10149000C861029900204862029A012182F8201056
:1014A0008DF80F00FFE79DF80F0004B080BD00002D
:1014B00080B590B00F9000200E900D900C900B9086
:1014C0000A900F98006846F20041C4F20001884279
:1014D00049D1FFE740F2C810C2F2000001680131B3
:1014E00001600068012812D1FFE7FFE700200990A2
:1014F00043F64000C4F20200016841F0007101604F
:10150000006800F0007009900998FFE7FFE7FFE727
:101510000020089043F63000C4F20200016841F058
:1015200008010160006800F0080008900898FFE7D3
:1015300003200A9002210B91002103910C910D9040
:1015400009200E9040F60040C4F202000AA900F003
:10155000B7FC039A14200490114600F059FF049838
:1015600000F04CFF64E00F98006846F60001C4F2FA
:10157000000188425BD1FFE7FFE70020079043F6B8
:101580004000C4F20200016841F08061016000681F
:1015900000F0806007900798FFE740F2C810C2F2A1
:1015A00000000168013101600068012812D1FFE7E5
:1015B000FFE70020069043F64000C4F202000168F5
:1015C00041F000710160006800F00070069006981C
:1015D000FFE7FFE7FFE70020059043F63000C4F285
:1015E0000200016841F002010160006800F00200A1
:1015F00005900598FFE760200A9002200B900020DC
:1016000001900C9003200D9009200E9040F20040B4
:10161000C4F202000AA900F053FC019A4020029093
:10162000114600F0F5FE029800F0E8FEFFE7FFE744
:1016300010B080BD81B0009001B0704780B586B019
:101640000590059840F2C072C2F20002002103AB7F
:10165000FFF74CFB40F2DC10C2F2000000780228D9
:1016600009D0FFE740F2DC10C2F200000078002849
:1016700040F07480FFE7059840F61411C2F20001B3
:10168000884231D1FFE740F2C070C2F2000000682A
:10169000A0F2012001460291032824D80299DFE834
:1016A00001F0020A121A40F2FC10C2F2000003A973
:1016B00003F0D8FA17E040F2A420C2F2000003A918
:1016C00003F0D0FA0FE040F24C30C2F2000003A960
:1016D00003F0C8FA07E040F2F430C2F2000003A9B8
:1016E00003F0C0FAFFE7FFE7059840F6EC01C2F20D
:1016F0000001884231D1FFE740F2C070C2F2000021
:101700000068A0F2012001460191032824D8019924
:10171000DFE801F0020A121A40F29C40C2F2000017
:1017200003A903F003FB17E040F24450C2F20000AB
:1017300003A903F0FBFA0FE040F2EC50C2F2000004
:1017400003A903F0F3FA07E040F29460C2F200004C
:1017500003A903F0EBFAFFE7FFE7FFE706B080BD60
:1017600081B0009001B0704781B0009001B0704727
:1017700081B0009001B0704780B584B002900298AB
:1017800090F8200001282FD1FFE70299022081F86C
:10179000200002980168086820F00100086000F04D
:1017A0009FFD0190FFE7029800684068C007A8B15C
:1017B000FFE700F095FD0199401A0B280DD3FFE7D4
:1017C0000299486A40F4003048620299052081F885
:1017D000200001208DF80F000FE0E4E702990020BF
:1017E00048628DF80F0008E00299486A40F4002032
:1017F000486201208DF80F00FFE79DF80F0004B04C
:1018000080BD000081B0009001B0704781B00090B1
:1018100001B0704781B0009001B0704781B0009076
:1018200001B0704781B0009001B0704781B0009066
:1018300001B0704781B0009001B0704780B584B0AE
:1018400002900298806D019000F04AFD009002988D
:1018500090F8350002280DD0FFE7029980204865F6
:10186000FFE70299002081F83400FFE701208DF89E
:101870000F0055E002980168086820F01600086023
:1018800002980168486920F0800048610298006C65
:1018900020B9FFE70298806C38B1FFE70298016831
:1018A000086820F008000860FFE7029801680868EF
:1018B00020F001000860FFE7029800680068C00798
:1018C000C8B1FFE700F00CFD0099401A062811D3BB
:1018D000FFE70299202048650299032081F835002E
:1018E000FFE70299002081F83400FFE703208DF81C
:1018F0000F0015E0E0E70298C16D3F208840019994
:1019000088600299012081F83500FFE702990020E4
:1019100081F83400FFE7FFE700208DF80F00FFE7B4
:101920009DF80F0004B080BD82B00090009890F840
:101930003500022807D0FFE7009980204865012084
:101940008DF807000EE00099052081F83500009819
:101950000168086820F001000860FFE700208DF8AA
:101960000700FFE79DF8070002B0704780B586B01A
:1019700005900020039040F22C00C2F200000068A5
:1019800048F2B511C1F64E31A0FB0110800A029059
:101990000598806D0190019800680490049805995D
:1019A000C96DC840000700281AD5FFE705980068F0
:1019B00000684007002812D5FFE70598016808680D
:1019C00020F0040008600598C16D08208840019946
:1019D00088600599486D40F001004865FFE7FFE722
:1019E00004980599C96DC840C007A0B1FFE70598E4
:1019F00000684069000600280CD5FFE70598C16D16
:101A000001208840019988600599486D40F00200E6
:101A10004865FFE7FFE704980599C96DC84040078E
:101A2000002814D5FFE705980068006880070028A3
:101A30000CD5FFE70598C16D0420884001998860A6
:101A40000599486D40F004004865FFE7FFE70498FA
:101A50000599C96DC840C006002847D5FFE705981D
:101A600000680068000700283FD5FFE70598C16DB2
:101A7000102088400199886005980068006840033C
:101A800000281AD5FFE705980068006800030028C1
:101A900009D4FFE70598006C20B1FFE70598016CB9
:101AA0008847FFE708E00598806C20B1FFE70598BC
:101AB000816C8847FFE7FFE716E00598006800683B
:101AC000C005002807D4FFE705980168086820F0E2
:101AD00008000860FFE70598006C20B1FFE7059853
:101AE000016C8847FFE7FFE7FFE7FFE704980599E8
:101AF000C96DC8408006002840F18D80FFE7059839
:101B000000680068C006002840F18480FFE705985F
:101B1000C16D2020884001998860059890F83500B3
:101B2000052834D1FFE705980168086820F0160001
:101B3000086005980168486920F0800048610598B0
:101B4000006C20B9FFE70598806C38B1FFE7059875
:101B50000168086820F008000860FFE70598C16D7B
:101B60003F208840019988600599012081F835005F
:101B7000FFE70599002081F83400FFE70598006D24
:101B800020B1FFE70598016D8847FFE77BE00598E6
:101B900000680068400300281AD5FFE70598006830
:101BA00000680003002809D4FFE70598406C20B1C5
:101BB000FFE70598416C8847FFE708E00598C06B90
:101BC00020B1FFE70598C16B8847FFE7FFE720E0FA
:101BD000059800680068C005002811D4FFE7059843
:101BE0000168086820F0100008600599012081F85C
:101BF0003500FFE70599002081F83400FFE7FFE793
:101C00000598C06B20B1FFE70598C16B8847FFE7D7
:101C1000FFE7FFE7FFE70598406DA0B3FFE70598F2
:101C2000406DC00730B3FFE70599052081F8350006
:101C300005980168086820F001000860FFE7039834
:101C4000013003900299884201D9FFE707E0FFE7DE
:101C5000059800680068C0070028F0D1FFE70599E3
:101C6000012081F83500FFE70599002081F8340054
:101C7000FFE7FFE70598C06C20B1FFE70598C16C4E
:101C80008847FFE7FFE706B080BD000080B586B05B
:101C900004900020039000F023FB0290049820B9E8
:101CA000FFE701208DF81700A3E00498406A08B10F
:101CB000FFE7FFE70499022081F83500FFE7049968
:101CC000002081F83400FFE704980168086820F0DC
:101CD00001000860FFE7049800680068C00790B141
:101CE000FFE700F0FDFA0299401A06280AD3FFE741
:101CF0000499202048650499032081F835008DF867
:101D0000170076E0E7E704980068006803900398FE
:101D100048F23F01CFF2100108400390049900916E
:101D20004868D1F808C0CB680A6940EA0C0018433B
:101D300010434A6910438A691043CA691043096A0B
:101D400001430398084303900498406A042808D18B
:101D5000FFE70499C86A096B01430398084303909D
:101D6000FFE70398049909680860049800684069CF
:101D70000390039820F0070003900498416A0398A9
:101D8000084303900498406A04281AD1FFE7049896
:101D9000816A0398084303900498C06A80B1FFE702
:101DA0000498FEF7E7FC50B1FFE70499402048652E
:101DB0000499012081F835008DF8170019E0FFE73C
:101DC000FFE703980499096848610498FEF7A6FCA8
:101DD00001900498C16D3F20884001998860049962
:101DE00000204865049A012182F835108DF817000B
:101DF000FFE79DF8170006B080BD000080B588B0F1
:101E0000069005910492039300208DF80B0006982C
:101E1000806D0190FFE7069890F83400012804D106
:101E2000FFE702208DF81F0045E00699012081F8A8
:101E30003400FFE7FFE7069890F8350001282BD122
:101E4000FFE70699022081F83500069900204865D1
:101E500006980599049A039BFEF704FD0698C16D48
:101E60003F2088400199886006980168086840F022
:101E7000160008600698006C38B1FFE70698016804
:101E8000086840F008000860FFE7069801680868E5
:101E900040F00100086009E0FFE70699002081F8A2
:101EA0003400FFE702208DF80B00FFE79DF80B00E0
:101EB0008DF81F00FFE79DF81F0008B080BD0000EF
:101EC00090B00F900E9100200C900B900A900D9006
:101ED000FFE70D980F2800F2E881FFE70D99012038
:101EE00088400C900E9800680C9908400B900B9855
:101EF0000C99884240F0D481FFE70E98406800F0CA
:101F00000300012807D0FFE70E98406800F00300A7
:101F100002282FD1FFE70F9880680A900D984100A2
:101F2000032000FA01F10A9888430A900E98C068CD
:101F30000D99490000FA01F10A9808430A900A989D
:101F40000F9988600F9840680A900D99012000FA57
:101F500001F10A9888430A900E984068C0F3001077
:101F60000D9900FA01F10A9808430A900A980F990E
:101F70004860FFE70E98406800F00300032818D07F
:101F8000FFE70F98C0680A900D984100032000FAFF
:101F900001F10A9888430A900E9880680D994900CB
:101FA00000FA01F10A9808430A900A980F99C8604C
:101FB000FFE70E98406800F00300022826D1FFE7F3
:101FC0000F980D996FF0030202EA51010844006A6C
:101FD0000A900D9800F0070081000F2000FA01F12F
:101FE0000A9888430A900E9800690D9901F007013C
:101FF000890000FA01F10A9808430A900A980F999B
:102000000D9B02EA530211440862FFE70F98006833
:102010000A900D984100032000FA01F10A988843C4
:102020000A900E98406800F003000D99490000FAEC
:1020300001F10A9808430A900A980F9908600E98CF
:1020400080798007002800F02A81FFE7FFE7002061
:10205000099043F64400C4F20200016841F4804153
:102060000160006800F4804009900998FFE70D982E
:1020700020F0030043F60801C4F2010140580A9021
:102080000D9800F0030081000F2000FA01F10A987A
:1020900088430A900F980021C4F20201884203D1BC
:1020A000FFE7002008907AE00F9840F20041C4F268
:1020B0000201884203D1FFE7012007906CE00F98EE
:1020C00040F60001C4F20201884203D1FFE702207A
:1020D00006905EE00F9840F60041C4F2020188428B
:1020E00003D1FFE70320059050E00F9841F2000173
:1020F000C4F20201884203D1FFE70420049042E0C9
:102100000F9841F20041C4F20201884203D1FFE777
:102110000520039034E00F9841F60001C4F202015B
:10212000884203D1FFE70620029026E00F9841F68F
:102130000041C4F20201884203D1FFE70720019069
:1021400018E00F9842F20001C4F20201884203D164
:10215000FFE7082000900AE00F9942F20042C4F223
:1021600002020A20914208BF09200090FFE7009870
:102170000190FFE701980290FFE702980390FFE7C4
:1021800003980490FFE704980590FFE705980690F0
:10219000FFE706980790FFE707980890FFE7089881
:1021A000C0B20D9901F00301890000FA01F10A980B
:1021B00008430A900A980D9921F0030143F608029A
:1021C000C4F20102885043F60840C4F201000068DE
:1021D0000A900B990A9888430A900E988079C00655
:1021E000002805D5FFE70B990A9808430A90FFE7F6
:1021F0000A9843F60841C4F20101086043F60C4016
:10220000C4F2010000680A900B990A9888430A906A
:102210000E9880798006002805D5FFE70B990A986B
:1022200008430A90FFE70A9843F60C41C4F2010103
:10223000086043F60440C4F2010000680A900B995C
:102240000A9888430A900E9880798007002805D55F
:10225000FFE70B990A9808430A90FFE70A9843F6AC
:102260000441C4F20101086043F60040C4F20100D9
:1022700000680A900B990A9888430A900E98807912
:10228000C00728B1FFE70B990A9808430A90FFE7B7
:102290000A9843F60041C4F201010860FFE7FFE736
:1022A000FFE70D9801300D9013E610B07047000065
:1022B00082B00190ADF802108DF801209DF8010068
:1022C00028B1FFE7BDF802000199886105E0BDF87B
:1022D0000200000401998861FFE702B07047000026
:1022E00040F67C50C2F200000068704740F23000B7
:1022F000C2F20000027840F67C51C2F20001086888
:10230000104408607047000080B543F60041C4F2F5
:102310000201086840F400700860086840F48060BA
:102320000860086840F480700860032000F08AF8B4
:102330000F2000F005F800F03BF8002080BD000001
:1023400080B582B0009040F22C00C2F2000000681C
:1023500040F23001C2F200010A784FF47A71B1FB09
:10236000F2F1B0FBF1F000F005FE20B1FFE7012033
:102370008DF8070018E000980F280DD8FFE70099A6
:102380004FF0FF30002200F043F8009840F2340193
:10239000C2F20001086003E001208DF8070003E0AD
:1023A00000208DF80700FFE79DF8070002B080BD10
:1023B00082B0FFE70020019043F64400C4F202001F
:1023C000016841F480410160006800F480400190A0
:1023D0000198FFE7FFE70020009043F64000C4F2B9
:1023E0000200016841F080510160006800F08050F7
:1023F00000900098FFE702B07047000080B582B0FF
:102400008DF807009DF9070004F034FE02B080BD8E
:1024100080B586B08DF817000491039200200290D9
:1024200004F040FE02909DF9170001900298049973
:10243000039A01F0C3FF0146019804F03BFE06B089
:1024400080BD000080B582B00190019804F054FE78
:1024500002B080BD80B584B000200290FFE700206C
:10246000019043F64000C4F20200016841F080513F
:102470000160006800F0805001900198FFE7402162
:10248000C4F20E2101200860FFF72AFF0290FFE747
:1024900047F20400C4F20000006800F48030B0F598
:1024A000803F0DD0FFE7FFF71BFF0299401AB0F500
:1024B0007A7F04D9FFE703208DF80F0025E0E7E7D6
:1024C0004421C4F20E2101200860FFF709FF0290A9
:1024D000FFE747F20400C4F20000006800F4003097
:1024E000B0F5003F0DD0FFE7FFF7FAFE0299401A62
:1024F000B0F57A7F04D9FFE703208DF80F0004E0E0
:10250000E7E700208DF80F00FFE79DF80F0004B00B
:1025100080BD000080B584B002900191029820B97E
:10252000FFE701208DF80F0021E1019843F60041FB
:10253000C4F20201096801F00F01884212D9FFE7D5
:10254000019943F60040C4F202000170006800F0F7
:102550000F000199884204D0FFE701208DF80F0099
:1025600005E1FFE702980078800700282AD5FFE7F9
:10257000029800784007002809D5FFE743F60801D4
:10258000C4F20201086840F4E0500860FFE70298D6
:1025900000780007002809D5FFE743F60801C4F2D8
:1025A0000201086840F460400860FFE743F6080154
:1025B000C4F20201086820F0F000029A9268104309
:1025C0000860FFE702980078C00700286ED0FFE798
:1025D00002984068012811D1FFE743F60000C4F2D9
:1025E0000200006800F400310020B0EB514F04D12C
:1025F000FFE701208DF80F00B9E02CE00298406859
:10260000022805D0FFE702984068032811D1FFE7B0
:1026100043F60000C4F20200006800F000710020E0
:10262000B0EB516F04D1FFE701208DF80F009EE061
:1026300010E043F60000C4F20200006800F002015E
:102640000020B0EB510F04D1FFE701208DF80F00FF
:102650008DE0FFE7FFE743F60801C4F202010868D6
:1026600020F00300029A526810430860FFF738FE1A
:102670000090FFE743F60800C4F20200006800F093
:102680000C0002994968B0EB810F0ED0FFE7FFF70D
:1026900027FE0099401A41F28931884204D3FFE7AE
:1026A00003208DF80F0062E0E4E7FFE7019843F6AE
:1026B0000041C4F20201096801F00F01884212D200
:1026C000FFE7019943F60040C4F202000170006880
:1026D00000F00F000199884204D0FFE701208DF837
:1026E0000F0044E0FFE702980078400700280CD56F
:1026F000FFE743F60801C4F20201086820F4E05045
:10270000029AD26810430860FFE702980078000739
:1027100000280DD5FFE743F60801C4F2020108685E
:1027200020F46040029A126940EAC2000860FFE7A4
:1027300000F04CF843F60801C4F202010968C9B27E
:102740000A0947F2C411C0F60001895CC84040F292
:102750002C01C2F20001086040F23400C2F2000015
:102760000068FFF7EDFD00208DF80F00FFE79DF8F2
:102770000F0004B080BD000040F22C00C2F2000047
:102780000068704780B5FFF7F7FF43F60801C4F211
:1027900002010968C1F3822247F2D411C0F6000198
:1027A000895CC84080BD000080B5FFF7E5FF43F6B7
:1027B0000801C4F20201096889B24A0B47F2D41138
:1027C000C0F60001895CC84080BD000080B586B0BD
:1027D0000020059004900390029043F60800C4F294
:1027E0000200006800F00C000146019140B1FFE7D3
:1027F000019804280AD0FFE7019808280CD04FE080
:1028000042F20040C0F2F40002904FE041F6003086
:10281000C0F2B700029049E043F60400C4F202009F
:10282000016801F03F01059100684002002813D5BE
:10283000FFE743F60400C4F202000068C0F388100A
:1028400041F60031C0F2B701A0FB0101059A002357
:10285000FDF732FD049012E043F60400C4F20200DA
:102860000068C0F3881042F20041C0F2F401A0FBFE
:102870000101059A0023FDF71FFD0490FFE743F6D1
:102880000400C4F20200006800F44031022000EBB2
:10289000D130039004980399B0FBF1F0029005E069
:1028A00042F20040C0F2F4000290FFE7029806B046
:1028B00080BD000080B586B00490049820B9FFE781
:1028C00001208DF8170050E304980078C007002815
:1028D00000F0A580FFE743F60800C4F2020000689C
:1028E00000F00C00042813D0FFE743F60800C4F200
:1028F0000200006800F00C0008281ED1FFE743F634
:102900000400C4F2020000684002002815D5FFE769
:1029100043F60000C4F20200006800F40031002019
:10292000B0EB514F08D0FFE70498406820B9FFE7AB
:1029300001208DF8170018E370E0FFE70498406865
:10294000B0F5803F09D1FFE743F60001C4F2020170
:10295000086840F48030086020E004984068B0F5D2
:10296000A02F0DD1FFE743F60001C4F20201086871
:1029700040F480200860086840F4803008600CE073
:1029800043F60001C4F20201086820F480300860B8
:10299000086820F480200860FFE7FFE7FFE704985D
:1029A0004068E8B1FFE7FFF79BFC0390FFE743F6C1
:1029B0000000C4F20200006800F400310020B0EB17
:1029C000514F0CD1FFE7FFF78BFC0399401A6528A4
:1029D00004D3FFE703208DF81700C6E2E7E71CE009
:1029E000FFF77EFC0390FFE743F60000C4F202000D
:1029F000006800F400310020B0EB514F0CD0FFE72D
:102A0000FFF76EFC0399401A652804D3FFE7032003
:102A10008DF81700A9E2E7E7FFE7FFE7FFE7049873
:102A200000788007002840F19680FFE743F6080011
:102A3000C4F20200006810F00C0F13D0FFE743F659
:102A40000800C4F20200006800F00C0008282CD135
:102A5000FFE743F60400C4F20200006840020028C9
:102A600023D4FFE743F60000C4F20200006800F040
:102A700002010020B0EB510F09D0FFE70498C068B5
:102A8000012804D0FFE701208DF817006DE243F61E
:102A90000001C4F20201086820F0F800049A1269EB
:102AA00040EAC2000860FFE754E00498C06870B3D1
:102AB000FFE70021C4F2472101200860FFF710FC66
:102AC0000390FFE743F60000C4F20200006800F044
:102AD00002010020B0EB510F0CD1FFE7FFF700FC23
:102AE0000399401A032804D3FFE703208DF8170049
:102AF0003BE2E7E743F60001C4F20201086820F078
:102B0000F800049A126940EAC200086021E000213E
:102B1000C4F2472100200860FFF7E2FB0390FFE7C3
:102B200043F60000C4F20200006800F00201002039
:102B3000B0EB510F0CD0FFE7FFF7D2FB0399401A1F
:102B4000032804D3FFE703208DF817000DE2E7E721
:102B5000FFE7FFE7FFE704980078000700284BD560
:102B6000FFE70498406918B3FFE740F68061C4F2BC
:102B7000472101200860FFF7B3FB0390FFE743F60E
:102B80007400C4F20200006800F002010020B0EB03
:102B9000510F0CD1FFE7FFF7A3FB0399401A03285D
:102BA00004D3FFE703208DF81700DEE1E7E722E01A
:102BB00040F68061C4F2472100200860FFF790FBD7
:102BC0000390FFE743F67400C4F20200006800F0CF
:102BD00002010020B0EB510F0CD0FFE7FFF780FBA4
:102BE0000399401A032804D3FFE703208DF8170048
:102BF000BBE1E7E7FFE7FFE704980078400700281C
:102C000040F1CE80FFE700208DF8070043F640003A
:102C1000C4F202000068C000002815D4FFE7FFE7F7
:102C20000020009043F64000C4F20200016841F029
:102C300080510160006800F0805000900098FFE72C
:102C400001208DF80700FFE747F20000C4F2000002
:102C50000068C005002822D4FFE747F20001C4F253
:102C60000001086840F480700860FFF739FB0390AA
:102C7000FFE747F20000C4F200000068C00500282A
:102C80000CD4FFE7FFF72CFB0399401A032804D369
:102C9000FFE703208DF8170067E1EAE7FFE7FFE7AA
:102CA00004988068012809D1FFE743F67001C4F257
:102CB0000201086840F0010008601FE00498806885
:102CC00005280DD1FFE743F67001C4F20201086840
:102CD00040F004000860086840F0010008600CE063
:102CE00043F67001C4F20201086820F00100086098
:102CF000086820F004000860FFE7FFE7FFE704989A
:102D00008068F8B1FFE7FFF7EBFA0390FFE743F6BF
:102D10007000C4F20200006800F002010020B0EB75
:102D2000510F0ED1FFE7FFF7DBFA0399401A41F28A
:102D30008931884204D3FFE703208DF8170014E19E
:102D4000E5E71EE0FFF7CCFA0390FFE743F67000DB
:102D5000C4F20200006800F002010020B0EB510F45
:102D60000ED0FFE7FFF7BCFA0399401A41F2893110
:102D7000884204D3FFE703208DF81700F5E0E5E76C
:102D8000FFE79DF80700012809D1FFE743F640015E
:102D9000C4F20201086820F080500860FFE7FFE7F6
:102DA00004988069002800F0DC80FFE743F6080003
:102DB000C4F20200006800F00C00082800F08580D2
:102DC000FFE70498806902285CD1FFE76021C4F224
:102DD000472100200860FFF783FA0390FFE743F6DE
:102DE0000000C4F20200006800F000710020B0EBA7
:102DF000516F0CD0FFE7FFF773FA0399401A0328CD
:102E000004D3FFE703208DF81700AEE0E7E704994D
:102E1000C869D1F820C04B6A8A6A40EA0C0040EACF
:102E20008310D2034FF6FF739A43A2F5803210430A
:102E3000C96A40EA016043F60401C4F20201086075
:102E40006021C4F2472101200860FFF749FA03908E
:102E5000FFE743F60000C4F20200006800F00071D2
:102E60000020B0EB516F0CD1FFE7FFF739FA03995F
:102E7000401A032804D3FFE703208DF8170074E0FD
:102E8000E7E721E06021C4F2472100200860FFF756
:102E900027FA0390FFE743F60000C4F2020000683F
:102EA00000F000710020B0EB516F0CD0FFE7FFF78E
:102EB00017FA0399401A032804D3FFE703208DF87B
:102EC000170052E0E7E7FFE74AE00498806901282D
:102ED00004D1FFE701208DF8170046E043F6040017
:102EE000C4F202000068029004988069012831D081
:102EF000FFE7029800F480000499C969884229D14B
:102F0000FFE7029800F03F000499096A884221D146
:102F1000FFE7029847F6C07108400499496AB0EB90
:102F2000811F17D1FFE7029800F440300499896AA5
:102F3000C9034FF6FF729143A1F58031884209D150
:102F4000FFE7029800F070600499C96AB0EB016F66
:102F500004D0FFE701208DF8170006E0FFE7FFE748
:102F6000FFE700208DF81700FFE79DF8170006B077
:102F700080BD000080B582B00190019803F012F985
:102F800002B080BD81B0009001B0704781B0009068
:102F900001B0704780B582B00090009820B9FFE77B
:102FA00001208DF807003FE0009890F83D0040B9FF
:102FB000FFE70099002081F83C00009800F038F805
:102FC000FFE70099022081F83D00009951F8040BB9
:102FD00003F096F90099012081F84600FFE7009977
:102FE000012081F83E00009981F83F00009981F8A6
:102FF0004000009981F84100FFE7FFE700990120B8
:1030000081F84200009981F84300009981F844005A
:10301000009981F84500FFE70099012081F83D0003
:1030200000208DF80700FFE79DF8070002B080BD83
:1030300080B586B005900598006844F60001C4F29A
:10304000010188421BD1FFE7FFE70020049043F60F
:103050004400C4F20200016841F48021016000686C
:1030600000F4802004900498FFE71A2002900022C8
:103070001146FFF7CDF90298FFF7C0F924E0059853
:10308000006841F60041C4F2000188421BD1FFE70D
:10309000FFE70020039043F64000C4F202000168FD
:1030A00041F080010160006800F080000390039807
:1030B000FFE72C20019000221146FFF7A9F90198A3
:1030C000FFF79CF9FFE7FFE706B080BD83B00190F2
:1030D000019890F83D00012804D0FFE701208DF809
:1030E0000B006AE00199022081F83D000198016817
:1030F000C86840F00100C860019800680021C4F26F
:10310000010188423CD0FFE701980068B0F1804F90
:1031100036D0FFE70198006840F20041C4F2000198
:1031200088422DD0FFE70198006840F60001C4F204
:103130000001884224D0FFE70198006840F6004172
:10314000C4F2000188421BD0FFE70198006840F2FA
:103150000041C4F20101884212D0FFE701980068E3
:1031600044F20001C4F20101884209D0FFE701984E
:10317000006841F60001C4F20001884212D1FFE765
:1031800001980068806800F0070000900098062809
:1031900007D0FFE701980168086840F00100086067
:1031A000FFE706E001980168086840F00100086048
:1031B000FFE700208DF80B00FFE79DF80B0003B040
:1031C0007047000081B0009001B0704780B582B0B8
:1031D000019001980068006900F002010020B0EB46
:1031E000510F28D0FFE701980068C06800F0020185
:1031F0000020B0EB510F1DD0FFE7019801686FF080
:10320000020008610199012008770198006880692F
:10321000800720B1FFE70198FFF7D4FF06E001988F
:1032200000F012F9019800F013F9FFE7019900206E
:103230000877FFE7FFE701980068006900F00401E4
:103240000020B0EB910F29D0FFE701980068C0681B
:1032500000F004010020B0EB910F1ED0FFE70198B1
:1032600001686FF004000861019902200877019855
:103270000068806910F4407F04D0FFE70198FFF7F1
:10328000A1FF06E0019800F0DFF8019800F0E0F8F7
:10329000FFE7019900200877FFE7FFE70198006842
:1032A000006900F008010020B0EBD10F28D0FFE743
:1032B00001980068C06800F008010020B0EBD10F51
:1032C0001DD0FFE7019801686FF0080008610199BF
:1032D0000420087701980068C069800720B1FFE7E3
:1032E0000198FFF76FFF06E0019800F0ADF8019834
:1032F00000F0AEF8FFE7019900200877FFE7FFE74D
:1033000001980068006900F010010020B0EB111F67
:1033100029D0FFE701980068C06800F01001002084
:10332000B0EB111F1ED0FFE7019801686FF010008D
:10333000086101990820087701980068C06910F4B5
:10334000407F04D0FFE70198FFF73CFF06E00198BB
:1033500000F07AF8019800F07BF8FFE7019900206F
:103360000877FFE7FFE7019800680069C00780B1B0
:10337000FFE701980068C068C00748B1FFE70198FF
:1033800001686FF001000861019800F065F8FFE73F
:10339000FFE7019800680069C1B20020B0EBD11FBF
:1033A00013D0FFE701980068C068C1B20020B0EBFD
:1033B000D11F09D0FFE7019801686FF08000086114
:1033C0000198FFF7DFFDFFE7FFE70198006800695C
:1033D00000F040010020B0EB911F14D0FFE70198EE
:1033E0000068C06800F040010020B0EB911F09D0D8
:1033F000FFE7019801686FF040000861019800F054
:103400005BF8FFE7FFE701980068006900F0200122
:103410000020B0EB511F14D0FFE701980068C0688E
:1034200000F020010020B0EB511F09D0FFE7019808
:1034300001686FF0200008610198FFF7A7FDFFE722
:10344000FFE702B080BD000081B0009001B070477E
:1034500081B0009001B0704780B582B001900198B2
:10346000006844F60001C4F20101884216D1FFE76A
:1034700001F06CFF40F2DC70C2F2000069460860A7
:1034800040F23C70C2F2000040F6DB03C2F20003DF
:10349000012140F2011203F023FCFFE701980068CC
:1034A00041F60041C4F20001884203D1FFE701F078
:1034B000ADFFFFE702B080BD81B0009001B0704762
:1034C00082B00190ADF8021002B0704780B584B0B0
:1034D000039000200290039800684069C0B2C009C0
:1034E0000290039890F83D00212823D1FFE702982D
:1034F00000B3FFE7FFE7FFE70398006850E8050F18
:1035000020F080000190FFE701990398026842E8EB
:1035100005100028F0D1FFE7FFE70398406B28B1C2
:10352000FFE70398406BFEF789F9FFE7039803F084
:1035300095F9FFE7039800684069C0F38010029096
:10354000039890F83E00222823D1FFE7029800B3A9
:10355000FFE7FFE7FFE70398006850E8050F20F05A
:1035600040000090FFE700990398026842E80510C8
:103570000028F0D1FFE7FFE70398806B28B1FFE751
:103580000398806BFEF75AF9FFE7039803F008F9F8
:10359000FFE7002004B080BD81B0009001B070470B
:1035A00080B592B011901198006800681090119841
:1035B0000068C0680F901198006840690E90002064
:1035C0000D900C90109800F00F000D900D9888B998
:1035D000FFE79DF84000800600280AD5FFE79DF828
:1035E0003C008006002804D5FFE7119803F052F94B
:1035F000E3E1FFE70D98002800F0C280FFE79DF8A7
:103600003800C00738B9FFE7BDF83C0010F4907FE0
:1036100000F0B680FFE79DF84000C00758B1FFE713
:103620009DF83D00C00730B1FFE71199086C40F0EC
:1036300001000864FFE79DF84000400700280BD513
:10364000FFE79DF83800C00730B1FFE71199086C1B
:1036500040F002000864FFE79DF840008007002862
:103660000BD5FFE79DF83800C00730B1FFE711998F
:10367000086C40F004000864FFE79DF84000000774
:10368000002811D5FFE79DF83C008006002805D4EE
:10369000FFE79DF83800C00730B1FFE71199086CCB
:1036A00040F008000864FFE71198006C002866D01D
:1036B000FFE79DF84000800600280AD5FFE79DF847
:1036C0003C008006002804D5FFE7119803F0E2F8DB
:1036D000FFE7119800684069C0F380100C901198C2
:1036E000006C0007002804D4FFE70C9800283ED0A7
:1036F000FFE7119803F054F81198006840694006FC
:1037000000282FD5FFE7FFE7FFE71198006850E892
:10371000050F20F040000B90FFE70B99119802680D
:1037200042E805100028F0D1FFE7FFE71198806B11
:1037300098B1FFE71198816B46F25150C0F6000036
:1037400008651198806BFEF7EFF828B1FFE7119834
:10375000806B016D8847FFE703E01198FFF71CFFBE
:10376000FFE703E01198FFF717FFFFE706E0119866
:10377000FFF712FF119900200864FFE7FFE71CE143
:103780001198006B012840F0F880FFE79DF8400099
:10379000C006002840F1F180FFE79DF83C00C0061C
:1037A000002840F1EA80FFE7FFE700200A90119827
:1037B000006800680A901198006840680A900A98AA
:1037C000FFE7119800684069400600287ED5FFE7B2
:1037D0001198806B00684068ADF82600BDF826009F
:1037E000002872D0FFE7BDF826001199898D884224
:1037F0006BDAFFE7BDF826001199C8851198806B38
:10380000C069B0F5807F58D0FFE7FFE7FFE7119868
:10381000006850E8030F20F480700890FFE70899D3
:103820001198026842E803100028F0D1FFE7FFE793
:10383000FFE7FFE71198006850E8050F20F001004E
:103840000790FFE707991198026842E805100028E1
:10385000F0D1FFE7FFE7FFE7FFE71198006850E8C6
:10386000050F20F040000690FFE7069911980268C6
:1038700042E805100028F0D1FFE7FFE7119920206A
:1038800081F83E00119900200863FFE7FFE71198D7
:10389000006850E8030F20F010000590FFE705993D
:1038A0001198026842E803100028F0D1FFE7FFE713
:1038B0001198806BFDF7C2FFFFE71198818DC28DD3
:1038C000891A89B2FFF7FCFDFFE776E01199888D30
:1038D000C98D401AADF812001198C08D00284BD048
:1038E000FFE7BDF81200002846D0FFE7FFE7FFE73B
:1038F0001198006850E8030F20F490700390FFE7E0
:1039000003991198026842E803100028F0D1FFE7FC
:10391000FFE7FFE7FFE71198006850E8050F20F088
:1039200001000290FFE702991198026842E8051031
:103930000028F0D1FFE7FFE71199202081F83E0031
:10394000119900200863FFE7FFE71198006850E82D
:10395000030F20F010000190FFE701991198026811
:1039600042E803100028F0D1FFE7FFE71198BDF807
:103970001210FFF7A5FDFFE71FE09DF840000006CD
:1039800000280AD5FFE79DF83C000006002804D572
:10399000FFE7119803F05AF90FE09DF84000400648
:1039A00000280AD5FFE79DF83C004006002804D512
:1039B000FFE7119802F03EFFFFE712B080BD000064
:1039C00080B582B00090009820B9FFE701208DF803
:1039D00007003EE00098806908B1FFE700E0FFE7DC
:1039E000009890F83D0040B9FFE70099002081F869
:1039F0003C00009800F032F8FFE70099242081F89D
:103A00003D0000980168C86820F40050C860009824
:103A100002F0F2FF00980168086920F49040086104
:103A200000980168486920F02A0048610098016800
:103A3000C86840F40050C860009900200864009AEB
:103A4000202182F83D10009A82F83E108DF8070080
:103A5000FFE79DF8070002B080BD000080B592B07E
:103A60001190002010900F900E900D900C901198D6
:103A7000006844F60041C4F20001884240F09080A2
:103A8000FFE7FFE700200B9043F64000C4F202007E
:103A9000016841F400210160006800F400200B90EF
:103AA0000B98FFE7FFE700200A9043F63000C4F2CE
:103AB0000200016841F001010160006800F00100AE
:103AC0000A900A98FFE703200C9002210D91002133
:103AD00006910E910F90082010900020C4F2020071
:103AE0000CA9FEF7EDF9069940F69C10C2F2000011
:103AF000079046F27002C4F2020202604FF00062C8
:103B0000426040228260C1604FF480620261416184
:103B10008161C16101624162FEF7B8F818B1FFE747
:103B2000FCF7CAFEFFE7FFE7119840F69C11C2F2CE
:103B30000001416311988863FFE740F63C10C2F230
:103B40000000059046F24001C4F2020101604FF00E
:103B50000061416000218160C1604FF480620261B8
:103B600041618161C16101624162FEF78FF818B164
:103B7000FFE7FCF7A1FEFFE7FFE7119840F63C11D5
:103B8000C2F20001816311988863FFE7342004903A
:103B900000221146FEF73CFC0498FEF72FFC6FE074
:103BA0001198006844F20041C4F20001884266D1D5
:103BB000FFE7FFE70020099043F64000C4F202004F
:103BC000016841F400310160006800F400300990A0
:103BD0000998FFE7FFE70020089043F63000C4F2A1
:103BE0000200016841F001010160006800F001007D
:103BF00008900898FFE70C200C9002200D90002000
:103C000002900E9003200F90072010900020C4F225
:103C100002000CA9FEF754F9029940F6FC10C2F21A
:103C20000000039046F28802C4F2020202604FF0E4
:103C3000006242608160C1604FF480620261416154
:103C40008161C16101624162FEF720F818B1FFE7AE
:103C5000FCF732FEFFE7FFE7119840F6FC11C2F2D5
:103C60000001816311988863FFE7262001900022FC
:103C70001146FEF7CDFB0198FEF7C0FBFFE7FFE71B
:103C800012B080BD80B584B002900191ADF80220E1
:103C9000029890F83E00202828D1FFE7019820B133
:103CA000FFE7BDF8020020B9FFE701208DF80F0003
:103CB00020E0FFE7029890F83C00012804D1FFE7DC
:103CC00002208DF80F0015E00299012081F83C00D8
:103CD000FFE7FFE702990020086302980199BDF809
:103CE000022002F027FF8DF80F0003E002208DF87C
:103CF0000F00FFE79DF80F0004B080BD81B0009079
:103D000001B0704781B0009001B0704780B586B0B7
:103D100004900391ADF80A20049890F83D00202803
:103D200074D1FFE7039820B1FFE7BDF80A0020B97E
:103D3000FFE701208DF817006CE0FFE7049890F88A
:103D40003C00012804D1FFE702208DF8170061E054
:103D50000499012081F83C00FFE7FFE703980499EC
:103D60000862BDF80A0004998884BDF80A00049925
:103D7000C884049900200864049A212182F83D1027
:103D800004994A6B46F20D71C0F60001D1630499A3
:103D90004A6B46F28971C0F60001116404994A6BBE
:103DA00046F27151C0F60001D1640499496B08656F
:103DB00003A8019004980268406B019909680432D5
:103DC000BDF80A30FEF71AF8049801686FF0400059
:103DD0000860FFE70499002081F83C00FFE7FFE757
:103DE000FFE70498006850E8050F40F0800000905D
:103DF000FFE700990498026842E805100028F0D116
:103E0000FFE7FFE700208DF8170003E002208DF8A0
:103E10001700FFE79DF8170006B080BD81B0009045
:103E200001B0704781B0009001B07047FFE7FEE736
:103E300080B582B040F6EC00C2F20000019046F27C
:103E40000041C4F200010160052141600021816050
:103E5000C1604FF4A02202614FF4801242610176EA
:103E6000012242768176C17601774177FDF730FAFB
:103E700018B1FFE7FCF720FDFFE702B080BD0000AE
:103E800080B582B040F61410C2F20000019046F6F0
:103E90000001C4F200010160052141600021816040
:103EA000C1604FF4A02202614FF48012426101769A
:103EB000012242768176C17601774177FDF708FAD3
:103EC00018B1FFE7FCF7F8FCFFE702B080BD000087
:103ED00080B586B0FFE70020059043F63000C4F2BD
:103EE0000200016841F400110160006800F4001054
:103EF00005900598FFE70D200190002203921146DE
:103F0000FEF786FA0198FEF779FA039A0F200290DD
:103F10001146FEF77DFA0298FEF770FA039A102018
:103F200004901146FEF774FA0498FEF767FA06B09B
:103F300080BD000080B590B000200F900E900D90D5
:103F40000C900B90FFE700200A9043F63000C4F27B
:103F50000200016841F080010160006800F080000B
:103F60000A900A98FFE7FFE70020099043F6300027
:103F7000C4F20200016841F001010160006800F034
:103F8000010009900998FFE7FFE70020089043F639
:103F90003000C4F20200016841F0080101600068CD
:103FA00000F0080008900898FFE7FFE7002007905E
:103FB00043F63000C4F20200016841F002010160E2
:103FC000006800F0020007900798FFE7FFE7002075
:103FD000069043F63000C4F20200016841F010017F
:103FE0000160006800F0100006900698FFE740F2BC
:103FF0000040C4F2020001904FF440710091002291
:104000000392FEF755F9039A41F20000C4F2020050
:10401000049001210291FEF74BF9009B0198029A4E
:1040200003990B930C920D910E910BA90591FDF73D
:1040300047FF029B039A049805990B930C930D92EA
:104040000E92FDF73DFF10B080BD000080B540F638
:104050005C20C2F2000044F60001C4F201010160DC
:1040600040F2833141600021816040F2E732C2605A
:1040700001618161FEF78EFF18B1FFE7FCF71CFCC0
:10408000FFE740F65C20C2F20000FFF71FF880BD9A
:1040900080B540F6A420C2F2000041F60041C4F20F
:1040A000000101604FF47A7141600021816040F2AB
:1040B0005722C26001618161FEF76CFF18B1FFE712
:1040C000FCF7FAFBFFE740F6A420C2F20000FEF77F
:1040D000FDFF80BD80B582B040F63030C2F20000F6
:1040E000019044F60041C4F2000101604FF4E13157
:1040F000416000218160C16001610C2242618161E7
:10410000C161FFF75DFC18B1FFE7FCF7D5FBFFE7E6
:1041100040F63030C2F200000168C86840F010007C
:10412000C86002B080BD000080B582B040F6EC20CF
:10413000C2F20000019044F20041C4F200010160AB
:104140004FF4E131416000218160C16001610C22C6
:1041500042618161C161FFF733FC18B1FFE7FCF7F1
:10416000ABFBFFE740F6EC20C2F200000168C86834
:1041700040F01000C86002B080BD000040F674300E
:10418000C2F2000044F69841C3F6555141614CF229
:10419000503101628161C1614FF4FA5141620021E5
:1041A000C16001610021C4F296318160416000214B
:1041B000C4F2EF31016090ED013A90ED020A90ED0A
:1041C000032A90ED041A30EE030AB0EE004A80EEA6
:1041D000040A30EE420A30EE010A9FED281A80EE02
:1041E000010A80ED0A0A90ED015A90ED020A90ED65
:1041F000033A90ED042A30EE050A80EE040A30EE10
:10420000430A30EE420A80EE010A80ED0B0A90ED7F
:10421000015A90ED020A90ED033A90ED042A30EE37
:10422000050A80EE040A30EE030A30EE420A80EE00
:10423000010A80ED0C0A90ED015A90ED020A90ED12
:10424000033A90ED042A30EE050A80EE040A30EEBF
:10425000030A30EE020A80EE010A80ED0D0A90EDAD
:10426000000A90ED051A20EE011A9FED050A80EE76
:10427000010A80ED0E0A0120704700BF333365420A
:104280000000704286B0ADF81600ADF81410ADF81D
:10429000122000200390029001900090BDF91610AA
:1042A000BDF91400401A00EE100AB8EEC02ABDF99C
:1042B000120000EE100AB8EEC00A40F67430C2F2E6
:1042C000000090ED0A3A90ED0E1A20EE030A30EE4F
:1042D000020A20EE010A8DED000ABDF91610BDF9A3
:1042E0001420114400EE101AB8EEC02ABDF91210C5
:1042F00000EE101AB8EEC00A90ED0B3A90ED0E1ACF
:1043000020EE030A30EE020A20EE010A8DED010ACA
:10431000BDF91610BDF91420891A00EE101AB8EE76
:10432000C02ABDF9121000EE101AB8EEC00A90EDC6
:104330000C3A90ED0E1A20EE030A30EE020A20EE3F
:10434000010A8DED020ABDF91610BDF914201144C1
:10435000494200EE101AB8EEC02ABDF9121000EE64
:10436000101AB8EEC00A90ED0D3A90ED0E1A20EE3C
:10437000030A30EE020A20EE010A8DED030A0198CD
:1043800040F29C41C2F20001C861009840F24451E1
:10439000C2F20001C861039840F2EC51C2F2000180
:1043A000C861029840F29461C2F20001C86106B08F
:1043B00070470000FFE7FEE7FFE7FEE788B00790E1
:1043C00006910592079800F0070004900498C0F148
:1043D0000700052803D3FFE70420019004E00498B8
:1043E000C0F107000190FFE70198039004980430A2
:1043F000062803D8FFE70020009003E00498033864
:104400000090FFE70098029006980399012202FAB3
:1044100001F101390840029B984005999A40013A00
:104420001140084308B070477047000080B584B061
:104430008DF80E0040F2CC10C2F20000007858B99E
:10444000FFE700F0C7F840F2CC11C2F2000108709B
:1044500000208DF80F00B9E040F2CC10C2F200004D
:104460000078012805D1FFE79DF80E0000F030F933
:10447000FFE740F29C40C2F2000090ED070A90ED89
:10448000082A90ED291A30EE420A30EE010ABDEEFC
:10449000C00A10EE102A40F24450C2F2000090ED23
:1044A000070A90ED082A90ED291A30EE420A30EE04
:1044B000010ABDEEC00A10EE103A40F2EC50C2F212
:1044C000000090ED070A90ED082A90ED291A30EED1
:1044D000420A30EE010ABDEEC00A10EE100A40F2A8
:1044E0009461C2F2000191ED070A91ED082A91ED65
:1044F000291A30EE420A30EE010ABDEEC00A10EE73
:1045000010CA6946C1F804C0086040F6EC00C2F267
:1045100000004FF40071029100F078F8029940F227
:10452000FC10C2F2000090ED070A90ED082A90ED11
:104530001E1A30EE420A30EE010ABDEEC00A10EE3D
:10454000102A40F2A420C2F2000090ED070A90ED7C
:10455000082A90ED1E1A30EE420A30EE010ABDEE36
:10456000C00A10EE103A40F24C30C2F2000090ED5A
:10457000070A90ED082A90ED1E1A30EE420A30EE3E
:10458000010ABDEEC00A10EE100A40F2F43CC2F27D
:10459000000C9CED070A9CED082A9CED1E1A30EEDB
:1045A000420A30EE010ABDEEC00A10EE10EAEC46F7
:1045B000CCF804E0CCF8000040F61410C2F2000081
:1045C00000F024F801208DF80F00FFE79DF80F00A0
:1045D00004B080BD80B582B000F05EFD012804D03B
:1045E000FFE700208DF807000CE0FFF7C7FD01286A
:1045F00004D0FFE700208DF8070003E001208DF8CC
:104600000700FFE79DF8070002B080BD10B58EB02F
:104610008C46864611981099CDF834E0ADF832C03A
:10462000ADF83020ADF82E30ADF82C10ADF82A00E2
:1046300008200890002006900790BDF932000490F1
:104640009DF831008DF808009DF830008DF80900C4
:104650009DF82F008DF80A009DF82E008DF80B00B4
:104660009DF82D008DF80C009DF82C008DF80D00A4
:104670009DF82B008DF80E009DF82A008DF80F0094
:104680000D9840F6EC01C2F2000188420AD1FFE722
:1046900040F6EC00C2F2000004A902AA01ABFCF74C
:1046A00097F912E00D9840F61411C2F20001884209
:1046B0000AD1FFE740F61410C2F2000004A902AAD2
:1046C00001ABFCF785F9FFE7FFE70EB010BD000076
:1046D00080B586B08DF8170040F2E810C2F20000F5
:1046E000018840F2D012C2F200021180418840F2EB
:1046F000D212C2F200021180818840F2CE12C2F2C0
:1047000000021180817940F2D412C2F200021170CD
:10471000C07940F2CD11C2F2000108709DF8170077
:10472000D8B9FFE740F2D011C2F2000100200880A2
:1047300040F2D211C2F20001088040F2CE11C2F262
:104740000001088040F2D411C2F20001087040F26A
:10475000CD11C2F200010870FFE740F2D010C2F2A2
:104760000000B0F9000040F2D211C2F20001B1F92C
:10477000001040F2CE12C2F20002B2F90020FFF7A0
:1047800081FD40F29C40C2F20000049000F0ACFBBE
:1047900040F24450C2F2000000F0A6FB40F2EC50A0
:1047A000C2F2000000F0A0FB40F29460C2F20000F0
:1047B00000F09AFB049890ED1E0ABDEEC00A10EEC0
:1047C000100A00F003FA40F2F211C2F20001098867
:1047D000884212DDFFE740F29C40C2F2000090EDFB
:1047E0001E0ABDEEC00A10EE100A00F0EFF940F20A
:1047F000F211C2F200010880FFE740F24450C2F219
:10480000000090ED1E0ABDEEC00A10EE100A00F086
:10481000DDF940F2F411C2F200010988884212DD8C
:10482000FFE740F24450C2F2000090ED1E0ABDEED8
:10483000C00A10EE100A00F0C9F940F2F411C2F2F9
:1048400000010880FFE740F2EC50C2F2000090ED5A
:104850001E0ABDEEC00A10EE100A00F0B7F940F2D1
:10486000F611C2F200010988884212DDFFE740F22A
:10487000EC50C2F2000090ED1E0ABDEEC00A10EE30
:10488000100A00F0A3F940F2F611C2F2000108800C
:10489000FFE740F29460C2F2000090ED1E0ABDEE08
:1048A000C00A10EE100A00F091F940F2F811C2F2BD
:1048B00000010988884212DDFFE740F29460C2F2ED
:1048C000000090ED1E0ABDEEC00A10EE100A00F0C6
:1048D0007DF940F2F811C2F200010880FFE740F2D2
:1048E000D413C2F2000393F900003222504300EEC9
:1048F000100AB8EEC00A40F2FC10C2F2000080EDCF
:10490000070A93F90010494201FB02FE40F2CD1163
:10491000C2F2000191F900C00CFB12EC00EE10CACB
:10492000B8EEC00A40F2A42CC2F2000CCDF804C0CC
:104930008CED070A93F900C0CCF1000C0CFB02FCD3
:1049400000EE10CAB8EEC00A40F24C3CC2F2000CB5
:10495000CDF808C08CED070A93F90030534391F964
:10496000001001FB123100EE101AB8EEC00A40F23E
:10497000F431C2F20001039181ED070A00F042FA1E
:10498000019800F03FFA029800F03CFA039800F01A
:1049900039FA012006B080BD80B586B08DF81700C9
:1049A0000491FDF79DFC03909DF8170040F228014B
:1049B000C2F2000191F90010884224D0FFE70020E4
:1049C0000290FFE70298022815DCFFE7029A40F206
:1049D0001C00C2F2000050F8220040F21401C2F2A2
:1049E000000131F812100122FDF762FCFFE7029886
:1049F00001300290E6E79DF8170040F22801C2F26C
:104A000000010870FFE7039840F2D811C2F20001DC
:104A10000968401A0499884210D9FFE740F2D5117D
:104A2000C2F200010878B0FA80F0400908700398DB
:104A300040F2D811C2F200010860FFE700200190A7
:104A4000FFE70198022827DCFFE79DF8170000EB3D
:104A5000400140F20200C2F2000008440199405CAB
:104A6000A8B1FFE7019A40F21C00C2F2000050F822
:104A7000220040F21401C2F2000131F8121040F29B
:104A8000D512C2F200021278FDF712FCFFE7FFE731
:104A9000019801300190D4E706B080BD80B540F2A6
:104AA000DC10C2F200000078022840F08580FFE7A9
:104AB00040F2DC10C2F20000C07888B3FFE740F299
:104AC000DC10C2F20000007950B3FFE740F2DC10C6
:104AD000C2F20000407918B3FFE740F2DC10C2F2E6
:104AE00000008079E0B1FFE740F2DC10C2F2000084
:104AF000C079A8B1FFE740F2DC10C2F20000007AF2
:104B000070B1FFE740F2DC10C2F20000407A38B129
:104B1000FFE740F2DC10C2F20000807A28B9FFE71C
:104B200005203221FFF738FFFFE740F2DC10C2F228
:104B30000000C07801283ED1FFE740F2DC10C2F24D
:104B400000000079012836D1FFE740F2DC10C2F204
:104B50000000407901282ED1FFE740F2DC10C2F2BC
:104B600000008079012826D1FFE740F2DC10C2F274
:104B70000000C07901281ED1FFE740F2DC10C2F22C
:104B80000000007A012816D1FFE740F2DC10C2F2E3
:104B90000000407A01280ED1FFE740F2DC10C2F29B
:104BA0000000807A012806D1FFE701204FF4C87188
:104BB000FFF7F2FEFFE7FFE780BD000040F2DC11E7
:104BC000C2F20001022008700120704782B0ADF8E7
:104BD0000600BDF906100020B0EBE13F04D1FFE76D
:104BE000BDF90600009004E0BDF9060040420090C7
:104BF000FFE7009800B202B07047000085B08DED6D
:104C0000040ACDED030A8DED021A9DED020A9DED19
:104C1000041AB4EE410AF1EE10FA05DDFFE79DED4E
:104C2000040A8DED010A18E09DED020A9DED031ABC
:104C3000B4EE410AF1EE10FA05DAFFE79DED030A42
:104C40008DED000A04E09DED020A8DED000AFFE7FC
:104C50009DED000A8DED010AFFE79DED010A05B00B
:104C60007047000082B00190009101990889C880C6
:104C700000980178407840EA012001990881019963
:104C80008889488100988178C07840EA012001999C
:104C900088810198B0F90610B0F90800401A10F5A3
:104CA0007A6F05DAFFE70199C88A0130C8820FE000
:104CB0000198B0F90610B0F90800401AB0F57A6F03
:104CC00005DDFFE70199C88A0138C882FFE7FFE7E1
:104CD0000198B0F9162047F6F46000218242084698
:104CE000C8BF012048F20C13CFF6FF739A42B8BF39
:104CF0000121084368B1FFE701990020C8820198AB
:104D0000B0F9081000EE101AB8EEC00A80ED070ADC
:104D1000FFE70199B1F90800B1F9162000EB423024
:104D2000086101990F20087102B0704782B00190AC
:104D3000009101990889C88000980178407840EA7C
:104D4000012001990881019988894881009881781A
:104D5000C07840EA01200199888100980179407962
:104D600040EA01200199C8810198B0F90610B0F914
:104D70000800401A10F57A6F05DAFFE70199C88A32
:104D80000130C8820FE00198B0F90610B0F90800B0
:104D9000401AB0F57A6F05DDFFE70199C88A01383E
:104DA000C882FFE7FFE70198B0F9162047F6F460E4
:104DB000002182420846C8BF012048F20C13CFF6FA
:104DC000FF739A42B8BF0121084368B1FFE7019918
:104DD0000020C8820198B0F9081000EE101AB8EE51
:104DE000C00A80ED070AFFE701990F2008710199B9
:104DF000B1F90800B1F9162000EB4230086102B0A9
:104E00007047000080B582B00190019890ED070ACC
:104E1000B0F90C1001EE101AB8EEC11A30EE410ACA
:104E200080ED1A0A019890ED141A90ED1A0A20EEFE
:104E3000010A80ED1B0A019890ED161A90ED192ACF
:104E400090ED1A0A30EE420A20EE010ABDEEC00AC9
:104E500080ED1D0A019890ED152A90ED1A0A90ED4B
:104E60001C1A20EE020A30EE010A80ED1C0A01989D
:104E700090ED1C0A90ED1D1AB8EEC11A30EE010A31
:104E800080ED1C0A0198C16D00EE101AB8EEC00A40
:104E9000494201EE101AF8EEC10A90ED1C1AFFF714
:104EA000ADFE019880ED1C0A0199886E4866019854
:104EB00090ED1B0A90ED1C1A30EE010A80ED1E0ADF
:104EC0000198016E00EE101AB8EEC00A494201EED8
:104ED000101AF8EEC10A90ED1E1AFFF78FFE019826
:104EE00080ED1E0A02B080BD80B582B001900198AD
:104EF00090ED070AB0F90C1001EE101AB8EEC11AC5
:104F000030EE410A80ED1A0A019890ED141A90EDE6
:104F10001A0A20EE010A80ED1B0A019890ED161A7C
:104F200090ED192A90ED1A0A30EE420A20EE010A9D
:104F3000BDEEC00A80ED1D0A019890ED152A90ED96
:104F40001A0A90ED1C1A20EE020A30EE010A80EDDA
:104F50001C0A019890ED1C0A90ED1D1AB8EEC11ABA
:104F600030EE010A80ED1C0A0198C16D00EE101AA6
:104F7000B8EEC00A494201EE101AF8EEC10A90EDEF
:104F80001C1AFFF73BFE019880ED1C0A0199886E00
:104F90004866019890ED1B0A90ED1C1A30EE010A4C
:104FA00080ED1E0A0198016E00EE101AB8EEC00ADC
:104FB000494201EE101AF8EEC10A90ED1E1AFFF7F1
:104FC0001DFE019880ED1E0A019890ED1E0AB0F9B1
:104FD0000E1001EE101AB8EEC11A30EE410A80ED43
:104FE000250A019890ED1F1A90ED250A20EE010A7E
:104FF00080ED260A019890ED211A90ED242A90ED7B
:10500000250A30EE420A20EE010ABDEEC00A80ED0C
:10501000280A019890ED202A90ED250A90ED271A94
:1050200020EE020A30EE010A80ED270A0198D0F83E
:10503000881000EE101AB8EEC00A494201EE101AAC
:10504000F8EEC10A90ED271AFFF7D8FD019880ED20
:10505000270A0199D1F89400C1F89000019890EDC9
:10506000260A90ED271A30EE010A80ED290A0198F0
:10507000D0F88C1000EE101AB8EEC00A494201EECA
:10508000101AF8EEC10A90ED291AFFF7B7FD019842
:1050900080ED290A02B080BD80B598B047F2B01CFF
:1050A000C0F6000CDCF80000DCF80410DCF8082086
:1050B000DCF80C30DCF810C0CDF85CC0169315920B
:1050C0001491139047F29C1CC0F6000CDCF8000011
:1050D000DCF80410DCF80820DCF80C30DCF810C038
:1050E000CDF848C0119310920F910E9040F29C4061
:1050F000C2F20000029013AA0192002308931946FD
:1051000000F06CF8019A089B40F24450C2F2000093
:105110000390194600F062F8019A089B40F2EC50A7
:10512000C2F200000490194600F058F8019A089B5A
:1051300040F29460C2F200000590194600F04EF86B
:1051400002980EA9069100F0C3F80398069900F0A2
:10515000BFF80498069900F0BBF80598069900F08E
:10516000B7F8089B47F2881EC0F6000EDEF8000074
:10517000DEF80410DEF80820DEF80CC0DEF810E0DF
:10518000CDF834E0CDF830C00B920A91099040F28E
:10519000FC10C2F2000009AA0792194600F01EF89E
:1051A000079A089B40F2A420C2F20000194600F0C2
:1051B00015F8079A089B40F24C30C2F200001946DD
:1051C00000F00CF8079A089B40F2F430C2F200009D
:1051D000194600F003F8012018B080BD86B0049095
:1051E0008DF80F10029201939DF80F000146009177
:1051F000002842D0FFE70098012860D1FFE701981E
:10520000006804994862019840680499886201988E
:1052100080680499C862019890ED030A0498BDEE75
:10522000C00A80ED0C0A019890ED040A0498BDEEC6
:10523000C00A80ED0D0A029800680499086502987A
:1052400040680499486502988068049988650298C6
:1052500090ED030A0498BDEEC00A80ED170A02988B
:1052600090ED040A0498BDEEC00A80ED180A049976
:10527000012008708DF8170025E002980068049955
:105280000865029840680499486502988068049906
:105290008865029890ED030A0498BDEEC00A80ED7F
:1052A000170A029890ED040A0498BDEEC00A80ED3A
:1052B000180A0499012008708DF8170003E00020F7
:1052C0008DF81700FFE79DF8170006B07047000043
:1052D00082B001900091009800680199C867009819
:1052E00040680199C1F88000009880680199C1F870
:1052F0008400009890ED030A0198BDEEC00A80ED8D
:10530000220A009890ED040A0198BDEEC00A80EDD3
:10531000230A02B07047000082B00090009908791B
:1053200001380871009890F90400042806DCFFE7B2
:105330000099002008718DF8070003E001208DF826
:105340000700FFE79DF8070002B0704780B500F046
:1053500005F8FFF733FCFFF7A1FB80BD80B582B0F5
:1053600040F2DC10C2F20000007840B1FFE740F2EA
:10537000DC10C2F200000078022845D1FFE740F2BD
:105380009C40C2F20000FFF7C7FF40F2DC11C2F2FE
:1053900000010191C87040F24450C2F20000FFF7D2
:1053A000BBFF0199087140F2EC50C2F20000FFF718
:1053B000B3FF0199487140F29460C2F20000FFF718
:1053C000ABFF0199887140F2FC10C2F20000FFF7B8
:1053D000A3FF0199C87140F2A420C2F20000FFF7B8
:1053E0009BFF0199087240F24C30C2F20000FFF7B7
:1053F00093FF0199487240F2F430C2F20000FFF7C7
:105400008BFF01998872FFE702B080BD80B582B042
:1054100040F2DC10C2F2000081788DF806100078AE
:10542000022808D1FFE79DF80600FEF7FFFF0120E4
:105430008DF8070003E000208DF80700FFE79DF8D6
:10544000070002B080BD000080B584B002900191D9
:1054500002980078A52840F09786FFE7029805217A
:1054600001F0DAFD012840F08F86FFE70298B0F8DE
:105470000110093101F092FD012840F08586FFE717
:1054800002990878013008700298B0F805000146CA
:105490000091012800F09280FFE70098022800F0B8
:1054A000B980FFE70098032800F0C180FFE700986B
:1054B00040F20111884200F01381FFE70098B0F537
:1054C000817F00F0CC81FFE70098B0F5827F00F08B
:1054D000E381FFE7009840F20511884200F0F48173
:1054E000FFE7009840F20121884200F02B82FFE79D
:1054F000009840F20221884200F07682FFE700988F
:1055000040F20321884200F0A182FFE70098B0F545
:10551000017F00F0B582FFE7009840F20521884244
:1055200000F0CA82FFE7009840F20621884200F0AE
:10553000D582FFE7009840F20721884200F0EE8212
:10554000FFE70098B0F5027F00F00583FFE70098C1
:1055500040F20921884200F01883FFE7009840F2EA
:105560000A21884200F02284FFE7009840F20B21D4
:10557000884200F03984FFE70098B0F5037F00F01F
:105580007784FFE7009840F20D21884200F096846E
:10559000FFE7009840F20E21884200F0C284FFE746
:1055A000009840F20331884200F0DB84FFE7009866
:1055B000B0F5417F00F0F88400F0E1BD0298B0F84A
:1055C00001000B2824D1FFE70298C27901990878DD
:1055D00002F0F00200F00F00104408700298C07949
:1055E00000F00F020199087800F0F00010440870F4
:1055F000029800890199A1F801000299D1F80A00E6
:10560000D1F80E200199C1F80720C1F80300FFE787
:1056100000F0B9BD0298B0F80100012805D1FFE7FC
:105620000298C0790199C872FFE700F0ACBD0298FA
:10563000B0F80100202851D1FFE70298B0F8170018
:10564000019988830298B0F819000199C8830298DB
:10565000B0F81B00019908840298B0F81D00019968
:1056600048840298B0F81F00019988840298B0F825
:1056700021000199C8840298B0F825000199488555
:105680000298B0F82300019908850298B0F8070045
:10569000019988810298B0F809000199C88102989F
:1056A000B0F80B00019908820298B0F80D0001993A
:1056B00048820298B0F80F00019988820298B0F8E9
:1056C00011000199C8820298B0F815000199488329
:1056D0000298B0F8130001990883FFE700F053BD6A
:1056E0000298B0F80100042840F0B780FFE7029864
:1056F000C279019991F82C0002F0080200F0F7003D
:10570000104481F82C000298C279019991F82C007C
:1057100002F0200200F0DF00104481F82C00029813
:10572000C279019991F82C0002F0100200F0EF000C
:10573000104481F82C000298C279019991F82C004C
:1057400002F0C00200F03F00104481F82C000298E3
:10575000837A019931F82D0F8A7840EA024203F0EA
:1057600030034FF6FF7CC0F2CF0C02EA0C0242EA93
:105770000342120C8A7008800298817A008940EAFC
:105780000142019931F82D0F8B7840EA03404FF622
:105790000003C0F20F031A4040F2FF73C0F2F0039F
:1057A000184010440880000C88700298C07900F0FE
:1057B0000102019991F82C0000F0FE00104481F8DC
:1057C0002C000298C279019991F82C0002F0040291
:1057D00000F0FB00104481F82C000298837A0199B4
:1057E00031F82D0F8A7840EA024203F0C0036FF3CC
:1057F0009F5242EA0342120C8A7008800298C279D2
:10580000019991F82C0002F0020200F0FD00104412
:1058100081F82C0002980389019931F82D0F8A78BC
:1058200063F301008A70088002980389019931F8B6
:105830002D0F8A789B0863F383008A700880029892
:105840000389019931F82D0F8A7803F4FE6320F45F
:10585000FE6018448A700880FFE700F094BC02984C
:10586000B0F80100042815D1FFE70298C07901992A
:1058700081F830000298807A019981F8330002980B
:10588000407A019981F832000298007A019981F8F2
:105890003100FFE700F077BC0298B0F80100032860
:1058A00010D1FFE70298407A019981F836000298FA
:1058B000C079019981F834000298007A019981F841
:1058C0003500FFE700F05FBC0298B0F80100022845
:1058D00036D1FFE70298007A00F00302019991F8AF
:1058E000380000F0FC00104481F838000298027A79
:1058F000019991F8380002F0600200F09F00104416
:1059000081F838000298C079019981F8370002982F
:10591000027A019991F8380002F01C0200F0E300CD
:10592000104481F838000298027A019991F8380001
:1059300002F0800200F07F00104481F83800FFE799
:1059400000F021BC0298B0F801000D284BD1FFE710
:105950000298B0F80B000199A1F83D000298B0F848
:1059600009000199A1F83B000298C27C019991F8C5
:10597000450002F0020200F0FD00104481F84500ED
:105980000298C07C00F00102019991F8450000F0F6
:10599000FE00104481F845000298C27C019991F8FC
:1059A000450002F0040200F0FB00104481F84500BD
:1059B0000298C079019981F839000298007A01991A
:1059C00081F83A000298007A0199A1F84100029802
:1059D000007A0199A1F83F000298B0F811000199EE
:1059E000A1F84300FFE7CEE30298B0F801001028C9
:1059F0002BD1FFE70298B0F80F000199A1F84E00F3
:105A00000298B0F809000199A1F848000298D0F86E
:105A10000B000199C1F84A000298B0F807000199FB
:105A2000A1F846000298B0F811000199A1F85000C1
:105A30000298B0F813000199A1F852000298B0F84A
:105A400015000199A1F85400FFE79CE30298B0F813
:105A500001000C2813D1FFE70298D0F80F0001993C
:105A6000C1F85E000298D0F807000199C1F856000D
:105A70000298D0F80B000199C1F85A00FFE782E3C1
:105A80000298B0F80100052815D1FFE70298408977
:105A90000199A1F865000298007A019981F86300E4
:105AA0000298407A019981F864000298C0790199BE
:105AB00081F86200FFE766E30298B0F8010002286F
:105AC0000BD1FFE70298C079019981F8670002982D
:105AD000007A019981F86800FFE754E30298B0F872
